{"contracts/ethereum/GatewayContract.sol":{"RecoveryContractZkProof":{"abi":[{"inputs":[{"internalType":"address","name":"_recipient","type":"address"},{"internalType":"uint256","name":"_minBlocks","type":"uint256"},{"internalType":"address","name":"_gatewayContract","type":"address"},{"internalType":"address","name":"_EOA","type":"address"},{"internalType":"uint256","name":"_hashedPassword","type":"uint256"}],"stateMutability":"nonpayable","type":"constructor"},{"anonymous":false,"inputs":[{"indexed":false,"internalType":"address","name":"contractAddress","type":"address"},{"indexed":false,"internalType":"address","name":"recipient","type":"address"},{"indexed":false,"internalType":"uint256","name":"activationTime","type":"uint256"}],"name":"ActiveRecovery","type":"event"},{"inputs":[],"name":"EOA","outputs":[{"internalType":"address","name":"","type":"address"}],"stateMutability":"view","type":"function"},{"inputs":[{"internalType":"uint256","name":"blocks","type":"uint256"},{"internalType":"bytes","name":"proof","type":"bytes"},{"internalType":"address","name":"_recipient","type":"address"}],"name":"activateRecovery","outputs":[],"stateMutability":"nonpayable","type":"function"},{"inputs":[{"internalType":"uint256","name":"blocks","type":"uint256"}],"name":"activateRecovery","outputs":[],"stateMutability":"nonpayable","type":"function"},{"inputs":[{"internalType":"address[]","name":"erc20contracts","type":"address[]"},{"internalType":"address","name":"to","type":"address"}],"name":"claimAssets","outputs":[],"stateMutability":"nonpayable","type":"function"},{"inputs":[],"name":"gatewayContract","outputs":[{"internalType":"address","name":"","type":"address"}],"stateMutability":"view","type":"function"},{"inputs":[],"name":"hashedPassword","outputs":[{"internalType":"uint256","name":"","type":"uint256"}],"stateMutability":"view","type":"function"},{"inputs":[],"name":"isActive","outputs":[{"internalType":"bool","name":"","type":"bool"}],"stateMutability":"view","type":"function"},{"inputs":[],"name":"isTerminated","outputs":[{"internalType":"bool","name":"","type":"bool"}],"stateMutability":"view","type":"function"},{"inputs":[],"name":"minBlocks","outputs":[{"internalType":"uint256","name":"","type":"uint256"}],"stateMutability":"view","type":"function"},{"inputs":[],"name":"recipient","outputs":[{"internalType":"address","name":"","type":"address"}],"stateMutability":"view","type":"function"},{"inputs":[],"name":"terminateRecoveryContract","outputs":[],"stateMutability":"nonpayable","type":"function"},{"inputs":[{"internalType":"bytes","name":"proof","type":"bytes"},{"internalType":"uint256[]","name":"pubSignals","type":"uint256[]"}],"name":"verifyProof","outputs":[{"internalType":"bool","name":"","type":"bool"}],"stateMutability":"view","type":"function"},{"inputs":[{"internalType":"bytes","name":"proof","type":"bytes"},{"internalType":"address","name":"_recipient","type":"address"}],"name":"verifyZkProof","outputs":[{"internalType":"bool","name":"isValid","type":"bool"}],"stateMutability":"view","type":"function"}],"evm":{"bytecode":{"linkReferences":{},"object":"60806040523480156200001157600080fd5b50604051620036bb380380620036bb8339818101604052810190620000379190620001bf565b84848484836000806101000a81548173ffffffffffffffffffffffffffffffffffffffff021916908373ffffffffffffffffffffffffffffffffffffffff16021790555080600160006101000a81548173ffffffffffffffffffffffffffffffffffffffff021916908373ffffffffffffffffffffffffffffffffffffffff1602179055508260038190555081600260006101000a81548173ffffffffffffffffffffffffffffffffffffffff021916908373ffffffffffffffffffffffffffffffffffffffff1602179055505050505080600581905550505050505062000247565b600080fd5b600073ffffffffffffffffffffffffffffffffffffffff82169050919050565b60006200014c826200011f565b9050919050565b6200015e816200013f565b81146200016a57600080fd5b50565b6000815190506200017e8162000153565b92915050565b6000819050919050565b620001998162000184565b8114620001a557600080fd5b50565b600081519050620001b9816200018e565b92915050565b600080600080600060a08688031215620001de57620001dd6200011a565b5b6000620001ee888289016200016d565b95505060206200020188828901620001a8565b945050604062000214888289016200016d565b935050606062000227888289016200016d565b92505060806200023a88828901620001a8565b9150509295509295909350565b61346480620002576000396000f3fe608060405234801561001057600080fd5b50600436106100cf5760003560e01c80637d7be5a91161008c578063e524979c11610066578063e524979c14610202578063eb0cde1d1461020c578063f36457db1461022a578063ff21d1e514610246576100cf565b80637d7be5a9146101965780637dc5186f146101c6578063d1cc9976146101e4576100cf565b80631e8e1e13146100d457806322f3e2d414610104578063457ceb2814610122578063477ff0091461014057806366d003ac1461015c5780636af39aa31461017a575b600080fd5b6100ee60048036038101906100e99190612a47565b610264565b6040516100fb9190612ada565b60405180910390f35b61010c611d8e565b6040516101199190612ada565b60405180910390f35b61012a611da1565b6040516101379190612b04565b60405180910390f35b61015a60048036038101906101559190612bd8565b611da7565b005b610164612054565b6040516101719190612c5b565b60405180910390f35b610194600480360381019061018f9190612c76565b612078565b005b6101b060048036038101906101ab9190612ca3565b612266565b6040516101bd9190612ada565b60405180910390f35b6101ce6123e7565b6040516101db9190612c5b565b60405180910390f35b6101ec61240d565b6040516101f99190612ada565b60405180910390f35b61020a612420565b005b6102146124cd565b6040516102219190612c5b565b60405180910390f35b610244600480360381019061023f9190612d59565b6124f3565b005b61024e6127e9565b60405161025b9190612b04565b60405180910390f35b6000611d23565b600080600184846000805b82156102a05782840591508482028603905084955080945082820284039050829350809250610276565b60018411156102ae57600080fd5b60008612156102bd5788860195505b85965050505050505092915050565b60405181602084028301815160208301925060005b82841015610324578185527f30644e72e131a029b85045b68181585d2833e84879b9709143e1f593f00000018451830991506020850194506020840193506102e1565b61034e7f30644e72e131a029b85045b68181585d2833e84879b9709143e1f593f00000018361026b565b91506020850394506020840393508592505b828411156103ca577f30644e72e131a029b85045b68181585d2833e84879b9709143e1f593f00000018551830990507f30644e72e131a029b85045b68181585d2833e84879b9709143e1f593f0000001845183099150808452602085039450602084039350610360565b81845250505050505050565b7f30644e72e131a029b85045b68181585d2833e84879b9709143e1f593f00000018110610407576000805260206000f35b50565b61032081511461041e576000805260206000f35b61042c6102608201516103d6565b61043a6102808201516103d6565b6104486102a08201516103d6565b6104566102c08201516103d6565b6104646102e08201516103d6565b6104726103008201516103d6565b6104806103208201516103d6565b50565b60008060208501516102e085015260408501516103008501526020830151610320850152602080018301516103408501526040602001830151610360850152606060200183015161038085015260806020018301516103a085015260a06020018301516103c08501527f30644e72e131a029b85045b68181585d2833e84879b9709143e1f593f00000016101006102e08601200690508060208501527f30644e72e131a029b85045b68181585d2833e84879b9709143e1f593f00000016020808601200660408501527f30644e72e131a029b85045b68181585d2833e84879b9709143e1f593f0000001604060e08501200660008501527f30644e72e131a029b85045b68181585d2833e84879b9709143e1f593f000000160c06101208501200691508160608501527f30644e72e131a029b85045b68181585d2833e84879b9709143e1f593f000000182820960a08501527f30644e72e131a029b85045b68181585d2833e84879b9709143e1f593f000000182830991507f30644e72e131a029b85045b68181585d2833e84879b9709143e1f593f000000182830991507f30644e72e131a029b85045b68181585d2833e84879b9709143e1f593f000000182830991507f30644e72e131a029b85045b68181585d2833e84879b9709143e1f593f000000182830991507f30644e72e131a029b85045b68181585d2833e84879b9709143e1f593f000000182830991507f30644e72e131a029b85045b68181585d2833e84879b9709143e1f593f000000182830991507f30644e72e131a029b85045b68181585d2833e84879b9709143e1f593f000000182830991507f30644e72e131a029b85045b68181585d2833e84879b9709143e1f593f000000182830991507f30644e72e131a029b85045b68181585d2833e84879b9709143e1f593f000000182830991507f30644e72e131a029b85045b68181585d2833e84879b9709143e1f593f000000182830991507f30644e72e131a029b85045b68181585d2833e84879b9709143e1f593f000000182830991507f30644e72e131a029b85045b68181585d2833e84879b9709143e1f593f000000182830991508160808501527f30644e72e131a029b85045b68181585d2833e84879b9709143e1f593f000000180600184030106915081610260850152816102808501527f30644e72e131a029b85045b68181585d2833e84879b9709143e1f593f000000160e0610260850120068060c08601527f30644e72e131a029b85045b68181585d2833e84879b9709143e1f593f000000181820992508260e08601527f30644e72e131a029b85045b68181585d2833e84879b9709143e1f593f00000018184099250826101008601527f30644e72e131a029b85045b68181585d2833e84879b9709143e1f593f00000018184099250826101208601527f30644e72e131a029b85045b68181585d2833e84879b9709143e1f593f00000018184099250826101408601527f30644e72e131a029b85045b68181585d2833e84879b9709143e1f593f00000018184099250826101608601527f30644e72e131a029b85045b68181585d2833e84879b9709143e1f593f000000160806101e086012006610180860152505050505050565b60017f30644e72e131a029b85045b68181585d2833e84879b9709143e1f593f0000001807f30644e72e131a029b85045b68181585d2833e84879b9709143e1f593f0000001836060860151030106611000096102a08301527f30644e72e131a029b85045b68181585d2833e84879b9709143e1f593f00000017f0931d596de2fd10f01ddd073fd5a90a976f169c76f039bb91c4775720042d43a820990507f30644e72e131a029b85045b68181585d2833e84879b9709143e1f593f0000001807f30644e72e131a029b85045b68181585d2833e84879b9709143e1f593f0000001836060860151030106611000096102c0830152610a26600361028084016102cc565b610260820151600191507f30644e72e131a029b85045b68181585d2833e84879b9709143e1f593f0000001816102a0850151096102a08401527f30644e72e131a029b85045b68181585d2833e84879b9709143e1f593f00000017f0931d596de2fd10f01ddd073fd5a90a976f169c76f039bb91c4775720042d43a830991507f30644e72e131a029b85045b68181585d2833e84879b9709143e1f593f000000180826102c08601510983096102c0840152505050565b60007f30644e72e131a029b85045b68181585d2833e84879b9709143e1f593f0000001807f30644e72e131a029b85045b68181585d2833e84879b9709143e1f593f000000160208601516102a0860151098303010690507f30644e72e131a029b85045b68181585d2833e84879b9709143e1f593f0000001807f30644e72e131a029b85045b68181585d2833e84879b9709143e1f593f000000160408601516102c086015109830301069050806101a0830152505050565b60008060007f30644e72e131a029b85045b68181585d2833e84879b9709143e1f593f00000016101a08601516103208601510892507f30644e72e131a029b85045b68181585d2833e84879b9709143e1f593f000000160208601516102c08601510991507f30644e72e131a029b85045b68181585d2833e84879b9709143e1f593f0000001610260850151830891507f30644e72e131a029b85045b68181585d2833e84879b9709143e1f593f00000016040860151830891507f30644e72e131a029b85045b68181585d2833e84879b9709143e1f593f000000160208601516102e08601510990507f30644e72e131a029b85045b68181585d2833e84879b9709143e1f593f0000001610280850151820890507f30644e72e131a029b85045b68181585d2833e84879b9709143e1f593f00000016040860151820890507f30644e72e131a029b85045b68181585d2833e84879b9709143e1f593f000000181830991507f30644e72e131a029b85045b68181585d2833e84879b9709143e1f593f000000160408601516102a08601510890507f30644e72e131a029b85045b68181585d2833e84879b9709143e1f593f000000181830991507f30644e72e131a029b85045b68181585d2833e84879b9709143e1f593f0000001610300850151830991507f30644e72e131a029b85045b68181585d2833e84879b9709143e1f593f00000016000860151830991507f30644e72e131a029b85045b68181585d2833e84879b9709143e1f593f000000160008601516102a08701510990507f30644e72e131a029b85045b68181585d2833e84879b9709143e1f593f00000016000860151820990507f30644e72e131a029b85045b68181585d2833e84879b9709143e1f593f000000181830891507f30644e72e131a029b85045b68181585d2833e84879b9709143e1f593f0000001827f30644e72e131a029b85045b68181585d2833e84879b9709143e1f593f00000018501030692507f30644e72e131a029b85045b68181585d2833e84879b9709143e1f593f000000161028086015184099250826101c08601525050505050565b81518152602082015160208201525050565b6040518151815260208201516020820152825160408201526020830151606082015260408260808360066107d05a03fa80610ef3576000805260206000f35b50505050565b6000604051835181526020840151602082015284604082015260408160608360076107d05a03fa915081610f31576000805260206000f35b825160408201526020830151606082015260408360808360066107d05a03fa915081610f61576000805260206000f35b5050505050565b600060405183815284602082015285604082015260408160608360076107d05a03fa915081610f9b576000805260206000f35b825160408201526020830151606082015260408360808360066107d05a03fa915081610fcb576000805260206000f35b505050505050565b600060405183815284602082015285604082015260408360608360076107d05a03fa915081611006576000805260206000f35b505050505050565b6101e082016110216101e0830182610ea2565b611035610180840151610220840183610ef9565b505050565b60008061022084017f30644e72e131a029b85045b68181585d2833e84879b9709143e1f593f000000160c08601516102608601510992506110bd837f2eb67c0ca20735dd9728a7dd7bab037c0f3ef5ec3cb09a40ffd6dc72b3f2b0cb7f1cf4b31736d4c025d29d0683622a4eb8234f62b7140d7b1b1c45cf1d5251896c84610fd3565b7f30644e72e131a029b85045b68181585d2833e84879b9709143e1f593f000000161028085015184099250611134837f2af3a314ddbf93a88a6a450430d5528e2d33cde0a8f21622692115a8667e8e457f2a2057ca32341b223996128794d51936a29d35a28876903933a07d09004e659784610f68565b7f30644e72e131a029b85045b68181585d2833e84879b9709143e1f593f000000160c08601516102808601510992506111af837f2bb3c6f9aeea2252ff4a3691ea4129d5bebcaae30a8141cbf0b784673d4265177f2edca24b060dbb91b31b0f920740b8c112fdd5c5d95b9df7657afc337811b33a84610f68565b7f30644e72e131a029b85045b68181585d2833e84879b9709143e1f593f000000160c08601516102a086015109925061122a837f28d73857830aed4f942d4cb6ff6349b1c4c246200e813d9d3144ed12ce6574157f23847c7c97656804415fa84053faeaa1222ad9610e187214219177de0ccf44f584610f68565b60c0850151925061127d837f2f666ac08dff772c72e8412abb33c600290d691fd25cbe449743040e8256a3d87f14b527b8f772f3926e0c9690254b0866981d5097dbcbc2b466b953d00ce6a9d284610f68565b7f30644e72e131a029b85045b68181585d2833e84879b9709143e1f593f000000160a08601516102608601510892507f30644e72e131a029b85045b68181585d2833e84879b9709143e1f593f00000016040860151840892507f30644e72e131a029b85045b68181585d2833e84879b9709143e1f593f000000160a086015160020991507f30644e72e131a029b85045b68181585d2833e84879b9709143e1f593f0000001610280850151830891507f30644e72e131a029b85045b68181585d2833e84879b9709143e1f593f00000016040860151830891507f30644e72e131a029b85045b68181585d2833e84879b9709143e1f593f000000182840992507f30644e72e131a029b85045b68181585d2833e84879b9709143e1f593f000000160a086015160030991507f30644e72e131a029b85045b68181585d2833e84879b9709143e1f593f00000016102a0850151830891507f30644e72e131a029b85045b68181585d2833e84879b9709143e1f593f00000016040860151830891507f30644e72e131a029b85045b68181585d2833e84879b9709143e1f593f000000182840992507f30644e72e131a029b85045b68181585d2833e84879b9709143e1f593f00000016000860151840992507f30644e72e131a029b85045b68181585d2833e84879b9709143e1f593f000000160c0860151840992507f30644e72e131a029b85045b68181585d2833e84879b9709143e1f593f000000160008601516102a08701510991507f30644e72e131a029b85045b68181585d2833e84879b9709143e1f593f00000016000860151830991507f30644e72e131a029b85045b68181585d2833e84879b9709143e1f593f000000160c0860151830991507f30644e72e131a029b85045b68181585d2833e84879b9709143e1f593f000000182840892507f30644e72e131a029b85045b68181585d2833e84879b9709143e1f593f0000001610180860151840892506115588360e0860183610ef9565b7f30644e72e131a029b85045b68181585d2833e84879b9709143e1f593f00000016102c085015160208701510992507f30644e72e131a029b85045b68181585d2833e84879b9709143e1f593f0000001610260850151840892507f30644e72e131a029b85045b68181585d2833e84879b9709143e1f593f00000016040860151840892507f30644e72e131a029b85045b68181585d2833e84879b9709143e1f593f00000016102e085015160208701510991507f30644e72e131a029b85045b68181585d2833e84879b9709143e1f593f0000001610280850151830891507f30644e72e131a029b85045b68181585d2833e84879b9709143e1f593f00000016040860151830891507f30644e72e131a029b85045b68181585d2833e84879b9709143e1f593f000000182840992507f30644e72e131a029b85045b68181585d2833e84879b9709143e1f593f00000016000860151840992507f30644e72e131a029b85045b68181585d2833e84879b9709143e1f593f000000160c0860151840992507f30644e72e131a029b85045b68181585d2833e84879b9709143e1f593f00000016020860151840992507f30644e72e131a029b85045b68181585d2833e84879b9709143e1f593f0000001610300850151840992507f30644e72e131a029b85045b68181585d2833e84879b9709143e1f593f0000001837f30644e72e131a029b85045b68181585d2833e84879b9709143e1f593f0000001030692506117c2837f156ef9e504c058d1a6609cf2d8bc7c7147e7d13610ec904aab2247a1e765b99a7f176b7a29cff0ef08e09d2c72a5db37a015d3914a738a302b24fe643f8cacdc3f84610f68565b6117d0610120850182610eb4565b608085015192506117e683610160860183610ef9565b7f30644e72e131a029b85045b68181585d2833e84879b9709143e1f593f0000001838409925061181b836101a0860183610ef9565b61182d60e08601516020860183610ef9565b6118406101008601516060860183610ef9565b61185361012086015160a0860183610ef9565b6118a46101408601517f173bdb25d94f66dd9586499787046f1052127b95b108c7a4d7beee6ac7e4593f7f04b85ee2b6af218577d8a2e56ab4dc054287e444b90fd652bc24f7046366e8a984610f68565b6118f56101608601517f2e86ff0322609f7543013d57e50324e6f3a4f6a5542a15d9f788ff53623758b77f1532f5d43291ffaa96f15c0640dafc17842db2b8c602b94d2dcaac0418524e6e84610f68565b6101c085015192507f30644e72e131a029b85045b68181585d2833e84879b9709143e1f593f00000018060c087015161032087015109840892507f30644e72e131a029b85045b68181585d2833e84879b9709143e1f593f00000018060e087015161026087015109840892507f30644e72e131a029b85045b68181585d2833e84879b9709143e1f593f00000018061010087015161028087015109840892507f30644e72e131a029b85045b68181585d2833e84879b9709143e1f593f0000001806101208701516102a087015109840892507f30644e72e131a029b85045b68181585d2833e84879b9709143e1f593f0000001806101408701516102c087015109840892507f30644e72e131a029b85045b68181585d2833e84879b9709143e1f593f0000001806101608701516102e087015109840892507f30644e72e131a029b85045b68181585d2833e84879b9709143e1f593f00000018061018087015161030087015109840892507f30644e72e131a029b85045b68181585d2833e84879b9709143e1f593f0000001837f30644e72e131a029b85045b68181585d2833e84879b9709143e1f593f000000103069250611ab5836002600184610f68565b60608501519250611acb836101e0860183610ef9565b7f30644e72e131a029b85045b68181585d2833e84879b9709143e1f593f000000160608601516101808701510992507f30644e72e131a029b85045b68181585d2833e84879b9709143e1f593f00000017f0931d596de2fd10f01ddd073fd5a90a976f169c76f039bb91c4775720042d43a84099250611b4f83610220860183610ef9565b5050505050565b60006040516101e0830151815260206101e08401015160208201527f26186a2d65ee4d2f9c9a5b91f86597d35f192cd120caf7e935d8443d1938e23d60408201527f30441fd1b5d3370482c42152a8899027716989a6996c2535bc9f7fee8aaef79e60608201527f1970ea81dd6992adfbc571effb03503adbbb6a857f578403c6c40e22d65b3c0260808201527f054793348f12c0cf5622c340573cb277586319de359ab9389778f689786b1e4860a082015261022083015160c08201526020610220840101517f30644e72e131a029b85045b68181585d97816a916871ca8d3c208c16d87cfd47817f30644e72e131a029b85045b68181585d97816a916871ca8d3c208c16d87cfd47030690508060e08301527f198e9393920d483a7260bfb731fb5d25f1aa493335a9e71297e485b7aef312c26101008301527f1800deef121f1e76426a00665e5c4479674322d4f75edadd46debd5cd992f6ed6101208301527f090689d0585ff075ec9e99ad690c3395bc4b313370b38ef355acdadcd122975b6101408301527f12c85ea5db8c6deb4aab71808dcb408fe3d1e7690c43d37b4ce6cc0166fa7daa6101608301526020826101808460086107d05a03fa825181169350505050919050565b6040516102e08101604052611d378461040a565b611d42838286610483565b611d4b81610923565b611d558382610adc565b611d5f8185610b94565b611d69818561100e565b611d73818561103a565b611d7c81611b56565b6102e082036040528060005260206000f35b600460009054906101000a900460ff1681565b60055481565b600260009054906101000a900473ffffffffffffffffffffffffffffffffffffffff1673ffffffffffffffffffffffffffffffffffffffff163373ffffffffffffffffffffffffffffffffffffffff1614611e37576040517f08c379a0000000000000000000000000000000000000000000000000000000008152600401611e2e90612e16565b60405180910390fd5b600073ffffffffffffffffffffffffffffffffffffffff168173ffffffffffffffffffffffffffffffffffffffff161415611ea7576040517f08c379a0000000000000000000000000000000000000000000000000000000008152600401611e9e90612e82565b60405180910390fd5b600460009054906101000a900460ff1615611ef7576040517f08c379a0000000000000000000000000000000000000000000000000000000008152600401611eee90612eee565b60405180910390fd5b600460019054906101000a900460ff1615611f47576040517f08c379a0000000000000000000000000000000000000000000000000000000008152600401611f3e90612f5a565b60405180910390fd5b600354841015611f8c576040517f08c379a0000000000000000000000000000000000000000000000000000000008152600401611f8390612fc6565b60405180910390fd5b611f97838383612266565b50806000806101000a81548173ffffffffffffffffffffffffffffffffffffffff021916908373ffffffffffffffffffffffffffffffffffffffff1602179055506001600460006101000a81548160ff0219169083151502179055507f8c0f791a552520d7b652c7f008af155a562ee6e9ce409bf539fbe0c18eef91603060008054906101000a900473ffffffffffffffffffffffffffffffffffffffff164260405161204693929190612fe6565b60405180910390a150505050565b60008054906101000a900473ffffffffffffffffffffffffffffffffffffffff1681565b600260009054906101000a900473ffffffffffffffffffffffffffffffffffffffff1673ffffffffffffffffffffffffffffffffffffffff163373ffffffffffffffffffffffffffffffffffffffff1614612108576040517f08c379a00000000000000000000000000000000000000000000000000000000081526004016120ff90612e16565b60405180910390fd5b600460009054906101000a900460ff1615612158576040517f08c379a000000000000000000000000000000000000000000000000000000000815260040161214f90612eee565b60405180910390fd5b600460019054906101000a900460ff16156121a8576040517f08c379a000000000000000000000000000000000000000000000000000000000815260040161219f90612f5a565b60405180910390fd5b6003548110156121ed576040517f08c379a00000000000000000000000000000000000000000000000000000000081526004016121e490612fc6565b60405180910390fd5b6001600460006101000a81548160ff0219169083151502179055507f8c0f791a552520d7b652c7f008af155a562ee6e9ce409bf539fbe0c18eef91603060008054906101000a900473ffffffffffffffffffffffffffffffffffffffff164260405161225b93929190612fe6565b60405180910390a150565b600080600267ffffffffffffffff8111156122845761228361281e565b5b6040519080825280602002602001820160405280156122b25781602001602082028036833780820191505090505b509050600554816000815181106122cc576122cb61301d565b5b6020026020010181815250508273ffffffffffffffffffffffffffffffffffffffff16816001815181106123035761230261301d565b5b6020026020010181815250503073ffffffffffffffffffffffffffffffffffffffff16631e8e1e138686846040518463ffffffff1660e01b815260040161234c93929190613148565b60206040518083038186803b15801561236457600080fd5b505afa158015612378573d6000803e3d6000fd5b505050506040513d601f19601f8201168201806040525081019061239c91906131ad565b6123db576040517f08c379a00000000000000000000000000000000000000000000000000000000081526004016123d290613226565b60405180910390fd5b60019150509392505050565b600160009054906101000a900473ffffffffffffffffffffffffffffffffffffffff1681565b600460019054906101000a900460ff1681565b600260009054906101000a900473ffffffffffffffffffffffffffffffffffffffff1673ffffffffffffffffffffffffffffffffffffffff163373ffffffffffffffffffffffffffffffffffffffff16146124b0576040517f08c379a00000000000000000000000000000000000000000000000000000000081526004016124a790612e16565b60405180910390fd5b6001600460016101000a81548160ff021916908315150217905550565b600260009054906101000a900473ffffffffffffffffffffffffffffffffffffffff1681565b60008054906101000a900473ffffffffffffffffffffffffffffffffffffffff1673ffffffffffffffffffffffffffffffffffffffff163373ffffffffffffffffffffffffffffffffffffffff1614612581576040517f08c379a000000000000000000000000000000000000000000000000000000000815260040161257890613292565b60405180910390fd5b60011515600460009054906101000a900460ff161515146125d7576040517f08c379a00000000000000000000000000000000000000000000000000000000081526004016125ce906132fe565b60405180910390fd5b600460019054906101000a900460ff1615612627576040517f08c379a000000000000000000000000000000000000000000000000000000000815260040161261e90612f5a565b60405180910390fd5b60005b838390508110156127e357600084848381811061264a5761264961301d565b5b905060200201602081019061265f919061331e565b905060008173ffffffffffffffffffffffffffffffffffffffff1663dd62ed3e600160009054906101000a900473ffffffffffffffffffffffffffffffffffffffff16306040518363ffffffff1660e01b81526004016126c092919061334b565b60206040518083038186803b1580156126d857600080fd5b505afa1580156126ec573d6000803e3d6000fd5b505050506040513d601f19601f820116820180604052508101906127109190613389565b905060008111156127ce578173ffffffffffffffffffffffffffffffffffffffff166323b872dd600160009054906101000a900473ffffffffffffffffffffffffffffffffffffffff1686846040518463ffffffff1660e01b815260040161277a93929190612fe6565b602060405180830381600087803b15801561279457600080fd5b505af11580156127a8573d6000803e3d6000fd5b505050506040513d601f19601f820116820180604052508101906127cc91906131ad565b505b505080806127db906133e5565b91505061262a565b50505050565b60035481565b6000604051905090565b600080fd5b600080fd5b600080fd5b600080fd5b6000601f19601f8301169050919050565b7f4e487b7100000000000000000000000000000000000000000000000000000000600052604160045260246000fd5b6128568261280d565b810181811067ffffffffffffffff821117156128755761287461281e565b5b80604052505050565b60006128886127ef565b9050612894828261284d565b919050565b600067ffffffffffffffff8211156128b4576128b361281e565b5b6128bd8261280d565b9050602081019050919050565b82818337600083830152505050565b60006128ec6128e784612899565b61287e565b90508281526020810184848401111561290857612907612808565b5b6129138482856128ca565b509392505050565b600082601f8301126129305761292f612803565b5b81356129408482602086016128d9565b91505092915050565b600067ffffffffffffffff8211156129645761296361281e565b5b602082029050602081019050919050565b600080fd5b6000819050919050565b61298d8161297a565b811461299857600080fd5b50565b6000813590506129aa81612984565b92915050565b60006129c36129be84612949565b61287e565b905080838252602082019050602084028301858111156129e6576129e5612975565b5b835b81811015612a0f57806129fb888261299b565b8452602084019350506020810190506129e8565b5050509392505050565b600082601f830112612a2e57612a2d612803565b5b8135612a3e8482602086016129b0565b91505092915050565b60008060408385031215612a5e57612a5d6127f9565b5b600083013567ffffffffffffffff811115612a7c57612a7b6127fe565b5b612a888582860161291b565b925050602083013567ffffffffffffffff811115612aa957612aa86127fe565b5b612ab585828601612a19565b9150509250929050565b60008115159050919050565b612ad481612abf565b82525050565b6000602082019050612aef6000830184612acb565b92915050565b612afe8161297a565b82525050565b6000602082019050612b196000830184612af5565b92915050565b600080fd5b60008083601f840112612b3a57612b39612803565b5b8235905067ffffffffffffffff811115612b5757612b56612b1f565b5b602083019150836001820283011115612b7357612b72612975565b5b9250929050565b600073ffffffffffffffffffffffffffffffffffffffff82169050919050565b6000612ba582612b7a565b9050919050565b612bb581612b9a565b8114612bc057600080fd5b50565b600081359050612bd281612bac565b92915050565b60008060008060608587031215612bf257612bf16127f9565b5b6000612c008782880161299b565b945050602085013567ffffffffffffffff811115612c2157612c206127fe565b5b612c2d87828801612b24565b93509350506040612c4087828801612bc3565b91505092959194509250565b612c5581612b9a565b82525050565b6000602082019050612c706000830184612c4c565b92915050565b600060208284031215612c8c57612c8b6127f9565b5b6000612c9a8482850161299b565b91505092915050565b600080600060408486031215612cbc57612cbb6127f9565b5b600084013567ffffffffffffffff811115612cda57612cd96127fe565b5b612ce686828701612b24565b93509350506020612cf986828701612bc3565b9150509250925092565b60008083601f840112612d1957612d18612803565b5b8235905067ffffffffffffffff811115612d3657612d35612b1f565b5b602083019150836020820283011115612d5257612d51612975565b5b9250929050565b600080600060408486031215612d7257612d716127f9565b5b600084013567ffffffffffffffff811115612d9057612d8f6127fe565b5b612d9c86828701612d03565b93509350506020612daf86828701612bc3565b9150509250925092565b600082825260208201905092915050565b7f4e6f742067617465776179000000000000000000000000000000000000000000600082015250565b6000612e00600b83612db9565b9150612e0b82612dca565b602082019050919050565b60006020820190508181036000830152612e2f81612df3565b9050919050565b7f4e756c6c20616464726573730000000000000000000000000000000000000000600082015250565b6000612e6c600c83612db9565b9150612e7782612e36565b602082019050919050565b60006020820190508181036000830152612e9b81612e5f565b9050919050565b7f416c726561647920616374697665000000000000000000000000000000000000600082015250565b6000612ed8600e83612db9565b9150612ee382612ea2565b602082019050919050565b60006020820190508181036000830152612f0781612ecb565b9050919050565b7f416c7265616479207465726d696e617465640000000000000000000000000000600082015250565b6000612f44601283612db9565b9150612f4f82612f0e565b602082019050919050565b60006020820190508181036000830152612f7381612f37565b9050919050565b7f496e616374697669747920746f6f2073686f7274000000000000000000000000600082015250565b6000612fb0601483612db9565b9150612fbb82612f7a565b602082019050919050565b60006020820190508181036000830152612fdf81612fa3565b9050919050565b6000606082019050612ffb6000830186612c4c565b6130086020830185612c4c565b6130156040830184612af5565b949350505050565b7f4e487b7100000000000000000000000000000000000000000000000000000000600052603260045260246000fd5b600082825260208201905092915050565b6000613069838561304c565b93506130768385846128ca565b61307f8361280d565b840190509392505050565b600081519050919050565b600082825260208201905092915050565b6000819050602082019050919050565b6130bf8161297a565b82525050565b60006130d183836130b6565b60208301905092915050565b6000602082019050919050565b60006130f58261308a565b6130ff8185613095565b935061310a836130a6565b8060005b8381101561313b57815161312288826130c5565b975061312d836130dd565b92505060018101905061310e565b5085935050505092915050565b6000604082019050818103600083015261316381858761305d565b9050818103602083015261317781846130ea565b9050949350505050565b61318a81612abf565b811461319557600080fd5b50565b6000815190506131a781613181565b92915050565b6000602082840312156131c3576131c26127f9565b5b60006131d184828501613198565b91505092915050565b7f50726f6f6620766572696669636174696f6e206661696c656400000000000000600082015250565b6000613210601983612db9565b915061321b826131da565b602082019050919050565b6000602082019050818103600083015261323f81613203565b9050919050565b7f4f6e6c7920726563697069656e74000000000000000000000000000000000000600082015250565b600061327c600e83612db9565b915061328782613246565b602082019050919050565b600060208201905081810360008301526132ab8161326f565b9050919050565b7f4e6f742061637469766500000000000000000000000000000000000000000000600082015250565b60006132e8600a83612db9565b91506132f3826132b2565b602082019050919050565b60006020820190508181036000830152613317816132db565b9050919050565b600060208284031215613334576133336127f9565b5b600061334284828501612bc3565b91505092915050565b60006040820190506133606000830185612c4c565b61336d6020830184612c4c565b9392505050565b60008151905061338381612984565b92915050565b60006020828403121561339f5761339e6127f9565b5b60006133ad84828501613374565b91505092915050565b7f4e487b7100000000000000000000000000000000000000000000000000000000600052601160045260246000fd5b60006133f08261297a565b91507fffffffffffffffffffffffffffffffffffffffffffffffffffffffffffffffff821415613423576134226133b6565b5b60018201905091905056fea2646970667358221220a173ddc048b7bc5a518ae6eb18d00421bcd4eb8a59a9e68dcc8b57fb24a37e0364736f6c63430008090033","opcodes":"PUSH1 0x80 PUSH1 0x40 MSTORE CALLVALUE DUP1 ISZERO PUSH3 0x11 JUMPI PUSH1 0x0 DUP1 REVERT JUMPDEST POP PUSH1 0x40 MLOAD PUSH3 0x36BB CODESIZE SUB DUP1 PUSH3 0x36BB DUP4 CODECOPY DUP2 DUP2 ADD PUSH1 0x40 MSTORE DUP2 ADD SWAP1 PUSH3 0x37 SWAP2 SWAP1 PUSH3 0x1BF JUMP JUMPDEST DUP5 DUP5 DUP5 DUP5 DUP4 PUSH1 0x0 DUP1 PUSH2 0x100 EXP DUP2 SLOAD DUP2 PUSH20 0xFFFFFFFFFFFFFFFFFFFFFFFFFFFFFFFFFFFFFFFF MUL NOT AND SWAP1 DUP4 PUSH20 0xFFFFFFFFFFFFFFFFFFFFFFFFFFFFFFFFFFFFFFFF AND MUL OR SWAP1 SSTORE POP DUP1 PUSH1 0x1 PUSH1 0x0 PUSH2 0x100 EXP DUP2 SLOAD DUP2 PUSH20 0xFFFFFFFFFFFFFFFFFFFFFFFFFFFFFFFFFFFFFFFF MUL NOT AND SWAP1 DUP4 PUSH20 0xFFFFFFFFFFFFFFFFFFFFFFFFFFFFFFFFFFFFFFFF AND MUL OR SWAP1 SSTORE POP DUP3 PUSH1 0x3 DUP2 SWAP1 SSTORE POP DUP2 PUSH1 0x2 PUSH1 0x0 PUSH2 0x100 EXP DUP2 SLOAD DUP2 PUSH20 0xFFFFFFFFFFFFFFFFFFFFFFFFFFFFFFFFFFFFFFFF MUL NOT AND SWAP1 DUP4 PUSH20 0xFFFFFFFFFFFFFFFFFFFFFFFFFFFFFFFFFFFFFFFF AND MUL OR SWAP1 SSTORE POP POP POP POP POP DUP1 PUSH1 0x5 DUP2 SWAP1 SSTORE POP POP POP POP POP POP PUSH3 0x247 JUMP JUMPDEST PUSH1 0x0 DUP1 REVERT JUMPDEST PUSH1 0x0 PUSH20 0xFFFFFFFFFFFFFFFFFFFFFFFFFFFFFFFFFFFFFFFF DUP3 AND SWAP1 POP SWAP2 SWAP1 POP JUMP JUMPDEST PUSH1 0x0 PUSH3 0x14C DUP3 PUSH3 0x11F JUMP JUMPDEST SWAP1 POP SWAP2 SWAP1 POP JUMP JUMPDEST PUSH3 0x15E DUP2 PUSH3 0x13F JUMP JUMPDEST DUP2 EQ PUSH3 0x16A JUMPI PUSH1 0x0 DUP1 REVERT JUMPDEST POP JUMP JUMPDEST PUSH1 0x0 DUP2 MLOAD SWAP1 POP PUSH3 0x17E DUP2 PUSH3 0x153 JUMP JUMPDEST SWAP3 SWAP2 POP POP JUMP JUMPDEST PUSH1 0x0 DUP2 SWAP1 POP SWAP2 SWAP1 POP JUMP JUMPDEST PUSH3 0x199 DUP2 PUSH3 0x184 JUMP JUMPDEST DUP2 EQ PUSH3 0x1A5 JUMPI PUSH1 0x0 DUP1 REVERT JUMPDEST POP JUMP JUMPDEST PUSH1 0x0 DUP2 MLOAD SWAP1 POP PUSH3 0x1B9 DUP2 PUSH3 0x18E JUMP JUMPDEST SWAP3 SWAP2 POP POP JUMP JUMPDEST PUSH1 0x0 DUP1 PUSH1 0x0 DUP1 PUSH1 0x0 PUSH1 0xA0 DUP7 DUP9 SUB SLT ISZERO PUSH3 0x1DE JUMPI PUSH3 0x1DD PUSH3 0x11A JUMP JUMPDEST JUMPDEST PUSH1 0x0 PUSH3 0x1EE DUP9 DUP3 DUP10 ADD PUSH3 0x16D JUMP JUMPDEST SWAP6 POP POP PUSH1 0x20 PUSH3 0x201 DUP9 DUP3 DUP10 ADD PUSH3 0x1A8 JUMP JUMPDEST SWAP5 POP POP PUSH1 0x40 PUSH3 0x214 DUP9 DUP3 DUP10 ADD PUSH3 0x16D JUMP JUMPDEST SWAP4 POP POP PUSH1 0x60 PUSH3 0x227 DUP9 DUP3 DUP10 ADD PUSH3 0x16D JUMP JUMPDEST SWAP3 POP POP PUSH1 0x80 PUSH3 0x23A DUP9 DUP3 DUP10 ADD PUSH3 0x1A8 JUMP JUMPDEST SWAP2 POP POP SWAP3 SWAP6 POP SWAP3 SWAP6 SWAP1 SWAP4 POP JUMP JUMPDEST PUSH2 0x3464 DUP1 PUSH3 0x257 PUSH1 0x0 CODECOPY PUSH1 0x0 RETURN INVALID PUSH1 0x80 PUSH1 0x40 MSTORE CALLVALUE DUP1 ISZERO PUSH2 0x10 JUMPI PUSH1 0x0 DUP1 REVERT JUMPDEST POP PUSH1 0x4 CALLDATASIZE LT PUSH2 0xCF JUMPI PUSH1 0x0 CALLDATALOAD PUSH1 0xE0 SHR DUP1 PUSH4 0x7D7BE5A9 GT PUSH2 0x8C JUMPI DUP1 PUSH4 0xE524979C GT PUSH2 0x66 JUMPI DUP1 PUSH4 0xE524979C EQ PUSH2 0x202 JUMPI DUP1 PUSH4 0xEB0CDE1D EQ PUSH2 0x20C JUMPI DUP1 PUSH4 0xF36457DB EQ PUSH2 0x22A JUMPI DUP1 PUSH4 0xFF21D1E5 EQ PUSH2 0x246 JUMPI PUSH2 0xCF JUMP JUMPDEST DUP1 PUSH4 0x7D7BE5A9 EQ PUSH2 0x196 JUMPI DUP1 PUSH4 0x7DC5186F EQ PUSH2 0x1C6 JUMPI DUP1 PUSH4 0xD1CC9976 EQ PUSH2 0x1E4 JUMPI PUSH2 0xCF JUMP JUMPDEST DUP1 PUSH4 0x1E8E1E13 EQ PUSH2 0xD4 JUMPI DUP1 PUSH4 0x22F3E2D4 EQ PUSH2 0x104 JUMPI DUP1 PUSH4 0x457CEB28 EQ PUSH2 0x122 JUMPI DUP1 PUSH4 0x477FF009 EQ PUSH2 0x140 JUMPI DUP1 PUSH4 0x66D003AC EQ PUSH2 0x15C JUMPI DUP1 PUSH4 0x6AF39AA3 EQ PUSH2 0x17A JUMPI JUMPDEST PUSH1 0x0 DUP1 REVERT JUMPDEST PUSH2 0xEE PUSH1 0x4 DUP1 CALLDATASIZE SUB DUP2 ADD SWAP1 PUSH2 0xE9 SWAP2 SWAP1 PUSH2 0x2A47 JUMP JUMPDEST PUSH2 0x264 JUMP JUMPDEST PUSH1 0x40 MLOAD PUSH2 0xFB SWAP2 SWAP1 PUSH2 0x2ADA JUMP JUMPDEST PUSH1 0x40 MLOAD DUP1 SWAP2 SUB SWAP1 RETURN JUMPDEST PUSH2 0x10C PUSH2 0x1D8E JUMP JUMPDEST PUSH1 0x40 MLOAD PUSH2 0x119 SWAP2 SWAP1 PUSH2 0x2ADA JUMP JUMPDEST PUSH1 0x40 MLOAD DUP1 SWAP2 SUB SWAP1 RETURN JUMPDEST PUSH2 0x12A PUSH2 0x1DA1 JUMP JUMPDEST PUSH1 0x40 MLOAD PUSH2 0x137 SWAP2 SWAP1 PUSH2 0x2B04 JUMP JUMPDEST PUSH1 0x40 MLOAD DUP1 SWAP2 SUB SWAP1 RETURN JUMPDEST PUSH2 0x15A PUSH1 0x4 DUP1 CALLDATASIZE SUB DUP2 ADD SWAP1 PUSH2 0x155 SWAP2 SWAP1 PUSH2 0x2BD8 JUMP JUMPDEST PUSH2 0x1DA7 JUMP JUMPDEST STOP JUMPDEST PUSH2 0x164 PUSH2 0x2054 JUMP JUMPDEST PUSH1 0x40 MLOAD PUSH2 0x171 SWAP2 SWAP1 PUSH2 0x2C5B JUMP JUMPDEST PUSH1 0x40 MLOAD DUP1 SWAP2 SUB SWAP1 RETURN JUMPDEST PUSH2 0x194 PUSH1 0x4 DUP1 CALLDATASIZE SUB DUP2 ADD SWAP1 PUSH2 0x18F SWAP2 SWAP1 PUSH2 0x2C76 JUMP JUMPDEST PUSH2 0x2078 JUMP JUMPDEST STOP JUMPDEST PUSH2 0x1B0 PUSH1 0x4 DUP1 CALLDATASIZE SUB DUP2 ADD SWAP1 PUSH2 0x1AB SWAP2 SWAP1 PUSH2 0x2CA3 JUMP JUMPDEST PUSH2 0x2266 JUMP JUMPDEST PUSH1 0x40 MLOAD PUSH2 0x1BD SWAP2 SWAP1 PUSH2 0x2ADA JUMP JUMPDEST PUSH1 0x40 MLOAD DUP1 SWAP2 SUB SWAP1 RETURN JUMPDEST PUSH2 0x1CE PUSH2 0x23E7 JUMP JUMPDEST PUSH1 0x40 MLOAD PUSH2 0x1DB SWAP2 SWAP1 PUSH2 0x2C5B JUMP JUMPDEST PUSH1 0x40 MLOAD DUP1 SWAP2 SUB SWAP1 RETURN JUMPDEST PUSH2 0x1EC PUSH2 0x240D JUMP JUMPDEST PUSH1 0x40 MLOAD PUSH2 0x1F9 SWAP2 SWAP1 PUSH2 0x2ADA JUMP JUMPDEST PUSH1 0x40 MLOAD DUP1 SWAP2 SUB SWAP1 RETURN JUMPDEST PUSH2 0x20A PUSH2 0x2420 JUMP JUMPDEST STOP JUMPDEST PUSH2 0x214 PUSH2 0x24CD JUMP JUMPDEST PUSH1 0x40 MLOAD PUSH2 0x221 SWAP2 SWAP1 PUSH2 0x2C5B JUMP JUMPDEST PUSH1 0x40 MLOAD DUP1 SWAP2 SUB SWAP1 RETURN JUMPDEST PUSH2 0x244 PUSH1 0x4 DUP1 CALLDATASIZE SUB DUP2 ADD SWAP1 PUSH2 0x23F SWAP2 SWAP1 PUSH2 0x2D59 JUMP JUMPDEST PUSH2 0x24F3 JUMP JUMPDEST STOP JUMPDEST PUSH2 0x24E PUSH2 0x27E9 JUMP JUMPDEST PUSH1 0x40 MLOAD PUSH2 0x25B SWAP2 SWAP1 PUSH2 0x2B04 JUMP JUMPDEST PUSH1 0x40 MLOAD DUP1 SWAP2 SUB SWAP1 RETURN JUMPDEST PUSH1 0x0 PUSH2 0x1D23 JUMP JUMPDEST PUSH1 0x0 DUP1 PUSH1 0x1 DUP5 DUP5 PUSH1 0x0 DUP1 JUMPDEST DUP3 ISZERO PUSH2 0x2A0 JUMPI DUP3 DUP5 SDIV SWAP2 POP DUP5 DUP3 MUL DUP7 SUB SWAP1 POP DUP5 SWAP6 POP DUP1 SWAP5 POP DUP3 DUP3 MUL DUP5 SUB SWAP1 POP DUP3 SWAP4 POP DUP1 SWAP3 POP PUSH2 0x276 JUMP JUMPDEST PUSH1 0x1 DUP5 GT ISZERO PUSH2 0x2AE JUMPI PUSH1 0x0 DUP1 REVERT JUMPDEST PUSH1 0x0 DUP7 SLT ISZERO PUSH2 0x2BD JUMPI DUP9 DUP7 ADD SWAP6 POP JUMPDEST DUP6 SWAP7 POP POP POP POP POP POP POP SWAP3 SWAP2 POP POP JUMP JUMPDEST PUSH1 0x40 MLOAD DUP2 PUSH1 0x20 DUP5 MUL DUP4 ADD DUP2 MLOAD PUSH1 0x20 DUP4 ADD SWAP3 POP PUSH1 0x0 JUMPDEST DUP3 DUP5 LT ISZERO PUSH2 0x324 JUMPI DUP2 DUP6 MSTORE PUSH32 0x30644E72E131A029B85045B68181585D2833E84879B9709143E1F593F0000001 DUP5 MLOAD DUP4 MULMOD SWAP2 POP PUSH1 0x20 DUP6 ADD SWAP5 POP PUSH1 0x20 DUP5 ADD SWAP4 POP PUSH2 0x2E1 JUMP JUMPDEST PUSH2 0x34E PUSH32 0x30644E72E131A029B85045B68181585D2833E84879B9709143E1F593F0000001 DUP4 PUSH2 0x26B JUMP JUMPDEST SWAP2 POP PUSH1 0x20 DUP6 SUB SWAP5 POP PUSH1 0x20 DUP5 SUB SWAP4 POP DUP6 SWAP3 POP JUMPDEST DUP3 DUP5 GT ISZERO PUSH2 0x3CA JUMPI PUSH32 0x30644E72E131A029B85045B68181585D2833E84879B9709143E1F593F0000001 DUP6 MLOAD DUP4 MULMOD SWAP1 POP PUSH32 0x30644E72E131A029B85045B68181585D2833E84879B9709143E1F593F0000001 DUP5 MLOAD DUP4 MULMOD SWAP2 POP DUP1 DUP5 MSTORE PUSH1 0x20 DUP6 SUB SWAP5 POP PUSH1 0x20 DUP5 SUB SWAP4 POP PUSH2 0x360 JUMP JUMPDEST DUP2 DUP5 MSTORE POP POP POP POP POP POP POP JUMP JUMPDEST PUSH32 0x30644E72E131A029B85045B68181585D2833E84879B9709143E1F593F0000001 DUP2 LT PUSH2 0x407 JUMPI PUSH1 0x0 DUP1 MSTORE PUSH1 0x20 PUSH1 0x0 RETURN JUMPDEST POP JUMP JUMPDEST PUSH2 0x320 DUP2 MLOAD EQ PUSH2 0x41E JUMPI PUSH1 0x0 DUP1 MSTORE PUSH1 0x20 PUSH1 0x0 RETURN JUMPDEST PUSH2 0x42C PUSH2 0x260 DUP3 ADD MLOAD PUSH2 0x3D6 JUMP JUMPDEST PUSH2 0x43A PUSH2 0x280 DUP3 ADD MLOAD PUSH2 0x3D6 JUMP JUMPDEST PUSH2 0x448 PUSH2 0x2A0 DUP3 ADD MLOAD PUSH2 0x3D6 JUMP JUMPDEST PUSH2 0x456 PUSH2 0x2C0 DUP3 ADD MLOAD PUSH2 0x3D6 JUMP JUMPDEST PUSH2 0x464 PUSH2 0x2E0 DUP3 ADD MLOAD PUSH2 0x3D6 JUMP JUMPDEST PUSH2 0x472 PUSH2 0x300 DUP3 ADD MLOAD PUSH2 0x3D6 JUMP JUMPDEST PUSH2 0x480 PUSH2 0x320 DUP3 ADD MLOAD PUSH2 0x3D6 JUMP JUMPDEST POP JUMP JUMPDEST PUSH1 0x0 DUP1 PUSH1 0x20 DUP6 ADD MLOAD PUSH2 0x2E0 DUP6 ADD MSTORE PUSH1 0x40 DUP6 ADD MLOAD PUSH2 0x300 DUP6 ADD MSTORE PUSH1 0x20 DUP4 ADD MLOAD PUSH2 0x320 DUP6 ADD MSTORE PUSH1 0x20 DUP1 ADD DUP4 ADD MLOAD PUSH2 0x340 DUP6 ADD MSTORE PUSH1 0x40 PUSH1 0x20 ADD DUP4 ADD MLOAD PUSH2 0x360 DUP6 ADD MSTORE PUSH1 0x60 PUSH1 0x20 ADD DUP4 ADD MLOAD PUSH2 0x380 DUP6 ADD MSTORE PUSH1 0x80 PUSH1 0x20 ADD DUP4 ADD MLOAD PUSH2 0x3A0 DUP6 ADD MSTORE PUSH1 0xA0 PUSH1 0x20 ADD DUP4 ADD MLOAD PUSH2 0x3C0 DUP6 ADD MSTORE PUSH32 0x30644E72E131A029B85045B68181585D2833E84879B9709143E1F593F0000001 PUSH2 0x100 PUSH2 0x2E0 DUP7 ADD KECCAK256 MOD SWAP1 POP DUP1 PUSH1 0x20 DUP6 ADD MSTORE PUSH32 0x30644E72E131A029B85045B68181585D2833E84879B9709143E1F593F0000001 PUSH1 0x20 DUP1 DUP7 ADD KECCAK256 MOD PUSH1 0x40 DUP6 ADD MSTORE PUSH32 0x30644E72E131A029B85045B68181585D2833E84879B9709143E1F593F0000001 PUSH1 0x40 PUSH1 0xE0 DUP6 ADD KECCAK256 MOD PUSH1 0x0 DUP6 ADD MSTORE PUSH32 0x30644E72E131A029B85045B68181585D2833E84879B9709143E1F593F0000001 PUSH1 0xC0 PUSH2 0x120 DUP6 ADD KECCAK256 MOD SWAP2 POP DUP2 PUSH1 0x60 DUP6 ADD MSTORE PUSH32 0x30644E72E131A029B85045B68181585D2833E84879B9709143E1F593F0000001 DUP3 DUP3 MULMOD PUSH1 0xA0 DUP6 ADD MSTORE PUSH32 0x30644E72E131A029B85045B68181585D2833E84879B9709143E1F593F0000001 DUP3 DUP4 MULMOD SWAP2 POP PUSH32 0x30644E72E131A029B85045B68181585D2833E84879B9709143E1F593F0000001 DUP3 DUP4 MULMOD SWAP2 POP PUSH32 0x30644E72E131A029B85045B68181585D2833E84879B9709143E1F593F0000001 DUP3 DUP4 MULMOD SWAP2 POP PUSH32 0x30644E72E131A029B85045B68181585D2833E84879B9709143E1F593F0000001 DUP3 DUP4 MULMOD SWAP2 POP PUSH32 0x30644E72E131A029B85045B68181585D2833E84879B9709143E1F593F0000001 DUP3 DUP4 MULMOD SWAP2 POP PUSH32 0x30644E72E131A029B85045B68181585D2833E84879B9709143E1F593F0000001 DUP3 DUP4 MULMOD SWAP2 POP PUSH32 0x30644E72E131A029B85045B68181585D2833E84879B9709143E1F593F0000001 DUP3 DUP4 MULMOD SWAP2 POP PUSH32 0x30644E72E131A029B85045B68181585D2833E84879B9709143E1F593F0000001 DUP3 DUP4 MULMOD SWAP2 POP PUSH32 0x30644E72E131A029B85045B68181585D2833E84879B9709143E1F593F0000001 DUP3 DUP4 MULMOD SWAP2 POP PUSH32 0x30644E72E131A029B85045B68181585D2833E84879B9709143E1F593F0000001 DUP3 DUP4 MULMOD SWAP2 POP PUSH32 0x30644E72E131A029B85045B68181585D2833E84879B9709143E1F593F0000001 DUP3 DUP4 MULMOD SWAP2 POP PUSH32 0x30644E72E131A029B85045B68181585D2833E84879B9709143E1F593F0000001 DUP3 DUP4 MULMOD SWAP2 POP DUP2 PUSH1 0x80 DUP6 ADD MSTORE PUSH32 0x30644E72E131A029B85045B68181585D2833E84879B9709143E1F593F0000001 DUP1 PUSH1 0x1 DUP5 SUB ADD MOD SWAP2 POP DUP2 PUSH2 0x260 DUP6 ADD MSTORE DUP2 PUSH2 0x280 DUP6 ADD MSTORE PUSH32 0x30644E72E131A029B85045B68181585D2833E84879B9709143E1F593F0000001 PUSH1 0xE0 PUSH2 0x260 DUP6 ADD KECCAK256 MOD DUP1 PUSH1 0xC0 DUP7 ADD MSTORE PUSH32 0x30644E72E131A029B85045B68181585D2833E84879B9709143E1F593F0000001 DUP2 DUP3 MULMOD SWAP3 POP DUP3 PUSH1 0xE0 DUP7 ADD MSTORE PUSH32 0x30644E72E131A029B85045B68181585D2833E84879B9709143E1F593F0000001 DUP2 DUP5 MULMOD SWAP3 POP DUP3 PUSH2 0x100 DUP7 ADD MSTORE PUSH32 0x30644E72E131A029B85045B68181585D2833E84879B9709143E1F593F0000001 DUP2 DUP5 MULMOD SWAP3 POP DUP3 PUSH2 0x120 DUP7 ADD MSTORE PUSH32 0x30644E72E131A029B85045B68181585D2833E84879B9709143E1F593F0000001 DUP2 DUP5 MULMOD SWAP3 POP DUP3 PUSH2 0x140 DUP7 ADD MSTORE PUSH32 0x30644E72E131A029B85045B68181585D2833E84879B9709143E1F593F0000001 DUP2 DUP5 MULMOD SWAP3 POP DUP3 PUSH2 0x160 DUP7 ADD MSTORE PUSH32 0x30644E72E131A029B85045B68181585D2833E84879B9709143E1F593F0000001 PUSH1 0x80 PUSH2 0x1E0 DUP7 ADD KECCAK256 MOD PUSH2 0x180 DUP7 ADD MSTORE POP POP POP POP POP POP JUMP JUMPDEST PUSH1 0x1 PUSH32 0x30644E72E131A029B85045B68181585D2833E84879B9709143E1F593F0000001 DUP1 PUSH32 0x30644E72E131A029B85045B68181585D2833E84879B9709143E1F593F0000001 DUP4 PUSH1 0x60 DUP7 ADD MLOAD SUB ADD MOD PUSH2 0x1000 MULMOD PUSH2 0x2A0 DUP4 ADD MSTORE PUSH32 0x30644E72E131A029B85045B68181585D2833E84879B9709143E1F593F0000001 PUSH32 0x931D596DE2FD10F01DDD073FD5A90A976F169C76F039BB91C4775720042D43A DUP3 MULMOD SWAP1 POP PUSH32 0x30644E72E131A029B85045B68181585D2833E84879B9709143E1F593F0000001 DUP1 PUSH32 0x30644E72E131A029B85045B68181585D2833E84879B9709143E1F593F0000001 DUP4 PUSH1 0x60 DUP7 ADD MLOAD SUB ADD MOD PUSH2 0x1000 MULMOD PUSH2 0x2C0 DUP4 ADD MSTORE PUSH2 0xA26 PUSH1 0x3 PUSH2 0x280 DUP5 ADD PUSH2 0x2CC JUMP JUMPDEST PUSH2 0x260 DUP3 ADD MLOAD PUSH1 0x1 SWAP2 POP PUSH32 0x30644E72E131A029B85045B68181585D2833E84879B9709143E1F593F0000001 DUP2 PUSH2 0x2A0 DUP6 ADD MLOAD MULMOD PUSH2 0x2A0 DUP5 ADD MSTORE PUSH32 0x30644E72E131A029B85045B68181585D2833E84879B9709143E1F593F0000001 PUSH32 0x931D596DE2FD10F01DDD073FD5A90A976F169C76F039BB91C4775720042D43A DUP4 MULMOD SWAP2 POP PUSH32 0x30644E72E131A029B85045B68181585D2833E84879B9709143E1F593F0000001 DUP1 DUP3 PUSH2 0x2C0 DUP7 ADD MLOAD MULMOD DUP4 MULMOD PUSH2 0x2C0 DUP5 ADD MSTORE POP POP POP JUMP JUMPDEST PUSH1 0x0 PUSH32 0x30644E72E131A029B85045B68181585D2833E84879B9709143E1F593F0000001 DUP1 PUSH32 0x30644E72E131A029B85045B68181585D2833E84879B9709143E1F593F0000001 PUSH1 0x20 DUP7 ADD MLOAD PUSH2 0x2A0 DUP7 ADD MLOAD MULMOD DUP4 SUB ADD MOD SWAP1 POP PUSH32 0x30644E72E131A029B85045B68181585D2833E84879B9709143E1F593F0000001 DUP1 PUSH32 0x30644E72E131A029B85045B68181585D2833E84879B9709143E1F593F0000001 PUSH1 0x40 DUP7 ADD MLOAD PUSH2 0x2C0 DUP7 ADD MLOAD MULMOD DUP4 SUB ADD MOD SWAP1 POP DUP1 PUSH2 0x1A0 DUP4 ADD MSTORE POP POP POP JUMP JUMPDEST PUSH1 0x0 DUP1 PUSH1 0x0 PUSH32 0x30644E72E131A029B85045B68181585D2833E84879B9709143E1F593F0000001 PUSH2 0x1A0 DUP7 ADD MLOAD PUSH2 0x320 DUP7 ADD MLOAD ADDMOD SWAP3 POP PUSH32 0x30644E72E131A029B85045B68181585D2833E84879B9709143E1F593F0000001 PUSH1 0x20 DUP7 ADD MLOAD PUSH2 0x2C0 DUP7 ADD MLOAD MULMOD SWAP2 POP PUSH32 0x30644E72E131A029B85045B68181585D2833E84879B9709143E1F593F0000001 PUSH2 0x260 DUP6 ADD MLOAD DUP4 ADDMOD SWAP2 POP PUSH32 0x30644E72E131A029B85045B68181585D2833E84879B9709143E1F593F0000001 PUSH1 0x40 DUP7 ADD MLOAD DUP4 ADDMOD SWAP2 POP PUSH32 0x30644E72E131A029B85045B68181585D2833E84879B9709143E1F593F0000001 PUSH1 0x20 DUP7 ADD MLOAD PUSH2 0x2E0 DUP7 ADD MLOAD MULMOD SWAP1 POP PUSH32 0x30644E72E131A029B85045B68181585D2833E84879B9709143E1F593F0000001 PUSH2 0x280 DUP6 ADD MLOAD DUP3 ADDMOD SWAP1 POP PUSH32 0x30644E72E131A029B85045B68181585D2833E84879B9709143E1F593F0000001 PUSH1 0x40 DUP7 ADD MLOAD DUP3 ADDMOD SWAP1 POP PUSH32 0x30644E72E131A029B85045B68181585D2833E84879B9709143E1F593F0000001 DUP2 DUP4 MULMOD SWAP2 POP PUSH32 0x30644E72E131A029B85045B68181585D2833E84879B9709143E1F593F0000001 PUSH1 0x40 DUP7 ADD MLOAD PUSH2 0x2A0 DUP7 ADD MLOAD ADDMOD SWAP1 POP PUSH32 0x30644E72E131A029B85045B68181585D2833E84879B9709143E1F593F0000001 DUP2 DUP4 MULMOD SWAP2 POP PUSH32 0x30644E72E131A029B85045B68181585D2833E84879B9709143E1F593F0000001 PUSH2 0x300 DUP6 ADD MLOAD DUP4 MULMOD SWAP2 POP PUSH32 0x30644E72E131A029B85045B68181585D2833E84879B9709143E1F593F0000001 PUSH1 0x0 DUP7 ADD MLOAD DUP4 MULMOD SWAP2 POP PUSH32 0x30644E72E131A029B85045B68181585D2833E84879B9709143E1F593F0000001 PUSH1 0x0 DUP7 ADD MLOAD PUSH2 0x2A0 DUP8 ADD MLOAD MULMOD SWAP1 POP PUSH32 0x30644E72E131A029B85045B68181585D2833E84879B9709143E1F593F0000001 PUSH1 0x0 DUP7 ADD MLOAD DUP3 MULMOD SWAP1 POP PUSH32 0x30644E72E131A029B85045B68181585D2833E84879B9709143E1F593F0000001 DUP2 DUP4 ADDMOD SWAP2 POP PUSH32 0x30644E72E131A029B85045B68181585D2833E84879B9709143E1F593F0000001 DUP3 PUSH32 0x30644E72E131A029B85045B68181585D2833E84879B9709143E1F593F0000001 DUP6 ADD SUB MOD SWAP3 POP PUSH32 0x30644E72E131A029B85045B68181585D2833E84879B9709143E1F593F0000001 PUSH2 0x280 DUP7 ADD MLOAD DUP5 MULMOD SWAP3 POP DUP3 PUSH2 0x1C0 DUP7 ADD MSTORE POP POP POP POP POP JUMP JUMPDEST DUP2 MLOAD DUP2 MSTORE PUSH1 0x20 DUP3 ADD MLOAD PUSH1 0x20 DUP3 ADD MSTORE POP POP JUMP JUMPDEST PUSH1 0x40 MLOAD DUP2 MLOAD DUP2 MSTORE PUSH1 0x20 DUP3 ADD MLOAD PUSH1 0x20 DUP3 ADD MSTORE DUP3 MLOAD PUSH1 0x40 DUP3 ADD MSTORE PUSH1 0x20 DUP4 ADD MLOAD PUSH1 0x60 DUP3 ADD MSTORE PUSH1 0x40 DUP3 PUSH1 0x80 DUP4 PUSH1 0x6 PUSH2 0x7D0 GAS SUB STATICCALL DUP1 PUSH2 0xEF3 JUMPI PUSH1 0x0 DUP1 MSTORE PUSH1 0x20 PUSH1 0x0 RETURN JUMPDEST POP POP POP POP JUMP JUMPDEST PUSH1 0x0 PUSH1 0x40 MLOAD DUP4 MLOAD DUP2 MSTORE PUSH1 0x20 DUP5 ADD MLOAD PUSH1 0x20 DUP3 ADD MSTORE DUP5 PUSH1 0x40 DUP3 ADD MSTORE PUSH1 0x40 DUP2 PUSH1 0x60 DUP4 PUSH1 0x7 PUSH2 0x7D0 GAS SUB STATICCALL SWAP2 POP DUP2 PUSH2 0xF31 JUMPI PUSH1 0x0 DUP1 MSTORE PUSH1 0x20 PUSH1 0x0 RETURN JUMPDEST DUP3 MLOAD PUSH1 0x40 DUP3 ADD MSTORE PUSH1 0x20 DUP4 ADD MLOAD PUSH1 0x60 DUP3 ADD MSTORE PUSH1 0x40 DUP4 PUSH1 0x80 DUP4 PUSH1 0x6 PUSH2 0x7D0 GAS SUB STATICCALL SWAP2 POP DUP2 PUSH2 0xF61 JUMPI PUSH1 0x0 DUP1 MSTORE PUSH1 0x20 PUSH1 0x0 RETURN JUMPDEST POP POP POP POP POP JUMP JUMPDEST PUSH1 0x0 PUSH1 0x40 MLOAD DUP4 DUP2 MSTORE DUP5 PUSH1 0x20 DUP3 ADD MSTORE DUP6 PUSH1 0x40 DUP3 ADD MSTORE PUSH1 0x40 DUP2 PUSH1 0x60 DUP4 PUSH1 0x7 PUSH2 0x7D0 GAS SUB STATICCALL SWAP2 POP DUP2 PUSH2 0xF9B JUMPI PUSH1 0x0 DUP1 MSTORE PUSH1 0x20 PUSH1 0x0 RETURN JUMPDEST DUP3 MLOAD PUSH1 0x40 DUP3 ADD MSTORE PUSH1 0x20 DUP4 ADD MLOAD PUSH1 0x60 DUP3 ADD MSTORE PUSH1 0x40 DUP4 PUSH1 0x80 DUP4 PUSH1 0x6 PUSH2 0x7D0 GAS SUB STATICCALL SWAP2 POP DUP2 PUSH2 0xFCB JUMPI PUSH1 0x0 DUP1 MSTORE PUSH1 0x20 PUSH1 0x0 RETURN JUMPDEST POP POP POP POP POP POP JUMP JUMPDEST PUSH1 0x0 PUSH1 0x40 MLOAD DUP4 DUP2 MSTORE DUP5 PUSH1 0x20 DUP3 ADD MSTORE DUP6 PUSH1 0x40 DUP3 ADD MSTORE PUSH1 0x40 DUP4 PUSH1 0x60 DUP4 PUSH1 0x7 PUSH2 0x7D0 GAS SUB STATICCALL SWAP2 POP DUP2 PUSH2 0x1006 JUMPI PUSH1 0x0 DUP1 MSTORE PUSH1 0x20 PUSH1 0x0 RETURN JUMPDEST POP POP POP POP POP POP JUMP JUMPDEST PUSH2 0x1E0 DUP3 ADD PUSH2 0x1021 PUSH2 0x1E0 DUP4 ADD DUP3 PUSH2 0xEA2 JUMP JUMPDEST PUSH2 0x1035 PUSH2 0x180 DUP5 ADD MLOAD PUSH2 0x220 DUP5 ADD DUP4 PUSH2 0xEF9 JUMP JUMPDEST POP POP POP JUMP JUMPDEST PUSH1 0x0 DUP1 PUSH2 0x220 DUP5 ADD PUSH32 0x30644E72E131A029B85045B68181585D2833E84879B9709143E1F593F0000001 PUSH1 0xC0 DUP7 ADD MLOAD PUSH2 0x260 DUP7 ADD MLOAD MULMOD SWAP3 POP PUSH2 0x10BD DUP4 PUSH32 0x2EB67C0CA20735DD9728A7DD7BAB037C0F3EF5EC3CB09A40FFD6DC72B3F2B0CB PUSH32 0x1CF4B31736D4C025D29D0683622A4EB8234F62B7140D7B1B1C45CF1D5251896C DUP5 PUSH2 0xFD3 JUMP JUMPDEST PUSH32 0x30644E72E131A029B85045B68181585D2833E84879B9709143E1F593F0000001 PUSH2 0x280 DUP6 ADD MLOAD DUP5 MULMOD SWAP3 POP PUSH2 0x1134 DUP4 PUSH32 0x2AF3A314DDBF93A88A6A450430D5528E2D33CDE0A8F21622692115A8667E8E45 PUSH32 0x2A2057CA32341B223996128794D51936A29D35A28876903933A07D09004E6597 DUP5 PUSH2 0xF68 JUMP JUMPDEST PUSH32 0x30644E72E131A029B85045B68181585D2833E84879B9709143E1F593F0000001 PUSH1 0xC0 DUP7 ADD MLOAD PUSH2 0x280 DUP7 ADD MLOAD MULMOD SWAP3 POP PUSH2 0x11AF DUP4 PUSH32 0x2BB3C6F9AEEA2252FF4A3691EA4129D5BEBCAAE30A8141CBF0B784673D426517 PUSH32 0x2EDCA24B060DBB91B31B0F920740B8C112FDD5C5D95B9DF7657AFC337811B33A DUP5 PUSH2 0xF68 JUMP JUMPDEST PUSH32 0x30644E72E131A029B85045B68181585D2833E84879B9709143E1F593F0000001 PUSH1 0xC0 DUP7 ADD MLOAD PUSH2 0x2A0 DUP7 ADD MLOAD MULMOD SWAP3 POP PUSH2 0x122A DUP4 PUSH32 0x28D73857830AED4F942D4CB6FF6349B1C4C246200E813D9D3144ED12CE657415 PUSH32 0x23847C7C97656804415FA84053FAEAA1222AD9610E187214219177DE0CCF44F5 DUP5 PUSH2 0xF68 JUMP JUMPDEST PUSH1 0xC0 DUP6 ADD MLOAD SWAP3 POP PUSH2 0x127D DUP4 PUSH32 0x2F666AC08DFF772C72E8412ABB33C600290D691FD25CBE449743040E8256A3D8 PUSH32 0x14B527B8F772F3926E0C9690254B0866981D5097DBCBC2B466B953D00CE6A9D2 DUP5 PUSH2 0xF68 JUMP JUMPDEST PUSH32 0x30644E72E131A029B85045B68181585D2833E84879B9709143E1F593F0000001 PUSH1 0xA0 DUP7 ADD MLOAD PUSH2 0x260 DUP7 ADD MLOAD ADDMOD SWAP3 POP PUSH32 0x30644E72E131A029B85045B68181585D2833E84879B9709143E1F593F0000001 PUSH1 0x40 DUP7 ADD MLOAD DUP5 ADDMOD SWAP3 POP PUSH32 0x30644E72E131A029B85045B68181585D2833E84879B9709143E1F593F0000001 PUSH1 0xA0 DUP7 ADD MLOAD PUSH1 0x2 MULMOD SWAP2 POP PUSH32 0x30644E72E131A029B85045B68181585D2833E84879B9709143E1F593F0000001 PUSH2 0x280 DUP6 ADD MLOAD DUP4 ADDMOD SWAP2 POP PUSH32 0x30644E72E131A029B85045B68181585D2833E84879B9709143E1F593F0000001 PUSH1 0x40 DUP7 ADD MLOAD DUP4 ADDMOD SWAP2 POP PUSH32 0x30644E72E131A029B85045B68181585D2833E84879B9709143E1F593F0000001 DUP3 DUP5 MULMOD SWAP3 POP PUSH32 0x30644E72E131A029B85045B68181585D2833E84879B9709143E1F593F0000001 PUSH1 0xA0 DUP7 ADD MLOAD PUSH1 0x3 MULMOD SWAP2 POP PUSH32 0x30644E72E131A029B85045B68181585D2833E84879B9709143E1F593F0000001 PUSH2 0x2A0 DUP6 ADD MLOAD DUP4 ADDMOD SWAP2 POP PUSH32 0x30644E72E131A029B85045B68181585D2833E84879B9709143E1F593F0000001 PUSH1 0x40 DUP7 ADD MLOAD DUP4 ADDMOD SWAP2 POP PUSH32 0x30644E72E131A029B85045B68181585D2833E84879B9709143E1F593F0000001 DUP3 DUP5 MULMOD SWAP3 POP PUSH32 0x30644E72E131A029B85045B68181585D2833E84879B9709143E1F593F0000001 PUSH1 0x0 DUP7 ADD MLOAD DUP5 MULMOD SWAP3 POP PUSH32 0x30644E72E131A029B85045B68181585D2833E84879B9709143E1F593F0000001 PUSH1 0xC0 DUP7 ADD MLOAD DUP5 MULMOD SWAP3 POP PUSH32 0x30644E72E131A029B85045B68181585D2833E84879B9709143E1F593F0000001 PUSH1 0x0 DUP7 ADD MLOAD PUSH2 0x2A0 DUP8 ADD MLOAD MULMOD SWAP2 POP PUSH32 0x30644E72E131A029B85045B68181585D2833E84879B9709143E1F593F0000001 PUSH1 0x0 DUP7 ADD MLOAD DUP4 MULMOD SWAP2 POP PUSH32 0x30644E72E131A029B85045B68181585D2833E84879B9709143E1F593F0000001 PUSH1 0xC0 DUP7 ADD MLOAD DUP4 MULMOD SWAP2 POP PUSH32 0x30644E72E131A029B85045B68181585D2833E84879B9709143E1F593F0000001 DUP3 DUP5 ADDMOD SWAP3 POP PUSH32 0x30644E72E131A029B85045B68181585D2833E84879B9709143E1F593F0000001 PUSH2 0x180 DUP7 ADD MLOAD DUP5 ADDMOD SWAP3 POP PUSH2 0x1558 DUP4 PUSH1 0xE0 DUP7 ADD DUP4 PUSH2 0xEF9 JUMP JUMPDEST PUSH32 0x30644E72E131A029B85045B68181585D2833E84879B9709143E1F593F0000001 PUSH2 0x2C0 DUP6 ADD MLOAD PUSH1 0x20 DUP8 ADD MLOAD MULMOD SWAP3 POP PUSH32 0x30644E72E131A029B85045B68181585D2833E84879B9709143E1F593F0000001 PUSH2 0x260 DUP6 ADD MLOAD DUP5 ADDMOD SWAP3 POP PUSH32 0x30644E72E131A029B85045B68181585D2833E84879B9709143E1F593F0000001 PUSH1 0x40 DUP7 ADD MLOAD DUP5 ADDMOD SWAP3 POP PUSH32 0x30644E72E131A029B85045B68181585D2833E84879B9709143E1F593F0000001 PUSH2 0x2E0 DUP6 ADD MLOAD PUSH1 0x20 DUP8 ADD MLOAD MULMOD SWAP2 POP PUSH32 0x30644E72E131A029B85045B68181585D2833E84879B9709143E1F593F0000001 PUSH2 0x280 DUP6 ADD MLOAD DUP4 ADDMOD SWAP2 POP PUSH32 0x30644E72E131A029B85045B68181585D2833E84879B9709143E1F593F0000001 PUSH1 0x40 DUP7 ADD MLOAD DUP4 ADDMOD SWAP2 POP PUSH32 0x30644E72E131A029B85045B68181585D2833E84879B9709143E1F593F0000001 DUP3 DUP5 MULMOD SWAP3 POP PUSH32 0x30644E72E131A029B85045B68181585D2833E84879B9709143E1F593F0000001 PUSH1 0x0 DUP7 ADD MLOAD DUP5 MULMOD SWAP3 POP PUSH32 0x30644E72E131A029B85045B68181585D2833E84879B9709143E1F593F0000001 PUSH1 0xC0 DUP7 ADD MLOAD DUP5 MULMOD SWAP3 POP PUSH32 0x30644E72E131A029B85045B68181585D2833E84879B9709143E1F593F0000001 PUSH1 0x20 DUP7 ADD MLOAD DUP5 MULMOD SWAP3 POP PUSH32 0x30644E72E131A029B85045B68181585D2833E84879B9709143E1F593F0000001 PUSH2 0x300 DUP6 ADD MLOAD DUP5 MULMOD SWAP3 POP PUSH32 0x30644E72E131A029B85045B68181585D2833E84879B9709143E1F593F0000001 DUP4 PUSH32 0x30644E72E131A029B85045B68181585D2833E84879B9709143E1F593F0000001 SUB MOD SWAP3 POP PUSH2 0x17C2 DUP4 PUSH32 0x156EF9E504C058D1A6609CF2D8BC7C7147E7D13610EC904AAB2247A1E765B99A PUSH32 0x176B7A29CFF0EF08E09D2C72A5DB37A015D3914A738A302B24FE643F8CACDC3F DUP5 PUSH2 0xF68 JUMP JUMPDEST PUSH2 0x17D0 PUSH2 0x120 DUP6 ADD DUP3 PUSH2 0xEB4 JUMP JUMPDEST PUSH1 0x80 DUP6 ADD MLOAD SWAP3 POP PUSH2 0x17E6 DUP4 PUSH2 0x160 DUP7 ADD DUP4 PUSH2 0xEF9 JUMP JUMPDEST PUSH32 0x30644E72E131A029B85045B68181585D2833E84879B9709143E1F593F0000001 DUP4 DUP5 MULMOD SWAP3 POP PUSH2 0x181B DUP4 PUSH2 0x1A0 DUP7 ADD DUP4 PUSH2 0xEF9 JUMP JUMPDEST PUSH2 0x182D PUSH1 0xE0 DUP7 ADD MLOAD PUSH1 0x20 DUP7 ADD DUP4 PUSH2 0xEF9 JUMP JUMPDEST PUSH2 0x1840 PUSH2 0x100 DUP7 ADD MLOAD PUSH1 0x60 DUP7 ADD DUP4 PUSH2 0xEF9 JUMP JUMPDEST PUSH2 0x1853 PUSH2 0x120 DUP7 ADD MLOAD PUSH1 0xA0 DUP7 ADD DUP4 PUSH2 0xEF9 JUMP JUMPDEST PUSH2 0x18A4 PUSH2 0x140 DUP7 ADD MLOAD PUSH32 0x173BDB25D94F66DD9586499787046F1052127B95B108C7A4D7BEEE6AC7E4593F PUSH32 0x4B85EE2B6AF218577D8A2E56AB4DC054287E444B90FD652BC24F7046366E8A9 DUP5 PUSH2 0xF68 JUMP JUMPDEST PUSH2 0x18F5 PUSH2 0x160 DUP7 ADD MLOAD PUSH32 0x2E86FF0322609F7543013D57E50324E6F3A4F6A5542A15D9F788FF53623758B7 PUSH32 0x1532F5D43291FFAA96F15C0640DAFC17842DB2B8C602B94D2DCAAC0418524E6E DUP5 PUSH2 0xF68 JUMP JUMPDEST PUSH2 0x1C0 DUP6 ADD MLOAD SWAP3 POP PUSH32 0x30644E72E131A029B85045B68181585D2833E84879B9709143E1F593F0000001 DUP1 PUSH1 0xC0 DUP8 ADD MLOAD PUSH2 0x320 DUP8 ADD MLOAD MULMOD DUP5 ADDMOD SWAP3 POP PUSH32 0x30644E72E131A029B85045B68181585D2833E84879B9709143E1F593F0000001 DUP1 PUSH1 0xE0 DUP8 ADD MLOAD PUSH2 0x260 DUP8 ADD MLOAD MULMOD DUP5 ADDMOD SWAP3 POP PUSH32 0x30644E72E131A029B85045B68181585D2833E84879B9709143E1F593F0000001 DUP1 PUSH2 0x100 DUP8 ADD MLOAD PUSH2 0x280 DUP8 ADD MLOAD MULMOD DUP5 ADDMOD SWAP3 POP PUSH32 0x30644E72E131A029B85045B68181585D2833E84879B9709143E1F593F0000001 DUP1 PUSH2 0x120 DUP8 ADD MLOAD PUSH2 0x2A0 DUP8 ADD MLOAD MULMOD DUP5 ADDMOD SWAP3 POP PUSH32 0x30644E72E131A029B85045B68181585D2833E84879B9709143E1F593F0000001 DUP1 PUSH2 0x140 DUP8 ADD MLOAD PUSH2 0x2C0 DUP8 ADD MLOAD MULMOD DUP5 ADDMOD SWAP3 POP PUSH32 0x30644E72E131A029B85045B68181585D2833E84879B9709143E1F593F0000001 DUP1 PUSH2 0x160 DUP8 ADD MLOAD PUSH2 0x2E0 DUP8 ADD MLOAD MULMOD DUP5 ADDMOD SWAP3 POP PUSH32 0x30644E72E131A029B85045B68181585D2833E84879B9709143E1F593F0000001 DUP1 PUSH2 0x180 DUP8 ADD MLOAD PUSH2 0x300 DUP8 ADD MLOAD MULMOD DUP5 ADDMOD SWAP3 POP PUSH32 0x30644E72E131A029B85045B68181585D2833E84879B9709143E1F593F0000001 DUP4 PUSH32 0x30644E72E131A029B85045B68181585D2833E84879B9709143E1F593F0000001 SUB MOD SWAP3 POP PUSH2 0x1AB5 DUP4 PUSH1 0x2 PUSH1 0x1 DUP5 PUSH2 0xF68 JUMP JUMPDEST PUSH1 0x60 DUP6 ADD MLOAD SWAP3 POP PUSH2 0x1ACB DUP4 PUSH2 0x1E0 DUP7 ADD DUP4 PUSH2 0xEF9 JUMP JUMPDEST PUSH32 0x30644E72E131A029B85045B68181585D2833E84879B9709143E1F593F0000001 PUSH1 0x60 DUP7 ADD MLOAD PUSH2 0x180 DUP8 ADD MLOAD MULMOD SWAP3 POP PUSH32 0x30644E72E131A029B85045B68181585D2833E84879B9709143E1F593F0000001 PUSH32 0x931D596DE2FD10F01DDD073FD5A90A976F169C76F039BB91C4775720042D43A DUP5 MULMOD SWAP3 POP PUSH2 0x1B4F DUP4 PUSH2 0x220 DUP7 ADD DUP4 PUSH2 0xEF9 JUMP JUMPDEST POP POP POP POP POP JUMP JUMPDEST PUSH1 0x0 PUSH1 0x40 MLOAD PUSH2 0x1E0 DUP4 ADD MLOAD DUP2 MSTORE PUSH1 0x20 PUSH2 0x1E0 DUP5 ADD ADD MLOAD PUSH1 0x20 DUP3 ADD MSTORE PUSH32 0x26186A2D65EE4D2F9C9A5B91F86597D35F192CD120CAF7E935D8443D1938E23D PUSH1 0x40 DUP3 ADD MSTORE PUSH32 0x30441FD1B5D3370482C42152A8899027716989A6996C2535BC9F7FEE8AAEF79E PUSH1 0x60 DUP3 ADD MSTORE PUSH32 0x1970EA81DD6992ADFBC571EFFB03503ADBBB6A857F578403C6C40E22D65B3C02 PUSH1 0x80 DUP3 ADD MSTORE PUSH32 0x54793348F12C0CF5622C340573CB277586319DE359AB9389778F689786B1E48 PUSH1 0xA0 DUP3 ADD MSTORE PUSH2 0x220 DUP4 ADD MLOAD PUSH1 0xC0 DUP3 ADD MSTORE PUSH1 0x20 PUSH2 0x220 DUP5 ADD ADD MLOAD PUSH32 0x30644E72E131A029B85045B68181585D97816A916871CA8D3C208C16D87CFD47 DUP2 PUSH32 0x30644E72E131A029B85045B68181585D97816A916871CA8D3C208C16D87CFD47 SUB MOD SWAP1 POP DUP1 PUSH1 0xE0 DUP4 ADD MSTORE PUSH32 0x198E9393920D483A7260BFB731FB5D25F1AA493335A9E71297E485B7AEF312C2 PUSH2 0x100 DUP4 ADD MSTORE PUSH32 0x1800DEEF121F1E76426A00665E5C4479674322D4F75EDADD46DEBD5CD992F6ED PUSH2 0x120 DUP4 ADD MSTORE PUSH32 0x90689D0585FF075EC9E99AD690C3395BC4B313370B38EF355ACDADCD122975B PUSH2 0x140 DUP4 ADD MSTORE PUSH32 0x12C85EA5DB8C6DEB4AAB71808DCB408FE3D1E7690C43D37B4CE6CC0166FA7DAA PUSH2 0x160 DUP4 ADD MSTORE PUSH1 0x20 DUP3 PUSH2 0x180 DUP5 PUSH1 0x8 PUSH2 0x7D0 GAS SUB STATICCALL DUP3 MLOAD DUP2 AND SWAP4 POP POP POP POP SWAP2 SWAP1 POP JUMP JUMPDEST PUSH1 0x40 MLOAD PUSH2 0x2E0 DUP2 ADD PUSH1 0x40 MSTORE PUSH2 0x1D37 DUP5 PUSH2 0x40A JUMP JUMPDEST PUSH2 0x1D42 DUP4 DUP3 DUP7 PUSH2 0x483 JUMP JUMPDEST PUSH2 0x1D4B DUP2 PUSH2 0x923 JUMP JUMPDEST PUSH2 0x1D55 DUP4 DUP3 PUSH2 0xADC JUMP JUMPDEST PUSH2 0x1D5F DUP2 DUP6 PUSH2 0xB94 JUMP JUMPDEST PUSH2 0x1D69 DUP2 DUP6 PUSH2 0x100E JUMP JUMPDEST PUSH2 0x1D73 DUP2 DUP6 PUSH2 0x103A JUMP JUMPDEST PUSH2 0x1D7C DUP2 PUSH2 0x1B56 JUMP JUMPDEST PUSH2 0x2E0 DUP3 SUB PUSH1 0x40 MSTORE DUP1 PUSH1 0x0 MSTORE PUSH1 0x20 PUSH1 0x0 RETURN JUMPDEST PUSH1 0x4 PUSH1 0x0 SWAP1 SLOAD SWAP1 PUSH2 0x100 EXP SWAP1 DIV PUSH1 0xFF AND DUP2 JUMP JUMPDEST PUSH1 0x5 SLOAD DUP2 JUMP JUMPDEST PUSH1 0x2 PUSH1 0x0 SWAP1 SLOAD SWAP1 PUSH2 0x100 EXP SWAP1 DIV PUSH20 0xFFFFFFFFFFFFFFFFFFFFFFFFFFFFFFFFFFFFFFFF AND PUSH20 0xFFFFFFFFFFFFFFFFFFFFFFFFFFFFFFFFFFFFFFFF AND CALLER PUSH20 0xFFFFFFFFFFFFFFFFFFFFFFFFFFFFFFFFFFFFFFFF AND EQ PUSH2 0x1E37 JUMPI PUSH1 0x40 MLOAD PUSH32 0x8C379A000000000000000000000000000000000000000000000000000000000 DUP2 MSTORE PUSH1 0x4 ADD PUSH2 0x1E2E SWAP1 PUSH2 0x2E16 JUMP JUMPDEST PUSH1 0x40 MLOAD DUP1 SWAP2 SUB SWAP1 REVERT JUMPDEST PUSH1 0x0 PUSH20 0xFFFFFFFFFFFFFFFFFFFFFFFFFFFFFFFFFFFFFFFF AND DUP2 PUSH20 0xFFFFFFFFFFFFFFFFFFFFFFFFFFFFFFFFFFFFFFFF AND EQ ISZERO PUSH2 0x1EA7 JUMPI PUSH1 0x40 MLOAD PUSH32 0x8C379A000000000000000000000000000000000000000000000000000000000 DUP2 MSTORE PUSH1 0x4 ADD PUSH2 0x1E9E SWAP1 PUSH2 0x2E82 JUMP JUMPDEST PUSH1 0x40 MLOAD DUP1 SWAP2 SUB SWAP1 REVERT JUMPDEST PUSH1 0x4 PUSH1 0x0 SWAP1 SLOAD SWAP1 PUSH2 0x100 EXP SWAP1 DIV PUSH1 0xFF AND ISZERO PUSH2 0x1EF7 JUMPI PUSH1 0x40 MLOAD PUSH32 0x8C379A000000000000000000000000000000000000000000000000000000000 DUP2 MSTORE PUSH1 0x4 ADD PUSH2 0x1EEE SWAP1 PUSH2 0x2EEE JUMP JUMPDEST PUSH1 0x40 MLOAD DUP1 SWAP2 SUB SWAP1 REVERT JUMPDEST PUSH1 0x4 PUSH1 0x1 SWAP1 SLOAD SWAP1 PUSH2 0x100 EXP SWAP1 DIV PUSH1 0xFF AND ISZERO PUSH2 0x1F47 JUMPI PUSH1 0x40 MLOAD PUSH32 0x8C379A000000000000000000000000000000000000000000000000000000000 DUP2 MSTORE PUSH1 0x4 ADD PUSH2 0x1F3E SWAP1 PUSH2 0x2F5A JUMP JUMPDEST PUSH1 0x40 MLOAD DUP1 SWAP2 SUB SWAP1 REVERT JUMPDEST PUSH1 0x3 SLOAD DUP5 LT ISZERO PUSH2 0x1F8C JUMPI PUSH1 0x40 MLOAD PUSH32 0x8C379A000000000000000000000000000000000000000000000000000000000 DUP2 MSTORE PUSH1 0x4 ADD PUSH2 0x1F83 SWAP1 PUSH2 0x2FC6 JUMP JUMPDEST PUSH1 0x40 MLOAD DUP1 SWAP2 SUB SWAP1 REVERT JUMPDEST PUSH2 0x1F97 DUP4 DUP4 DUP4 PUSH2 0x2266 JUMP JUMPDEST POP DUP1 PUSH1 0x0 DUP1 PUSH2 0x100 EXP DUP2 SLOAD DUP2 PUSH20 0xFFFFFFFFFFFFFFFFFFFFFFFFFFFFFFFFFFFFFFFF MUL NOT AND SWAP1 DUP4 PUSH20 0xFFFFFFFFFFFFFFFFFFFFFFFFFFFFFFFFFFFFFFFF AND MUL OR SWAP1 SSTORE POP PUSH1 0x1 PUSH1 0x4 PUSH1 0x0 PUSH2 0x100 EXP DUP2 SLOAD DUP2 PUSH1 0xFF MUL NOT AND SWAP1 DUP4 ISZERO ISZERO MUL OR SWAP1 SSTORE POP PUSH32 0x8C0F791A552520D7B652C7F008AF155A562EE6E9CE409BF539FBE0C18EEF9160 ADDRESS PUSH1 0x0 DUP1 SLOAD SWAP1 PUSH2 0x100 EXP SWAP1 DIV PUSH20 0xFFFFFFFFFFFFFFFFFFFFFFFFFFFFFFFFFFFFFFFF AND TIMESTAMP PUSH1 0x40 MLOAD PUSH2 0x2046 SWAP4 SWAP3 SWAP2 SWAP1 PUSH2 0x2FE6 JUMP JUMPDEST PUSH1 0x40 MLOAD DUP1 SWAP2 SUB SWAP1 LOG1 POP POP POP POP JUMP JUMPDEST PUSH1 0x0 DUP1 SLOAD SWAP1 PUSH2 0x100 EXP SWAP1 DIV PUSH20 0xFFFFFFFFFFFFFFFFFFFFFFFFFFFFFFFFFFFFFFFF AND DUP2 JUMP JUMPDEST PUSH1 0x2 PUSH1 0x0 SWAP1 SLOAD SWAP1 PUSH2 0x100 EXP SWAP1 DIV PUSH20 0xFFFFFFFFFFFFFFFFFFFFFFFFFFFFFFFFFFFFFFFF AND PUSH20 0xFFFFFFFFFFFFFFFFFFFFFFFFFFFFFFFFFFFFFFFF AND CALLER PUSH20 0xFFFFFFFFFFFFFFFFFFFFFFFFFFFFFFFFFFFFFFFF AND EQ PUSH2 0x2108 JUMPI PUSH1 0x40 MLOAD PUSH32 0x8C379A000000000000000000000000000000000000000000000000000000000 DUP2 MSTORE PUSH1 0x4 ADD PUSH2 0x20FF SWAP1 PUSH2 0x2E16 JUMP JUMPDEST PUSH1 0x40 MLOAD DUP1 SWAP2 SUB SWAP1 REVERT JUMPDEST PUSH1 0x4 PUSH1 0x0 SWAP1 SLOAD SWAP1 PUSH2 0x100 EXP SWAP1 DIV PUSH1 0xFF AND ISZERO PUSH2 0x2158 JUMPI PUSH1 0x40 MLOAD PUSH32 0x8C379A000000000000000000000000000000000000000000000000000000000 DUP2 MSTORE PUSH1 0x4 ADD PUSH2 0x214F SWAP1 PUSH2 0x2EEE JUMP JUMPDEST PUSH1 0x40 MLOAD DUP1 SWAP2 SUB SWAP1 REVERT JUMPDEST PUSH1 0x4 PUSH1 0x1 SWAP1 SLOAD SWAP1 PUSH2 0x100 EXP SWAP1 DIV PUSH1 0xFF AND ISZERO PUSH2 0x21A8 JUMPI PUSH1 0x40 MLOAD PUSH32 0x8C379A000000000000000000000000000000000000000000000000000000000 DUP2 MSTORE PUSH1 0x4 ADD PUSH2 0x219F SWAP1 PUSH2 0x2F5A JUMP JUMPDEST PUSH1 0x40 MLOAD DUP1 SWAP2 SUB SWAP1 REVERT JUMPDEST PUSH1 0x3 SLOAD DUP2 LT ISZERO PUSH2 0x21ED JUMPI PUSH1 0x40 MLOAD PUSH32 0x8C379A000000000000000000000000000000000000000000000000000000000 DUP2 MSTORE PUSH1 0x4 ADD PUSH2 0x21E4 SWAP1 PUSH2 0x2FC6 JUMP JUMPDEST PUSH1 0x40 MLOAD DUP1 SWAP2 SUB SWAP1 REVERT JUMPDEST PUSH1 0x1 PUSH1 0x4 PUSH1 0x0 PUSH2 0x100 EXP DUP2 SLOAD DUP2 PUSH1 0xFF MUL NOT AND SWAP1 DUP4 ISZERO ISZERO MUL OR SWAP1 SSTORE POP PUSH32 0x8C0F791A552520D7B652C7F008AF155A562EE6E9CE409BF539FBE0C18EEF9160 ADDRESS PUSH1 0x0 DUP1 SLOAD SWAP1 PUSH2 0x100 EXP SWAP1 DIV PUSH20 0xFFFFFFFFFFFFFFFFFFFFFFFFFFFFFFFFFFFFFFFF AND TIMESTAMP PUSH1 0x40 MLOAD PUSH2 0x225B SWAP4 SWAP3 SWAP2 SWAP1 PUSH2 0x2FE6 JUMP JUMPDEST PUSH1 0x40 MLOAD DUP1 SWAP2 SUB SWAP1 LOG1 POP JUMP JUMPDEST PUSH1 0x0 DUP1 PUSH1 0x2 PUSH8 0xFFFFFFFFFFFFFFFF DUP2 GT ISZERO PUSH2 0x2284 JUMPI PUSH2 0x2283 PUSH2 0x281E JUMP JUMPDEST JUMPDEST PUSH1 0x40 MLOAD SWAP1 DUP1 DUP3 MSTORE DUP1 PUSH1 0x20 MUL PUSH1 0x20 ADD DUP3 ADD PUSH1 0x40 MSTORE DUP1 ISZERO PUSH2 0x22B2 JUMPI DUP2 PUSH1 0x20 ADD PUSH1 0x20 DUP3 MUL DUP1 CALLDATASIZE DUP4 CALLDATACOPY DUP1 DUP3 ADD SWAP2 POP POP SWAP1 POP JUMPDEST POP SWAP1 POP PUSH1 0x5 SLOAD DUP2 PUSH1 0x0 DUP2 MLOAD DUP2 LT PUSH2 0x22CC JUMPI PUSH2 0x22CB PUSH2 0x301D JUMP JUMPDEST JUMPDEST PUSH1 0x20 MUL PUSH1 0x20 ADD ADD DUP2 DUP2 MSTORE POP POP DUP3 PUSH20 0xFFFFFFFFFFFFFFFFFFFFFFFFFFFFFFFFFFFFFFFF AND DUP2 PUSH1 0x1 DUP2 MLOAD DUP2 LT PUSH2 0x2303 JUMPI PUSH2 0x2302 PUSH2 0x301D JUMP JUMPDEST JUMPDEST PUSH1 0x20 MUL PUSH1 0x20 ADD ADD DUP2 DUP2 MSTORE POP POP ADDRESS PUSH20 0xFFFFFFFFFFFFFFFFFFFFFFFFFFFFFFFFFFFFFFFF AND PUSH4 0x1E8E1E13 DUP7 DUP7 DUP5 PUSH1 0x40 MLOAD DUP5 PUSH4 0xFFFFFFFF AND PUSH1 0xE0 SHL DUP2 MSTORE PUSH1 0x4 ADD PUSH2 0x234C SWAP4 SWAP3 SWAP2 SWAP1 PUSH2 0x3148 JUMP JUMPDEST PUSH1 0x20 PUSH1 0x40 MLOAD DUP1 DUP4 SUB DUP2 DUP7 DUP1 EXTCODESIZE ISZERO DUP1 ISZERO PUSH2 0x2364 JUMPI PUSH1 0x0 DUP1 REVERT JUMPDEST POP GAS STATICCALL ISZERO DUP1 ISZERO PUSH2 0x2378 JUMPI RETURNDATASIZE PUSH1 0x0 DUP1 RETURNDATACOPY RETURNDATASIZE PUSH1 0x0 REVERT JUMPDEST POP POP POP POP PUSH1 0x40 MLOAD RETURNDATASIZE PUSH1 0x1F NOT PUSH1 0x1F DUP3 ADD AND DUP3 ADD DUP1 PUSH1 0x40 MSTORE POP DUP2 ADD SWAP1 PUSH2 0x239C SWAP2 SWAP1 PUSH2 0x31AD JUMP JUMPDEST PUSH2 0x23DB JUMPI PUSH1 0x40 MLOAD PUSH32 0x8C379A000000000000000000000000000000000000000000000000000000000 DUP2 MSTORE PUSH1 0x4 ADD PUSH2 0x23D2 SWAP1 PUSH2 0x3226 JUMP JUMPDEST PUSH1 0x40 MLOAD DUP1 SWAP2 SUB SWAP1 REVERT JUMPDEST PUSH1 0x1 SWAP2 POP POP SWAP4 SWAP3 POP POP POP JUMP JUMPDEST PUSH1 0x1 PUSH1 0x0 SWAP1 SLOAD SWAP1 PUSH2 0x100 EXP SWAP1 DIV PUSH20 0xFFFFFFFFFFFFFFFFFFFFFFFFFFFFFFFFFFFFFFFF AND DUP2 JUMP JUMPDEST PUSH1 0x4 PUSH1 0x1 SWAP1 SLOAD SWAP1 PUSH2 0x100 EXP SWAP1 DIV PUSH1 0xFF AND DUP2 JUMP JUMPDEST PUSH1 0x2 PUSH1 0x0 SWAP1 SLOAD SWAP1 PUSH2 0x100 EXP SWAP1 DIV PUSH20 0xFFFFFFFFFFFFFFFFFFFFFFFFFFFFFFFFFFFFFFFF AND PUSH20 0xFFFFFFFFFFFFFFFFFFFFFFFFFFFFFFFFFFFFFFFF AND CALLER PUSH20 0xFFFFFFFFFFFFFFFFFFFFFFFFFFFFFFFFFFFFFFFF AND EQ PUSH2 0x24B0 JUMPI PUSH1 0x40 MLOAD PUSH32 0x8C379A000000000000000000000000000000000000000000000000000000000 DUP2 MSTORE PUSH1 0x4 ADD PUSH2 0x24A7 SWAP1 PUSH2 0x2E16 JUMP JUMPDEST PUSH1 0x40 MLOAD DUP1 SWAP2 SUB SWAP1 REVERT JUMPDEST PUSH1 0x1 PUSH1 0x4 PUSH1 0x1 PUSH2 0x100 EXP DUP2 SLOAD DUP2 PUSH1 0xFF MUL NOT AND SWAP1 DUP4 ISZERO ISZERO MUL OR SWAP1 SSTORE POP JUMP JUMPDEST PUSH1 0x2 PUSH1 0x0 SWAP1 SLOAD SWAP1 PUSH2 0x100 EXP SWAP1 DIV PUSH20 0xFFFFFFFFFFFFFFFFFFFFFFFFFFFFFFFFFFFFFFFF AND DUP2 JUMP JUMPDEST PUSH1 0x0 DUP1 SLOAD SWAP1 PUSH2 0x100 EXP SWAP1 DIV PUSH20 0xFFFFFFFFFFFFFFFFFFFFFFFFFFFFFFFFFFFFFFFF AND PUSH20 0xFFFFFFFFFFFFFFFFFFFFFFFFFFFFFFFFFFFFFFFF AND CALLER PUSH20 0xFFFFFFFFFFFFFFFFFFFFFFFFFFFFFFFFFFFFFFFF AND EQ PUSH2 0x2581 JUMPI PUSH1 0x40 MLOAD PUSH32 0x8C379A000000000000000000000000000000000000000000000000000000000 DUP2 MSTORE PUSH1 0x4 ADD PUSH2 0x2578 SWAP1 PUSH2 0x3292 JUMP JUMPDEST PUSH1 0x40 MLOAD DUP1 SWAP2 SUB SWAP1 REVERT JUMPDEST PUSH1 0x1 ISZERO ISZERO PUSH1 0x4 PUSH1 0x0 SWAP1 SLOAD SWAP1 PUSH2 0x100 EXP SWAP1 DIV PUSH1 0xFF AND ISZERO ISZERO EQ PUSH2 0x25D7 JUMPI PUSH1 0x40 MLOAD PUSH32 0x8C379A000000000000000000000000000000000000000000000000000000000 DUP2 MSTORE PUSH1 0x4 ADD PUSH2 0x25CE SWAP1 PUSH2 0x32FE JUMP JUMPDEST PUSH1 0x40 MLOAD DUP1 SWAP2 SUB SWAP1 REVERT JUMPDEST PUSH1 0x4 PUSH1 0x1 SWAP1 SLOAD SWAP1 PUSH2 0x100 EXP SWAP1 DIV PUSH1 0xFF AND ISZERO PUSH2 0x2627 JUMPI PUSH1 0x40 MLOAD PUSH32 0x8C379A000000000000000000000000000000000000000000000000000000000 DUP2 MSTORE PUSH1 0x4 ADD PUSH2 0x261E SWAP1 PUSH2 0x2F5A JUMP JUMPDEST PUSH1 0x40 MLOAD DUP1 SWAP2 SUB SWAP1 REVERT JUMPDEST PUSH1 0x0 JUMPDEST DUP4 DUP4 SWAP1 POP DUP2 LT ISZERO PUSH2 0x27E3 JUMPI PUSH1 0x0 DUP5 DUP5 DUP4 DUP2 DUP2 LT PUSH2 0x264A JUMPI PUSH2 0x2649 PUSH2 0x301D JUMP JUMPDEST JUMPDEST SWAP1 POP PUSH1 0x20 MUL ADD PUSH1 0x20 DUP2 ADD SWAP1 PUSH2 0x265F SWAP2 SWAP1 PUSH2 0x331E JUMP JUMPDEST SWAP1 POP PUSH1 0x0 DUP2 PUSH20 0xFFFFFFFFFFFFFFFFFFFFFFFFFFFFFFFFFFFFFFFF AND PUSH4 0xDD62ED3E PUSH1 0x1 PUSH1 0x0 SWAP1 SLOAD SWAP1 PUSH2 0x100 EXP SWAP1 DIV PUSH20 0xFFFFFFFFFFFFFFFFFFFFFFFFFFFFFFFFFFFFFFFF AND ADDRESS PUSH1 0x40 MLOAD DUP4 PUSH4 0xFFFFFFFF AND PUSH1 0xE0 SHL DUP2 MSTORE PUSH1 0x4 ADD PUSH2 0x26C0 SWAP3 SWAP2 SWAP1 PUSH2 0x334B JUMP JUMPDEST PUSH1 0x20 PUSH1 0x40 MLOAD DUP1 DUP4 SUB DUP2 DUP7 DUP1 EXTCODESIZE ISZERO DUP1 ISZERO PUSH2 0x26D8 JUMPI PUSH1 0x0 DUP1 REVERT JUMPDEST POP GAS STATICCALL ISZERO DUP1 ISZERO PUSH2 0x26EC JUMPI RETURNDATASIZE PUSH1 0x0 DUP1 RETURNDATACOPY RETURNDATASIZE PUSH1 0x0 REVERT JUMPDEST POP POP POP POP PUSH1 0x40 MLOAD RETURNDATASIZE PUSH1 0x1F NOT PUSH1 0x1F DUP3 ADD AND DUP3 ADD DUP1 PUSH1 0x40 MSTORE POP DUP2 ADD SWAP1 PUSH2 0x2710 SWAP2 SWAP1 PUSH2 0x3389 JUMP JUMPDEST SWAP1 POP PUSH1 0x0 DUP2 GT ISZERO PUSH2 0x27CE JUMPI DUP2 PUSH20 0xFFFFFFFFFFFFFFFFFFFFFFFFFFFFFFFFFFFFFFFF AND PUSH4 0x23B872DD PUSH1 0x1 PUSH1 0x0 SWAP1 SLOAD SWAP1 PUSH2 0x100 EXP SWAP1 DIV PUSH20 0xFFFFFFFFFFFFFFFFFFFFFFFFFFFFFFFFFFFFFFFF AND DUP7 DUP5 PUSH1 0x40 MLOAD DUP5 PUSH4 0xFFFFFFFF AND PUSH1 0xE0 SHL DUP2 MSTORE PUSH1 0x4 ADD PUSH2 0x277A SWAP4 SWAP3 SWAP2 SWAP1 PUSH2 0x2FE6 JUMP JUMPDEST PUSH1 0x20 PUSH1 0x40 MLOAD DUP1 DUP4 SUB DUP2 PUSH1 0x0 DUP8 DUP1 EXTCODESIZE ISZERO DUP1 ISZERO PUSH2 0x2794 JUMPI PUSH1 0x0 DUP1 REVERT JUMPDEST POP GAS CALL ISZERO DUP1 ISZERO PUSH2 0x27A8 JUMPI RETURNDATASIZE PUSH1 0x0 DUP1 RETURNDATACOPY RETURNDATASIZE PUSH1 0x0 REVERT JUMPDEST POP POP POP POP PUSH1 0x40 MLOAD RETURNDATASIZE PUSH1 0x1F NOT PUSH1 0x1F DUP3 ADD AND DUP3 ADD DUP1 PUSH1 0x40 MSTORE POP DUP2 ADD SWAP1 PUSH2 0x27CC SWAP2 SWAP1 PUSH2 0x31AD JUMP JUMPDEST POP JUMPDEST POP POP DUP1 DUP1 PUSH2 0x27DB SWAP1 PUSH2 0x33E5 JUMP JUMPDEST SWAP2 POP POP PUSH2 0x262A JUMP JUMPDEST POP POP POP POP JUMP JUMPDEST PUSH1 0x3 SLOAD DUP2 JUMP JUMPDEST PUSH1 0x0 PUSH1 0x40 MLOAD SWAP1 POP SWAP1 JUMP JUMPDEST PUSH1 0x0 DUP1 REVERT JUMPDEST PUSH1 0x0 DUP1 REVERT JUMPDEST PUSH1 0x0 DUP1 REVERT JUMPDEST PUSH1 0x0 DUP1 REVERT JUMPDEST PUSH1 0x0 PUSH1 0x1F NOT PUSH1 0x1F DUP4 ADD AND SWAP1 POP SWAP2 SWAP1 POP JUMP JUMPDEST PUSH32 0x4E487B7100000000000000000000000000000000000000000000000000000000 PUSH1 0x0 MSTORE PUSH1 0x41 PUSH1 0x4 MSTORE PUSH1 0x24 PUSH1 0x0 REVERT JUMPDEST PUSH2 0x2856 DUP3 PUSH2 0x280D JUMP JUMPDEST DUP2 ADD DUP2 DUP2 LT PUSH8 0xFFFFFFFFFFFFFFFF DUP3 GT OR ISZERO PUSH2 0x2875 JUMPI PUSH2 0x2874 PUSH2 0x281E JUMP JUMPDEST JUMPDEST DUP1 PUSH1 0x40 MSTORE POP POP POP JUMP JUMPDEST PUSH1 0x0 PUSH2 0x2888 PUSH2 0x27EF JUMP JUMPDEST SWAP1 POP PUSH2 0x2894 DUP3 DUP3 PUSH2 0x284D JUMP JUMPDEST SWAP2 SWAP1 POP JUMP JUMPDEST PUSH1 0x0 PUSH8 0xFFFFFFFFFFFFFFFF DUP3 GT ISZERO PUSH2 0x28B4 JUMPI PUSH2 0x28B3 PUSH2 0x281E JUMP JUMPDEST JUMPDEST PUSH2 0x28BD DUP3 PUSH2 0x280D JUMP JUMPDEST SWAP1 POP PUSH1 0x20 DUP2 ADD SWAP1 POP SWAP2 SWAP1 POP JUMP JUMPDEST DUP3 DUP2 DUP4 CALLDATACOPY PUSH1 0x0 DUP4 DUP4 ADD MSTORE POP POP POP JUMP JUMPDEST PUSH1 0x0 PUSH2 0x28EC PUSH2 0x28E7 DUP5 PUSH2 0x2899 JUMP JUMPDEST PUSH2 0x287E JUMP JUMPDEST SWAP1 POP DUP3 DUP2 MSTORE PUSH1 0x20 DUP2 ADD DUP5 DUP5 DUP5 ADD GT ISZERO PUSH2 0x2908 JUMPI PUSH2 0x2907 PUSH2 0x2808 JUMP JUMPDEST JUMPDEST PUSH2 0x2913 DUP5 DUP3 DUP6 PUSH2 0x28CA JUMP JUMPDEST POP SWAP4 SWAP3 POP POP POP JUMP JUMPDEST PUSH1 0x0 DUP3 PUSH1 0x1F DUP4 ADD SLT PUSH2 0x2930 JUMPI PUSH2 0x292F PUSH2 0x2803 JUMP JUMPDEST JUMPDEST DUP2 CALLDATALOAD PUSH2 0x2940 DUP5 DUP3 PUSH1 0x20 DUP7 ADD PUSH2 0x28D9 JUMP JUMPDEST SWAP2 POP POP SWAP3 SWAP2 POP POP JUMP JUMPDEST PUSH1 0x0 PUSH8 0xFFFFFFFFFFFFFFFF DUP3 GT ISZERO PUSH2 0x2964 JUMPI PUSH2 0x2963 PUSH2 0x281E JUMP JUMPDEST JUMPDEST PUSH1 0x20 DUP3 MUL SWAP1 POP PUSH1 0x20 DUP2 ADD SWAP1 POP SWAP2 SWAP1 POP JUMP JUMPDEST PUSH1 0x0 DUP1 REVERT JUMPDEST PUSH1 0x0 DUP2 SWAP1 POP SWAP2 SWAP1 POP JUMP JUMPDEST PUSH2 0x298D DUP2 PUSH2 0x297A JUMP JUMPDEST DUP2 EQ PUSH2 0x2998 JUMPI PUSH1 0x0 DUP1 REVERT JUMPDEST POP JUMP JUMPDEST PUSH1 0x0 DUP2 CALLDATALOAD SWAP1 POP PUSH2 0x29AA DUP2 PUSH2 0x2984 JUMP JUMPDEST SWAP3 SWAP2 POP POP JUMP JUMPDEST PUSH1 0x0 PUSH2 0x29C3 PUSH2 0x29BE DUP5 PUSH2 0x2949 JUMP JUMPDEST PUSH2 0x287E JUMP JUMPDEST SWAP1 POP DUP1 DUP4 DUP3 MSTORE PUSH1 0x20 DUP3 ADD SWAP1 POP PUSH1 0x20 DUP5 MUL DUP4 ADD DUP6 DUP2 GT ISZERO PUSH2 0x29E6 JUMPI PUSH2 0x29E5 PUSH2 0x2975 JUMP JUMPDEST JUMPDEST DUP4 JUMPDEST DUP2 DUP2 LT ISZERO PUSH2 0x2A0F JUMPI DUP1 PUSH2 0x29FB DUP9 DUP3 PUSH2 0x299B JUMP JUMPDEST DUP5 MSTORE PUSH1 0x20 DUP5 ADD SWAP4 POP POP PUSH1 0x20 DUP2 ADD SWAP1 POP PUSH2 0x29E8 JUMP JUMPDEST POP POP POP SWAP4 SWAP3 POP POP POP JUMP JUMPDEST PUSH1 0x0 DUP3 PUSH1 0x1F DUP4 ADD SLT PUSH2 0x2A2E JUMPI PUSH2 0x2A2D PUSH2 0x2803 JUMP JUMPDEST JUMPDEST DUP2 CALLDATALOAD PUSH2 0x2A3E DUP5 DUP3 PUSH1 0x20 DUP7 ADD PUSH2 0x29B0 JUMP JUMPDEST SWAP2 POP POP SWAP3 SWAP2 POP POP JUMP JUMPDEST PUSH1 0x0 DUP1 PUSH1 0x40 DUP4 DUP6 SUB SLT ISZERO PUSH2 0x2A5E JUMPI PUSH2 0x2A5D PUSH2 0x27F9 JUMP JUMPDEST JUMPDEST PUSH1 0x0 DUP4 ADD CALLDATALOAD PUSH8 0xFFFFFFFFFFFFFFFF DUP2 GT ISZERO PUSH2 0x2A7C JUMPI PUSH2 0x2A7B PUSH2 0x27FE JUMP JUMPDEST JUMPDEST PUSH2 0x2A88 DUP6 DUP3 DUP7 ADD PUSH2 0x291B JUMP JUMPDEST SWAP3 POP POP PUSH1 0x20 DUP4 ADD CALLDATALOAD PUSH8 0xFFFFFFFFFFFFFFFF DUP2 GT ISZERO PUSH2 0x2AA9 JUMPI PUSH2 0x2AA8 PUSH2 0x27FE JUMP JUMPDEST JUMPDEST PUSH2 0x2AB5 DUP6 DUP3 DUP7 ADD PUSH2 0x2A19 JUMP JUMPDEST SWAP2 POP POP SWAP3 POP SWAP3 SWAP1 POP JUMP JUMPDEST PUSH1 0x0 DUP2 ISZERO ISZERO SWAP1 POP SWAP2 SWAP1 POP JUMP JUMPDEST PUSH2 0x2AD4 DUP2 PUSH2 0x2ABF JUMP JUMPDEST DUP3 MSTORE POP POP JUMP JUMPDEST PUSH1 0x0 PUSH1 0x20 DUP3 ADD SWAP1 POP PUSH2 0x2AEF PUSH1 0x0 DUP4 ADD DUP5 PUSH2 0x2ACB JUMP JUMPDEST SWAP3 SWAP2 POP POP JUMP JUMPDEST PUSH2 0x2AFE DUP2 PUSH2 0x297A JUMP JUMPDEST DUP3 MSTORE POP POP JUMP JUMPDEST PUSH1 0x0 PUSH1 0x20 DUP3 ADD SWAP1 POP PUSH2 0x2B19 PUSH1 0x0 DUP4 ADD DUP5 PUSH2 0x2AF5 JUMP JUMPDEST SWAP3 SWAP2 POP POP JUMP JUMPDEST PUSH1 0x0 DUP1 REVERT JUMPDEST PUSH1 0x0 DUP1 DUP4 PUSH1 0x1F DUP5 ADD SLT PUSH2 0x2B3A JUMPI PUSH2 0x2B39 PUSH2 0x2803 JUMP JUMPDEST JUMPDEST DUP3 CALLDATALOAD SWAP1 POP PUSH8 0xFFFFFFFFFFFFFFFF DUP2 GT ISZERO PUSH2 0x2B57 JUMPI PUSH2 0x2B56 PUSH2 0x2B1F JUMP JUMPDEST JUMPDEST PUSH1 0x20 DUP4 ADD SWAP2 POP DUP4 PUSH1 0x1 DUP3 MUL DUP4 ADD GT ISZERO PUSH2 0x2B73 JUMPI PUSH2 0x2B72 PUSH2 0x2975 JUMP JUMPDEST JUMPDEST SWAP3 POP SWAP3 SWAP1 POP JUMP JUMPDEST PUSH1 0x0 PUSH20 0xFFFFFFFFFFFFFFFFFFFFFFFFFFFFFFFFFFFFFFFF DUP3 AND SWAP1 POP SWAP2 SWAP1 POP JUMP JUMPDEST PUSH1 0x0 PUSH2 0x2BA5 DUP3 PUSH2 0x2B7A JUMP JUMPDEST SWAP1 POP SWAP2 SWAP1 POP JUMP JUMPDEST PUSH2 0x2BB5 DUP2 PUSH2 0x2B9A JUMP JUMPDEST DUP2 EQ PUSH2 0x2BC0 JUMPI PUSH1 0x0 DUP1 REVERT JUMPDEST POP JUMP JUMPDEST PUSH1 0x0 DUP2 CALLDATALOAD SWAP1 POP PUSH2 0x2BD2 DUP2 PUSH2 0x2BAC JUMP JUMPDEST SWAP3 SWAP2 POP POP JUMP JUMPDEST PUSH1 0x0 DUP1 PUSH1 0x0 DUP1 PUSH1 0x60 DUP6 DUP8 SUB SLT ISZERO PUSH2 0x2BF2 JUMPI PUSH2 0x2BF1 PUSH2 0x27F9 JUMP JUMPDEST JUMPDEST PUSH1 0x0 PUSH2 0x2C00 DUP8 DUP3 DUP9 ADD PUSH2 0x299B JUMP JUMPDEST SWAP5 POP POP PUSH1 0x20 DUP6 ADD CALLDATALOAD PUSH8 0xFFFFFFFFFFFFFFFF DUP2 GT ISZERO PUSH2 0x2C21 JUMPI PUSH2 0x2C20 PUSH2 0x27FE JUMP JUMPDEST JUMPDEST PUSH2 0x2C2D DUP8 DUP3 DUP9 ADD PUSH2 0x2B24 JUMP JUMPDEST SWAP4 POP SWAP4 POP POP PUSH1 0x40 PUSH2 0x2C40 DUP8 DUP3 DUP9 ADD PUSH2 0x2BC3 JUMP JUMPDEST SWAP2 POP POP SWAP3 SWAP6 SWAP2 SWAP5 POP SWAP3 POP JUMP JUMPDEST PUSH2 0x2C55 DUP2 PUSH2 0x2B9A JUMP JUMPDEST DUP3 MSTORE POP POP JUMP JUMPDEST PUSH1 0x0 PUSH1 0x20 DUP3 ADD SWAP1 POP PUSH2 0x2C70 PUSH1 0x0 DUP4 ADD DUP5 PUSH2 0x2C4C JUMP JUMPDEST SWAP3 SWAP2 POP POP JUMP JUMPDEST PUSH1 0x0 PUSH1 0x20 DUP3 DUP5 SUB SLT ISZERO PUSH2 0x2C8C JUMPI PUSH2 0x2C8B PUSH2 0x27F9 JUMP JUMPDEST JUMPDEST PUSH1 0x0 PUSH2 0x2C9A DUP5 DUP3 DUP6 ADD PUSH2 0x299B JUMP JUMPDEST SWAP2 POP POP SWAP3 SWAP2 POP POP JUMP JUMPDEST PUSH1 0x0 DUP1 PUSH1 0x0 PUSH1 0x40 DUP5 DUP7 SUB SLT ISZERO PUSH2 0x2CBC JUMPI PUSH2 0x2CBB PUSH2 0x27F9 JUMP JUMPDEST JUMPDEST PUSH1 0x0 DUP5 ADD CALLDATALOAD PUSH8 0xFFFFFFFFFFFFFFFF DUP2 GT ISZERO PUSH2 0x2CDA JUMPI PUSH2 0x2CD9 PUSH2 0x27FE JUMP JUMPDEST JUMPDEST PUSH2 0x2CE6 DUP7 DUP3 DUP8 ADD PUSH2 0x2B24 JUMP JUMPDEST SWAP4 POP SWAP4 POP POP PUSH1 0x20 PUSH2 0x2CF9 DUP7 DUP3 DUP8 ADD PUSH2 0x2BC3 JUMP JUMPDEST SWAP2 POP POP SWAP3 POP SWAP3 POP SWAP3 JUMP JUMPDEST PUSH1 0x0 DUP1 DUP4 PUSH1 0x1F DUP5 ADD SLT PUSH2 0x2D19 JUMPI PUSH2 0x2D18 PUSH2 0x2803 JUMP JUMPDEST JUMPDEST DUP3 CALLDATALOAD SWAP1 POP PUSH8 0xFFFFFFFFFFFFFFFF DUP2 GT ISZERO PUSH2 0x2D36 JUMPI PUSH2 0x2D35 PUSH2 0x2B1F JUMP JUMPDEST JUMPDEST PUSH1 0x20 DUP4 ADD SWAP2 POP DUP4 PUSH1 0x20 DUP3 MUL DUP4 ADD GT ISZERO PUSH2 0x2D52 JUMPI PUSH2 0x2D51 PUSH2 0x2975 JUMP JUMPDEST JUMPDEST SWAP3 POP SWAP3 SWAP1 POP JUMP JUMPDEST PUSH1 0x0 DUP1 PUSH1 0x0 PUSH1 0x40 DUP5 DUP7 SUB SLT ISZERO PUSH2 0x2D72 JUMPI PUSH2 0x2D71 PUSH2 0x27F9 JUMP JUMPDEST JUMPDEST PUSH1 0x0 DUP5 ADD CALLDATALOAD PUSH8 0xFFFFFFFFFFFFFFFF DUP2 GT ISZERO PUSH2 0x2D90 JUMPI PUSH2 0x2D8F PUSH2 0x27FE JUMP JUMPDEST JUMPDEST PUSH2 0x2D9C DUP7 DUP3 DUP8 ADD PUSH2 0x2D03 JUMP JUMPDEST SWAP4 POP SWAP4 POP POP PUSH1 0x20 PUSH2 0x2DAF DUP7 DUP3 DUP8 ADD PUSH2 0x2BC3 JUMP JUMPDEST SWAP2 POP POP SWAP3 POP SWAP3 POP SWAP3 JUMP JUMPDEST PUSH1 0x0 DUP3 DUP3 MSTORE PUSH1 0x20 DUP3 ADD SWAP1 POP SWAP3 SWAP2 POP POP JUMP JUMPDEST PUSH32 0x4E6F742067617465776179000000000000000000000000000000000000000000 PUSH1 0x0 DUP3 ADD MSTORE POP JUMP JUMPDEST PUSH1 0x0 PUSH2 0x2E00 PUSH1 0xB DUP4 PUSH2 0x2DB9 JUMP JUMPDEST SWAP2 POP PUSH2 0x2E0B DUP3 PUSH2 0x2DCA JUMP JUMPDEST PUSH1 0x20 DUP3 ADD SWAP1 POP SWAP2 SWAP1 POP JUMP JUMPDEST PUSH1 0x0 PUSH1 0x20 DUP3 ADD SWAP1 POP DUP2 DUP2 SUB PUSH1 0x0 DUP4 ADD MSTORE PUSH2 0x2E2F DUP2 PUSH2 0x2DF3 JUMP JUMPDEST SWAP1 POP SWAP2 SWAP1 POP JUMP JUMPDEST PUSH32 0x4E756C6C20616464726573730000000000000000000000000000000000000000 PUSH1 0x0 DUP3 ADD MSTORE POP JUMP JUMPDEST PUSH1 0x0 PUSH2 0x2E6C PUSH1 0xC DUP4 PUSH2 0x2DB9 JUMP JUMPDEST SWAP2 POP PUSH2 0x2E77 DUP3 PUSH2 0x2E36 JUMP JUMPDEST PUSH1 0x20 DUP3 ADD SWAP1 POP SWAP2 SWAP1 POP JUMP JUMPDEST PUSH1 0x0 PUSH1 0x20 DUP3 ADD SWAP1 POP DUP2 DUP2 SUB PUSH1 0x0 DUP4 ADD MSTORE PUSH2 0x2E9B DUP2 PUSH2 0x2E5F JUMP JUMPDEST SWAP1 POP SWAP2 SWAP1 POP JUMP JUMPDEST PUSH32 0x416C726561647920616374697665000000000000000000000000000000000000 PUSH1 0x0 DUP3 ADD MSTORE POP JUMP JUMPDEST PUSH1 0x0 PUSH2 0x2ED8 PUSH1 0xE DUP4 PUSH2 0x2DB9 JUMP JUMPDEST SWAP2 POP PUSH2 0x2EE3 DUP3 PUSH2 0x2EA2 JUMP JUMPDEST PUSH1 0x20 DUP3 ADD SWAP1 POP SWAP2 SWAP1 POP JUMP JUMPDEST PUSH1 0x0 PUSH1 0x20 DUP3 ADD SWAP1 POP DUP2 DUP2 SUB PUSH1 0x0 DUP4 ADD MSTORE PUSH2 0x2F07 DUP2 PUSH2 0x2ECB JUMP JUMPDEST SWAP1 POP SWAP2 SWAP1 POP JUMP JUMPDEST PUSH32 0x416C7265616479207465726D696E617465640000000000000000000000000000 PUSH1 0x0 DUP3 ADD MSTORE POP JUMP JUMPDEST PUSH1 0x0 PUSH2 0x2F44 PUSH1 0x12 DUP4 PUSH2 0x2DB9 JUMP JUMPDEST SWAP2 POP PUSH2 0x2F4F DUP3 PUSH2 0x2F0E JUMP JUMPDEST PUSH1 0x20 DUP3 ADD SWAP1 POP SWAP2 SWAP1 POP JUMP JUMPDEST PUSH1 0x0 PUSH1 0x20 DUP3 ADD SWAP1 POP DUP2 DUP2 SUB PUSH1 0x0 DUP4 ADD MSTORE PUSH2 0x2F73 DUP2 PUSH2 0x2F37 JUMP JUMPDEST SWAP1 POP SWAP2 SWAP1 POP JUMP JUMPDEST PUSH32 0x496E616374697669747920746F6F2073686F7274000000000000000000000000 PUSH1 0x0 DUP3 ADD MSTORE POP JUMP JUMPDEST PUSH1 0x0 PUSH2 0x2FB0 PUSH1 0x14 DUP4 PUSH2 0x2DB9 JUMP JUMPDEST SWAP2 POP PUSH2 0x2FBB DUP3 PUSH2 0x2F7A JUMP JUMPDEST PUSH1 0x20 DUP3 ADD SWAP1 POP SWAP2 SWAP1 POP JUMP JUMPDEST PUSH1 0x0 PUSH1 0x20 DUP3 ADD SWAP1 POP DUP2 DUP2 SUB PUSH1 0x0 DUP4 ADD MSTORE PUSH2 0x2FDF DUP2 PUSH2 0x2FA3 JUMP JUMPDEST SWAP1 POP SWAP2 SWAP1 POP JUMP JUMPDEST PUSH1 0x0 PUSH1 0x60 DUP3 ADD SWAP1 POP PUSH2 0x2FFB PUSH1 0x0 DUP4 ADD DUP7 PUSH2 0x2C4C JUMP JUMPDEST PUSH2 0x3008 PUSH1 0x20 DUP4 ADD DUP6 PUSH2 0x2C4C JUMP JUMPDEST PUSH2 0x3015 PUSH1 0x40 DUP4 ADD DUP5 PUSH2 0x2AF5 JUMP JUMPDEST SWAP5 SWAP4 POP POP POP POP JUMP JUMPDEST PUSH32 0x4E487B7100000000000000000000000000000000000000000000000000000000 PUSH1 0x0 MSTORE PUSH1 0x32 PUSH1 0x4 MSTORE PUSH1 0x24 PUSH1 0x0 REVERT JUMPDEST PUSH1 0x0 DUP3 DUP3 MSTORE PUSH1 0x20 DUP3 ADD SWAP1 POP SWAP3 SWAP2 POP POP JUMP JUMPDEST PUSH1 0x0 PUSH2 0x3069 DUP4 DUP6 PUSH2 0x304C JUMP JUMPDEST SWAP4 POP PUSH2 0x3076 DUP4 DUP6 DUP5 PUSH2 0x28CA JUMP JUMPDEST PUSH2 0x307F DUP4 PUSH2 0x280D JUMP JUMPDEST DUP5 ADD SWAP1 POP SWAP4 SWAP3 POP POP POP JUMP JUMPDEST PUSH1 0x0 DUP2 MLOAD SWAP1 POP SWAP2 SWAP1 POP JUMP JUMPDEST PUSH1 0x0 DUP3 DUP3 MSTORE PUSH1 0x20 DUP3 ADD SWAP1 POP SWAP3 SWAP2 POP POP JUMP JUMPDEST PUSH1 0x0 DUP2 SWAP1 POP PUSH1 0x20 DUP3 ADD SWAP1 POP SWAP2 SWAP1 POP JUMP JUMPDEST PUSH2 0x30BF DUP2 PUSH2 0x297A JUMP JUMPDEST DUP3 MSTORE POP POP JUMP JUMPDEST PUSH1 0x0 PUSH2 0x30D1 DUP4 DUP4 PUSH2 0x30B6 JUMP JUMPDEST PUSH1 0x20 DUP4 ADD SWAP1 POP SWAP3 SWAP2 POP POP JUMP JUMPDEST PUSH1 0x0 PUSH1 0x20 DUP3 ADD SWAP1 POP SWAP2 SWAP1 POP JUMP JUMPDEST PUSH1 0x0 PUSH2 0x30F5 DUP3 PUSH2 0x308A JUMP JUMPDEST PUSH2 0x30FF DUP2 DUP6 PUSH2 0x3095 JUMP JUMPDEST SWAP4 POP PUSH2 0x310A DUP4 PUSH2 0x30A6 JUMP JUMPDEST DUP1 PUSH1 0x0 JUMPDEST DUP4 DUP2 LT ISZERO PUSH2 0x313B JUMPI DUP2 MLOAD PUSH2 0x3122 DUP9 DUP3 PUSH2 0x30C5 JUMP JUMPDEST SWAP8 POP PUSH2 0x312D DUP4 PUSH2 0x30DD JUMP JUMPDEST SWAP3 POP POP PUSH1 0x1 DUP2 ADD SWAP1 POP PUSH2 0x310E JUMP JUMPDEST POP DUP6 SWAP4 POP POP POP POP SWAP3 SWAP2 POP POP JUMP JUMPDEST PUSH1 0x0 PUSH1 0x40 DUP3 ADD SWAP1 POP DUP2 DUP2 SUB PUSH1 0x0 DUP4 ADD MSTORE PUSH2 0x3163 DUP2 DUP6 DUP8 PUSH2 0x305D JUMP JUMPDEST SWAP1 POP DUP2 DUP2 SUB PUSH1 0x20 DUP4 ADD MSTORE PUSH2 0x3177 DUP2 DUP5 PUSH2 0x30EA JUMP JUMPDEST SWAP1 POP SWAP5 SWAP4 POP POP POP POP JUMP JUMPDEST PUSH2 0x318A DUP2 PUSH2 0x2ABF JUMP JUMPDEST DUP2 EQ PUSH2 0x3195 JUMPI PUSH1 0x0 DUP1 REVERT JUMPDEST POP JUMP JUMPDEST PUSH1 0x0 DUP2 MLOAD SWAP1 POP PUSH2 0x31A7 DUP2 PUSH2 0x3181 JUMP JUMPDEST SWAP3 SWAP2 POP POP JUMP JUMPDEST PUSH1 0x0 PUSH1 0x20 DUP3 DUP5 SUB SLT ISZERO PUSH2 0x31C3 JUMPI PUSH2 0x31C2 PUSH2 0x27F9 JUMP JUMPDEST JUMPDEST PUSH1 0x0 PUSH2 0x31D1 DUP5 DUP3 DUP6 ADD PUSH2 0x3198 JUMP JUMPDEST SWAP2 POP POP SWAP3 SWAP2 POP POP JUMP JUMPDEST PUSH32 0x50726F6F6620766572696669636174696F6E206661696C656400000000000000 PUSH1 0x0 DUP3 ADD MSTORE POP JUMP JUMPDEST PUSH1 0x0 PUSH2 0x3210 PUSH1 0x19 DUP4 PUSH2 0x2DB9 JUMP JUMPDEST SWAP2 POP PUSH2 0x321B DUP3 PUSH2 0x31DA JUMP JUMPDEST PUSH1 0x20 DUP3 ADD SWAP1 POP SWAP2 SWAP1 POP JUMP JUMPDEST PUSH1 0x0 PUSH1 0x20 DUP3 ADD SWAP1 POP DUP2 DUP2 SUB PUSH1 0x0 DUP4 ADD MSTORE PUSH2 0x323F DUP2 PUSH2 0x3203 JUMP JUMPDEST SWAP1 POP SWAP2 SWAP1 POP JUMP JUMPDEST PUSH32 0x4F6E6C7920726563697069656E74000000000000000000000000000000000000 PUSH1 0x0 DUP3 ADD MSTORE POP JUMP JUMPDEST PUSH1 0x0 PUSH2 0x327C PUSH1 0xE DUP4 PUSH2 0x2DB9 JUMP JUMPDEST SWAP2 POP PUSH2 0x3287 DUP3 PUSH2 0x3246 JUMP JUMPDEST PUSH1 0x20 DUP3 ADD SWAP1 POP SWAP2 SWAP1 POP JUMP JUMPDEST PUSH1 0x0 PUSH1 0x20 DUP3 ADD SWAP1 POP DUP2 DUP2 SUB PUSH1 0x0 DUP4 ADD MSTORE PUSH2 0x32AB DUP2 PUSH2 0x326F JUMP JUMPDEST SWAP1 POP SWAP2 SWAP1 POP JUMP JUMPDEST PUSH32 0x4E6F742061637469766500000000000000000000000000000000000000000000 PUSH1 0x0 DUP3 ADD MSTORE POP JUMP JUMPDEST PUSH1 0x0 PUSH2 0x32E8 PUSH1 0xA DUP4 PUSH2 0x2DB9 JUMP JUMPDEST SWAP2 POP PUSH2 0x32F3 DUP3 PUSH2 0x32B2 JUMP JUMPDEST PUSH1 0x20 DUP3 ADD SWAP1 POP SWAP2 SWAP1 POP JUMP JUMPDEST PUSH1 0x0 PUSH1 0x20 DUP3 ADD SWAP1 POP DUP2 DUP2 SUB PUSH1 0x0 DUP4 ADD MSTORE PUSH2 0x3317 DUP2 PUSH2 0x32DB JUMP JUMPDEST SWAP1 POP SWAP2 SWAP1 POP JUMP JUMPDEST PUSH1 0x0 PUSH1 0x20 DUP3 DUP5 SUB SLT ISZERO PUSH2 0x3334 JUMPI PUSH2 0x3333 PUSH2 0x27F9 JUMP JUMPDEST JUMPDEST PUSH1 0x0 PUSH2 0x3342 DUP5 DUP3 DUP6 ADD PUSH2 0x2BC3 JUMP JUMPDEST SWAP2 POP POP SWAP3 SWAP2 POP POP JUMP JUMPDEST PUSH1 0x0 PUSH1 0x40 DUP3 ADD SWAP1 POP PUSH2 0x3360 PUSH1 0x0 DUP4 ADD DUP6 PUSH2 0x2C4C JUMP JUMPDEST PUSH2 0x336D PUSH1 0x20 DUP4 ADD DUP5 PUSH2 0x2C4C JUMP JUMPDEST SWAP4 SWAP3 POP POP POP JUMP JUMPDEST PUSH1 0x0 DUP2 MLOAD SWAP1 POP PUSH2 0x3383 DUP2 PUSH2 0x2984 JUMP JUMPDEST SWAP3 SWAP2 POP POP JUMP JUMPDEST PUSH1 0x0 PUSH1 0x20 DUP3 DUP5 SUB SLT ISZERO PUSH2 0x339F JUMPI PUSH2 0x339E PUSH2 0x27F9 JUMP JUMPDEST JUMPDEST PUSH1 0x0 PUSH2 0x33AD DUP5 DUP3 DUP6 ADD PUSH2 0x3374 JUMP JUMPDEST SWAP2 POP POP SWAP3 SWAP2 POP POP JUMP JUMPDEST PUSH32 0x4E487B7100000000000000000000000000000000000000000000000000000000 PUSH1 0x0 MSTORE PUSH1 0x11 PUSH1 0x4 MSTORE PUSH1 0x24 PUSH1 0x0 REVERT JUMPDEST PUSH1 0x0 PUSH2 0x33F0 DUP3 PUSH2 0x297A JUMP JUMPDEST SWAP2 POP PUSH32 0xFFFFFFFFFFFFFFFFFFFFFFFFFFFFFFFFFFFFFFFFFFFFFFFFFFFFFFFFFFFFFFFF DUP3 EQ ISZERO PUSH2 0x3423 JUMPI PUSH2 0x3422 PUSH2 0x33B6 JUMP JUMPDEST JUMPDEST PUSH1 0x1 DUP3 ADD SWAP1 POP SWAP2 SWAP1 POP JUMP INVALID LOG2 PUSH5 0x6970667358 0x22 SLT KECCAK256 LOG1 PUSH20 0xDDC048B7BC5A518AE6EB18D00421BCD4EB8A59A9 0xE6 DUP14 0xCC DUP12 JUMPI 0xFB 0x24 LOG3 PUSH31 0x364736F6C6343000809003300000000000000000000000000000000000000 "},"methodIdentifiers":{"EOA()":"7dc5186f","activateRecovery(uint256)":"6af39aa3","activateRecovery(uint256,bytes,address)":"477ff009","claimAssets(address[],address)":"f36457db","gatewayContract()":"eb0cde1d","hashedPassword()":"457ceb28","isActive()":"22f3e2d4","isTerminated()":"d1cc9976","minBlocks()":"ff21d1e5","recipient()":"66d003ac","terminateRecoveryContract()":"e524979c","verifyProof(bytes,uint256[])":"1e8e1e13","verifyZkProof(bytes,address)":"7d7be5a9"}}}}}