{
  "_format": "hh-sol-artifact-1",
  "contractName": "RecoveryContractZkProof",
  "sourceName": "contracts/ethereum/RecoveryContractZk.sol",
  "abi": [
    {
      "inputs": [
        {
          "internalType": "address",
          "name": "_recipient",
          "type": "address"
        },
        {
          "internalType": "uint256",
          "name": "_minBlocks",
          "type": "uint256"
        },
        {
          "internalType": "address",
          "name": "_gatewayContract",
          "type": "address"
        },
        {
          "internalType": "address",
          "name": "_EOA",
          "type": "address"
        },
        {
          "internalType": "uint256",
          "name": "_hashedPassword",
          "type": "uint256"
        }
      ],
      "stateMutability": "nonpayable",
      "type": "constructor"
    },
    {
      "anonymous": false,
      "inputs": [
        {
          "indexed": false,
          "internalType": "address",
          "name": "contractAddress",
          "type": "address"
        },
        {
          "indexed": false,
          "internalType": "address",
          "name": "recipient",
          "type": "address"
        },
        {
          "indexed": false,
          "internalType": "uint256",
          "name": "activationTime",
          "type": "uint256"
        }
      ],
      "name": "ActiveRecovery",
      "type": "event"
    },
    {
      "inputs": [],
      "name": "EOA",
      "outputs": [
        {
          "internalType": "address",
          "name": "",
          "type": "address"
        }
      ],
      "stateMutability": "view",
      "type": "function"
    },
    {
      "inputs": [
        {
          "internalType": "uint256",
          "name": "blocks",
          "type": "uint256"
        },
        {
          "internalType": "bytes",
          "name": "proof",
          "type": "bytes"
        },
        {
          "internalType": "address",
          "name": "_recipient",
          "type": "address"
        }
      ],
      "name": "activateRecovery",
      "outputs": [],
      "stateMutability": "nonpayable",
      "type": "function"
    },
    {
      "inputs": [
        {
          "internalType": "uint256",
          "name": "blocks",
          "type": "uint256"
        }
      ],
      "name": "activateRecovery",
      "outputs": [],
      "stateMutability": "nonpayable",
      "type": "function"
    },
    {
      "inputs": [
        {
          "internalType": "address[]",
          "name": "erc20contracts",
          "type": "address[]"
        },
        {
          "internalType": "address",
          "name": "caller",
          "type": "address"
        },
        {
          "internalType": "address",
          "name": "to",
          "type": "address"
        }
      ],
      "name": "claimAssets",
      "outputs": [],
      "stateMutability": "nonpayable",
      "type": "function"
    },
    {
      "inputs": [],
      "name": "gatewayContract",
      "outputs": [
        {
          "internalType": "address",
          "name": "",
          "type": "address"
        }
      ],
      "stateMutability": "view",
      "type": "function"
    },
    {
      "inputs": [],
      "name": "hashedPassword",
      "outputs": [
        {
          "internalType": "uint256",
          "name": "",
          "type": "uint256"
        }
      ],
      "stateMutability": "view",
      "type": "function"
    },
    {
      "inputs": [],
      "name": "isActive",
      "outputs": [
        {
          "internalType": "bool",
          "name": "",
          "type": "bool"
        }
      ],
      "stateMutability": "view",
      "type": "function"
    },
    {
      "inputs": [],
      "name": "isTerminated",
      "outputs": [
        {
          "internalType": "bool",
          "name": "",
          "type": "bool"
        }
      ],
      "stateMutability": "view",
      "type": "function"
    },
    {
      "inputs": [],
      "name": "minBlocks",
      "outputs": [
        {
          "internalType": "uint256",
          "name": "",
          "type": "uint256"
        }
      ],
      "stateMutability": "view",
      "type": "function"
    },
    {
      "inputs": [],
      "name": "recipient",
      "outputs": [
        {
          "internalType": "address",
          "name": "",
          "type": "address"
        }
      ],
      "stateMutability": "view",
      "type": "function"
    },
    {
      "inputs": [],
      "name": "terminateRecoveryContract",
      "outputs": [],
      "stateMutability": "nonpayable",
      "type": "function"
    },
    {
      "inputs": [
        {
          "internalType": "bytes",
          "name": "proof",
          "type": "bytes"
        },
        {
          "internalType": "uint256[]",
          "name": "pubSignals",
          "type": "uint256[]"
        }
      ],
      "name": "verifyProof",
      "outputs": [
        {
          "internalType": "bool",
          "name": "",
          "type": "bool"
        }
      ],
      "stateMutability": "view",
      "type": "function"
    },
    {
      "inputs": [
        {
          "internalType": "bytes",
          "name": "proof",
          "type": "bytes"
        },
        {
          "internalType": "address",
          "name": "_recipient",
          "type": "address"
        }
      ],
      "name": "verifyZkProof",
      "outputs": [
        {
          "internalType": "bool",
          "name": "isValid",
          "type": "bool"
        }
      ],
      "stateMutability": "view",
      "type": "function"
    }
  ],
  "bytecode": "0x60806040523480156200001157600080fd5b5060405162003759380380620037598339818101604052810190620000379190620001bf565b84848484836000806101000a81548173ffffffffffffffffffffffffffffffffffffffff021916908373ffffffffffffffffffffffffffffffffffffffff16021790555080600160006101000a81548173ffffffffffffffffffffffffffffffffffffffff021916908373ffffffffffffffffffffffffffffffffffffffff1602179055508260038190555081600260006101000a81548173ffffffffffffffffffffffffffffffffffffffff021916908373ffffffffffffffffffffffffffffffffffffffff1602179055505050505080600581905550505050505062000247565b600080fd5b600073ffffffffffffffffffffffffffffffffffffffff82169050919050565b60006200014c826200011f565b9050919050565b6200015e816200013f565b81146200016a57600080fd5b50565b6000815190506200017e8162000153565b92915050565b6000819050919050565b620001998162000184565b8114620001a557600080fd5b50565b600081519050620001b9816200018e565b92915050565b600080600080600060a08688031215620001de57620001dd6200011a565b5b6000620001ee888289016200016d565b95505060206200020188828901620001a8565b945050604062000214888289016200016d565b935050606062000227888289016200016d565b92505060806200023a88828901620001a8565b9150509295509295909350565b61350280620002576000396000f3fe608060405234801561001057600080fd5b50600436106100cf5760003560e01c80637d7be5a91161008c578063d1cc997611610066578063d1cc997614610200578063e524979c1461021e578063eb0cde1d14610228578063ff21d1e514610246576100cf565b80637d7be5a9146101965780637dc5186f146101c6578063a31fca30146101e4576100cf565b80631e8e1e13146100d457806322f3e2d414610104578063457ceb2814610122578063477ff0091461014057806366d003ac1461015c5780636af39aa31461017a575b600080fd5b6100ee60048036038101906100e99190612ad1565b610264565b6040516100fb9190612b64565b60405180910390f35b61010c611d8e565b6040516101199190612b64565b60405180910390f35b61012a611da1565b6040516101379190612b8e565b60405180910390f35b61015a60048036038101906101559190612c62565b611da7565b005b610164612054565b6040516101719190612ce5565b60405180910390f35b610194600480360381019061018f9190612d00565b612078565b005b6101b060048036038101906101ab9190612d2d565b612266565b6040516101bd9190612b64565b60405180910390f35b6101ce6123e7565b6040516101db9190612ce5565b60405180910390f35b6101fe60048036038101906101f99190612de3565b61240d565b005b61020861278d565b6040516102159190612b64565b60405180910390f35b6102266127a0565b005b61023061284d565b60405161023d9190612ce5565b60405180910390f35b61024e612873565b60405161025b9190612b8e565b60405180910390f35b6000611d23565b600080600184846000805b82156102a05782840591508482028603905084955080945082820284039050829350809250610276565b60018411156102ae57600080fd5b60008612156102bd5788860195505b85965050505050505092915050565b60405181602084028301815160208301925060005b82841015610324578185527f30644e72e131a029b85045b68181585d2833e84879b9709143e1f593f00000018451830991506020850194506020840193506102e1565b61034e7f30644e72e131a029b85045b68181585d2833e84879b9709143e1f593f00000018361026b565b91506020850394506020840393508592505b828411156103ca577f30644e72e131a029b85045b68181585d2833e84879b9709143e1f593f00000018551830990507f30644e72e131a029b85045b68181585d2833e84879b9709143e1f593f0000001845183099150808452602085039450602084039350610360565b81845250505050505050565b7f30644e72e131a029b85045b68181585d2833e84879b9709143e1f593f00000018110610407576000805260206000f35b50565b61032081511461041e576000805260206000f35b61042c6102608201516103d6565b61043a6102808201516103d6565b6104486102a08201516103d6565b6104566102c08201516103d6565b6104646102e08201516103d6565b6104726103008201516103d6565b6104806103208201516103d6565b50565b60008060208501516102e085015260408501516103008501526020830151610320850152602080018301516103408501526040602001830151610360850152606060200183015161038085015260806020018301516103a085015260a06020018301516103c08501527f30644e72e131a029b85045b68181585d2833e84879b9709143e1f593f00000016101006102e08601200690508060208501527f30644e72e131a029b85045b68181585d2833e84879b9709143e1f593f00000016020808601200660408501527f30644e72e131a029b85045b68181585d2833e84879b9709143e1f593f0000001604060e08501200660008501527f30644e72e131a029b85045b68181585d2833e84879b9709143e1f593f000000160c06101208501200691508160608501527f30644e72e131a029b85045b68181585d2833e84879b9709143e1f593f000000182820960a08501527f30644e72e131a029b85045b68181585d2833e84879b9709143e1f593f000000182830991507f30644e72e131a029b85045b68181585d2833e84879b9709143e1f593f000000182830991507f30644e72e131a029b85045b68181585d2833e84879b9709143e1f593f000000182830991507f30644e72e131a029b85045b68181585d2833e84879b9709143e1f593f000000182830991507f30644e72e131a029b85045b68181585d2833e84879b9709143e1f593f000000182830991507f30644e72e131a029b85045b68181585d2833e84879b9709143e1f593f000000182830991507f30644e72e131a029b85045b68181585d2833e84879b9709143e1f593f000000182830991507f30644e72e131a029b85045b68181585d2833e84879b9709143e1f593f000000182830991507f30644e72e131a029b85045b68181585d2833e84879b9709143e1f593f000000182830991507f30644e72e131a029b85045b68181585d2833e84879b9709143e1f593f000000182830991507f30644e72e131a029b85045b68181585d2833e84879b9709143e1f593f000000182830991507f30644e72e131a029b85045b68181585d2833e84879b9709143e1f593f000000182830991508160808501527f30644e72e131a029b85045b68181585d2833e84879b9709143e1f593f000000180600184030106915081610260850152816102808501527f30644e72e131a029b85045b68181585d2833e84879b9709143e1f593f000000160e0610260850120068060c08601527f30644e72e131a029b85045b68181585d2833e84879b9709143e1f593f000000181820992508260e08601527f30644e72e131a029b85045b68181585d2833e84879b9709143e1f593f00000018184099250826101008601527f30644e72e131a029b85045b68181585d2833e84879b9709143e1f593f00000018184099250826101208601527f30644e72e131a029b85045b68181585d2833e84879b9709143e1f593f00000018184099250826101408601527f30644e72e131a029b85045b68181585d2833e84879b9709143e1f593f00000018184099250826101608601527f30644e72e131a029b85045b68181585d2833e84879b9709143e1f593f000000160806101e086012006610180860152505050505050565b60017f30644e72e131a029b85045b68181585d2833e84879b9709143e1f593f0000001807f30644e72e131a029b85045b68181585d2833e84879b9709143e1f593f0000001836060860151030106611000096102a08301527f30644e72e131a029b85045b68181585d2833e84879b9709143e1f593f00000017f0931d596de2fd10f01ddd073fd5a90a976f169c76f039bb91c4775720042d43a820990507f30644e72e131a029b85045b68181585d2833e84879b9709143e1f593f0000001807f30644e72e131a029b85045b68181585d2833e84879b9709143e1f593f0000001836060860151030106611000096102c0830152610a26600361028084016102cc565b610260820151600191507f30644e72e131a029b85045b68181585d2833e84879b9709143e1f593f0000001816102a0850151096102a08401527f30644e72e131a029b85045b68181585d2833e84879b9709143e1f593f00000017f0931d596de2fd10f01ddd073fd5a90a976f169c76f039bb91c4775720042d43a830991507f30644e72e131a029b85045b68181585d2833e84879b9709143e1f593f000000180826102c08601510983096102c0840152505050565b60007f30644e72e131a029b85045b68181585d2833e84879b9709143e1f593f0000001807f30644e72e131a029b85045b68181585d2833e84879b9709143e1f593f000000160208601516102a0860151098303010690507f30644e72e131a029b85045b68181585d2833e84879b9709143e1f593f0000001807f30644e72e131a029b85045b68181585d2833e84879b9709143e1f593f000000160408601516102c086015109830301069050806101a0830152505050565b60008060007f30644e72e131a029b85045b68181585d2833e84879b9709143e1f593f00000016101a08601516103208601510892507f30644e72e131a029b85045b68181585d2833e84879b9709143e1f593f000000160208601516102c08601510991507f30644e72e131a029b85045b68181585d2833e84879b9709143e1f593f0000001610260850151830891507f30644e72e131a029b85045b68181585d2833e84879b9709143e1f593f00000016040860151830891507f30644e72e131a029b85045b68181585d2833e84879b9709143e1f593f000000160208601516102e08601510990507f30644e72e131a029b85045b68181585d2833e84879b9709143e1f593f0000001610280850151820890507f30644e72e131a029b85045b68181585d2833e84879b9709143e1f593f00000016040860151820890507f30644e72e131a029b85045b68181585d2833e84879b9709143e1f593f000000181830991507f30644e72e131a029b85045b68181585d2833e84879b9709143e1f593f000000160408601516102a08601510890507f30644e72e131a029b85045b68181585d2833e84879b9709143e1f593f000000181830991507f30644e72e131a029b85045b68181585d2833e84879b9709143e1f593f0000001610300850151830991507f30644e72e131a029b85045b68181585d2833e84879b9709143e1f593f00000016000860151830991507f30644e72e131a029b85045b68181585d2833e84879b9709143e1f593f000000160008601516102a08701510990507f30644e72e131a029b85045b68181585d2833e84879b9709143e1f593f00000016000860151820990507f30644e72e131a029b85045b68181585d2833e84879b9709143e1f593f000000181830891507f30644e72e131a029b85045b68181585d2833e84879b9709143e1f593f0000001827f30644e72e131a029b85045b68181585d2833e84879b9709143e1f593f00000018501030692507f30644e72e131a029b85045b68181585d2833e84879b9709143e1f593f000000161028086015184099250826101c08601525050505050565b81518152602082015160208201525050565b6040518151815260208201516020820152825160408201526020830151606082015260408260808360066107d05a03fa80610ef3576000805260206000f35b50505050565b6000604051835181526020840151602082015284604082015260408160608360076107d05a03fa915081610f31576000805260206000f35b825160408201526020830151606082015260408360808360066107d05a03fa915081610f61576000805260206000f35b5050505050565b600060405183815284602082015285604082015260408160608360076107d05a03fa915081610f9b576000805260206000f35b825160408201526020830151606082015260408360808360066107d05a03fa915081610fcb576000805260206000f35b505050505050565b600060405183815284602082015285604082015260408360608360076107d05a03fa915081611006576000805260206000f35b505050505050565b6101e082016110216101e0830182610ea2565b611035610180840151610220840183610ef9565b505050565b60008061022084017f30644e72e131a029b85045b68181585d2833e84879b9709143e1f593f000000160c08601516102608601510992506110bd837f2eb67c0ca20735dd9728a7dd7bab037c0f3ef5ec3cb09a40ffd6dc72b3f2b0cb7f1cf4b31736d4c025d29d0683622a4eb8234f62b7140d7b1b1c45cf1d5251896c84610fd3565b7f30644e72e131a029b85045b68181585d2833e84879b9709143e1f593f000000161028085015184099250611134837f2af3a314ddbf93a88a6a450430d5528e2d33cde0a8f21622692115a8667e8e457f2a2057ca32341b223996128794d51936a29d35a28876903933a07d09004e659784610f68565b7f30644e72e131a029b85045b68181585d2833e84879b9709143e1f593f000000160c08601516102808601510992506111af837f2bb3c6f9aeea2252ff4a3691ea4129d5bebcaae30a8141cbf0b784673d4265177f2edca24b060dbb91b31b0f920740b8c112fdd5c5d95b9df7657afc337811b33a84610f68565b7f30644e72e131a029b85045b68181585d2833e84879b9709143e1f593f000000160c08601516102a086015109925061122a837f28d73857830aed4f942d4cb6ff6349b1c4c246200e813d9d3144ed12ce6574157f23847c7c97656804415fa84053faeaa1222ad9610e187214219177de0ccf44f584610f68565b60c0850151925061127d837f2f666ac08dff772c72e8412abb33c600290d691fd25cbe449743040e8256a3d87f14b527b8f772f3926e0c9690254b0866981d5097dbcbc2b466b953d00ce6a9d284610f68565b7f30644e72e131a029b85045b68181585d2833e84879b9709143e1f593f000000160a08601516102608601510892507f30644e72e131a029b85045b68181585d2833e84879b9709143e1f593f00000016040860151840892507f30644e72e131a029b85045b68181585d2833e84879b9709143e1f593f000000160a086015160020991507f30644e72e131a029b85045b68181585d2833e84879b9709143e1f593f0000001610280850151830891507f30644e72e131a029b85045b68181585d2833e84879b9709143e1f593f00000016040860151830891507f30644e72e131a029b85045b68181585d2833e84879b9709143e1f593f000000182840992507f30644e72e131a029b85045b68181585d2833e84879b9709143e1f593f000000160a086015160030991507f30644e72e131a029b85045b68181585d2833e84879b9709143e1f593f00000016102a0850151830891507f30644e72e131a029b85045b68181585d2833e84879b9709143e1f593f00000016040860151830891507f30644e72e131a029b85045b68181585d2833e84879b9709143e1f593f000000182840992507f30644e72e131a029b85045b68181585d2833e84879b9709143e1f593f00000016000860151840992507f30644e72e131a029b85045b68181585d2833e84879b9709143e1f593f000000160c0860151840992507f30644e72e131a029b85045b68181585d2833e84879b9709143e1f593f000000160008601516102a08701510991507f30644e72e131a029b85045b68181585d2833e84879b9709143e1f593f00000016000860151830991507f30644e72e131a029b85045b68181585d2833e84879b9709143e1f593f000000160c0860151830991507f30644e72e131a029b85045b68181585d2833e84879b9709143e1f593f000000182840892507f30644e72e131a029b85045b68181585d2833e84879b9709143e1f593f0000001610180860151840892506115588360e0860183610ef9565b7f30644e72e131a029b85045b68181585d2833e84879b9709143e1f593f00000016102c085015160208701510992507f30644e72e131a029b85045b68181585d2833e84879b9709143e1f593f0000001610260850151840892507f30644e72e131a029b85045b68181585d2833e84879b9709143e1f593f00000016040860151840892507f30644e72e131a029b85045b68181585d2833e84879b9709143e1f593f00000016102e085015160208701510991507f30644e72e131a029b85045b68181585d2833e84879b9709143e1f593f0000001610280850151830891507f30644e72e131a029b85045b68181585d2833e84879b9709143e1f593f00000016040860151830891507f30644e72e131a029b85045b68181585d2833e84879b9709143e1f593f000000182840992507f30644e72e131a029b85045b68181585d2833e84879b9709143e1f593f00000016000860151840992507f30644e72e131a029b85045b68181585d2833e84879b9709143e1f593f000000160c0860151840992507f30644e72e131a029b85045b68181585d2833e84879b9709143e1f593f00000016020860151840992507f30644e72e131a029b85045b68181585d2833e84879b9709143e1f593f0000001610300850151840992507f30644e72e131a029b85045b68181585d2833e84879b9709143e1f593f0000001837f30644e72e131a029b85045b68181585d2833e84879b9709143e1f593f0000001030692506117c2837f156ef9e504c058d1a6609cf2d8bc7c7147e7d13610ec904aab2247a1e765b99a7f176b7a29cff0ef08e09d2c72a5db37a015d3914a738a302b24fe643f8cacdc3f84610f68565b6117d0610120850182610eb4565b608085015192506117e683610160860183610ef9565b7f30644e72e131a029b85045b68181585d2833e84879b9709143e1f593f0000001838409925061181b836101a0860183610ef9565b61182d60e08601516020860183610ef9565b6118406101008601516060860183610ef9565b61185361012086015160a0860183610ef9565b6118a46101408601517f173bdb25d94f66dd9586499787046f1052127b95b108c7a4d7beee6ac7e4593f7f04b85ee2b6af218577d8a2e56ab4dc054287e444b90fd652bc24f7046366e8a984610f68565b6118f56101608601517f2e86ff0322609f7543013d57e50324e6f3a4f6a5542a15d9f788ff53623758b77f1532f5d43291ffaa96f15c0640dafc17842db2b8c602b94d2dcaac0418524e6e84610f68565b6101c085015192507f30644e72e131a029b85045b68181585d2833e84879b9709143e1f593f00000018060c087015161032087015109840892507f30644e72e131a029b85045b68181585d2833e84879b9709143e1f593f00000018060e087015161026087015109840892507f30644e72e131a029b85045b68181585d2833e84879b9709143e1f593f00000018061010087015161028087015109840892507f30644e72e131a029b85045b68181585d2833e84879b9709143e1f593f0000001806101208701516102a087015109840892507f30644e72e131a029b85045b68181585d2833e84879b9709143e1f593f0000001806101408701516102c087015109840892507f30644e72e131a029b85045b68181585d2833e84879b9709143e1f593f0000001806101608701516102e087015109840892507f30644e72e131a029b85045b68181585d2833e84879b9709143e1f593f00000018061018087015161030087015109840892507f30644e72e131a029b85045b68181585d2833e84879b9709143e1f593f0000001837f30644e72e131a029b85045b68181585d2833e84879b9709143e1f593f000000103069250611ab5836002600184610f68565b60608501519250611acb836101e0860183610ef9565b7f30644e72e131a029b85045b68181585d2833e84879b9709143e1f593f000000160608601516101808701510992507f30644e72e131a029b85045b68181585d2833e84879b9709143e1f593f00000017f0931d596de2fd10f01ddd073fd5a90a976f169c76f039bb91c4775720042d43a84099250611b4f83610220860183610ef9565b5050505050565b60006040516101e0830151815260206101e08401015160208201527f26186a2d65ee4d2f9c9a5b91f86597d35f192cd120caf7e935d8443d1938e23d60408201527f30441fd1b5d3370482c42152a8899027716989a6996c2535bc9f7fee8aaef79e60608201527f1970ea81dd6992adfbc571effb03503adbbb6a857f578403c6c40e22d65b3c0260808201527f054793348f12c0cf5622c340573cb277586319de359ab9389778f689786b1e4860a082015261022083015160c08201526020610220840101517f30644e72e131a029b85045b68181585d97816a916871ca8d3c208c16d87cfd47817f30644e72e131a029b85045b68181585d97816a916871ca8d3c208c16d87cfd47030690508060e08301527f198e9393920d483a7260bfb731fb5d25f1aa493335a9e71297e485b7aef312c26101008301527f1800deef121f1e76426a00665e5c4479674322d4f75edadd46debd5cd992f6ed6101208301527f090689d0585ff075ec9e99ad690c3395bc4b313370b38ef355acdadcd122975b6101408301527f12c85ea5db8c6deb4aab71808dcb408fe3d1e7690c43d37b4ce6cc0166fa7daa6101608301526020826101808460086107d05a03fa825181169350505050919050565b6040516102e08101604052611d378461040a565b611d42838286610483565b611d4b81610923565b611d558382610adc565b611d5f8185610b94565b611d69818561100e565b611d73818561103a565b611d7c81611b56565b6102e082036040528060005260206000f35b600460009054906101000a900460ff1681565b60055481565b600260009054906101000a900473ffffffffffffffffffffffffffffffffffffffff1673ffffffffffffffffffffffffffffffffffffffff163373ffffffffffffffffffffffffffffffffffffffff1614611e37576040517f08c379a0000000000000000000000000000000000000000000000000000000008152600401611e2e90612eb4565b60405180910390fd5b600073ffffffffffffffffffffffffffffffffffffffff168173ffffffffffffffffffffffffffffffffffffffff161415611ea7576040517f08c379a0000000000000000000000000000000000000000000000000000000008152600401611e9e90612f20565b60405180910390fd5b600460009054906101000a900460ff1615611ef7576040517f08c379a0000000000000000000000000000000000000000000000000000000008152600401611eee90612f8c565b60405180910390fd5b600460019054906101000a900460ff1615611f47576040517f08c379a0000000000000000000000000000000000000000000000000000000008152600401611f3e90612ff8565b60405180910390fd5b600354841015611f8c576040517f08c379a0000000000000000000000000000000000000000000000000000000008152600401611f8390613064565b60405180910390fd5b611f97838383612266565b50806000806101000a81548173ffffffffffffffffffffffffffffffffffffffff021916908373ffffffffffffffffffffffffffffffffffffffff1602179055506001600460006101000a81548160ff0219169083151502179055507f8c0f791a552520d7b652c7f008af155a562ee6e9ce409bf539fbe0c18eef91603060008054906101000a900473ffffffffffffffffffffffffffffffffffffffff164260405161204693929190613084565b60405180910390a150505050565b60008054906101000a900473ffffffffffffffffffffffffffffffffffffffff1681565b600260009054906101000a900473ffffffffffffffffffffffffffffffffffffffff1673ffffffffffffffffffffffffffffffffffffffff163373ffffffffffffffffffffffffffffffffffffffff1614612108576040517f08c379a00000000000000000000000000000000000000000000000000000000081526004016120ff90612eb4565b60405180910390fd5b600460009054906101000a900460ff1615612158576040517f08c379a000000000000000000000000000000000000000000000000000000000815260040161214f90612f8c565b60405180910390fd5b600460019054906101000a900460ff16156121a8576040517f08c379a000000000000000000000000000000000000000000000000000000000815260040161219f90612ff8565b60405180910390fd5b6003548110156121ed576040517f08c379a00000000000000000000000000000000000000000000000000000000081526004016121e490613064565b60405180910390fd5b6001600460006101000a81548160ff0219169083151502179055507f8c0f791a552520d7b652c7f008af155a562ee6e9ce409bf539fbe0c18eef91603060008054906101000a900473ffffffffffffffffffffffffffffffffffffffff164260405161225b93929190613084565b60405180910390a150565b600080600267ffffffffffffffff811115612284576122836128a8565b5b6040519080825280602002602001820160405280156122b25781602001602082028036833780820191505090505b509050600554816000815181106122cc576122cb6130bb565b5b6020026020010181815250508273ffffffffffffffffffffffffffffffffffffffff1681600181518110612303576123026130bb565b5b6020026020010181815250503073ffffffffffffffffffffffffffffffffffffffff16631e8e1e138686846040518463ffffffff1660e01b815260040161234c939291906131e6565b60206040518083038186803b15801561236457600080fd5b505afa158015612378573d6000803e3d6000fd5b505050506040513d601f19601f8201168201806040525081019061239c919061324b565b6123db576040517f08c379a00000000000000000000000000000000000000000000000000000000081526004016123d2906132c4565b60405180910390fd5b60019150509392505050565b600160009054906101000a900473ffffffffffffffffffffffffffffffffffffffff1681565b600260009054906101000a900473ffffffffffffffffffffffffffffffffffffffff1673ffffffffffffffffffffffffffffffffffffffff163373ffffffffffffffffffffffffffffffffffffffff161461249d576040517f08c379a000000000000000000000000000000000000000000000000000000000815260040161249490612eb4565b60405180910390fd5b60008054906101000a900473ffffffffffffffffffffffffffffffffffffffff1673ffffffffffffffffffffffffffffffffffffffff168273ffffffffffffffffffffffffffffffffffffffff161461252b576040517f08c379a000000000000000000000000000000000000000000000000000000000815260040161252290613330565b60405180910390fd5b600460009054906101000a900460ff1661257a576040517f08c379a00000000000000000000000000000000000000000000000000000000081526004016125719061339c565b60405180910390fd5b600460019054906101000a900460ff16156125ca576040517f08c379a00000000000000000000000000000000000000000000000000000000081526004016125c190612ff8565b60405180910390fd5b60005b848490508110156127865760008585838181106125ed576125ec6130bb565b5b905060200201602081019061260291906133bc565b905060008173ffffffffffffffffffffffffffffffffffffffff1663dd62ed3e600160009054906101000a900473ffffffffffffffffffffffffffffffffffffffff16306040518363ffffffff1660e01b81526004016126639291906133e9565b60206040518083038186803b15801561267b57600080fd5b505afa15801561268f573d6000803e3d6000fd5b505050506040513d601f19601f820116820180604052508101906126b39190613427565b90506000811115612771578173ffffffffffffffffffffffffffffffffffffffff166323b872dd600160009054906101000a900473ffffffffffffffffffffffffffffffffffffffff1686846040518463ffffffff1660e01b815260040161271d93929190613084565b602060405180830381600087803b15801561273757600080fd5b505af115801561274b573d6000803e3d6000fd5b505050506040513d601f19601f8201168201806040525081019061276f919061324b565b505b5050808061277e90613483565b9150506125cd565b5050505050565b600460019054906101000a900460ff1681565b600260009054906101000a900473ffffffffffffffffffffffffffffffffffffffff1673ffffffffffffffffffffffffffffffffffffffff163373ffffffffffffffffffffffffffffffffffffffff1614612830576040517f08c379a000000000000000000000000000000000000000000000000000000000815260040161282790612eb4565b60405180910390fd5b6001600460016101000a81548160ff021916908315150217905550565b600260009054906101000a900473ffffffffffffffffffffffffffffffffffffffff1681565b60035481565b6000604051905090565b600080fd5b600080fd5b600080fd5b600080fd5b6000601f19601f8301169050919050565b7f4e487b7100000000000000000000000000000000000000000000000000000000600052604160045260246000fd5b6128e082612897565b810181811067ffffffffffffffff821117156128ff576128fe6128a8565b5b80604052505050565b6000612912612879565b905061291e82826128d7565b919050565b600067ffffffffffffffff82111561293e5761293d6128a8565b5b61294782612897565b9050602081019050919050565b82818337600083830152505050565b600061297661297184612923565b612908565b90508281526020810184848401111561299257612991612892565b5b61299d848285612954565b509392505050565b600082601f8301126129ba576129b961288d565b5b81356129ca848260208601612963565b91505092915050565b600067ffffffffffffffff8211156129ee576129ed6128a8565b5b602082029050602081019050919050565b600080fd5b6000819050919050565b612a1781612a04565b8114612a2257600080fd5b50565b600081359050612a3481612a0e565b92915050565b6000612a4d612a48846129d3565b612908565b90508083825260208201905060208402830185811115612a7057612a6f6129ff565b5b835b81811015612a995780612a858882612a25565b845260208401935050602081019050612a72565b5050509392505050565b600082601f830112612ab857612ab761288d565b5b8135612ac8848260208601612a3a565b91505092915050565b60008060408385031215612ae857612ae7612883565b5b600083013567ffffffffffffffff811115612b0657612b05612888565b5b612b12858286016129a5565b925050602083013567ffffffffffffffff811115612b3357612b32612888565b5b612b3f85828601612aa3565b9150509250929050565b60008115159050919050565b612b5e81612b49565b82525050565b6000602082019050612b796000830184612b55565b92915050565b612b8881612a04565b82525050565b6000602082019050612ba36000830184612b7f565b92915050565b600080fd5b60008083601f840112612bc457612bc361288d565b5b8235905067ffffffffffffffff811115612be157612be0612ba9565b5b602083019150836001820283011115612bfd57612bfc6129ff565b5b9250929050565b600073ffffffffffffffffffffffffffffffffffffffff82169050919050565b6000612c2f82612c04565b9050919050565b612c3f81612c24565b8114612c4a57600080fd5b50565b600081359050612c5c81612c36565b92915050565b60008060008060608587031215612c7c57612c7b612883565b5b6000612c8a87828801612a25565b945050602085013567ffffffffffffffff811115612cab57612caa612888565b5b612cb787828801612bae565b93509350506040612cca87828801612c4d565b91505092959194509250565b612cdf81612c24565b82525050565b6000602082019050612cfa6000830184612cd6565b92915050565b600060208284031215612d1657612d15612883565b5b6000612d2484828501612a25565b91505092915050565b600080600060408486031215612d4657612d45612883565b5b600084013567ffffffffffffffff811115612d6457612d63612888565b5b612d7086828701612bae565b93509350506020612d8386828701612c4d565b9150509250925092565b60008083601f840112612da357612da261288d565b5b8235905067ffffffffffffffff811115612dc057612dbf612ba9565b5b602083019150836020820283011115612ddc57612ddb6129ff565b5b9250929050565b60008060008060608587031215612dfd57612dfc612883565b5b600085013567ffffffffffffffff811115612e1b57612e1a612888565b5b612e2787828801612d8d565b94509450506020612e3a87828801612c4d565b9250506040612e4b87828801612c4d565b91505092959194509250565b600082825260208201905092915050565b7f4e6f742067617465776179000000000000000000000000000000000000000000600082015250565b6000612e9e600b83612e57565b9150612ea982612e68565b602082019050919050565b60006020820190508181036000830152612ecd81612e91565b9050919050565b7f4e756c6c20616464726573730000000000000000000000000000000000000000600082015250565b6000612f0a600c83612e57565b9150612f1582612ed4565b602082019050919050565b60006020820190508181036000830152612f3981612efd565b9050919050565b7f416c726561647920616374697665000000000000000000000000000000000000600082015250565b6000612f76600e83612e57565b9150612f8182612f40565b602082019050919050565b60006020820190508181036000830152612fa581612f69565b9050919050565b7f416c7265616479207465726d696e617465640000000000000000000000000000600082015250565b6000612fe2601283612e57565b9150612fed82612fac565b602082019050919050565b6000602082019050818103600083015261301181612fd5565b9050919050565b7f496e616374697669747920746f6f2073686f7274000000000000000000000000600082015250565b600061304e601483612e57565b915061305982613018565b602082019050919050565b6000602082019050818103600083015261307d81613041565b9050919050565b60006060820190506130996000830186612cd6565b6130a66020830185612cd6565b6130b36040830184612b7f565b949350505050565b7f4e487b7100000000000000000000000000000000000000000000000000000000600052603260045260246000fd5b600082825260208201905092915050565b600061310783856130ea565b9350613114838584612954565b61311d83612897565b840190509392505050565b600081519050919050565b600082825260208201905092915050565b6000819050602082019050919050565b61315d81612a04565b82525050565b600061316f8383613154565b60208301905092915050565b6000602082019050919050565b600061319382613128565b61319d8185613133565b93506131a883613144565b8060005b838110156131d95781516131c08882613163565b97506131cb8361317b565b9250506001810190506131ac565b5085935050505092915050565b600060408201905081810360008301526132018185876130fb565b905081810360208301526132158184613188565b9050949350505050565b61322881612b49565b811461323357600080fd5b50565b6000815190506132458161321f565b92915050565b60006020828403121561326157613260612883565b5b600061326f84828501613236565b91505092915050565b7f50726f6f6620766572696669636174696f6e206661696c656400000000000000600082015250565b60006132ae601983612e57565b91506132b982613278565b602082019050919050565b600060208201905081810360008301526132dd816132a1565b9050919050565b7f4f6e6c7920726563697069656e74000000000000000000000000000000000000600082015250565b600061331a600e83612e57565b9150613325826132e4565b602082019050919050565b600060208201905081810360008301526133498161330d565b9050919050565b7f4e6f742061637469766500000000000000000000000000000000000000000000600082015250565b6000613386600a83612e57565b915061339182613350565b602082019050919050565b600060208201905081810360008301526133b581613379565b9050919050565b6000602082840312156133d2576133d1612883565b5b60006133e084828501612c4d565b91505092915050565b60006040820190506133fe6000830185612cd6565b61340b6020830184612cd6565b9392505050565b60008151905061342181612a0e565b92915050565b60006020828403121561343d5761343c612883565b5b600061344b84828501613412565b91505092915050565b7f4e487b7100000000000000000000000000000000000000000000000000000000600052601160045260246000fd5b600061348e82612a04565b91507fffffffffffffffffffffffffffffffffffffffffffffffffffffffffffffffff8214156134c1576134c0613454565b5b60018201905091905056fea26469706673582212203a0252086f459f855c529cc1df5d9070832b6dd426a8d4bd0c7e13b08d34fdc564736f6c63430008090033",
  "linkReferences": {},
  "deployedLinkReferences": {}
}