{
  "_format": "hh-sol-artifact-1",
  "contractName": "RecoveryContractZkProof",
  "sourceName": "contracts/ethereum/RecoveryContractZk.sol",
  "abi": [
    {
      "inputs": [
        {
          "internalType": "address",
          "name": "_recipient",
          "type": "address"
        },
        {
          "internalType": "uint256",
          "name": "_minBlocks",
          "type": "uint256"
        },
        {
          "internalType": "address",
          "name": "_gatewayContract",
          "type": "address"
        },
        {
          "internalType": "address",
          "name": "_EOA",
          "type": "address"
        },
        {
          "internalType": "uint256",
          "name": "_hashedPassword",
          "type": "uint256"
        }
      ],
      "stateMutability": "nonpayable",
      "type": "constructor"
    },
    {
      "anonymous": false,
      "inputs": [
        {
          "indexed": false,
          "internalType": "address",
          "name": "contractAddress",
          "type": "address"
        },
        {
          "indexed": false,
          "internalType": "address",
          "name": "recipient",
          "type": "address"
        },
        {
          "indexed": false,
          "internalType": "uint256",
          "name": "activationTime",
          "type": "uint256"
        }
      ],
      "name": "ActiveRecovery",
      "type": "event"
    },
    {
      "inputs": [],
      "name": "EOA",
      "outputs": [
        {
          "internalType": "address",
          "name": "",
          "type": "address"
        }
      ],
      "stateMutability": "view",
      "type": "function"
    },
    {
      "inputs": [
        {
          "internalType": "uint256",
          "name": "blocks",
          "type": "uint256"
        },
        {
          "internalType": "bytes",
          "name": "proof",
          "type": "bytes"
        },
        {
          "internalType": "address",
          "name": "_recipient",
          "type": "address"
        }
      ],
      "name": "activateRecovery",
      "outputs": [],
      "stateMutability": "nonpayable",
      "type": "function"
    },
    {
      "inputs": [
        {
          "internalType": "uint256",
          "name": "blocks",
          "type": "uint256"
        }
      ],
      "name": "activateRecovery",
      "outputs": [],
      "stateMutability": "nonpayable",
      "type": "function"
    },
    {
      "inputs": [
        {
          "internalType": "address[]",
          "name": "erc20contracts",
          "type": "address[]"
        },
        {
          "internalType": "uint256[]",
          "name": "amounts",
          "type": "uint256[]"
        },
        {
          "internalType": "address",
          "name": "caller",
          "type": "address"
        },
        {
          "internalType": "address",
          "name": "to",
          "type": "address"
        }
      ],
      "name": "claimAssets",
      "outputs": [],
      "stateMutability": "nonpayable",
      "type": "function"
    },
    {
      "inputs": [],
      "name": "gatewayContract",
      "outputs": [
        {
          "internalType": "address",
          "name": "",
          "type": "address"
        }
      ],
      "stateMutability": "view",
      "type": "function"
    },
    {
      "inputs": [],
      "name": "hashedPassword",
      "outputs": [
        {
          "internalType": "uint256",
          "name": "",
          "type": "uint256"
        }
      ],
      "stateMutability": "view",
      "type": "function"
    },
    {
      "inputs": [],
      "name": "isActive",
      "outputs": [
        {
          "internalType": "bool",
          "name": "",
          "type": "bool"
        }
      ],
      "stateMutability": "view",
      "type": "function"
    },
    {
      "inputs": [],
      "name": "minBlocks",
      "outputs": [
        {
          "internalType": "uint256",
          "name": "",
          "type": "uint256"
        }
      ],
      "stateMutability": "view",
      "type": "function"
    },
    {
      "inputs": [],
      "name": "recipient",
      "outputs": [
        {
          "internalType": "address",
          "name": "",
          "type": "address"
        }
      ],
      "stateMutability": "view",
      "type": "function"
    },
    {
      "inputs": [
        {
          "internalType": "bytes",
          "name": "proof",
          "type": "bytes"
        },
        {
          "internalType": "uint256[]",
          "name": "pubSignals",
          "type": "uint256[]"
        }
      ],
      "name": "verifyProof",
      "outputs": [
        {
          "internalType": "bool",
          "name": "",
          "type": "bool"
        }
      ],
      "stateMutability": "view",
      "type": "function"
    },
    {
      "inputs": [
        {
          "internalType": "bytes",
          "name": "proof",
          "type": "bytes"
        },
        {
          "internalType": "address",
          "name": "_recipient",
          "type": "address"
        }
      ],
      "name": "verifyZkProof",
      "outputs": [
        {
          "internalType": "bool",
          "name": "isValid",
          "type": "bool"
        }
      ],
      "stateMutability": "view",
      "type": "function"
    }
  ],
  "bytecode": "0x60806040523480156200001157600080fd5b5060405162003526380380620035268339818101604052810190620000379190620001bf565b84848484836000806101000a81548173ffffffffffffffffffffffffffffffffffffffff021916908373ffffffffffffffffffffffffffffffffffffffff16021790555080600160006101000a81548173ffffffffffffffffffffffffffffffffffffffff021916908373ffffffffffffffffffffffffffffffffffffffff1602179055508260038190555081600260006101000a81548173ffffffffffffffffffffffffffffffffffffffff021916908373ffffffffffffffffffffffffffffffffffffffff1602179055505050505080600581905550505050505062000247565b600080fd5b600073ffffffffffffffffffffffffffffffffffffffff82169050919050565b60006200014c826200011f565b9050919050565b6200015e816200013f565b81146200016a57600080fd5b50565b6000815190506200017e8162000153565b92915050565b6000819050919050565b620001998162000184565b8114620001a557600080fd5b50565b600081519050620001b9816200018e565b92915050565b600080600080600060a08688031215620001de57620001dd6200011a565b5b6000620001ee888289016200016d565b95505060206200020188828901620001a8565b945050604062000214888289016200016d565b935050606062000227888289016200016d565b92505060806200023a88828901620001a8565b9150509295509295909350565b6132cf80620002576000396000f3fe608060405234801561001057600080fd5b50600436106100a95760003560e01c80636af39aa3116100715780636af39aa3146101545780637d7be5a9146101705780637dc5186f146101a0578063ae4304ef146101be578063eb0cde1d146101da578063ff21d1e5146101f8576100a9565b80631e8e1e13146100ae57806322f3e2d4146100de578063457ceb28146100fc578063477ff0091461011a57806366d003ac14610136575b600080fd5b6100c860048036038101906100c39190612880565b610216565b6040516100d59190612913565b60405180910390f35b6100e6611d40565b6040516100f39190612913565b60405180910390f35b610104611d53565b604051610111919061293d565b60405180910390f35b610134600480360381019061012f9190612a11565b611d59565b005b61013e611fb6565b60405161014b9190612a94565b60405180910390f35b61016e60048036038101906101699190612aaf565b611fda565b005b61018a60048036038101906101859190612adc565b612178565b6040516101979190612913565b60405180910390f35b6101a86122f9565b6040516101b59190612a94565b60405180910390f35b6101d860048036038101906101d39190612be8565b61231f565b005b6101e26125fc565b6040516101ef9190612a94565b60405180910390f35b610200612622565b60405161020d919061293d565b60405180910390f35b6000611cd5565b600080600184846000805b82156102525782840591508482028603905084955080945082820284039050829350809250610228565b600184111561026057600080fd5b600086121561026f5788860195505b85965050505050505092915050565b60405181602084028301815160208301925060005b828410156102d6578185527f30644e72e131a029b85045b68181585d2833e84879b9709143e1f593f0000001845183099150602085019450602084019350610293565b6103007f30644e72e131a029b85045b68181585d2833e84879b9709143e1f593f00000018361021d565b91506020850394506020840393508592505b8284111561037c577f30644e72e131a029b85045b68181585d2833e84879b9709143e1f593f00000018551830990507f30644e72e131a029b85045b68181585d2833e84879b9709143e1f593f0000001845183099150808452602085039450602084039350610312565b81845250505050505050565b7f30644e72e131a029b85045b68181585d2833e84879b9709143e1f593f000000181106103b9576000805260206000f35b50565b6103208151146103d0576000805260206000f35b6103de610260820151610388565b6103ec610280820151610388565b6103fa6102a0820151610388565b6104086102c0820151610388565b6104166102e0820151610388565b610424610300820151610388565b610432610320820151610388565b50565b60008060208501516102e085015260408501516103008501526020830151610320850152602080018301516103408501526040602001830151610360850152606060200183015161038085015260806020018301516103a085015260a06020018301516103c08501527f30644e72e131a029b85045b68181585d2833e84879b9709143e1f593f00000016101006102e08601200690508060208501527f30644e72e131a029b85045b68181585d2833e84879b9709143e1f593f00000016020808601200660408501527f30644e72e131a029b85045b68181585d2833e84879b9709143e1f593f0000001604060e08501200660008501527f30644e72e131a029b85045b68181585d2833e84879b9709143e1f593f000000160c06101208501200691508160608501527f30644e72e131a029b85045b68181585d2833e84879b9709143e1f593f000000182820960a08501527f30644e72e131a029b85045b68181585d2833e84879b9709143e1f593f000000182830991507f30644e72e131a029b85045b68181585d2833e84879b9709143e1f593f000000182830991507f30644e72e131a029b85045b68181585d2833e84879b9709143e1f593f000000182830991507f30644e72e131a029b85045b68181585d2833e84879b9709143e1f593f000000182830991507f30644e72e131a029b85045b68181585d2833e84879b9709143e1f593f000000182830991507f30644e72e131a029b85045b68181585d2833e84879b9709143e1f593f000000182830991507f30644e72e131a029b85045b68181585d2833e84879b9709143e1f593f000000182830991507f30644e72e131a029b85045b68181585d2833e84879b9709143e1f593f000000182830991507f30644e72e131a029b85045b68181585d2833e84879b9709143e1f593f000000182830991507f30644e72e131a029b85045b68181585d2833e84879b9709143e1f593f000000182830991507f30644e72e131a029b85045b68181585d2833e84879b9709143e1f593f000000182830991507f30644e72e131a029b85045b68181585d2833e84879b9709143e1f593f000000182830991508160808501527f30644e72e131a029b85045b68181585d2833e84879b9709143e1f593f000000180600184030106915081610260850152816102808501527f30644e72e131a029b85045b68181585d2833e84879b9709143e1f593f000000160e0610260850120068060c08601527f30644e72e131a029b85045b68181585d2833e84879b9709143e1f593f000000181820992508260e08601527f30644e72e131a029b85045b68181585d2833e84879b9709143e1f593f00000018184099250826101008601527f30644e72e131a029b85045b68181585d2833e84879b9709143e1f593f00000018184099250826101208601527f30644e72e131a029b85045b68181585d2833e84879b9709143e1f593f00000018184099250826101408601527f30644e72e131a029b85045b68181585d2833e84879b9709143e1f593f00000018184099250826101608601527f30644e72e131a029b85045b68181585d2833e84879b9709143e1f593f000000160806101e086012006610180860152505050505050565b60017f30644e72e131a029b85045b68181585d2833e84879b9709143e1f593f0000001807f30644e72e131a029b85045b68181585d2833e84879b9709143e1f593f0000001836060860151030106611000096102a08301527f30644e72e131a029b85045b68181585d2833e84879b9709143e1f593f00000017f0931d596de2fd10f01ddd073fd5a90a976f169c76f039bb91c4775720042d43a820990507f30644e72e131a029b85045b68181585d2833e84879b9709143e1f593f0000001807f30644e72e131a029b85045b68181585d2833e84879b9709143e1f593f0000001836060860151030106611000096102c08301526109d86003610280840161027e565b610260820151600191507f30644e72e131a029b85045b68181585d2833e84879b9709143e1f593f0000001816102a0850151096102a08401527f30644e72e131a029b85045b68181585d2833e84879b9709143e1f593f00000017f0931d596de2fd10f01ddd073fd5a90a976f169c76f039bb91c4775720042d43a830991507f30644e72e131a029b85045b68181585d2833e84879b9709143e1f593f000000180826102c08601510983096102c0840152505050565b60007f30644e72e131a029b85045b68181585d2833e84879b9709143e1f593f0000001807f30644e72e131a029b85045b68181585d2833e84879b9709143e1f593f000000160208601516102a0860151098303010690507f30644e72e131a029b85045b68181585d2833e84879b9709143e1f593f0000001807f30644e72e131a029b85045b68181585d2833e84879b9709143e1f593f000000160408601516102c086015109830301069050806101a0830152505050565b60008060007f30644e72e131a029b85045b68181585d2833e84879b9709143e1f593f00000016101a08601516103208601510892507f30644e72e131a029b85045b68181585d2833e84879b9709143e1f593f000000160208601516102c08601510991507f30644e72e131a029b85045b68181585d2833e84879b9709143e1f593f0000001610260850151830891507f30644e72e131a029b85045b68181585d2833e84879b9709143e1f593f00000016040860151830891507f30644e72e131a029b85045b68181585d2833e84879b9709143e1f593f000000160208601516102e08601510990507f30644e72e131a029b85045b68181585d2833e84879b9709143e1f593f0000001610280850151820890507f30644e72e131a029b85045b68181585d2833e84879b9709143e1f593f00000016040860151820890507f30644e72e131a029b85045b68181585d2833e84879b9709143e1f593f000000181830991507f30644e72e131a029b85045b68181585d2833e84879b9709143e1f593f000000160408601516102a08601510890507f30644e72e131a029b85045b68181585d2833e84879b9709143e1f593f000000181830991507f30644e72e131a029b85045b68181585d2833e84879b9709143e1f593f0000001610300850151830991507f30644e72e131a029b85045b68181585d2833e84879b9709143e1f593f00000016000860151830991507f30644e72e131a029b85045b68181585d2833e84879b9709143e1f593f000000160008601516102a08701510990507f30644e72e131a029b85045b68181585d2833e84879b9709143e1f593f00000016000860151820990507f30644e72e131a029b85045b68181585d2833e84879b9709143e1f593f000000181830891507f30644e72e131a029b85045b68181585d2833e84879b9709143e1f593f0000001827f30644e72e131a029b85045b68181585d2833e84879b9709143e1f593f00000018501030692507f30644e72e131a029b85045b68181585d2833e84879b9709143e1f593f000000161028086015184099250826101c08601525050505050565b81518152602082015160208201525050565b6040518151815260208201516020820152825160408201526020830151606082015260408260808360066107d05a03fa80610ea5576000805260206000f35b50505050565b6000604051835181526020840151602082015284604082015260408160608360076107d05a03fa915081610ee3576000805260206000f35b825160408201526020830151606082015260408360808360066107d05a03fa915081610f13576000805260206000f35b5050505050565b600060405183815284602082015285604082015260408160608360076107d05a03fa915081610f4d576000805260206000f35b825160408201526020830151606082015260408360808360066107d05a03fa915081610f7d576000805260206000f35b505050505050565b600060405183815284602082015285604082015260408360608360076107d05a03fa915081610fb8576000805260206000f35b505050505050565b6101e08201610fd36101e0830182610e54565b610fe7610180840151610220840183610eab565b505050565b60008061022084017f30644e72e131a029b85045b68181585d2833e84879b9709143e1f593f000000160c086015161026086015109925061106f837f2eb67c0ca20735dd9728a7dd7bab037c0f3ef5ec3cb09a40ffd6dc72b3f2b0cb7f1cf4b31736d4c025d29d0683622a4eb8234f62b7140d7b1b1c45cf1d5251896c84610f85565b7f30644e72e131a029b85045b68181585d2833e84879b9709143e1f593f0000001610280850151840992506110e6837f2af3a314ddbf93a88a6a450430d5528e2d33cde0a8f21622692115a8667e8e457f2a2057ca32341b223996128794d51936a29d35a28876903933a07d09004e659784610f1a565b7f30644e72e131a029b85045b68181585d2833e84879b9709143e1f593f000000160c0860151610280860151099250611161837f2bb3c6f9aeea2252ff4a3691ea4129d5bebcaae30a8141cbf0b784673d4265177f2edca24b060dbb91b31b0f920740b8c112fdd5c5d95b9df7657afc337811b33a84610f1a565b7f30644e72e131a029b85045b68181585d2833e84879b9709143e1f593f000000160c08601516102a08601510992506111dc837f28d73857830aed4f942d4cb6ff6349b1c4c246200e813d9d3144ed12ce6574157f23847c7c97656804415fa84053faeaa1222ad9610e187214219177de0ccf44f584610f1a565b60c0850151925061122f837f2f666ac08dff772c72e8412abb33c600290d691fd25cbe449743040e8256a3d87f14b527b8f772f3926e0c9690254b0866981d5097dbcbc2b466b953d00ce6a9d284610f1a565b7f30644e72e131a029b85045b68181585d2833e84879b9709143e1f593f000000160a08601516102608601510892507f30644e72e131a029b85045b68181585d2833e84879b9709143e1f593f00000016040860151840892507f30644e72e131a029b85045b68181585d2833e84879b9709143e1f593f000000160a086015160020991507f30644e72e131a029b85045b68181585d2833e84879b9709143e1f593f0000001610280850151830891507f30644e72e131a029b85045b68181585d2833e84879b9709143e1f593f00000016040860151830891507f30644e72e131a029b85045b68181585d2833e84879b9709143e1f593f000000182840992507f30644e72e131a029b85045b68181585d2833e84879b9709143e1f593f000000160a086015160030991507f30644e72e131a029b85045b68181585d2833e84879b9709143e1f593f00000016102a0850151830891507f30644e72e131a029b85045b68181585d2833e84879b9709143e1f593f00000016040860151830891507f30644e72e131a029b85045b68181585d2833e84879b9709143e1f593f000000182840992507f30644e72e131a029b85045b68181585d2833e84879b9709143e1f593f00000016000860151840992507f30644e72e131a029b85045b68181585d2833e84879b9709143e1f593f000000160c0860151840992507f30644e72e131a029b85045b68181585d2833e84879b9709143e1f593f000000160008601516102a08701510991507f30644e72e131a029b85045b68181585d2833e84879b9709143e1f593f00000016000860151830991507f30644e72e131a029b85045b68181585d2833e84879b9709143e1f593f000000160c0860151830991507f30644e72e131a029b85045b68181585d2833e84879b9709143e1f593f000000182840892507f30644e72e131a029b85045b68181585d2833e84879b9709143e1f593f00000016101808601518408925061150a8360e0860183610eab565b7f30644e72e131a029b85045b68181585d2833e84879b9709143e1f593f00000016102c085015160208701510992507f30644e72e131a029b85045b68181585d2833e84879b9709143e1f593f0000001610260850151840892507f30644e72e131a029b85045b68181585d2833e84879b9709143e1f593f00000016040860151840892507f30644e72e131a029b85045b68181585d2833e84879b9709143e1f593f00000016102e085015160208701510991507f30644e72e131a029b85045b68181585d2833e84879b9709143e1f593f0000001610280850151830891507f30644e72e131a029b85045b68181585d2833e84879b9709143e1f593f00000016040860151830891507f30644e72e131a029b85045b68181585d2833e84879b9709143e1f593f000000182840992507f30644e72e131a029b85045b68181585d2833e84879b9709143e1f593f00000016000860151840992507f30644e72e131a029b85045b68181585d2833e84879b9709143e1f593f000000160c0860151840992507f30644e72e131a029b85045b68181585d2833e84879b9709143e1f593f00000016020860151840992507f30644e72e131a029b85045b68181585d2833e84879b9709143e1f593f0000001610300850151840992507f30644e72e131a029b85045b68181585d2833e84879b9709143e1f593f0000001837f30644e72e131a029b85045b68181585d2833e84879b9709143e1f593f000000103069250611774837f156ef9e504c058d1a6609cf2d8bc7c7147e7d13610ec904aab2247a1e765b99a7f176b7a29cff0ef08e09d2c72a5db37a015d3914a738a302b24fe643f8cacdc3f84610f1a565b611782610120850182610e66565b6080850151925061179883610160860183610eab565b7f30644e72e131a029b85045b68181585d2833e84879b9709143e1f593f000000183840992506117cd836101a0860183610eab565b6117df60e08601516020860183610eab565b6117f26101008601516060860183610eab565b61180561012086015160a0860183610eab565b6118566101408601517f173bdb25d94f66dd9586499787046f1052127b95b108c7a4d7beee6ac7e4593f7f04b85ee2b6af218577d8a2e56ab4dc054287e444b90fd652bc24f7046366e8a984610f1a565b6118a76101608601517f2e86ff0322609f7543013d57e50324e6f3a4f6a5542a15d9f788ff53623758b77f1532f5d43291ffaa96f15c0640dafc17842db2b8c602b94d2dcaac0418524e6e84610f1a565b6101c085015192507f30644e72e131a029b85045b68181585d2833e84879b9709143e1f593f00000018060c087015161032087015109840892507f30644e72e131a029b85045b68181585d2833e84879b9709143e1f593f00000018060e087015161026087015109840892507f30644e72e131a029b85045b68181585d2833e84879b9709143e1f593f00000018061010087015161028087015109840892507f30644e72e131a029b85045b68181585d2833e84879b9709143e1f593f0000001806101208701516102a087015109840892507f30644e72e131a029b85045b68181585d2833e84879b9709143e1f593f0000001806101408701516102c087015109840892507f30644e72e131a029b85045b68181585d2833e84879b9709143e1f593f0000001806101608701516102e087015109840892507f30644e72e131a029b85045b68181585d2833e84879b9709143e1f593f00000018061018087015161030087015109840892507f30644e72e131a029b85045b68181585d2833e84879b9709143e1f593f0000001837f30644e72e131a029b85045b68181585d2833e84879b9709143e1f593f000000103069250611a67836002600184610f1a565b60608501519250611a7d836101e0860183610eab565b7f30644e72e131a029b85045b68181585d2833e84879b9709143e1f593f000000160608601516101808701510992507f30644e72e131a029b85045b68181585d2833e84879b9709143e1f593f00000017f0931d596de2fd10f01ddd073fd5a90a976f169c76f039bb91c4775720042d43a84099250611b0183610220860183610eab565b5050505050565b60006040516101e0830151815260206101e08401015160208201527f26186a2d65ee4d2f9c9a5b91f86597d35f192cd120caf7e935d8443d1938e23d60408201527f30441fd1b5d3370482c42152a8899027716989a6996c2535bc9f7fee8aaef79e60608201527f1970ea81dd6992adfbc571effb03503adbbb6a857f578403c6c40e22d65b3c0260808201527f054793348f12c0cf5622c340573cb277586319de359ab9389778f689786b1e4860a082015261022083015160c08201526020610220840101517f30644e72e131a029b85045b68181585d97816a916871ca8d3c208c16d87cfd47817f30644e72e131a029b85045b68181585d97816a916871ca8d3c208c16d87cfd47030690508060e08301527f198e9393920d483a7260bfb731fb5d25f1aa493335a9e71297e485b7aef312c26101008301527f1800deef121f1e76426a00665e5c4479674322d4f75edadd46debd5cd992f6ed6101208301527f090689d0585ff075ec9e99ad690c3395bc4b313370b38ef355acdadcd122975b6101408301527f12c85ea5db8c6deb4aab71808dcb408fe3d1e7690c43d37b4ce6cc0166fa7daa6101608301526020826101808460086107d05a03fa825181169350505050919050565b6040516102e08101604052611ce9846103bc565b611cf4838286610435565b611cfd816108d5565b611d078382610a8e565b611d118185610b46565b611d1b8185610fc0565b611d258185610fec565b611d2e81611b08565b6102e082036040528060005260206000f35b600460009054906101000a900460ff1681565b60055481565b600260009054906101000a900473ffffffffffffffffffffffffffffffffffffffff1673ffffffffffffffffffffffffffffffffffffffff163373ffffffffffffffffffffffffffffffffffffffff1614611de9576040517f08c379a0000000000000000000000000000000000000000000000000000000008152600401611de090612cec565b60405180910390fd5b600073ffffffffffffffffffffffffffffffffffffffff168173ffffffffffffffffffffffffffffffffffffffff161415611e59576040517f08c379a0000000000000000000000000000000000000000000000000000000008152600401611e5090612d58565b60405180910390fd5b600460009054906101000a900460ff1615611ea9576040517f08c379a0000000000000000000000000000000000000000000000000000000008152600401611ea090612dc4565b60405180910390fd5b600354841015611eee576040517f08c379a0000000000000000000000000000000000000000000000000000000008152600401611ee590612e30565b60405180910390fd5b611ef9838383612178565b50806000806101000a81548173ffffffffffffffffffffffffffffffffffffffff021916908373ffffffffffffffffffffffffffffffffffffffff1602179055506001600460006101000a81548160ff0219169083151502179055507f8c0f791a552520d7b652c7f008af155a562ee6e9ce409bf539fbe0c18eef91603060008054906101000a900473ffffffffffffffffffffffffffffffffffffffff1642604051611fa893929190612e50565b60405180910390a150505050565b60008054906101000a900473ffffffffffffffffffffffffffffffffffffffff1681565b600260009054906101000a900473ffffffffffffffffffffffffffffffffffffffff1673ffffffffffffffffffffffffffffffffffffffff163373ffffffffffffffffffffffffffffffffffffffff161461206a576040517f08c379a000000000000000000000000000000000000000000000000000000000815260040161206190612cec565b60405180910390fd5b600460009054906101000a900460ff16156120ba576040517f08c379a00000000000000000000000000000000000000000000000000000000081526004016120b190612dc4565b60405180910390fd5b6003548110156120ff576040517f08c379a00000000000000000000000000000000000000000000000000000000081526004016120f690612e30565b60405180910390fd5b6001600460006101000a81548160ff0219169083151502179055507f8c0f791a552520d7b652c7f008af155a562ee6e9ce409bf539fbe0c18eef91603060008054906101000a900473ffffffffffffffffffffffffffffffffffffffff164260405161216d93929190612e50565b60405180910390a150565b600080600267ffffffffffffffff81111561219657612195612657565b5b6040519080825280602002602001820160405280156121c45781602001602082028036833780820191505090505b509050600554816000815181106121de576121dd612e87565b5b6020026020010181815250508273ffffffffffffffffffffffffffffffffffffffff168160018151811061221557612214612e87565b5b6020026020010181815250503073ffffffffffffffffffffffffffffffffffffffff16631e8e1e138686846040518463ffffffff1660e01b815260040161225e93929190612fb2565b60206040518083038186803b15801561227657600080fd5b505afa15801561228a573d6000803e3d6000fd5b505050506040513d601f19601f820116820180604052508101906122ae9190613017565b6122ed576040517f08c379a00000000000000000000000000000000000000000000000000000000081526004016122e490613090565b60405180910390fd5b60019150509392505050565b600160009054906101000a900473ffffffffffffffffffffffffffffffffffffffff1681565b600260009054906101000a900473ffffffffffffffffffffffffffffffffffffffff1673ffffffffffffffffffffffffffffffffffffffff163373ffffffffffffffffffffffffffffffffffffffff16146123af576040517f08c379a00000000000000000000000000000000000000000000000000000000081526004016123a690612cec565b60405180910390fd5b60008054906101000a900473ffffffffffffffffffffffffffffffffffffffff1673ffffffffffffffffffffffffffffffffffffffff168273ffffffffffffffffffffffffffffffffffffffff161461243d576040517f08c379a0000000000000000000000000000000000000000000000000000000008152600401612434906130fc565b60405180910390fd5b600460009054906101000a900460ff1661248c576040517f08c379a000000000000000000000000000000000000000000000000000000000815260040161248390613168565b60405180910390fd5b8383905086869050146124d4576040517f08c379a00000000000000000000000000000000000000000000000000000000081526004016124cb906131d4565b60405180910390fd5b60005b868690508110156125f35760008787838181106124f7576124f6612e87565b5b905060200201602081019061250c91906131f4565b9050600086868481811061252357612522612e87565b5b9050602002013590508173ffffffffffffffffffffffffffffffffffffffff166323b872dd600160009054906101000a900473ffffffffffffffffffffffffffffffffffffffff1686846040518463ffffffff1660e01b815260040161258b93929190612e50565b602060405180830381600087803b1580156125a557600080fd5b505af11580156125b9573d6000803e3d6000fd5b505050506040513d601f19601f820116820180604052508101906125dd9190613017565b50505080806125eb90613250565b9150506124d7565b50505050505050565b600260009054906101000a900473ffffffffffffffffffffffffffffffffffffffff1681565b60035481565b6000604051905090565b600080fd5b600080fd5b600080fd5b600080fd5b6000601f19601f8301169050919050565b7f4e487b7100000000000000000000000000000000000000000000000000000000600052604160045260246000fd5b61268f82612646565b810181811067ffffffffffffffff821117156126ae576126ad612657565b5b80604052505050565b60006126c1612628565b90506126cd8282612686565b919050565b600067ffffffffffffffff8211156126ed576126ec612657565b5b6126f682612646565b9050602081019050919050565b82818337600083830152505050565b6000612725612720846126d2565b6126b7565b90508281526020810184848401111561274157612740612641565b5b61274c848285612703565b509392505050565b600082601f8301126127695761276861263c565b5b8135612779848260208601612712565b91505092915050565b600067ffffffffffffffff82111561279d5761279c612657565b5b602082029050602081019050919050565b600080fd5b6000819050919050565b6127c6816127b3565b81146127d157600080fd5b50565b6000813590506127e3816127bd565b92915050565b60006127fc6127f784612782565b6126b7565b9050808382526020820190506020840283018581111561281f5761281e6127ae565b5b835b81811015612848578061283488826127d4565b845260208401935050602081019050612821565b5050509392505050565b600082601f8301126128675761286661263c565b5b81356128778482602086016127e9565b91505092915050565b6000806040838503121561289757612896612632565b5b600083013567ffffffffffffffff8111156128b5576128b4612637565b5b6128c185828601612754565b925050602083013567ffffffffffffffff8111156128e2576128e1612637565b5b6128ee85828601612852565b9150509250929050565b60008115159050919050565b61290d816128f8565b82525050565b60006020820190506129286000830184612904565b92915050565b612937816127b3565b82525050565b6000602082019050612952600083018461292e565b92915050565b600080fd5b60008083601f8401126129735761297261263c565b5b8235905067ffffffffffffffff8111156129905761298f612958565b5b6020830191508360018202830111156129ac576129ab6127ae565b5b9250929050565b600073ffffffffffffffffffffffffffffffffffffffff82169050919050565b60006129de826129b3565b9050919050565b6129ee816129d3565b81146129f957600080fd5b50565b600081359050612a0b816129e5565b92915050565b60008060008060608587031215612a2b57612a2a612632565b5b6000612a39878288016127d4565b945050602085013567ffffffffffffffff811115612a5a57612a59612637565b5b612a668782880161295d565b93509350506040612a79878288016129fc565b91505092959194509250565b612a8e816129d3565b82525050565b6000602082019050612aa96000830184612a85565b92915050565b600060208284031215612ac557612ac4612632565b5b6000612ad3848285016127d4565b91505092915050565b600080600060408486031215612af557612af4612632565b5b600084013567ffffffffffffffff811115612b1357612b12612637565b5b612b1f8682870161295d565b93509350506020612b32868287016129fc565b9150509250925092565b60008083601f840112612b5257612b5161263c565b5b8235905067ffffffffffffffff811115612b6f57612b6e612958565b5b602083019150836020820283011115612b8b57612b8a6127ae565b5b9250929050565b60008083601f840112612ba857612ba761263c565b5b8235905067ffffffffffffffff811115612bc557612bc4612958565b5b602083019150836020820283011115612be157612be06127ae565b5b9250929050565b60008060008060008060808789031215612c0557612c04612632565b5b600087013567ffffffffffffffff811115612c2357612c22612637565b5b612c2f89828a01612b3c565b9650965050602087013567ffffffffffffffff811115612c5257612c51612637565b5b612c5e89828a01612b92565b94509450506040612c7189828a016129fc565b9250506060612c8289828a016129fc565b9150509295509295509295565b600082825260208201905092915050565b7f4e6f742067617465776179000000000000000000000000000000000000000000600082015250565b6000612cd6600b83612c8f565b9150612ce182612ca0565b602082019050919050565b60006020820190508181036000830152612d0581612cc9565b9050919050565b7f4e756c6c20616464726573730000000000000000000000000000000000000000600082015250565b6000612d42600c83612c8f565b9150612d4d82612d0c565b602082019050919050565b60006020820190508181036000830152612d7181612d35565b9050919050565b7f416c726561647920616374697665000000000000000000000000000000000000600082015250565b6000612dae600e83612c8f565b9150612db982612d78565b602082019050919050565b60006020820190508181036000830152612ddd81612da1565b9050919050565b7f496e616374697669747920746f6f2073686f7274000000000000000000000000600082015250565b6000612e1a601483612c8f565b9150612e2582612de4565b602082019050919050565b60006020820190508181036000830152612e4981612e0d565b9050919050565b6000606082019050612e656000830186612a85565b612e726020830185612a85565b612e7f604083018461292e565b949350505050565b7f4e487b7100000000000000000000000000000000000000000000000000000000600052603260045260246000fd5b600082825260208201905092915050565b6000612ed38385612eb6565b9350612ee0838584612703565b612ee983612646565b840190509392505050565b600081519050919050565b600082825260208201905092915050565b6000819050602082019050919050565b612f29816127b3565b82525050565b6000612f3b8383612f20565b60208301905092915050565b6000602082019050919050565b6000612f5f82612ef4565b612f698185612eff565b9350612f7483612f10565b8060005b83811015612fa5578151612f8c8882612f2f565b9750612f9783612f47565b925050600181019050612f78565b5085935050505092915050565b60006040820190508181036000830152612fcd818587612ec7565b90508181036020830152612fe18184612f54565b9050949350505050565b612ff4816128f8565b8114612fff57600080fd5b50565b60008151905061301181612feb565b92915050565b60006020828403121561302d5761302c612632565b5b600061303b84828501613002565b91505092915050565b7f50726f6f6620766572696669636174696f6e206661696c656400000000000000600082015250565b600061307a601983612c8f565b915061308582613044565b602082019050919050565b600060208201905081810360008301526130a98161306d565b9050919050565b7f4f6e6c7920726563697069656e74000000000000000000000000000000000000600082015250565b60006130e6600e83612c8f565b91506130f1826130b0565b602082019050919050565b60006020820190508181036000830152613115816130d9565b9050919050565b7f4e6f742061637469766500000000000000000000000000000000000000000000600082015250565b6000613152600a83612c8f565b915061315d8261311c565b602082019050919050565b6000602082019050818103600083015261318181613145565b9050919050565b7f57726f6e67206c656e6774680000000000000000000000000000000000000000600082015250565b60006131be600c83612c8f565b91506131c982613188565b602082019050919050565b600060208201905081810360008301526131ed816131b1565b9050919050565b60006020828403121561320a57613209612632565b5b6000613218848285016129fc565b91505092915050565b7f4e487b7100000000000000000000000000000000000000000000000000000000600052601160045260246000fd5b600061325b826127b3565b91507fffffffffffffffffffffffffffffffffffffffffffffffffffffffffffffffff82141561328e5761328d613221565b5b60018201905091905056fea26469706673582212204c2761fed523e950ff8ac988551de07ff18ef11f556cabe6d2c5f6327a6f990a64736f6c63430008090033",
  "linkReferences": {},
  "deployedLinkReferences": {}
}