{
  "_format": "hh-sol-artifact-1",
  "contractName": "RecoveryContract",
  "sourceName": "contracts/ethereum/RecoveryContract.sol",
  "abi": [
    {
      "inputs": [
        {
          "internalType": "address",
          "name": "_recipient",
          "type": "address"
        },
        {
          "internalType": "uint256",
          "name": "_minBlocks",
          "type": "uint256"
        },
        {
          "internalType": "address",
          "name": "_gatewayContract",
          "type": "address"
        },
        {
          "internalType": "address",
          "name": "_EOA",
          "type": "address"
        }
      ],
      "stateMutability": "nonpayable",
      "type": "constructor"
    },
    {
      "anonymous": false,
      "inputs": [
        {
          "indexed": false,
          "internalType": "address",
          "name": "contractAddress",
          "type": "address"
        },
        {
          "indexed": false,
          "internalType": "address",
          "name": "recipient",
          "type": "address"
        },
        {
          "indexed": false,
          "internalType": "uint256",
          "name": "activationTime",
          "type": "uint256"
        }
      ],
      "name": "ActiveRecovery",
      "type": "event"
    },
    {
      "inputs": [],
      "name": "EOA",
      "outputs": [
        {
          "internalType": "address",
          "name": "",
          "type": "address"
        }
      ],
      "stateMutability": "view",
      "type": "function"
    },
    {
      "inputs": [
        {
          "internalType": "uint256",
          "name": "blocks",
          "type": "uint256"
        }
      ],
      "name": "activateRecovery",
      "outputs": [],
      "stateMutability": "nonpayable",
      "type": "function"
    },
    {
      "inputs": [
        {
          "internalType": "address[]",
          "name": "erc20contracts",
          "type": "address[]"
        },
        {
          "internalType": "address",
          "name": "caller",
          "type": "address"
        },
        {
          "internalType": "address",
          "name": "to",
          "type": "address"
        }
      ],
      "name": "claimAssets",
      "outputs": [],
      "stateMutability": "nonpayable",
      "type": "function"
    },
    {
      "inputs": [],
      "name": "gatewayContract",
      "outputs": [
        {
          "internalType": "address",
          "name": "",
          "type": "address"
        }
      ],
      "stateMutability": "view",
      "type": "function"
    },
    {
      "inputs": [],
      "name": "isActive",
      "outputs": [
        {
          "internalType": "bool",
          "name": "",
          "type": "bool"
        }
      ],
      "stateMutability": "view",
      "type": "function"
    },
    {
      "inputs": [],
      "name": "isTerminated",
      "outputs": [
        {
          "internalType": "bool",
          "name": "",
          "type": "bool"
        }
      ],
      "stateMutability": "view",
      "type": "function"
    },
    {
      "inputs": [],
      "name": "minBlocks",
      "outputs": [
        {
          "internalType": "uint256",
          "name": "",
          "type": "uint256"
        }
      ],
      "stateMutability": "view",
      "type": "function"
    },
    {
      "inputs": [],
      "name": "recipient",
      "outputs": [
        {
          "internalType": "address",
          "name": "",
          "type": "address"
        }
      ],
      "stateMutability": "view",
      "type": "function"
    },
    {
      "inputs": [],
      "name": "terminateRecoveryContract",
      "outputs": [],
      "stateMutability": "nonpayable",
      "type": "function"
    }
  ],
  "bytecode": "0x60806040523480156200001157600080fd5b5060405162001142380380620011428339818101604052810190620000379190620001af565b836000806101000a81548173ffffffffffffffffffffffffffffffffffffffff021916908373ffffffffffffffffffffffffffffffffffffffff16021790555080600160006101000a81548173ffffffffffffffffffffffffffffffffffffffff021916908373ffffffffffffffffffffffffffffffffffffffff1602179055508260038190555081600260006101000a81548173ffffffffffffffffffffffffffffffffffffffff021916908373ffffffffffffffffffffffffffffffffffffffff1602179055505050505062000221565b600080fd5b600073ffffffffffffffffffffffffffffffffffffffff82169050919050565b60006200013c826200010f565b9050919050565b6200014e816200012f565b81146200015a57600080fd5b50565b6000815190506200016e8162000143565b92915050565b6000819050919050565b620001898162000174565b81146200019557600080fd5b50565b600081519050620001a9816200017e565b92915050565b60008060008060808587031215620001cc57620001cb6200010a565b5b6000620001dc878288016200015d565b9450506020620001ef8782880162000198565b935050604062000202878288016200015d565b925050606062000215878288016200015d565b91505092959194509250565b610f1180620002316000396000f3fe608060405234801561001057600080fd5b50600436106100935760003560e01c8063a31fca3011610066578063a31fca301461010e578063d1cc99761461012a578063e524979c14610148578063eb0cde1d14610152578063ff21d1e51461017057610093565b806322f3e2d41461009857806366d003ac146100b65780636af39aa3146100d45780637dc5186f146100f0575b600080fd5b6100a061018e565b6040516100ad9190610860565b60405180910390f35b6100be6101a1565b6040516100cb91906108bc565b60405180910390f35b6100ee60048036038101906100e99190610917565b6101c5565b005b6100f86103b3565b60405161010591906108bc565b60405180910390f35b610128600480360381019061012391906109d5565b6103d9565b005b610132610759565b60405161013f9190610860565b60405180910390f35b61015061076c565b005b61015a610819565b60405161016791906108bc565b60405180910390f35b61017861083f565b6040516101859190610a58565b60405180910390f35b600460009054906101000a900460ff1681565b60008054906101000a900473ffffffffffffffffffffffffffffffffffffffff1681565b600260009054906101000a900473ffffffffffffffffffffffffffffffffffffffff1673ffffffffffffffffffffffffffffffffffffffff163373ffffffffffffffffffffffffffffffffffffffff1614610255576040517f08c379a000000000000000000000000000000000000000000000000000000000815260040161024c90610ad0565b60405180910390fd5b600460009054906101000a900460ff16156102a5576040517f08c379a000000000000000000000000000000000000000000000000000000000815260040161029c90610b3c565b60405180910390fd5b600460019054906101000a900460ff16156102f5576040517f08c379a00000000000000000000000000000000000000000000000000000000081526004016102ec90610ba8565b60405180910390fd5b60035481101561033a576040517f08c379a000000000000000000000000000000000000000000000000000000000815260040161033190610c14565b60405180910390fd5b6001600460006101000a81548160ff0219169083151502179055507f8c0f791a552520d7b652c7f008af155a562ee6e9ce409bf539fbe0c18eef91603060008054906101000a900473ffffffffffffffffffffffffffffffffffffffff16426040516103a893929190610c34565b60405180910390a150565b600160009054906101000a900473ffffffffffffffffffffffffffffffffffffffff1681565b600260009054906101000a900473ffffffffffffffffffffffffffffffffffffffff1673ffffffffffffffffffffffffffffffffffffffff163373ffffffffffffffffffffffffffffffffffffffff1614610469576040517f08c379a000000000000000000000000000000000000000000000000000000000815260040161046090610ad0565b60405180910390fd5b60008054906101000a900473ffffffffffffffffffffffffffffffffffffffff1673ffffffffffffffffffffffffffffffffffffffff168273ffffffffffffffffffffffffffffffffffffffff16146104f7576040517f08c379a00000000000000000000000000000000000000000000000000000000081526004016104ee90610cb7565b60405180910390fd5b600460009054906101000a900460ff16610546576040517f08c379a000000000000000000000000000000000000000000000000000000000815260040161053d90610d23565b60405180910390fd5b600460019054906101000a900460ff1615610596576040517f08c379a000000000000000000000000000000000000000000000000000000000815260040161058d90610ba8565b60405180910390fd5b60005b848490508110156107525760008585838181106105b9576105b8610d43565b5b90506020020160208101906105ce9190610d72565b905060008173ffffffffffffffffffffffffffffffffffffffff1663dd62ed3e600160009054906101000a900473ffffffffffffffffffffffffffffffffffffffff16306040518363ffffffff1660e01b815260040161062f929190610d9f565b60206040518083038186803b15801561064757600080fd5b505afa15801561065b573d6000803e3d6000fd5b505050506040513d601f19601f8201168201806040525081019061067f9190610ddd565b9050600081111561073d578173ffffffffffffffffffffffffffffffffffffffff166323b872dd600160009054906101000a900473ffffffffffffffffffffffffffffffffffffffff1686846040518463ffffffff1660e01b81526004016106e993929190610c34565b602060405180830381600087803b15801561070357600080fd5b505af1158015610717573d6000803e3d6000fd5b505050506040513d601f19601f8201168201806040525081019061073b9190610e36565b505b5050808061074a90610e92565b915050610599565b5050505050565b600460019054906101000a900460ff1681565b600260009054906101000a900473ffffffffffffffffffffffffffffffffffffffff1673ffffffffffffffffffffffffffffffffffffffff163373ffffffffffffffffffffffffffffffffffffffff16146107fc576040517f08c379a00000000000000000000000000000000000000000000000000000000081526004016107f390610ad0565b60405180910390fd5b6001600460016101000a81548160ff021916908315150217905550565b600260009054906101000a900473ffffffffffffffffffffffffffffffffffffffff1681565b60035481565b60008115159050919050565b61085a81610845565b82525050565b60006020820190506108756000830184610851565b92915050565b600073ffffffffffffffffffffffffffffffffffffffff82169050919050565b60006108a68261087b565b9050919050565b6108b68161089b565b82525050565b60006020820190506108d160008301846108ad565b92915050565b600080fd5b600080fd5b6000819050919050565b6108f4816108e1565b81146108ff57600080fd5b50565b600081359050610911816108eb565b92915050565b60006020828403121561092d5761092c6108d7565b5b600061093b84828501610902565b91505092915050565b600080fd5b600080fd5b600080fd5b60008083601f84011261096957610968610944565b5b8235905067ffffffffffffffff81111561098657610985610949565b5b6020830191508360208202830111156109a2576109a161094e565b5b9250929050565b6109b28161089b565b81146109bd57600080fd5b50565b6000813590506109cf816109a9565b92915050565b600080600080606085870312156109ef576109ee6108d7565b5b600085013567ffffffffffffffff811115610a0d57610a0c6108dc565b5b610a1987828801610953565b94509450506020610a2c878288016109c0565b9250506040610a3d878288016109c0565b91505092959194509250565b610a52816108e1565b82525050565b6000602082019050610a6d6000830184610a49565b92915050565b600082825260208201905092915050565b7f4e6f742067617465776179000000000000000000000000000000000000000000600082015250565b6000610aba600b83610a73565b9150610ac582610a84565b602082019050919050565b60006020820190508181036000830152610ae981610aad565b9050919050565b7f416c726561647920616374697665000000000000000000000000000000000000600082015250565b6000610b26600e83610a73565b9150610b3182610af0565b602082019050919050565b60006020820190508181036000830152610b5581610b19565b9050919050565b7f416c7265616479207465726d696e617465640000000000000000000000000000600082015250565b6000610b92601283610a73565b9150610b9d82610b5c565b602082019050919050565b60006020820190508181036000830152610bc181610b85565b9050919050565b7f496e616374697669747920746f6f2073686f7274000000000000000000000000600082015250565b6000610bfe601483610a73565b9150610c0982610bc8565b602082019050919050565b60006020820190508181036000830152610c2d81610bf1565b9050919050565b6000606082019050610c4960008301866108ad565b610c5660208301856108ad565b610c636040830184610a49565b949350505050565b7f4f6e6c7920726563697069656e74000000000000000000000000000000000000600082015250565b6000610ca1600e83610a73565b9150610cac82610c6b565b602082019050919050565b60006020820190508181036000830152610cd081610c94565b9050919050565b7f4e6f742061637469766500000000000000000000000000000000000000000000600082015250565b6000610d0d600a83610a73565b9150610d1882610cd7565b602082019050919050565b60006020820190508181036000830152610d3c81610d00565b9050919050565b7f4e487b7100000000000000000000000000000000000000000000000000000000600052603260045260246000fd5b600060208284031215610d8857610d876108d7565b5b6000610d96848285016109c0565b91505092915050565b6000604082019050610db460008301856108ad565b610dc160208301846108ad565b9392505050565b600081519050610dd7816108eb565b92915050565b600060208284031215610df357610df26108d7565b5b6000610e0184828501610dc8565b91505092915050565b610e1381610845565b8114610e1e57600080fd5b50565b600081519050610e3081610e0a565b92915050565b600060208284031215610e4c57610e4b6108d7565b5b6000610e5a84828501610e21565b91505092915050565b7f4e487b7100000000000000000000000000000000000000000000000000000000600052601160045260246000fd5b6000610e9d826108e1565b91507fffffffffffffffffffffffffffffffffffffffffffffffffffffffffffffffff821415610ed057610ecf610e63565b5b60018201905091905056fea264697066735822122050a535a18dbee0223b7410dd290ce64777c670707577e5c705e5c08f5e98d54c64736f6c63430008090033",
  "linkReferences": {},
  "deployedLinkReferences": {}
}