{
  "_format": "hh-sol-artifact-1",
  "contractName": "RecoveryContract",
  "sourceName": "contracts/ethereum/RecoveryContract.sol",
  "abi": [
    {
      "inputs": [
        {
          "internalType": "address",
          "name": "_recipient",
          "type": "address"
        },
        {
          "internalType": "uint256",
          "name": "_minBlocks",
          "type": "uint256"
        },
        {
          "internalType": "address",
          "name": "_gatewayContract",
          "type": "address"
        },
        {
          "internalType": "address",
          "name": "_EOA",
          "type": "address"
        }
      ],
      "stateMutability": "nonpayable",
      "type": "constructor"
    },
    {
      "anonymous": false,
      "inputs": [
        {
          "indexed": false,
          "internalType": "address",
          "name": "contractAddress",
          "type": "address"
        },
        {
          "indexed": false,
          "internalType": "address",
          "name": "recipient",
          "type": "address"
        },
        {
          "indexed": false,
          "internalType": "uint256",
          "name": "activationTime",
          "type": "uint256"
        }
      ],
      "name": "ActiveRecovery",
      "type": "event"
    },
    {
      "inputs": [],
      "name": "EOA",
      "outputs": [
        {
          "internalType": "address",
          "name": "",
          "type": "address"
        }
      ],
      "stateMutability": "view",
      "type": "function"
    },
    {
      "inputs": [
        {
          "internalType": "uint256",
          "name": "blocks",
          "type": "uint256"
        }
      ],
      "name": "activateRecovery",
      "outputs": [],
      "stateMutability": "nonpayable",
      "type": "function"
    },
    {
      "inputs": [
        {
          "internalType": "address[]",
          "name": "erc20contracts",
          "type": "address[]"
        },
        {
          "internalType": "uint256[]",
          "name": "amounts",
          "type": "uint256[]"
        },
        {
          "internalType": "address",
          "name": "caller",
          "type": "address"
        },
        {
          "internalType": "address",
          "name": "to",
          "type": "address"
        }
      ],
      "name": "claimAssets",
      "outputs": [],
      "stateMutability": "nonpayable",
      "type": "function"
    },
    {
      "inputs": [],
      "name": "gatewayContract",
      "outputs": [
        {
          "internalType": "address",
          "name": "",
          "type": "address"
        }
      ],
      "stateMutability": "view",
      "type": "function"
    },
    {
      "inputs": [],
      "name": "isActive",
      "outputs": [
        {
          "internalType": "bool",
          "name": "",
          "type": "bool"
        }
      ],
      "stateMutability": "view",
      "type": "function"
    },
    {
      "inputs": [],
      "name": "minBlocks",
      "outputs": [
        {
          "internalType": "uint256",
          "name": "",
          "type": "uint256"
        }
      ],
      "stateMutability": "view",
      "type": "function"
    },
    {
      "inputs": [],
      "name": "recipient",
      "outputs": [
        {
          "internalType": "address",
          "name": "",
          "type": "address"
        }
      ],
      "stateMutability": "view",
      "type": "function"
    }
  ],
  "bytecode": "0x60806040523480156200001157600080fd5b5060405162000f6f38038062000f6f8339818101604052810190620000379190620001af565b836000806101000a81548173ffffffffffffffffffffffffffffffffffffffff021916908373ffffffffffffffffffffffffffffffffffffffff16021790555080600160006101000a81548173ffffffffffffffffffffffffffffffffffffffff021916908373ffffffffffffffffffffffffffffffffffffffff1602179055508260038190555081600260006101000a81548173ffffffffffffffffffffffffffffffffffffffff021916908373ffffffffffffffffffffffffffffffffffffffff1602179055505050505062000221565b600080fd5b600073ffffffffffffffffffffffffffffffffffffffff82169050919050565b60006200013c826200010f565b9050919050565b6200014e816200012f565b81146200015a57600080fd5b50565b6000815190506200016e8162000143565b92915050565b6000819050919050565b620001898162000174565b81146200019557600080fd5b50565b600081519050620001a9816200017e565b92915050565b60008060008060808587031215620001cc57620001cb6200010a565b5b6000620001dc878288016200015d565b9450506020620001ef8782880162000198565b935050604062000202878288016200015d565b925050606062000215878288016200015d565b91505092959194509250565b610d3e80620002316000396000f3fe608060405234801561001057600080fd5b506004361061007d5760003560e01c80637dc5186f1161005b5780637dc5186f146100da578063ae4304ef146100f8578063eb0cde1d14610114578063ff21d1e5146101325761007d565b806322f3e2d41461008257806366d003ac146100a05780636af39aa3146100be575b600080fd5b61008a610150565b604051610097919061066f565b60405180910390f35b6100a8610163565b6040516100b591906106cb565b60405180910390f35b6100d860048036038101906100d39190610726565b610187565b005b6100e2610325565b6040516100ef91906106cb565b60405180910390f35b610112600480360381019061010d919061083a565b61034b565b005b61011c610628565b60405161012991906106cb565b60405180910390f35b61013a61064e565b60405161014791906108f0565b60405180910390f35b600460009054906101000a900460ff1681565b60008054906101000a900473ffffffffffffffffffffffffffffffffffffffff1681565b600260009054906101000a900473ffffffffffffffffffffffffffffffffffffffff1673ffffffffffffffffffffffffffffffffffffffff163373ffffffffffffffffffffffffffffffffffffffff1614610217576040517f08c379a000000000000000000000000000000000000000000000000000000000815260040161020e90610968565b60405180910390fd5b600460009054906101000a900460ff1615610267576040517f08c379a000000000000000000000000000000000000000000000000000000000815260040161025e906109d4565b60405180910390fd5b6003548110156102ac576040517f08c379a00000000000000000000000000000000000000000000000000000000081526004016102a390610a40565b60405180910390fd5b6001600460006101000a81548160ff0219169083151502179055507f8c0f791a552520d7b652c7f008af155a562ee6e9ce409bf539fbe0c18eef91603060008054906101000a900473ffffffffffffffffffffffffffffffffffffffff164260405161031a93929190610a60565b60405180910390a150565b600160009054906101000a900473ffffffffffffffffffffffffffffffffffffffff1681565b600260009054906101000a900473ffffffffffffffffffffffffffffffffffffffff1673ffffffffffffffffffffffffffffffffffffffff163373ffffffffffffffffffffffffffffffffffffffff16146103db576040517f08c379a00000000000000000000000000000000000000000000000000000000081526004016103d290610968565b60405180910390fd5b60008054906101000a900473ffffffffffffffffffffffffffffffffffffffff1673ffffffffffffffffffffffffffffffffffffffff168273ffffffffffffffffffffffffffffffffffffffff1614610469576040517f08c379a000000000000000000000000000000000000000000000000000000000815260040161046090610ae3565b60405180910390fd5b600460009054906101000a900460ff166104b8576040517f08c379a00000000000000000000000000000000000000000000000000000000081526004016104af90610b4f565b60405180910390fd5b838390508686905014610500576040517f08c379a00000000000000000000000000000000000000000000000000000000081526004016104f790610bbb565b60405180910390fd5b60005b8686905081101561061f57600087878381811061052357610522610bdb565b5b90506020020160208101906105389190610c0a565b9050600086868481811061054f5761054e610bdb565b5b9050602002013590508173ffffffffffffffffffffffffffffffffffffffff166323b872dd600160009054906101000a900473ffffffffffffffffffffffffffffffffffffffff1686846040518463ffffffff1660e01b81526004016105b793929190610a60565b602060405180830381600087803b1580156105d157600080fd5b505af11580156105e5573d6000803e3d6000fd5b505050506040513d601f19601f820116820180604052508101906106099190610c63565b505050808061061790610cbf565b915050610503565b50505050505050565b600260009054906101000a900473ffffffffffffffffffffffffffffffffffffffff1681565b60035481565b60008115159050919050565b61066981610654565b82525050565b60006020820190506106846000830184610660565b92915050565b600073ffffffffffffffffffffffffffffffffffffffff82169050919050565b60006106b58261068a565b9050919050565b6106c5816106aa565b82525050565b60006020820190506106e060008301846106bc565b92915050565b600080fd5b600080fd5b6000819050919050565b610703816106f0565b811461070e57600080fd5b50565b600081359050610720816106fa565b92915050565b60006020828403121561073c5761073b6106e6565b5b600061074a84828501610711565b91505092915050565b600080fd5b600080fd5b600080fd5b60008083601f84011261077857610777610753565b5b8235905067ffffffffffffffff81111561079557610794610758565b5b6020830191508360208202830111156107b1576107b061075d565b5b9250929050565b60008083601f8401126107ce576107cd610753565b5b8235905067ffffffffffffffff8111156107eb576107ea610758565b5b6020830191508360208202830111156108075761080661075d565b5b9250929050565b610817816106aa565b811461082257600080fd5b50565b6000813590506108348161080e565b92915050565b60008060008060008060808789031215610857576108566106e6565b5b600087013567ffffffffffffffff811115610875576108746106eb565b5b61088189828a01610762565b9650965050602087013567ffffffffffffffff8111156108a4576108a36106eb565b5b6108b089828a016107b8565b945094505060406108c389828a01610825565b92505060606108d489828a01610825565b9150509295509295509295565b6108ea816106f0565b82525050565b600060208201905061090560008301846108e1565b92915050565b600082825260208201905092915050565b7f4e6f742067617465776179000000000000000000000000000000000000000000600082015250565b6000610952600b8361090b565b915061095d8261091c565b602082019050919050565b6000602082019050818103600083015261098181610945565b9050919050565b7f416c726561647920616374697665000000000000000000000000000000000000600082015250565b60006109be600e8361090b565b91506109c982610988565b602082019050919050565b600060208201905081810360008301526109ed816109b1565b9050919050565b7f496e616374697669747920746f6f2073686f7274000000000000000000000000600082015250565b6000610a2a60148361090b565b9150610a35826109f4565b602082019050919050565b60006020820190508181036000830152610a5981610a1d565b9050919050565b6000606082019050610a7560008301866106bc565b610a8260208301856106bc565b610a8f60408301846108e1565b949350505050565b7f4f6e6c7920726563697069656e74000000000000000000000000000000000000600082015250565b6000610acd600e8361090b565b9150610ad882610a97565b602082019050919050565b60006020820190508181036000830152610afc81610ac0565b9050919050565b7f4e6f742061637469766500000000000000000000000000000000000000000000600082015250565b6000610b39600a8361090b565b9150610b4482610b03565b602082019050919050565b60006020820190508181036000830152610b6881610b2c565b9050919050565b7f57726f6e67206c656e6774680000000000000000000000000000000000000000600082015250565b6000610ba5600c8361090b565b9150610bb082610b6f565b602082019050919050565b60006020820190508181036000830152610bd481610b98565b9050919050565b7f4e487b7100000000000000000000000000000000000000000000000000000000600052603260045260246000fd5b600060208284031215610c2057610c1f6106e6565b5b6000610c2e84828501610825565b91505092915050565b610c4081610654565b8114610c4b57600080fd5b50565b600081519050610c5d81610c37565b92915050565b600060208284031215610c7957610c786106e6565b5b6000610c8784828501610c4e565b91505092915050565b7f4e487b7100000000000000000000000000000000000000000000000000000000600052601160045260246000fd5b6000610cca826106f0565b91507fffffffffffffffffffffffffffffffffffffffffffffffffffffffffffffffff821415610cfd57610cfc610c90565b5b60018201905091905056fea2646970667358221220b0e1d83b98733393d0a48538474581ec994d0043a9edf0a4f07faa128d667fa964736f6c63430008090033",
  "linkReferences": {},
  "deployedLinkReferences": {}
}