{
  "_format": "hh-sol-artifact-1",
  "contractName": "RecoveryContract",
  "sourceName": "contracts/ethereum/RecoveryContract.sol",
  "abi": [
    {
      "inputs": [
        {
          "internalType": "address",
          "name": "_recipient",
          "type": "address"
        },
        {
          "internalType": "uint256",
          "name": "_minBlocks",
          "type": "uint256"
        },
        {
          "internalType": "address",
          "name": "_gatewayContract",
          "type": "address"
        },
        {
          "internalType": "address",
          "name": "_EOA",
          "type": "address"
        }
      ],
      "stateMutability": "nonpayable",
      "type": "constructor"
    },
    {
      "inputs": [],
      "name": "EOA",
      "outputs": [
        {
          "internalType": "address",
          "name": "",
          "type": "address"
        }
      ],
      "stateMutability": "view",
      "type": "function"
    },
    {
      "inputs": [
        {
          "internalType": "uint256",
          "name": "blocks",
          "type": "uint256"
        }
      ],
      "name": "activateRecovery",
      "outputs": [
        {
          "internalType": "address",
          "name": "",
          "type": "address"
        },
        {
          "internalType": "address",
          "name": "",
          "type": "address"
        },
        {
          "internalType": "address",
          "name": "",
          "type": "address"
        }
      ],
      "stateMutability": "nonpayable",
      "type": "function"
    },
    {
      "inputs": [
        {
          "internalType": "address[]",
          "name": "erc20contracts",
          "type": "address[]"
        },
        {
          "internalType": "uint256[]",
          "name": "amounts",
          "type": "uint256[]"
        }
      ],
      "name": "claimAssets",
      "outputs": [],
      "stateMutability": "nonpayable",
      "type": "function"
    },
    {
      "inputs": [],
      "name": "gatewayContract",
      "outputs": [
        {
          "internalType": "address",
          "name": "",
          "type": "address"
        }
      ],
      "stateMutability": "view",
      "type": "function"
    },
    {
      "inputs": [],
      "name": "isActive",
      "outputs": [
        {
          "internalType": "bool",
          "name": "",
          "type": "bool"
        }
      ],
      "stateMutability": "view",
      "type": "function"
    },
    {
      "inputs": [],
      "name": "minBlocks",
      "outputs": [
        {
          "internalType": "uint256",
          "name": "",
          "type": "uint256"
        }
      ],
      "stateMutability": "view",
      "type": "function"
    },
    {
      "inputs": [],
      "name": "recipient",
      "outputs": [
        {
          "internalType": "address",
          "name": "",
          "type": "address"
        }
      ],
      "stateMutability": "view",
      "type": "function"
    }
  ],
  "bytecode": "0x60806040526004805460ff1916905534801561001a57600080fd5b506040516106e53803806106e58339810160408190526100399161009d565b600080546001600160a01b039586166001600160a01b0319918216179091556001805492861692821692909217909155600392909255600280549190931691161790556100ea565b80516001600160a01b038116811461009857600080fd5b919050565b600080600080608085870312156100b357600080fd5b6100bc85610081565b9350602085015192506100d160408601610081565b91506100df60608601610081565b905092959194509250565b6105ec806100f96000396000f3fe608060405234801561001057600080fd5b506004361061007d5760003560e01c806373ff51211161005b57806373ff51211461010c5780637dc5186f14610121578063eb0cde1d14610134578063ff21d1e51461014757600080fd5b806322f3e2d41461008257806366d003ac146100a45780636af39aa3146100cf575b600080fd5b60045461008f9060ff1681565b60405190151581526020015b60405180910390f35b6000546100b7906001600160a01b031681565b6040516001600160a01b03909116815260200161009b565b6100e26100dd366004610454565b61015e565b604080516001600160a01b039485168152928416602084015292169181019190915260600161009b565b61011f61011a3660046104b9565b610286565b005b6001546100b7906001600160a01b031681565b6002546100b7906001600160a01b031681565b61015060035481565b60405190815260200161009b565b600254600090819081906001600160a01b031633146101ce5760405162461bcd60e51b815260206004820152602160248201527f4f6e6c792063616c6c61626c65206279206761746577617920636f6e747261636044820152601d60fa1b60648201526084015b60405180910390fd5b60045460ff16156102125760405162461bcd60e51b815260206004820152600e60248201526d416c72656164792061637469766560901b60448201526064016101c5565b60035484101561025b5760405162461bcd60e51b8152602060048201526014602482015273125b9858dd1a5d9a5d1e481d1bdbc81cda1bdc9d60621b60448201526064016101c5565b50506004805460ff19166001908117909155546000546001600160a01b039182169430945091169150565b6000546001600160a01b031633146102d15760405162461bcd60e51b815260206004820152600e60248201526d13db9b1e481c9958da5c1a595b9d60921b60448201526064016101c5565b60045460ff166103105760405162461bcd60e51b815260206004820152600a6024820152694e6f742061637469766560b01b60448201526064016101c5565b82811461034e5760405162461bcd60e51b815260206004820152600c60248201526b0aee4dedcce40d8cadccee8d60a31b60448201526064016101c5565b60005b8381101561044d57600085858381811061036d5761036d610525565b9050602002016020810190610382919061053b565b9050600084848481811061039857610398610525565b6001546000546040516323b872dd60e01b81526001600160a01b03928316600482015290821660248201526020929092029390930135604482018190529350918416916323b872dd9150606401602060405180830381600087803b1580156103ff57600080fd5b505af1158015610413573d6000803e3d6000fd5b505050506040513d601f19601f82011682018060405250810190610437919061056b565b50505080806104459061058d565b915050610351565b5050505050565b60006020828403121561046657600080fd5b5035919050565b60008083601f84011261047f57600080fd5b50813567ffffffffffffffff81111561049757600080fd5b6020830191508360208260051b85010111156104b257600080fd5b9250929050565b600080600080604085870312156104cf57600080fd5b843567ffffffffffffffff808211156104e757600080fd5b6104f38883890161046d565b9096509450602087013591508082111561050c57600080fd5b506105198782880161046d565b95989497509550505050565b634e487b7160e01b600052603260045260246000fd5b60006020828403121561054d57600080fd5b81356001600160a01b038116811461056457600080fd5b9392505050565b60006020828403121561057d57600080fd5b8151801515811461056457600080fd5b60006000198214156105af57634e487b7160e01b600052601160045260246000fd5b506001019056fea264697066735822122073310c80e94cd1f237e3506ffd1687715f82d0c4fdbb7108755fc85af68400ee64736f6c63430008090033",
  "linkReferences": {},
  "deployedLinkReferences": {}
}