{
  "_format": "hh-sol-artifact-1",
  "contractName": "RecoveryContract",
  "sourceName": "contracts/ethereum/RecoveryContract.sol",
  "abi": [
    {
      "inputs": [
        {
          "internalType": "address",
          "name": "_recipient",
          "type": "address"
        },
        {
          "internalType": "uint256",
          "name": "_minBlocks",
          "type": "uint256"
        },
        {
          "internalType": "address",
          "name": "_gatewayContract",
          "type": "address"
        },
        {
          "internalType": "address",
          "name": "_EOA",
          "type": "address"
        }
      ],
      "stateMutability": "nonpayable",
      "type": "constructor"
    },
    {
      "inputs": [],
      "name": "EOA",
      "outputs": [
        {
          "internalType": "address",
          "name": "",
          "type": "address"
        }
      ],
      "stateMutability": "view",
      "type": "function"
    },
    {
      "inputs": [
        {
          "internalType": "uint256",
          "name": "blocks",
          "type": "uint256"
        }
      ],
      "name": "activateRecovery",
      "outputs": [
        {
          "internalType": "address",
          "name": "",
          "type": "address"
        },
        {
          "internalType": "address",
          "name": "",
          "type": "address"
        },
        {
          "internalType": "address",
          "name": "",
          "type": "address"
        }
      ],
      "stateMutability": "nonpayable",
      "type": "function"
    },
    {
      "inputs": [
        {
          "internalType": "address[]",
          "name": "erc20contracts",
          "type": "address[]"
        },
        {
          "internalType": "uint256[]",
          "name": "amounts",
          "type": "uint256[]"
        },
        {
          "internalType": "address",
          "name": "caller",
          "type": "address"
        },
        {
          "internalType": "address",
          "name": "to",
          "type": "address"
        }
      ],
      "name": "claimAssets",
      "outputs": [],
      "stateMutability": "nonpayable",
      "type": "function"
    },
    {
      "inputs": [],
      "name": "gatewayContract",
      "outputs": [
        {
          "internalType": "address",
          "name": "",
          "type": "address"
        }
      ],
      "stateMutability": "view",
      "type": "function"
    },
    {
      "inputs": [],
      "name": "isActive",
      "outputs": [
        {
          "internalType": "bool",
          "name": "",
          "type": "bool"
        }
      ],
      "stateMutability": "view",
      "type": "function"
    },
    {
      "inputs": [],
      "name": "minBlocks",
      "outputs": [
        {
          "internalType": "uint256",
          "name": "",
          "type": "uint256"
        }
      ],
      "stateMutability": "view",
      "type": "function"
    },
    {
      "inputs": [],
      "name": "recipient",
      "outputs": [
        {
          "internalType": "address",
          "name": "",
          "type": "address"
        }
      ],
      "stateMutability": "view",
      "type": "function"
    }
  ],
  "bytecode": "0x60806040526004805460ff1916905534801561001a57600080fd5b506040516107193803806107198339810160408190526100399161009d565b600080546001600160a01b039586166001600160a01b0319918216179091556001805492861692821692909217909155600392909255600280549190931691161790556100ea565b80516001600160a01b038116811461009857600080fd5b919050565b600080600080608085870312156100b357600080fd5b6100bc85610081565b9350602085015192506100d160408601610081565b91506100df60608601610081565b905092959194509250565b610620806100f96000396000f3fe608060405234801561001057600080fd5b506004361061007d5760003560e01c80637dc5186f1161005b5780637dc5186f1461010c578063ae4304ef1461011f578063eb0cde1d14610134578063ff21d1e51461014757600080fd5b806322f3e2d41461008257806366d003ac146100a45780636af39aa3146100cf575b600080fd5b60045461008f9060ff1681565b60405190151581526020015b60405180910390f35b6000546100b7906001600160a01b031681565b6040516001600160a01b03909116815260200161009b565b6100e26100dd366004610456565b61015e565b604080516001600160a01b039485168152928416602084015292169181019190915260600161009b565b6001546100b7906001600160a01b031681565b61013261012d3660046104d7565b610286565b005b6002546100b7906001600160a01b031681565b61015060035481565b60405190815260200161009b565b600254600090819081906001600160a01b031633146101ce5760405162461bcd60e51b815260206004820152602160248201527f4f6e6c792063616c6c61626c65206279206761746577617920636f6e747261636044820152601d60fa1b60648201526084015b60405180910390fd5b60045460ff16156102125760405162461bcd60e51b815260206004820152600e60248201526d416c72656164792061637469766560901b60448201526064016101c5565b60035484101561025b5760405162461bcd60e51b8152602060048201526014602482015273125b9858dd1a5d9a5d1e481d1bdbc81cda1bdc9d60621b60448201526064016101c5565b50506004805460ff19166001908117909155546000546001600160a01b039182169430945091169150565b6000546001600160a01b038381169116146102d45760405162461bcd60e51b815260206004820152600e60248201526d13db9b1e481c9958da5c1a595b9d60921b60448201526064016101c5565b60045460ff166103135760405162461bcd60e51b815260206004820152600a6024820152694e6f742061637469766560b01b60448201526064016101c5565b8483146103515760405162461bcd60e51b815260206004820152600c60248201526b0aee4dedcce40d8cadccee8d60a31b60448201526064016101c5565b60005b8581101561044d57600087878381811061037057610370610567565b9050602002016020810190610385919061057d565b9050600086868481811061039b5761039b610567565b6001546040516323b872dd60e01b81526001600160a01b03918216600482015288821660248201526020929092029390930135604482018190529350918416916323b872dd9150606401602060405180830381600087803b1580156103ff57600080fd5b505af1158015610413573d6000803e3d6000fd5b505050506040513d601f19601f82011682018060405250810190610437919061059f565b5050508080610445906105c1565b915050610354565b50505050505050565b60006020828403121561046857600080fd5b5035919050565b60008083601f84011261048157600080fd5b50813567ffffffffffffffff81111561049957600080fd5b6020830191508360208260051b85010111156104b457600080fd5b9250929050565b80356001600160a01b03811681146104d257600080fd5b919050565b600080600080600080608087890312156104f057600080fd5b863567ffffffffffffffff8082111561050857600080fd5b6105148a838b0161046f565b9098509650602089013591508082111561052d57600080fd5b5061053a89828a0161046f565b909550935061054d9050604088016104bb565b915061055b606088016104bb565b90509295509295509295565b634e487b7160e01b600052603260045260246000fd5b60006020828403121561058f57600080fd5b610598826104bb565b9392505050565b6000602082840312156105b157600080fd5b8151801515811461059857600080fd5b60006000198214156105e357634e487b7160e01b600052601160045260246000fd5b506001019056fea2646970667358221220b3830f7a36484f963e5a9ed198a77ee3cbe36b8bc18ab87eb30b5f0ba276d07264736f6c63430008090033",
  "linkReferences": {},
  "deployedLinkReferences": {}
}