{
  "_format": "hh-sol-artifact-1",
  "contractName": "GatewayContract",
  "sourceName": "contracts/ethereum/GatewayContract.sol",
  "abi": [
    {
      "inputs": [
        {
          "internalType": "contract IStarknetCore",
          "name": "_starknetCore",
          "type": "address"
        },
        {
          "internalType": "address",
          "name": "_trustedAgents",
          "type": "address"
        },
        {
          "internalType": "address",
          "name": "_recoveryContractFactory",
          "type": "address"
        }
      ],
      "stateMutability": "nonpayable",
      "type": "constructor"
    },
    {
      "anonymous": false,
      "inputs": [
        {
          "indexed": false,
          "internalType": "address",
          "name": "EOA",
          "type": "address"
        },
        {
          "indexed": false,
          "internalType": "address",
          "name": "recoveryContract",
          "type": "address"
        },
        {
          "indexed": false,
          "internalType": "uint256",
          "name": "creationDate",
          "type": "uint256"
        },
        {
          "indexed": false,
          "internalType": "uint256",
          "name": "minBlocks",
          "type": "uint256"
        }
      ],
      "name": "NewRecoveryContract",
      "type": "event"
    },
    {
      "anonymous": false,
      "inputs": [
        {
          "indexed": false,
          "internalType": "address",
          "name": "EOA",
          "type": "address"
        },
        {
          "indexed": false,
          "internalType": "address",
          "name": "recoveryContract",
          "type": "address"
        },
        {
          "indexed": false,
          "internalType": "uint256",
          "name": "terminationDatee",
          "type": "uint256"
        }
      ],
      "name": "TerminateRecoveryContract",
      "type": "event"
    },
    {
      "inputs": [
        {
          "internalType": "uint256",
          "name": "userAddress",
          "type": "uint256"
        },
        {
          "internalType": "uint256",
          "name": "blocks",
          "type": "uint256"
        }
      ],
      "name": "activateRecovery",
      "outputs": [],
      "stateMutability": "nonpayable",
      "type": "function"
    },
    {
      "inputs": [
        {
          "internalType": "uint256",
          "name": "userAddress",
          "type": "uint256"
        },
        {
          "internalType": "uint256",
          "name": "blocks",
          "type": "uint256"
        },
        {
          "internalType": "bytes",
          "name": "proof",
          "type": "bytes"
        },
        {
          "internalType": "address",
          "name": "recipient",
          "type": "address"
        }
      ],
      "name": "activateRecoveryZkProof",
      "outputs": [],
      "stateMutability": "nonpayable",
      "type": "function"
    },
    {
      "inputs": [
        {
          "internalType": "address[]",
          "name": "erc20contracts",
          "type": "address[]"
        },
        {
          "internalType": "uint256[]",
          "name": "amounts",
          "type": "uint256[]"
        },
        {
          "internalType": "address",
          "name": "to",
          "type": "address"
        },
        {
          "internalType": "address",
          "name": "eoa",
          "type": "address"
        }
      ],
      "name": "claimAssets",
      "outputs": [],
      "stateMutability": "nonpayable",
      "type": "function"
    },
    {
      "inputs": [
        {
          "internalType": "address",
          "name": "recipient",
          "type": "address"
        },
        {
          "internalType": "uint256",
          "name": "minBlocks",
          "type": "uint256"
        }
      ],
      "name": "deployRecoveryContract",
      "outputs": [],
      "stateMutability": "nonpayable",
      "type": "function"
    },
    {
      "inputs": [
        {
          "internalType": "uint256",
          "name": "minBlocks",
          "type": "uint256"
        },
        {
          "internalType": "string",
          "name": "_legalDocumentsHash",
          "type": "string"
        }
      ],
      "name": "deployRecoveryContractTrustedAgents",
      "outputs": [],
      "stateMutability": "nonpayable",
      "type": "function"
    },
    {
      "inputs": [
        {
          "internalType": "uint256",
          "name": "minBlocks",
          "type": "uint256"
        },
        {
          "internalType": "uint256",
          "name": "_hashedPassword",
          "type": "uint256"
        }
      ],
      "name": "deployRecoveryContractZk",
      "outputs": [],
      "stateMutability": "nonpayable",
      "type": "function"
    },
    {
      "inputs": [
        {
          "internalType": "address",
          "name": "",
          "type": "address"
        }
      ],
      "name": "eoaToRecoveryContract",
      "outputs": [
        {
          "internalType": "address",
          "name": "",
          "type": "address"
        }
      ],
      "stateMutability": "view",
      "type": "function"
    },
    {
      "inputs": [],
      "name": "l2StorageProverAddress",
      "outputs": [
        {
          "internalType": "uint256",
          "name": "",
          "type": "uint256"
        }
      ],
      "stateMutability": "view",
      "type": "function"
    },
    {
      "inputs": [],
      "name": "owner",
      "outputs": [
        {
          "internalType": "address",
          "name": "",
          "type": "address"
        }
      ],
      "stateMutability": "view",
      "type": "function"
    },
    {
      "inputs": [],
      "name": "proverAddressIsSet",
      "outputs": [
        {
          "internalType": "bool",
          "name": "",
          "type": "bool"
        }
      ],
      "stateMutability": "view",
      "type": "function"
    },
    {
      "inputs": [],
      "name": "recoveryContractFactory",
      "outputs": [
        {
          "internalType": "address",
          "name": "",
          "type": "address"
        }
      ],
      "stateMutability": "view",
      "type": "function"
    },
    {
      "inputs": [
        {
          "internalType": "uint256",
          "name": "_l2StorageProverAddress",
          "type": "uint256"
        }
      ],
      "name": "setProverAddress",
      "outputs": [],
      "stateMutability": "nonpayable",
      "type": "function"
    },
    {
      "inputs": [],
      "name": "terminateRecoveryContract",
      "outputs": [],
      "stateMutability": "nonpayable",
      "type": "function"
    },
    {
      "inputs": [],
      "name": "trustedAgents",
      "outputs": [
        {
          "internalType": "address",
          "name": "",
          "type": "address"
        }
      ],
      "stateMutability": "view",
      "type": "function"
    },
    {
      "inputs": [
        {
          "internalType": "address",
          "name": "_trustedAgents",
          "type": "address"
        }
      ],
      "name": "updateTrustedAgents",
      "outputs": [],
      "stateMutability": "nonpayable",
      "type": "function"
    }
  ],
  "bytecode": "0x60806040526000600560006101000a81548160ff0219169083151502179055503480156200002c57600080fd5b50604051620047e6380380620047e683398181016040528101906200005291906200020d565b826000806101000a81548173ffffffffffffffffffffffffffffffffffffffff021916908373ffffffffffffffffffffffffffffffffffffffff16021790555033600160006101000a81548173ffffffffffffffffffffffffffffffffffffffff021916908373ffffffffffffffffffffffffffffffffffffffff16021790555081600260006101000a81548173ffffffffffffffffffffffffffffffffffffffff021916908373ffffffffffffffffffffffffffffffffffffffff16021790555080600360006101000a81548173ffffffffffffffffffffffffffffffffffffffff021916908373ffffffffffffffffffffffffffffffffffffffff16021790555050505062000269565b600080fd5b600073ffffffffffffffffffffffffffffffffffffffff82169050919050565b6000620001908262000163565b9050919050565b6000620001a48262000183565b9050919050565b620001b68162000197565b8114620001c257600080fd5b50565b600081519050620001d681620001ab565b92915050565b620001e78162000183565b8114620001f357600080fd5b50565b6000815190506200020781620001dc565b92915050565b6000806000606084860312156200022957620002286200015e565b5b60006200023986828701620001c5565b93505060206200024c86828701620001f6565b92505060406200025f86828701620001f6565b9150509250925092565b61456d80620002796000396000f3fe60806040523480156200001157600080fd5b50600436106200010c5760003560e01c80638c98c51611620000a5578063c4c251f3116200006f578063c4c251f31462000279578063e524979c14620002af578063eb8aef5914620002bb578063f7fa310b14620002dd576200010c565b80638c98c51614620001f75780638da5cb5b1462000217578063ae4304ef1462000239578063bd2262921462000259576200010c565b8063364dfe3911620000e7578063364dfe39146200017557806341e6347e146200019557806348ec4c2914620001b757806369a5a51c14620001d7576200010c565b806303b5fdf7146200011157806323281fe4146200013357806329c877f31462000153575b600080fd5b6200011b620002fd565b6040516200012a919062001350565b60405180910390f35b6200015160048036038101906200014b91906200145b565b62000323565b005b6200015d62000582565b6040516200016c919062001502565b60405180910390f35b6200019360048036038101906200018d91906200151f565b62000588565b005b6200019f620007de565b604051620001ae919062001350565b60405180910390f35b620001d56004803603810190620001cf919062001566565b62000804565b005b620001f56004803603810190620001ef9190620015ad565b620009da565b005b6200021560048036038101906200020f9190620015df565b62000ab1565b005b6200022162000b69565b60405162000230919062001350565b60405180910390f35b620002576004803603810190620002519190620016cf565b62000b8f565b005b6200027760048036038101906200027191906200151f565b62000ce8565b005b620002976004803603810190620002919190620015ad565b62000f36565b604051620002a6919062001350565b60405180910390f35b620002b962000f69565b005b620002c5620010e2565b604051620002d49190620017a4565b60405180910390f35b620002fb6004803603810190620002f591906200191e565b620010f5565b005b600360009054906101000a900473ffffffffffffffffffffffffffffffffffffffff1681565b6000600267ffffffffffffffff811115620003435762000342620017d7565b5b604051908082528060200260200182016040528015620003725781602001602082028036833780820191505090505b50905085816000815181106200038d576200038c62001984565b5b6020026020010181815250508481600181518110620003b157620003b062001984565b5b60200260200101818152505060011515600560009054906101000a900460ff16151514620003e457620003e3620019b3565b5b60008054906101000a900473ffffffffffffffffffffffffffffffffffffffff1673ffffffffffffffffffffffffffffffffffffffff16632c9dd5c0600454836040518363ffffffff1660e01b81526004016200044392919062001ab0565b602060405180830381600087803b1580156200045e57600080fd5b505af115801562000473573d6000803e3d6000fd5b505050506040513d601f19601f8201168201806040525081019062000499919062001b1f565b5060008690506000600660008373ffffffffffffffffffffffffffffffffffffffff1673ffffffffffffffffffffffffffffffffffffffff16815260200190815260200160002060009054906101000a900473ffffffffffffffffffffffffffffffffffffffff1690508073ffffffffffffffffffffffffffffffffffffffff1663477ff009888888886040518563ffffffff1660e01b815260040162000544949392919062001b95565b600060405180830381600087803b1580156200055f57600080fd5b505af115801562000574573d6000803e3d6000fd5b505050505050505050505050565b60045481565b6000600267ffffffffffffffff811115620005a857620005a7620017d7565b5b604051908082528060200260200182016040528015620005d75781602001602082028036833780820191505090505b5090508281600081518110620005f257620005f162001984565b5b602002602001018181525050818160018151811062000616576200061562001984565b5b60200260200101818152505060011515600560009054906101000a900460ff16151514620006495762000648620019b3565b5b60008054906101000a900473ffffffffffffffffffffffffffffffffffffffff1673ffffffffffffffffffffffffffffffffffffffff16632c9dd5c0600454836040518363ffffffff1660e01b8152600401620006a892919062001ab0565b602060405180830381600087803b158015620006c357600080fd5b505af1158015620006d8573d6000803e3d6000fd5b505050506040513d601f19601f82011682018060405250810190620006fe919062001b1f565b5060008390506000600660008373ffffffffffffffffffffffffffffffffffffffff1673ffffffffffffffffffffffffffffffffffffffff16815260200190815260200160002060009054906101000a900473ffffffffffffffffffffffffffffffffffffffff1690508073ffffffffffffffffffffffffffffffffffffffff16636af39aa3856040518263ffffffff1660e01b8152600401620007a3919062001502565b600060405180830381600087803b158015620007be57600080fd5b505af1158015620007d3573d6000803e3d6000fd5b505050505050505050565b600260009054906101000a900473ffffffffffffffffffffffffffffffffffffffff1681565b600073ffffffffffffffffffffffffffffffffffffffff16600660003373ffffffffffffffffffffffffffffffffffffffff1673ffffffffffffffffffffffffffffffffffffffff16815260200190815260200160002060009054906101000a900473ffffffffffffffffffffffffffffffffffffffff1673ffffffffffffffffffffffffffffffffffffffff1614620008d5576040517f08c379a0000000000000000000000000000000000000000000000000000000008152600401620008cc9062001c3c565b60405180910390fd5b600082823033604051620008e990620012ef565b620008f8949392919062001c5e565b604051809103906000f08015801562000915573d6000803e3d6000fd5b50905080600660003373ffffffffffffffffffffffffffffffffffffffff1673ffffffffffffffffffffffffffffffffffffffff16815260200190815260200160002060006101000a81548173ffffffffffffffffffffffffffffffffffffffff021916908373ffffffffffffffffffffffffffffffffffffffff1602179055507f63525507ae06268d2c3cb72b565afcee4097d00187f87cd6ee5ceadaf54063a733824285604051620009cd949392919062001cab565b60405180910390a1505050565b600160009054906101000a900473ffffffffffffffffffffffffffffffffffffffff1673ffffffffffffffffffffffffffffffffffffffff163373ffffffffffffffffffffffffffffffffffffffff161462000a6d576040517f08c379a000000000000000000000000000000000000000000000000000000000815260040162000a649062001d48565b60405180910390fd5b80600260006101000a81548173ffffffffffffffffffffffffffffffffffffffff021916908373ffffffffffffffffffffffffffffffffffffffff16021790555050565b600160009054906101000a900473ffffffffffffffffffffffffffffffffffffffff1673ffffffffffffffffffffffffffffffffffffffff163373ffffffffffffffffffffffffffffffffffffffff161462000b44576040517f08c379a000000000000000000000000000000000000000000000000000000000815260040162000b3b9062001d48565b60405180910390fd5b806004819055506001600560006101000a81548160ff02191690831515021790555050565b600160009054906101000a900473ffffffffffffffffffffffffffffffffffffffff1681565b6000600660008373ffffffffffffffffffffffffffffffffffffffff1673ffffffffffffffffffffffffffffffffffffffff16815260200190815260200160002060009054906101000a900473ffffffffffffffffffffffffffffffffffffffff169050600073ffffffffffffffffffffffffffffffffffffffff168173ffffffffffffffffffffffffffffffffffffffff16141562000c66576040517f08c379a000000000000000000000000000000000000000000000000000000000815260040162000c5d9062001dba565b60405180910390fd5b8073ffffffffffffffffffffffffffffffffffffffff1663ae4304ef8888888833896040518763ffffffff1660e01b815260040162000cab9695949392919062001f19565b600060405180830381600087803b15801562000cc657600080fd5b505af115801562000cdb573d6000803e3d6000fd5b5050505050505050505050565b600073ffffffffffffffffffffffffffffffffffffffff16600660003373ffffffffffffffffffffffffffffffffffffffff1673ffffffffffffffffffffffffffffffffffffffff16815260200190815260200160002060009054906101000a900473ffffffffffffffffffffffffffffffffffffffff1673ffffffffffffffffffffffffffffffffffffffff161462000db9576040517f08c379a000000000000000000000000000000000000000000000000000000000815260040162000db09062001c3c565b60405180910390fd5b6000600360009054906101000a900473ffffffffffffffffffffffffffffffffffffffff1673ffffffffffffffffffffffffffffffffffffffff16634d329c183385856040518463ffffffff1660e01b815260040162000e1c9392919062001f78565b602060405180830381600087803b15801562000e3757600080fd5b505af115801562000e4c573d6000803e3d6000fd5b505050506040513d601f19601f8201168201806040525081019062000e72919062001fcc565b905080600660003373ffffffffffffffffffffffffffffffffffffffff1673ffffffffffffffffffffffffffffffffffffffff16815260200190815260200160002060006101000a81548173ffffffffffffffffffffffffffffffffffffffff021916908373ffffffffffffffffffffffffffffffffffffffff1602179055507f63525507ae06268d2c3cb72b565afcee4097d00187f87cd6ee5ceadaf54063a73382428660405162000f29949392919062001cab565b60405180910390a1505050565b60066020528060005260406000206000915054906101000a900473ffffffffffffffffffffffffffffffffffffffff1681565b6000600660003373ffffffffffffffffffffffffffffffffffffffff1673ffffffffffffffffffffffffffffffffffffffff16815260200190815260200160002060009054906101000a900473ffffffffffffffffffffffffffffffffffffffff169050600073ffffffffffffffffffffffffffffffffffffffff168173ffffffffffffffffffffffffffffffffffffffff16141562001040576040517f08c379a000000000000000000000000000000000000000000000000000000000815260040162001037906200204e565b60405180910390fd5b600660003373ffffffffffffffffffffffffffffffffffffffff1673ffffffffffffffffffffffffffffffffffffffff16815260200190815260200160002060006101000a81549073ffffffffffffffffffffffffffffffffffffffff02191690557f2d712e362287dcff413ca2eff844e039531b6bcbcca75c84b549478114d1b8f0338242604051620010d79392919062002070565b60405180910390a150565b600560009054906101000a900460ff1681565b600073ffffffffffffffffffffffffffffffffffffffff16600660003373ffffffffffffffffffffffffffffffffffffffff1673ffffffffffffffffffffffffffffffffffffffff16815260200190815260200160002060009054906101000a900473ffffffffffffffffffffffffffffffffffffffff1673ffffffffffffffffffffffffffffffffffffffff1614620011c6576040517f08c379a0000000000000000000000000000000000000000000000000000000008152600401620011bd9062001c3c565b60405180910390fd5b6000600260009054906101000a900473ffffffffffffffffffffffffffffffffffffffff1683303385604051620011fd90620012fd565b6200120d9594939291906200212f565b604051809103906000f0801580156200122a573d6000803e3d6000fd5b50905080600660003373ffffffffffffffffffffffffffffffffffffffff1673ffffffffffffffffffffffffffffffffffffffff16815260200190815260200160002060006101000a81548173ffffffffffffffffffffffffffffffffffffffff021916908373ffffffffffffffffffffffffffffffffffffffff1602179055507f63525507ae06268d2c3cb72b565afcee4097d00187f87cd6ee5ceadaf54063a733824286604051620012e2949392919062001cab565b60405180910390a1505050565b610f6f806200219483390190565b611435806200310383390190565b600073ffffffffffffffffffffffffffffffffffffffff82169050919050565b600062001338826200130b565b9050919050565b6200134a816200132b565b82525050565b60006020820190506200136760008301846200133f565b92915050565b6000604051905090565b600080fd5b600080fd5b6000819050919050565b620013968162001381565b8114620013a257600080fd5b50565b600081359050620013b6816200138b565b92915050565b600080fd5b600080fd5b600080fd5b60008083601f840112620013e457620013e3620013bc565b5b8235905067ffffffffffffffff811115620014045762001403620013c1565b5b602083019150836001820283011115620014235762001422620013c6565b5b9250929050565b62001435816200132b565b81146200144157600080fd5b50565b60008135905062001455816200142a565b92915050565b6000806000806000608086880312156200147a576200147962001377565b5b60006200148a88828901620013a5565b95505060206200149d88828901620013a5565b945050604086013567ffffffffffffffff811115620014c157620014c06200137c565b5b620014cf88828901620013cb565b93509350506060620014e48882890162001444565b9150509295509295909350565b620014fc8162001381565b82525050565b6000602082019050620015196000830184620014f1565b92915050565b6000806040838503121562001539576200153862001377565b5b60006200154985828601620013a5565b92505060206200155c85828601620013a5565b9150509250929050565b6000806040838503121562001580576200157f62001377565b5b6000620015908582860162001444565b9250506020620015a385828601620013a5565b9150509250929050565b600060208284031215620015c657620015c562001377565b5b6000620015d68482850162001444565b91505092915050565b600060208284031215620015f857620015f762001377565b5b60006200160884828501620013a5565b91505092915050565b60008083601f8401126200162a5762001629620013bc565b5b8235905067ffffffffffffffff8111156200164a5762001649620013c1565b5b602083019150836020820283011115620016695762001668620013c6565b5b9250929050565b60008083601f840112620016895762001688620013bc565b5b8235905067ffffffffffffffff811115620016a957620016a8620013c1565b5b602083019150836020820283011115620016c857620016c7620013c6565b5b9250929050565b60008060008060008060808789031215620016ef57620016ee62001377565b5b600087013567ffffffffffffffff81111562001710576200170f6200137c565b5b6200171e89828a0162001611565b9650965050602087013567ffffffffffffffff8111156200174457620017436200137c565b5b6200175289828a0162001670565b945094505060406200176789828a0162001444565b92505060606200177a89828a0162001444565b9150509295509295509295565b60008115159050919050565b6200179e8162001787565b82525050565b6000602082019050620017bb600083018462001793565b92915050565b600080fd5b6000601f19601f8301169050919050565b7f4e487b7100000000000000000000000000000000000000000000000000000000600052604160045260246000fd5b6200181182620017c6565b810181811067ffffffffffffffff82111715620018335762001832620017d7565b5b80604052505050565b6000620018486200136d565b905062001856828262001806565b919050565b600067ffffffffffffffff821115620018795762001878620017d7565b5b6200188482620017c6565b9050602081019050919050565b82818337600083830152505050565b6000620018b7620018b1846200185b565b6200183c565b905082815260208101848484011115620018d657620018d5620017c1565b5b620018e384828562001891565b509392505050565b600082601f830112620019035762001902620013bc565b5b813562001915848260208601620018a0565b91505092915050565b6000806040838503121562001938576200193762001377565b5b60006200194885828601620013a5565b925050602083013567ffffffffffffffff8111156200196c576200196b6200137c565b5b6200197a85828601620018eb565b9150509250929050565b7f4e487b7100000000000000000000000000000000000000000000000000000000600052603260045260246000fd5b7f4e487b7100000000000000000000000000000000000000000000000000000000600052600160045260246000fd5b600081519050919050565b600082825260208201905092915050565b6000819050602082019050919050565b62001a198162001381565b82525050565b600062001a2d838362001a0e565b60208301905092915050565b6000602082019050919050565b600062001a5382620019e2565b62001a5f8185620019ed565b935062001a6c83620019fe565b8060005b8381101562001aa357815162001a87888262001a1f565b975062001a948362001a39565b92505060018101905062001a70565b5085935050505092915050565b600060408201905062001ac76000830185620014f1565b818103602083015262001adb818462001a46565b90509392505050565b6000819050919050565b62001af98162001ae4565b811462001b0557600080fd5b50565b60008151905062001b198162001aee565b92915050565b60006020828403121562001b385762001b3762001377565b5b600062001b488482850162001b08565b91505092915050565b600082825260208201905092915050565b600062001b70838562001b51565b935062001b7f83858462001891565b62001b8a83620017c6565b840190509392505050565b600060608201905062001bac6000830187620014f1565b818103602083015262001bc181858762001b62565b905062001bd260408301846200133f565b95945050505050565b600082825260208201905092915050565b7f5265636f7665727920616c726561647920657869737473000000000000000000600082015250565b600062001c2460178362001bdb565b915062001c318262001bec565b602082019050919050565b6000602082019050818103600083015262001c578162001c15565b9050919050565b600060808201905062001c7560008301876200133f565b62001c846020830186620014f1565b62001c9360408301856200133f565b62001ca260608301846200133f565b95945050505050565b600060808201905062001cc260008301876200133f565b62001cd160208301866200133f565b62001ce06040830185620014f1565b62001cef6060830184620014f1565b95945050505050565b7f4f6e6c79206f776e657200000000000000000000000000000000000000000000600082015250565b600062001d30600a8362001bdb565b915062001d3d8262001cf8565b602082019050919050565b6000602082019050818103600083015262001d638162001d21565b9050919050565b7f5265636f7665727920646f65736e277420657869737400000000000000000000600082015250565b600062001da260168362001bdb565b915062001daf8262001d6a565b602082019050919050565b6000602082019050818103600083015262001dd58162001d93565b9050919050565b600082825260208201905092915050565b6000819050919050565b62001e02816200132b565b82525050565b600062001e16838362001df7565b60208301905092915050565b600062001e33602084018462001444565b905092915050565b6000602082019050919050565b600062001e56838562001ddc565b935062001e638262001ded565b8060005b8581101562001ea45762001e7c828462001e22565b62001e88888262001e08565b975062001e958362001e3b565b92505060018101905062001e67565b5085925050509392505050565b600080fd5b600062001ec48385620019ed565b93507f07ffffffffffffffffffffffffffffffffffffffffffffffffffffffffffffff83111562001efa5762001ef962001eb1565b5b60208302925062001f0d83858462001891565b82840190509392505050565b6000608082019050818103600083015262001f3681888a62001e48565b9050818103602083015262001f4d81868862001eb6565b905062001f5e60408301856200133f565b62001f6d60608301846200133f565b979650505050505050565b600060608201905062001f8f60008301866200133f565b62001f9e6020830185620014f1565b62001fad6040830184620014f1565b949350505050565b60008151905062001fc6816200142a565b92915050565b60006020828403121562001fe55762001fe462001377565b5b600062001ff58482850162001fb5565b91505092915050565b7f4e6f206578697374696e67207265636f76657279000000000000000000000000600082015250565b60006200203660148362001bdb565b9150620020438262001ffe565b602082019050919050565b60006020820190508181036000830152620020698162002027565b9050919050565b60006060820190506200208760008301866200133f565b6200209660208301856200133f565b620020a56040830184620014f1565b949350505050565b600081519050919050565b60005b83811015620020d8578082015181840152602081019050620020bb565b83811115620020e8576000848401525b50505050565b6000620020fb82620020ad565b62002107818562001bdb565b935062002119818560208601620020b8565b6200212481620017c6565b840191505092915050565b600060a0820190506200214660008301886200133f565b620021556020830187620014f1565b6200216460408301866200133f565b6200217360608301856200133f565b8181036080830152620021878184620020ee565b9050969550505050505056fe60806040523480156200001157600080fd5b5060405162000f6f38038062000f6f8339818101604052810190620000379190620001af565b836000806101000a81548173ffffffffffffffffffffffffffffffffffffffff021916908373ffffffffffffffffffffffffffffffffffffffff16021790555080600160006101000a81548173ffffffffffffffffffffffffffffffffffffffff021916908373ffffffffffffffffffffffffffffffffffffffff1602179055508260038190555081600260006101000a81548173ffffffffffffffffffffffffffffffffffffffff021916908373ffffffffffffffffffffffffffffffffffffffff1602179055505050505062000221565b600080fd5b600073ffffffffffffffffffffffffffffffffffffffff82169050919050565b60006200013c826200010f565b9050919050565b6200014e816200012f565b81146200015a57600080fd5b50565b6000815190506200016e8162000143565b92915050565b6000819050919050565b620001898162000174565b81146200019557600080fd5b50565b600081519050620001a9816200017e565b92915050565b60008060008060808587031215620001cc57620001cb6200010a565b5b6000620001dc878288016200015d565b9450506020620001ef8782880162000198565b935050604062000202878288016200015d565b925050606062000215878288016200015d565b91505092959194509250565b610d3e80620002316000396000f3fe608060405234801561001057600080fd5b506004361061007d5760003560e01c80637dc5186f1161005b5780637dc5186f146100da578063ae4304ef146100f8578063eb0cde1d14610114578063ff21d1e5146101325761007d565b806322f3e2d41461008257806366d003ac146100a05780636af39aa3146100be575b600080fd5b61008a610150565b604051610097919061066f565b60405180910390f35b6100a8610163565b6040516100b591906106cb565b60405180910390f35b6100d860048036038101906100d39190610726565b610187565b005b6100e2610325565b6040516100ef91906106cb565b60405180910390f35b610112600480360381019061010d919061083a565b61034b565b005b61011c610628565b60405161012991906106cb565b60405180910390f35b61013a61064e565b60405161014791906108f0565b60405180910390f35b600460009054906101000a900460ff1681565b60008054906101000a900473ffffffffffffffffffffffffffffffffffffffff1681565b600260009054906101000a900473ffffffffffffffffffffffffffffffffffffffff1673ffffffffffffffffffffffffffffffffffffffff163373ffffffffffffffffffffffffffffffffffffffff1614610217576040517f08c379a000000000000000000000000000000000000000000000000000000000815260040161020e90610968565b60405180910390fd5b600460009054906101000a900460ff1615610267576040517f08c379a000000000000000000000000000000000000000000000000000000000815260040161025e906109d4565b60405180910390fd5b6003548110156102ac576040517f08c379a00000000000000000000000000000000000000000000000000000000081526004016102a390610a40565b60405180910390fd5b6001600460006101000a81548160ff0219169083151502179055507f8c0f791a552520d7b652c7f008af155a562ee6e9ce409bf539fbe0c18eef91603060008054906101000a900473ffffffffffffffffffffffffffffffffffffffff164260405161031a93929190610a60565b60405180910390a150565b600160009054906101000a900473ffffffffffffffffffffffffffffffffffffffff1681565b600260009054906101000a900473ffffffffffffffffffffffffffffffffffffffff1673ffffffffffffffffffffffffffffffffffffffff163373ffffffffffffffffffffffffffffffffffffffff16146103db576040517f08c379a00000000000000000000000000000000000000000000000000000000081526004016103d290610968565b60405180910390fd5b60008054906101000a900473ffffffffffffffffffffffffffffffffffffffff1673ffffffffffffffffffffffffffffffffffffffff168273ffffffffffffffffffffffffffffffffffffffff1614610469576040517f08c379a000000000000000000000000000000000000000000000000000000000815260040161046090610ae3565b60405180910390fd5b600460009054906101000a900460ff166104b8576040517f08c379a00000000000000000000000000000000000000000000000000000000081526004016104af90610b4f565b60405180910390fd5b838390508686905014610500576040517f08c379a00000000000000000000000000000000000000000000000000000000081526004016104f790610bbb565b60405180910390fd5b60005b8686905081101561061f57600087878381811061052357610522610bdb565b5b90506020020160208101906105389190610c0a565b9050600086868481811061054f5761054e610bdb565b5b9050602002013590508173ffffffffffffffffffffffffffffffffffffffff166323b872dd600160009054906101000a900473ffffffffffffffffffffffffffffffffffffffff1686846040518463ffffffff1660e01b81526004016105b793929190610a60565b602060405180830381600087803b1580156105d157600080fd5b505af11580156105e5573d6000803e3d6000fd5b505050506040513d601f19601f820116820180604052508101906106099190610c63565b505050808061061790610cbf565b915050610503565b50505050505050565b600260009054906101000a900473ffffffffffffffffffffffffffffffffffffffff1681565b60035481565b60008115159050919050565b61066981610654565b82525050565b60006020820190506106846000830184610660565b92915050565b600073ffffffffffffffffffffffffffffffffffffffff82169050919050565b60006106b58261068a565b9050919050565b6106c5816106aa565b82525050565b60006020820190506106e060008301846106bc565b92915050565b600080fd5b600080fd5b6000819050919050565b610703816106f0565b811461070e57600080fd5b50565b600081359050610720816106fa565b92915050565b60006020828403121561073c5761073b6106e6565b5b600061074a84828501610711565b91505092915050565b600080fd5b600080fd5b600080fd5b60008083601f84011261077857610777610753565b5b8235905067ffffffffffffffff81111561079557610794610758565b5b6020830191508360208202830111156107b1576107b061075d565b5b9250929050565b60008083601f8401126107ce576107cd610753565b5b8235905067ffffffffffffffff8111156107eb576107ea610758565b5b6020830191508360208202830111156108075761080661075d565b5b9250929050565b610817816106aa565b811461082257600080fd5b50565b6000813590506108348161080e565b92915050565b60008060008060008060808789031215610857576108566106e6565b5b600087013567ffffffffffffffff811115610875576108746106eb565b5b61088189828a01610762565b9650965050602087013567ffffffffffffffff8111156108a4576108a36106eb565b5b6108b089828a016107b8565b945094505060406108c389828a01610825565b92505060606108d489828a01610825565b9150509295509295509295565b6108ea816106f0565b82525050565b600060208201905061090560008301846108e1565b92915050565b600082825260208201905092915050565b7f4e6f742067617465776179000000000000000000000000000000000000000000600082015250565b6000610952600b8361090b565b915061095d8261091c565b602082019050919050565b6000602082019050818103600083015261098181610945565b9050919050565b7f416c726561647920616374697665000000000000000000000000000000000000600082015250565b60006109be600e8361090b565b91506109c982610988565b602082019050919050565b600060208201905081810360008301526109ed816109b1565b9050919050565b7f496e616374697669747920746f6f2073686f7274000000000000000000000000600082015250565b6000610a2a60148361090b565b9150610a35826109f4565b602082019050919050565b60006020820190508181036000830152610a5981610a1d565b9050919050565b6000606082019050610a7560008301866106bc565b610a8260208301856106bc565b610a8f60408301846108e1565b949350505050565b7f4f6e6c7920726563697069656e74000000000000000000000000000000000000600082015250565b6000610acd600e8361090b565b9150610ad882610a97565b602082019050919050565b60006020820190508181036000830152610afc81610ac0565b9050919050565b7f4e6f742061637469766500000000000000000000000000000000000000000000600082015250565b6000610b39600a8361090b565b9150610b4482610b03565b602082019050919050565b60006020820190508181036000830152610b6881610b2c565b9050919050565b7f57726f6e67206c656e6774680000000000000000000000000000000000000000600082015250565b6000610ba5600c8361090b565b9150610bb082610b6f565b602082019050919050565b60006020820190508181036000830152610bd481610b98565b9050919050565b7f4e487b7100000000000000000000000000000000000000000000000000000000600052603260045260246000fd5b600060208284031215610c2057610c1f6106e6565b5b6000610c2e84828501610825565b91505092915050565b610c4081610654565b8114610c4b57600080fd5b50565b600081519050610c5d81610c37565b92915050565b600060208284031215610c7957610c786106e6565b5b6000610c8784828501610c4e565b91505092915050565b7f4e487b7100000000000000000000000000000000000000000000000000000000600052601160045260246000fd5b6000610cca826106f0565b91507fffffffffffffffffffffffffffffffffffffffffffffffffffffffffffffffff821415610cfd57610cfc610c90565b5b60018201905091905056fea2646970667358221220b0e1d83b98733393d0a48538474581ec994d0043a9edf0a4f07faa128d667fa964736f6c6343000809003360806040523480156200001157600080fd5b506040516200143538038062001435833981810160405281019062000037919062000419565b84848484836000806101000a81548173ffffffffffffffffffffffffffffffffffffffff021916908373ffffffffffffffffffffffffffffffffffffffff16021790555080600160006101000a81548173ffffffffffffffffffffffffffffffffffffffff021916908373ffffffffffffffffffffffffffffffffffffffff1602179055508260038190555081600260006101000a81548173ffffffffffffffffffffffffffffffffffffffff021916908373ffffffffffffffffffffffffffffffffffffffff160217905550505050508060059080519060200190620001209291906200012c565b50505050505062000525565b8280546200013a90620004ef565b90600052602060002090601f0160209004810192826200015e5760008555620001aa565b82601f106200017957805160ff1916838001178555620001aa565b82800160010185558215620001aa579182015b82811115620001a95782518255916020019190600101906200018c565b5b509050620001b99190620001bd565b5090565b5b80821115620001d8576000816000905550600101620001be565b5090565b6000604051905090565b600080fd5b600080fd5b600073ffffffffffffffffffffffffffffffffffffffff82169050919050565b60006200021d82620001f0565b9050919050565b6200022f8162000210565b81146200023b57600080fd5b50565b6000815190506200024f8162000224565b92915050565b6000819050919050565b6200026a8162000255565b81146200027657600080fd5b50565b6000815190506200028a816200025f565b92915050565b600080fd5b600080fd5b6000601f19601f8301169050919050565b7f4e487b7100000000000000000000000000000000000000000000000000000000600052604160045260246000fd5b620002e5826200029a565b810181811067ffffffffffffffff82111715620003075762000306620002ab565b5b80604052505050565b60006200031c620001dc565b90506200032a8282620002da565b919050565b600067ffffffffffffffff8211156200034d576200034c620002ab565b5b62000358826200029a565b9050602081019050919050565b60005b838110156200038557808201518184015260208101905062000368565b8381111562000395576000848401525b50505050565b6000620003b2620003ac846200032f565b62000310565b905082815260208101848484011115620003d157620003d062000295565b5b620003de84828562000365565b509392505050565b600082601f830112620003fe57620003fd62000290565b5b8151620004108482602086016200039b565b91505092915050565b600080600080600060a08688031215620004385762000437620001e6565b5b600062000448888289016200023e565b95505060206200045b8882890162000279565b94505060406200046e888289016200023e565b935050606062000481888289016200023e565b925050608086015167ffffffffffffffff811115620004a557620004a4620001eb565b5b620004b388828901620003e6565b9150509295509295909350565b7f4e487b7100000000000000000000000000000000000000000000000000000000600052602260045260246000fd5b600060028204905060018216806200050857607f821691505b602082108114156200051f576200051e620004c0565b5b50919050565b610f0080620005356000396000f3fe608060405234801561001057600080fd5b50600436106100885760003560e01c8063ae4304ef1161005b578063ae4304ef14610103578063b294f9491461011f578063eb0cde1d1461013d578063ff21d1e51461015b57610088565b806322f3e2d41461008d57806366d003ac146100ab5780636af39aa3146100c95780637dc5186f146100e5575b600080fd5b610095610179565b6040516100a29190610726565b60405180910390f35b6100b361018c565b6040516100c09190610782565b60405180910390f35b6100e360048036038101906100de91906107dd565b6101b0565b005b6100ed61034e565b6040516100fa9190610782565b60405180910390f35b61011d600480360381019061011891906108f1565b610374565b005b610127610651565b6040516101349190610a31565b60405180910390f35b6101456106df565b6040516101529190610782565b60405180910390f35b610163610705565b6040516101709190610a62565b60405180910390f35b600460009054906101000a900460ff1681565b60008054906101000a900473ffffffffffffffffffffffffffffffffffffffff1681565b600260009054906101000a900473ffffffffffffffffffffffffffffffffffffffff1673ffffffffffffffffffffffffffffffffffffffff163373ffffffffffffffffffffffffffffffffffffffff1614610240576040517f08c379a000000000000000000000000000000000000000000000000000000000815260040161023790610ac9565b60405180910390fd5b600460009054906101000a900460ff1615610290576040517f08c379a000000000000000000000000000000000000000000000000000000000815260040161028790610b35565b60405180910390fd5b6003548110156102d5576040517f08c379a00000000000000000000000000000000000000000000000000000000081526004016102cc90610ba1565b60405180910390fd5b6001600460006101000a81548160ff0219169083151502179055507f8c0f791a552520d7b652c7f008af155a562ee6e9ce409bf539fbe0c18eef91603060008054906101000a900473ffffffffffffffffffffffffffffffffffffffff164260405161034393929190610bc1565b60405180910390a150565b600160009054906101000a900473ffffffffffffffffffffffffffffffffffffffff1681565b600260009054906101000a900473ffffffffffffffffffffffffffffffffffffffff1673ffffffffffffffffffffffffffffffffffffffff163373ffffffffffffffffffffffffffffffffffffffff1614610404576040517f08c379a00000000000000000000000000000000000000000000000000000000081526004016103fb90610ac9565b60405180910390fd5b60008054906101000a900473ffffffffffffffffffffffffffffffffffffffff1673ffffffffffffffffffffffffffffffffffffffff168273ffffffffffffffffffffffffffffffffffffffff1614610492576040517f08c379a000000000000000000000000000000000000000000000000000000000815260040161048990610c44565b60405180910390fd5b600460009054906101000a900460ff166104e1576040517f08c379a00000000000000000000000000000000000000000000000000000000081526004016104d890610cb0565b60405180910390fd5b838390508686905014610529576040517f08c379a000000000000000000000000000000000000000000000000000000000815260040161052090610d1c565b60405180910390fd5b60005b8686905081101561064857600087878381811061054c5761054b610d3c565b5b90506020020160208101906105619190610d6b565b9050600086868481811061057857610577610d3c565b5b9050602002013590508173ffffffffffffffffffffffffffffffffffffffff166323b872dd600160009054906101000a900473ffffffffffffffffffffffffffffffffffffffff1686846040518463ffffffff1660e01b81526004016105e093929190610bc1565b602060405180830381600087803b1580156105fa57600080fd5b505af115801561060e573d6000803e3d6000fd5b505050506040513d601f19601f820116820180604052508101906106329190610dc4565b505050808061064090610e20565b91505061052c565b50505050505050565b6005805461065e90610e98565b80601f016020809104026020016040519081016040528092919081815260200182805461068a90610e98565b80156106d75780601f106106ac576101008083540402835291602001916106d7565b820191906000526020600020905b8154815290600101906020018083116106ba57829003601f168201915b505050505081565b600260009054906101000a900473ffffffffffffffffffffffffffffffffffffffff1681565b60035481565b60008115159050919050565b6107208161070b565b82525050565b600060208201905061073b6000830184610717565b92915050565b600073ffffffffffffffffffffffffffffffffffffffff82169050919050565b600061076c82610741565b9050919050565b61077c81610761565b82525050565b60006020820190506107976000830184610773565b92915050565b600080fd5b600080fd5b6000819050919050565b6107ba816107a7565b81146107c557600080fd5b50565b6000813590506107d7816107b1565b92915050565b6000602082840312156107f3576107f261079d565b5b6000610801848285016107c8565b91505092915050565b600080fd5b600080fd5b600080fd5b60008083601f84011261082f5761082e61080a565b5b8235905067ffffffffffffffff81111561084c5761084b61080f565b5b60208301915083602082028301111561086857610867610814565b5b9250929050565b60008083601f8401126108855761088461080a565b5b8235905067ffffffffffffffff8111156108a2576108a161080f565b5b6020830191508360208202830111156108be576108bd610814565b5b9250929050565b6108ce81610761565b81146108d957600080fd5b50565b6000813590506108eb816108c5565b92915050565b6000806000806000806080878903121561090e5761090d61079d565b5b600087013567ffffffffffffffff81111561092c5761092b6107a2565b5b61093889828a01610819565b9650965050602087013567ffffffffffffffff81111561095b5761095a6107a2565b5b61096789828a0161086f565b9450945050604061097a89828a016108dc565b925050606061098b89828a016108dc565b9150509295509295509295565b600081519050919050565b600082825260208201905092915050565b60005b838110156109d25780820151818401526020810190506109b7565b838111156109e1576000848401525b50505050565b6000601f19601f8301169050919050565b6000610a0382610998565b610a0d81856109a3565b9350610a1d8185602086016109b4565b610a26816109e7565b840191505092915050565b60006020820190508181036000830152610a4b81846109f8565b905092915050565b610a5c816107a7565b82525050565b6000602082019050610a776000830184610a53565b92915050565b7f4e6f742067617465776179000000000000000000000000000000000000000000600082015250565b6000610ab3600b836109a3565b9150610abe82610a7d565b602082019050919050565b60006020820190508181036000830152610ae281610aa6565b9050919050565b7f416c726561647920616374697665000000000000000000000000000000000000600082015250565b6000610b1f600e836109a3565b9150610b2a82610ae9565b602082019050919050565b60006020820190508181036000830152610b4e81610b12565b9050919050565b7f496e616374697669747920746f6f2073686f7274000000000000000000000000600082015250565b6000610b8b6014836109a3565b9150610b9682610b55565b602082019050919050565b60006020820190508181036000830152610bba81610b7e565b9050919050565b6000606082019050610bd66000830186610773565b610be36020830185610773565b610bf06040830184610a53565b949350505050565b7f4f6e6c7920726563697069656e74000000000000000000000000000000000000600082015250565b6000610c2e600e836109a3565b9150610c3982610bf8565b602082019050919050565b60006020820190508181036000830152610c5d81610c21565b9050919050565b7f4e6f742061637469766500000000000000000000000000000000000000000000600082015250565b6000610c9a600a836109a3565b9150610ca582610c64565b602082019050919050565b60006020820190508181036000830152610cc981610c8d565b9050919050565b7f57726f6e67206c656e6774680000000000000000000000000000000000000000600082015250565b6000610d06600c836109a3565b9150610d1182610cd0565b602082019050919050565b60006020820190508181036000830152610d3581610cf9565b9050919050565b7f4e487b7100000000000000000000000000000000000000000000000000000000600052603260045260246000fd5b600060208284031215610d8157610d8061079d565b5b6000610d8f848285016108dc565b91505092915050565b610da18161070b565b8114610dac57600080fd5b50565b600081519050610dbe81610d98565b92915050565b600060208284031215610dda57610dd961079d565b5b6000610de884828501610daf565b91505092915050565b7f4e487b7100000000000000000000000000000000000000000000000000000000600052601160045260246000fd5b6000610e2b826107a7565b91507fffffffffffffffffffffffffffffffffffffffffffffffffffffffffffffffff821415610e5e57610e5d610df1565b5b600182019050919050565b7f4e487b7100000000000000000000000000000000000000000000000000000000600052602260045260246000fd5b60006002820490506001821680610eb057607f821691505b60208210811415610ec457610ec3610e69565b5b5091905056fea2646970667358221220867aa44648e30d9bb79bddc60eb87876254a30cd4e18db21aa56a0b665cf417664736f6c63430008090033a2646970667358221220b3324d602699e9ae5d1e3c1fd654c42345ddeb70adb5fe0f011c247c8a925c2f64736f6c63430008090033",
  "linkReferences": {},
  "deployedLinkReferences": {}
}