{
  "_format": "hh-sol-artifact-1",
  "contractName": "GatewayContract",
  "sourceName": "contracts/ethereum/GatewayContract.sol",
  "abi": [
    {
      "inputs": [
        {
          "internalType": "contract IStarknetCore",
          "name": "_starknetCore",
          "type": "address"
        },
        {
          "internalType": "address",
          "name": "_trustedAgents",
          "type": "address"
        },
        {
          "internalType": "address",
          "name": "_recoveryContractFactory",
          "type": "address"
        }
      ],
      "stateMutability": "nonpayable",
      "type": "constructor"
    },
    {
      "anonymous": false,
      "inputs": [
        {
          "indexed": false,
          "internalType": "address",
          "name": "EOA",
          "type": "address"
        },
        {
          "indexed": false,
          "internalType": "address",
          "name": "recoveryContract",
          "type": "address"
        },
        {
          "indexed": false,
          "internalType": "uint256",
          "name": "creationDate",
          "type": "uint256"
        },
        {
          "indexed": false,
          "internalType": "uint256",
          "name": "minBlocks",
          "type": "uint256"
        }
      ],
      "name": "NewRecoveryContract",
      "type": "event"
    },
    {
      "anonymous": false,
      "inputs": [
        {
          "indexed": false,
          "internalType": "address",
          "name": "EOA",
          "type": "address"
        },
        {
          "indexed": false,
          "internalType": "address",
          "name": "recoveryContract",
          "type": "address"
        },
        {
          "indexed": false,
          "internalType": "uint256",
          "name": "terminationDatee",
          "type": "uint256"
        }
      ],
      "name": "TerminateRecoveryContract",
      "type": "event"
    },
    {
      "inputs": [
        {
          "internalType": "uint256",
          "name": "userAddress",
          "type": "uint256"
        },
        {
          "internalType": "uint256",
          "name": "blocks",
          "type": "uint256"
        }
      ],
      "name": "activateRecovery",
      "outputs": [],
      "stateMutability": "nonpayable",
      "type": "function"
    },
    {
      "inputs": [
        {
          "internalType": "uint256",
          "name": "userAddress",
          "type": "uint256"
        },
        {
          "internalType": "uint256",
          "name": "blocks",
          "type": "uint256"
        },
        {
          "internalType": "bytes",
          "name": "proof",
          "type": "bytes"
        },
        {
          "internalType": "address",
          "name": "recipient",
          "type": "address"
        }
      ],
      "name": "activateRecoveryZkProof",
      "outputs": [],
      "stateMutability": "nonpayable",
      "type": "function"
    },
    {
      "inputs": [
        {
          "internalType": "address[]",
          "name": "erc20contracts",
          "type": "address[]"
        },
        {
          "internalType": "address",
          "name": "to",
          "type": "address"
        }
      ],
      "name": "claimAssets",
      "outputs": [],
      "stateMutability": "nonpayable",
      "type": "function"
    },
    {
      "inputs": [
        {
          "internalType": "address",
          "name": "recipient",
          "type": "address"
        },
        {
          "internalType": "uint256",
          "name": "minBlocks",
          "type": "uint256"
        }
      ],
      "name": "deployRecoveryContract",
      "outputs": [],
      "stateMutability": "nonpayable",
      "type": "function"
    },
    {
      "inputs": [
        {
          "internalType": "uint256",
          "name": "minBlocks",
          "type": "uint256"
        },
        {
          "internalType": "string",
          "name": "_legalDocumentsHash",
          "type": "string"
        }
      ],
      "name": "deployRecoveryContractTrustedAgents",
      "outputs": [],
      "stateMutability": "nonpayable",
      "type": "function"
    },
    {
      "inputs": [
        {
          "internalType": "uint256",
          "name": "minBlocks",
          "type": "uint256"
        },
        {
          "internalType": "uint256",
          "name": "_hashedPassword",
          "type": "uint256"
        }
      ],
      "name": "deployRecoveryContractZk",
      "outputs": [],
      "stateMutability": "nonpayable",
      "type": "function"
    },
    {
      "inputs": [
        {
          "internalType": "address",
          "name": "",
          "type": "address"
        }
      ],
      "name": "eoaToRecoveryContract",
      "outputs": [
        {
          "internalType": "address",
          "name": "",
          "type": "address"
        }
      ],
      "stateMutability": "view",
      "type": "function"
    },
    {
      "inputs": [],
      "name": "l2StorageProverAddress",
      "outputs": [
        {
          "internalType": "uint256",
          "name": "",
          "type": "uint256"
        }
      ],
      "stateMutability": "view",
      "type": "function"
    },
    {
      "inputs": [],
      "name": "owner",
      "outputs": [
        {
          "internalType": "address",
          "name": "",
          "type": "address"
        }
      ],
      "stateMutability": "view",
      "type": "function"
    },
    {
      "inputs": [],
      "name": "proverAddressIsSet",
      "outputs": [
        {
          "internalType": "bool",
          "name": "",
          "type": "bool"
        }
      ],
      "stateMutability": "view",
      "type": "function"
    },
    {
      "inputs": [],
      "name": "recoveryContractFactory",
      "outputs": [
        {
          "internalType": "address",
          "name": "",
          "type": "address"
        }
      ],
      "stateMutability": "view",
      "type": "function"
    },
    {
      "inputs": [
        {
          "internalType": "uint256",
          "name": "_l2StorageProverAddress",
          "type": "uint256"
        }
      ],
      "name": "setProverAddress",
      "outputs": [],
      "stateMutability": "nonpayable",
      "type": "function"
    },
    {
      "inputs": [],
      "name": "terminateRecoveryContract",
      "outputs": [],
      "stateMutability": "nonpayable",
      "type": "function"
    },
    {
      "inputs": [],
      "name": "trustedAgents",
      "outputs": [
        {
          "internalType": "address",
          "name": "",
          "type": "address"
        }
      ],
      "stateMutability": "view",
      "type": "function"
    },
    {
      "inputs": [
        {
          "internalType": "address",
          "name": "_trustedAgents",
          "type": "address"
        }
      ],
      "name": "updateTrustedAgents",
      "outputs": [],
      "stateMutability": "nonpayable",
      "type": "function"
    }
  ],
  "bytecode": "0x60806040526000600560006101000a81548160ff0219169083151502179055503480156200002c57600080fd5b50604051620046433803806200464383398181016040528101906200005291906200020d565b826000806101000a81548173ffffffffffffffffffffffffffffffffffffffff021916908373ffffffffffffffffffffffffffffffffffffffff16021790555033600160006101000a81548173ffffffffffffffffffffffffffffffffffffffff021916908373ffffffffffffffffffffffffffffffffffffffff16021790555081600260006101000a81548173ffffffffffffffffffffffffffffffffffffffff021916908373ffffffffffffffffffffffffffffffffffffffff16021790555080600360006101000a81548173ffffffffffffffffffffffffffffffffffffffff021916908373ffffffffffffffffffffffffffffffffffffffff16021790555050505062000269565b600080fd5b600073ffffffffffffffffffffffffffffffffffffffff82169050919050565b6000620001908262000163565b9050919050565b6000620001a48262000183565b9050919050565b620001b68162000197565b8114620001c257600080fd5b50565b600081519050620001d681620001ab565b92915050565b620001e78162000183565b8114620001f357600080fd5b50565b6000815190506200020781620001dc565b92915050565b6000806000606084860312156200022957620002286200015e565b5b60006200023986828701620001c5565b93505060206200024c86828701620001f6565b92505060406200025f86828701620001f6565b9150509250925092565b6143ca80620002796000396000f3fe60806040523480156200001157600080fd5b50600436106200010c5760003560e01c80638c98c51611620000a5578063e524979c116200006f578063e524979c146200028f578063eb8aef59146200029b578063f36457db14620002bd578063f7fa310b14620002dd576200010c565b80638c98c51614620001f75780638da5cb5b1462000217578063bd2262921462000239578063c4c251f31462000259576200010c565b8063364dfe3911620000e7578063364dfe39146200017557806341e6347e146200019557806348ec4c2914620001b757806369a5a51c14620001d7576200010c565b806303b5fdf7146200011157806323281fe4146200013357806329c877f31462000153575b600080fd5b6200011b620002fd565b6040516200012a919062001349565b60405180910390f35b6200015160048036038101906200014b919062001454565b62000323565b005b6200015d62000582565b6040516200016c9190620014fb565b60405180910390f35b6200019360048036038101906200018d919062001518565b62000588565b005b6200019f620007de565b604051620001ae919062001349565b60405180910390f35b620001d56004803603810190620001cf91906200155f565b62000804565b005b620001f56004803603810190620001ef9190620015a6565b620009da565b005b6200021560048036038101906200020f9190620015d8565b62000ab1565b005b6200022162000b69565b60405162000230919062001349565b60405180910390f35b62000257600480360381019062000251919062001518565b62000b8f565b005b620002776004803603810190620002719190620015a6565b62000ddd565b60405162000286919062001349565b60405180910390f35b6200029962000e10565b005b620002a562000f89565b604051620002b4919062001627565b60405180910390f35b620002db6004803603810190620002d59190620016a3565b62000f9c565b005b620002fb6004803603810190620002f591906200186a565b620010ee565b005b600360009054906101000a900473ffffffffffffffffffffffffffffffffffffffff1681565b6000600267ffffffffffffffff81111562000343576200034262001723565b5b604051908082528060200260200182016040528015620003725781602001602082028036833780820191505090505b50905085816000815181106200038d576200038c620018d0565b5b6020026020010181815250508481600181518110620003b157620003b0620018d0565b5b60200260200101818152505060011515600560009054906101000a900460ff16151514620003e457620003e3620018ff565b5b60008054906101000a900473ffffffffffffffffffffffffffffffffffffffff1673ffffffffffffffffffffffffffffffffffffffff16632c9dd5c0600454836040518363ffffffff1660e01b815260040162000443929190620019fc565b602060405180830381600087803b1580156200045e57600080fd5b505af115801562000473573d6000803e3d6000fd5b505050506040513d601f19601f8201168201806040525081019062000499919062001a6b565b5060008690506000600660008373ffffffffffffffffffffffffffffffffffffffff1673ffffffffffffffffffffffffffffffffffffffff16815260200190815260200160002060009054906101000a900473ffffffffffffffffffffffffffffffffffffffff1690508073ffffffffffffffffffffffffffffffffffffffff1663477ff009888888886040518563ffffffff1660e01b815260040162000544949392919062001ae1565b600060405180830381600087803b1580156200055f57600080fd5b505af115801562000574573d6000803e3d6000fd5b505050505050505050505050565b60045481565b6000600267ffffffffffffffff811115620005a857620005a762001723565b5b604051908082528060200260200182016040528015620005d75781602001602082028036833780820191505090505b5090508281600081518110620005f257620005f1620018d0565b5b6020026020010181815250508181600181518110620006165762000615620018d0565b5b60200260200101818152505060011515600560009054906101000a900460ff16151514620006495762000648620018ff565b5b60008054906101000a900473ffffffffffffffffffffffffffffffffffffffff1673ffffffffffffffffffffffffffffffffffffffff16632c9dd5c0600454836040518363ffffffff1660e01b8152600401620006a8929190620019fc565b602060405180830381600087803b158015620006c357600080fd5b505af1158015620006d8573d6000803e3d6000fd5b505050506040513d601f19601f82011682018060405250810190620006fe919062001a6b565b5060008390506000600660008373ffffffffffffffffffffffffffffffffffffffff1673ffffffffffffffffffffffffffffffffffffffff16815260200190815260200160002060009054906101000a900473ffffffffffffffffffffffffffffffffffffffff1690508073ffffffffffffffffffffffffffffffffffffffff16636af39aa3856040518263ffffffff1660e01b8152600401620007a39190620014fb565b600060405180830381600087803b158015620007be57600080fd5b505af1158015620007d3573d6000803e3d6000fd5b505050505050505050565b600260009054906101000a900473ffffffffffffffffffffffffffffffffffffffff1681565b600073ffffffffffffffffffffffffffffffffffffffff16600660003373ffffffffffffffffffffffffffffffffffffffff1673ffffffffffffffffffffffffffffffffffffffff16815260200190815260200160002060009054906101000a900473ffffffffffffffffffffffffffffffffffffffff1673ffffffffffffffffffffffffffffffffffffffff1614620008d5576040517f08c379a0000000000000000000000000000000000000000000000000000000008152600401620008cc9062001b88565b60405180910390fd5b600082823033604051620008e990620012e8565b620008f8949392919062001baa565b604051809103906000f08015801562000915573d6000803e3d6000fd5b50905080600660003373ffffffffffffffffffffffffffffffffffffffff1673ffffffffffffffffffffffffffffffffffffffff16815260200190815260200160002060006101000a81548173ffffffffffffffffffffffffffffffffffffffff021916908373ffffffffffffffffffffffffffffffffffffffff1602179055507f63525507ae06268d2c3cb72b565afcee4097d00187f87cd6ee5ceadaf54063a733824285604051620009cd949392919062001bf7565b60405180910390a1505050565b600160009054906101000a900473ffffffffffffffffffffffffffffffffffffffff1673ffffffffffffffffffffffffffffffffffffffff163373ffffffffffffffffffffffffffffffffffffffff161462000a6d576040517f08c379a000000000000000000000000000000000000000000000000000000000815260040162000a649062001c94565b60405180910390fd5b80600260006101000a81548173ffffffffffffffffffffffffffffffffffffffff021916908373ffffffffffffffffffffffffffffffffffffffff16021790555050565b600160009054906101000a900473ffffffffffffffffffffffffffffffffffffffff1673ffffffffffffffffffffffffffffffffffffffff163373ffffffffffffffffffffffffffffffffffffffff161462000b44576040517f08c379a000000000000000000000000000000000000000000000000000000000815260040162000b3b9062001c94565b60405180910390fd5b806004819055506001600560006101000a81548160ff02191690831515021790555050565b600160009054906101000a900473ffffffffffffffffffffffffffffffffffffffff1681565b600073ffffffffffffffffffffffffffffffffffffffff16600660003373ffffffffffffffffffffffffffffffffffffffff1673ffffffffffffffffffffffffffffffffffffffff16815260200190815260200160002060009054906101000a900473ffffffffffffffffffffffffffffffffffffffff1673ffffffffffffffffffffffffffffffffffffffff161462000c60576040517f08c379a000000000000000000000000000000000000000000000000000000000815260040162000c579062001b88565b60405180910390fd5b6000600360009054906101000a900473ffffffffffffffffffffffffffffffffffffffff1673ffffffffffffffffffffffffffffffffffffffff16634d329c183385856040518463ffffffff1660e01b815260040162000cc39392919062001cb6565b602060405180830381600087803b15801562000cde57600080fd5b505af115801562000cf3573d6000803e3d6000fd5b505050506040513d601f19601f8201168201806040525081019062000d19919062001d0a565b905080600660003373ffffffffffffffffffffffffffffffffffffffff1673ffffffffffffffffffffffffffffffffffffffff16815260200190815260200160002060006101000a81548173ffffffffffffffffffffffffffffffffffffffff021916908373ffffffffffffffffffffffffffffffffffffffff1602179055507f63525507ae06268d2c3cb72b565afcee4097d00187f87cd6ee5ceadaf54063a73382428660405162000dd0949392919062001bf7565b60405180910390a1505050565b60066020528060005260406000206000915054906101000a900473ffffffffffffffffffffffffffffffffffffffff1681565b6000600660003373ffffffffffffffffffffffffffffffffffffffff1673ffffffffffffffffffffffffffffffffffffffff16815260200190815260200160002060009054906101000a900473ffffffffffffffffffffffffffffffffffffffff169050600073ffffffffffffffffffffffffffffffffffffffff168173ffffffffffffffffffffffffffffffffffffffff16141562000ee7576040517f08c379a000000000000000000000000000000000000000000000000000000000815260040162000ede9062001d8c565b60405180910390fd5b600660003373ffffffffffffffffffffffffffffffffffffffff1673ffffffffffffffffffffffffffffffffffffffff16815260200190815260200160002060006101000a81549073ffffffffffffffffffffffffffffffffffffffff02191690557f2d712e362287dcff413ca2eff844e039531b6bcbcca75c84b549478114d1b8f033824260405162000f7e9392919062001dae565b60405180910390a150565b600560009054906101000a900460ff1681565b6000600660003373ffffffffffffffffffffffffffffffffffffffff1673ffffffffffffffffffffffffffffffffffffffff16815260200190815260200160002060009054906101000a900473ffffffffffffffffffffffffffffffffffffffff169050600073ffffffffffffffffffffffffffffffffffffffff168173ffffffffffffffffffffffffffffffffffffffff16141562001073576040517f08c379a00000000000000000000000000000000000000000000000000000000081526004016200106a9062001e3b565b60405180910390fd5b8073ffffffffffffffffffffffffffffffffffffffff1663a31fca30858533866040518563ffffffff1660e01b8152600401620010b4949392919062001f32565b600060405180830381600087803b158015620010cf57600080fd5b505af1158015620010e4573d6000803e3d6000fd5b5050505050505050565b600073ffffffffffffffffffffffffffffffffffffffff16600660003373ffffffffffffffffffffffffffffffffffffffff1673ffffffffffffffffffffffffffffffffffffffff16815260200190815260200160002060009054906101000a900473ffffffffffffffffffffffffffffffffffffffff1673ffffffffffffffffffffffffffffffffffffffff1614620011bf576040517f08c379a0000000000000000000000000000000000000000000000000000000008152600401620011b69062001b88565b60405180910390fd5b6000600260009054906101000a900473ffffffffffffffffffffffffffffffffffffffff1683303385604051620011f690620012f6565b6200120695949392919062001ffa565b604051809103906000f08015801562001223573d6000803e3d6000fd5b50905080600660003373ffffffffffffffffffffffffffffffffffffffff1673ffffffffffffffffffffffffffffffffffffffff16815260200190815260200160002060006101000a81548173ffffffffffffffffffffffffffffffffffffffff021916908373ffffffffffffffffffffffffffffffffffffffff1602179055507f63525507ae06268d2c3cb72b565afcee4097d00187f87cd6ee5ceadaf54063a733824286604051620012db949392919062001bf7565b60405180910390a1505050565b610f38806200205f83390190565b6113fe8062002f9783390190565b600073ffffffffffffffffffffffffffffffffffffffff82169050919050565b6000620013318262001304565b9050919050565b620013438162001324565b82525050565b600060208201905062001360600083018462001338565b92915050565b6000604051905090565b600080fd5b600080fd5b6000819050919050565b6200138f816200137a565b81146200139b57600080fd5b50565b600081359050620013af8162001384565b92915050565b600080fd5b600080fd5b600080fd5b60008083601f840112620013dd57620013dc620013b5565b5b8235905067ffffffffffffffff811115620013fd57620013fc620013ba565b5b6020830191508360018202830111156200141c576200141b620013bf565b5b9250929050565b6200142e8162001324565b81146200143a57600080fd5b50565b6000813590506200144e8162001423565b92915050565b60008060008060006080868803121562001473576200147262001370565b5b600062001483888289016200139e565b955050602062001496888289016200139e565b945050604086013567ffffffffffffffff811115620014ba57620014b962001375565b5b620014c888828901620013c4565b93509350506060620014dd888289016200143d565b9150509295509295909350565b620014f5816200137a565b82525050565b6000602082019050620015126000830184620014ea565b92915050565b6000806040838503121562001532576200153162001370565b5b600062001542858286016200139e565b925050602062001555858286016200139e565b9150509250929050565b6000806040838503121562001579576200157862001370565b5b600062001589858286016200143d565b92505060206200159c858286016200139e565b9150509250929050565b600060208284031215620015bf57620015be62001370565b5b6000620015cf848285016200143d565b91505092915050565b600060208284031215620015f157620015f062001370565b5b600062001601848285016200139e565b91505092915050565b60008115159050919050565b62001621816200160a565b82525050565b60006020820190506200163e600083018462001616565b92915050565b60008083601f8401126200165d576200165c620013b5565b5b8235905067ffffffffffffffff8111156200167d576200167c620013ba565b5b6020830191508360208202830111156200169c576200169b620013bf565b5b9250929050565b600080600060408486031215620016bf57620016be62001370565b5b600084013567ffffffffffffffff811115620016e057620016df62001375565b5b620016ee8682870162001644565b9350935050602062001703868287016200143d565b9150509250925092565b600080fd5b6000601f19601f8301169050919050565b7f4e487b7100000000000000000000000000000000000000000000000000000000600052604160045260246000fd5b6200175d8262001712565b810181811067ffffffffffffffff821117156200177f576200177e62001723565b5b80604052505050565b60006200179462001366565b9050620017a2828262001752565b919050565b600067ffffffffffffffff821115620017c557620017c462001723565b5b620017d08262001712565b9050602081019050919050565b82818337600083830152505050565b600062001803620017fd84620017a7565b62001788565b9050828152602081018484840111156200182257620018216200170d565b5b6200182f848285620017dd565b509392505050565b600082601f8301126200184f576200184e620013b5565b5b813562001861848260208601620017ec565b91505092915050565b6000806040838503121562001884576200188362001370565b5b600062001894858286016200139e565b925050602083013567ffffffffffffffff811115620018b857620018b762001375565b5b620018c68582860162001837565b9150509250929050565b7f4e487b7100000000000000000000000000000000000000000000000000000000600052603260045260246000fd5b7f4e487b7100000000000000000000000000000000000000000000000000000000600052600160045260246000fd5b600081519050919050565b600082825260208201905092915050565b6000819050602082019050919050565b62001965816200137a565b82525050565b60006200197983836200195a565b60208301905092915050565b6000602082019050919050565b60006200199f826200192e565b620019ab818562001939565b9350620019b8836200194a565b8060005b83811015620019ef578151620019d388826200196b565b9750620019e08362001985565b925050600181019050620019bc565b5085935050505092915050565b600060408201905062001a136000830185620014ea565b818103602083015262001a27818462001992565b90509392505050565b6000819050919050565b62001a458162001a30565b811462001a5157600080fd5b50565b60008151905062001a658162001a3a565b92915050565b60006020828403121562001a845762001a8362001370565b5b600062001a948482850162001a54565b91505092915050565b600082825260208201905092915050565b600062001abc838562001a9d565b935062001acb838584620017dd565b62001ad68362001712565b840190509392505050565b600060608201905062001af86000830187620014ea565b818103602083015262001b0d81858762001aae565b905062001b1e604083018462001338565b95945050505050565b600082825260208201905092915050565b7f5265636f7665727920616c726561647920657869737473000000000000000000600082015250565b600062001b7060178362001b27565b915062001b7d8262001b38565b602082019050919050565b6000602082019050818103600083015262001ba38162001b61565b9050919050565b600060808201905062001bc1600083018762001338565b62001bd06020830186620014ea565b62001bdf604083018562001338565b62001bee606083018462001338565b95945050505050565b600060808201905062001c0e600083018762001338565b62001c1d602083018662001338565b62001c2c6040830185620014ea565b62001c3b6060830184620014ea565b95945050505050565b7f4f6e6c79206f776e657200000000000000000000000000000000000000000000600082015250565b600062001c7c600a8362001b27565b915062001c898262001c44565b602082019050919050565b6000602082019050818103600083015262001caf8162001c6d565b9050919050565b600060608201905062001ccd600083018662001338565b62001cdc6020830185620014ea565b62001ceb6040830184620014ea565b949350505050565b60008151905062001d048162001423565b92915050565b60006020828403121562001d235762001d2262001370565b5b600062001d338482850162001cf3565b91505092915050565b7f4e6f206578697374696e67207265636f76657279000000000000000000000000600082015250565b600062001d7460148362001b27565b915062001d818262001d3c565b602082019050919050565b6000602082019050818103600083015262001da78162001d65565b9050919050565b600060608201905062001dc5600083018662001338565b62001dd4602083018562001338565b62001de36040830184620014ea565b949350505050565b7f5265636f7665727920646f65736e277420657869737400000000000000000000600082015250565b600062001e2360168362001b27565b915062001e308262001deb565b602082019050919050565b6000602082019050818103600083015262001e568162001e14565b9050919050565b600082825260208201905092915050565b6000819050919050565b62001e838162001324565b82525050565b600062001e97838362001e78565b60208301905092915050565b600062001eb460208401846200143d565b905092915050565b6000602082019050919050565b600062001ed7838562001e5d565b935062001ee48262001e6e565b8060005b8581101562001f255762001efd828462001ea3565b62001f09888262001e89565b975062001f168362001ebc565b92505060018101905062001ee8565b5085925050509392505050565b6000606082019050818103600083015262001f4f81868862001ec9565b905062001f60602083018562001338565b62001f6f604083018462001338565b95945050505050565b600081519050919050565b60005b8381101562001fa357808201518184015260208101905062001f86565b8381111562001fb3576000848401525b50505050565b600062001fc68262001f78565b62001fd2818562001b27565b935062001fe481856020860162001f83565b62001fef8162001712565b840191505092915050565b600060a08201905062002011600083018862001338565b620020206020830187620014ea565b6200202f604083018662001338565b6200203e606083018562001338565b818103608083015262002052818462001fb9565b9050969550505050505056fe60806040523480156200001157600080fd5b5060405162000f3838038062000f388339818101604052810190620000379190620001af565b836000806101000a81548173ffffffffffffffffffffffffffffffffffffffff021916908373ffffffffffffffffffffffffffffffffffffffff16021790555080600160006101000a81548173ffffffffffffffffffffffffffffffffffffffff021916908373ffffffffffffffffffffffffffffffffffffffff1602179055508260038190555081600260006101000a81548173ffffffffffffffffffffffffffffffffffffffff021916908373ffffffffffffffffffffffffffffffffffffffff1602179055505050505062000221565b600080fd5b600073ffffffffffffffffffffffffffffffffffffffff82169050919050565b60006200013c826200010f565b9050919050565b6200014e816200012f565b81146200015a57600080fd5b50565b6000815190506200016e8162000143565b92915050565b6000819050919050565b620001898162000174565b81146200019557600080fd5b50565b600081519050620001a9816200017e565b92915050565b60008060008060808587031215620001cc57620001cb6200010a565b5b6000620001dc878288016200015d565b9450506020620001ef8782880162000198565b935050604062000202878288016200015d565b925050606062000215878288016200015d565b91505092959194509250565b610d0780620002316000396000f3fe608060405234801561001057600080fd5b506004361061007d5760003560e01c80637dc5186f1161005b5780637dc5186f146100da578063a31fca30146100f8578063eb0cde1d14610114578063ff21d1e5146101325761007d565b806322f3e2d41461008257806366d003ac146100a05780636af39aa3146100be575b600080fd5b61008a610150565b60405161009791906106c2565b60405180910390f35b6100a8610163565b6040516100b5919061071e565b60405180910390f35b6100d860048036038101906100d39190610779565b610187565b005b6100e2610325565b6040516100ef919061071e565b60405180910390f35b610112600480360381019061010d9190610837565b61034b565b005b61011c61067b565b604051610129919061071e565b60405180910390f35b61013a6106a1565b60405161014791906108ba565b60405180910390f35b600460009054906101000a900460ff1681565b60008054906101000a900473ffffffffffffffffffffffffffffffffffffffff1681565b600260009054906101000a900473ffffffffffffffffffffffffffffffffffffffff1673ffffffffffffffffffffffffffffffffffffffff163373ffffffffffffffffffffffffffffffffffffffff1614610217576040517f08c379a000000000000000000000000000000000000000000000000000000000815260040161020e90610932565b60405180910390fd5b600460009054906101000a900460ff1615610267576040517f08c379a000000000000000000000000000000000000000000000000000000000815260040161025e9061099e565b60405180910390fd5b6003548110156102ac576040517f08c379a00000000000000000000000000000000000000000000000000000000081526004016102a390610a0a565b60405180910390fd5b6001600460006101000a81548160ff0219169083151502179055507f8c0f791a552520d7b652c7f008af155a562ee6e9ce409bf539fbe0c18eef91603060008054906101000a900473ffffffffffffffffffffffffffffffffffffffff164260405161031a93929190610a2a565b60405180910390a150565b600160009054906101000a900473ffffffffffffffffffffffffffffffffffffffff1681565b600260009054906101000a900473ffffffffffffffffffffffffffffffffffffffff1673ffffffffffffffffffffffffffffffffffffffff163373ffffffffffffffffffffffffffffffffffffffff16146103db576040517f08c379a00000000000000000000000000000000000000000000000000000000081526004016103d290610932565b60405180910390fd5b60008054906101000a900473ffffffffffffffffffffffffffffffffffffffff1673ffffffffffffffffffffffffffffffffffffffff168273ffffffffffffffffffffffffffffffffffffffff1614610469576040517f08c379a000000000000000000000000000000000000000000000000000000000815260040161046090610aad565b60405180910390fd5b600460009054906101000a900460ff166104b8576040517f08c379a00000000000000000000000000000000000000000000000000000000081526004016104af90610b19565b60405180910390fd5b60005b848490508110156106745760008585838181106104db576104da610b39565b5b90506020020160208101906104f09190610b68565b905060008173ffffffffffffffffffffffffffffffffffffffff1663dd62ed3e600160009054906101000a900473ffffffffffffffffffffffffffffffffffffffff16306040518363ffffffff1660e01b8152600401610551929190610b95565b60206040518083038186803b15801561056957600080fd5b505afa15801561057d573d6000803e3d6000fd5b505050506040513d601f19601f820116820180604052508101906105a19190610bd3565b9050600081111561065f578173ffffffffffffffffffffffffffffffffffffffff166323b872dd600160009054906101000a900473ffffffffffffffffffffffffffffffffffffffff1686846040518463ffffffff1660e01b815260040161060b93929190610a2a565b602060405180830381600087803b15801561062557600080fd5b505af1158015610639573d6000803e3d6000fd5b505050506040513d601f19601f8201168201806040525081019061065d9190610c2c565b505b5050808061066c90610c88565b9150506104bb565b5050505050565b600260009054906101000a900473ffffffffffffffffffffffffffffffffffffffff1681565b60035481565b60008115159050919050565b6106bc816106a7565b82525050565b60006020820190506106d760008301846106b3565b92915050565b600073ffffffffffffffffffffffffffffffffffffffff82169050919050565b6000610708826106dd565b9050919050565b610718816106fd565b82525050565b6000602082019050610733600083018461070f565b92915050565b600080fd5b600080fd5b6000819050919050565b61075681610743565b811461076157600080fd5b50565b6000813590506107738161074d565b92915050565b60006020828403121561078f5761078e610739565b5b600061079d84828501610764565b91505092915050565b600080fd5b600080fd5b600080fd5b60008083601f8401126107cb576107ca6107a6565b5b8235905067ffffffffffffffff8111156107e8576107e76107ab565b5b602083019150836020820283011115610804576108036107b0565b5b9250929050565b610814816106fd565b811461081f57600080fd5b50565b6000813590506108318161080b565b92915050565b6000806000806060858703121561085157610850610739565b5b600085013567ffffffffffffffff81111561086f5761086e61073e565b5b61087b878288016107b5565b9450945050602061088e87828801610822565b925050604061089f87828801610822565b91505092959194509250565b6108b481610743565b82525050565b60006020820190506108cf60008301846108ab565b92915050565b600082825260208201905092915050565b7f4e6f742067617465776179000000000000000000000000000000000000000000600082015250565b600061091c600b836108d5565b9150610927826108e6565b602082019050919050565b6000602082019050818103600083015261094b8161090f565b9050919050565b7f416c726561647920616374697665000000000000000000000000000000000000600082015250565b6000610988600e836108d5565b915061099382610952565b602082019050919050565b600060208201905081810360008301526109b78161097b565b9050919050565b7f496e616374697669747920746f6f2073686f7274000000000000000000000000600082015250565b60006109f46014836108d5565b91506109ff826109be565b602082019050919050565b60006020820190508181036000830152610a23816109e7565b9050919050565b6000606082019050610a3f600083018661070f565b610a4c602083018561070f565b610a5960408301846108ab565b949350505050565b7f4f6e6c7920726563697069656e74000000000000000000000000000000000000600082015250565b6000610a97600e836108d5565b9150610aa282610a61565b602082019050919050565b60006020820190508181036000830152610ac681610a8a565b9050919050565b7f4e6f742061637469766500000000000000000000000000000000000000000000600082015250565b6000610b03600a836108d5565b9150610b0e82610acd565b602082019050919050565b60006020820190508181036000830152610b3281610af6565b9050919050565b7f4e487b7100000000000000000000000000000000000000000000000000000000600052603260045260246000fd5b600060208284031215610b7e57610b7d610739565b5b6000610b8c84828501610822565b91505092915050565b6000604082019050610baa600083018561070f565b610bb7602083018461070f565b9392505050565b600081519050610bcd8161074d565b92915050565b600060208284031215610be957610be8610739565b5b6000610bf784828501610bbe565b91505092915050565b610c09816106a7565b8114610c1457600080fd5b50565b600081519050610c2681610c00565b92915050565b600060208284031215610c4257610c41610739565b5b6000610c5084828501610c17565b91505092915050565b7f4e487b7100000000000000000000000000000000000000000000000000000000600052601160045260246000fd5b6000610c9382610743565b91507fffffffffffffffffffffffffffffffffffffffffffffffffffffffffffffffff821415610cc657610cc5610c59565b5b60018201905091905056fea26469706673582212201666eae5fd494e5193ac4e3d9ad0cbf5b4078845bf4fd86fa214b5457680add064736f6c6343000809003360806040523480156200001157600080fd5b50604051620013fe380380620013fe833981810160405281019062000037919062000419565b84848484836000806101000a81548173ffffffffffffffffffffffffffffffffffffffff021916908373ffffffffffffffffffffffffffffffffffffffff16021790555080600160006101000a81548173ffffffffffffffffffffffffffffffffffffffff021916908373ffffffffffffffffffffffffffffffffffffffff1602179055508260038190555081600260006101000a81548173ffffffffffffffffffffffffffffffffffffffff021916908373ffffffffffffffffffffffffffffffffffffffff160217905550505050508060059080519060200190620001209291906200012c565b50505050505062000525565b8280546200013a90620004ef565b90600052602060002090601f0160209004810192826200015e5760008555620001aa565b82601f106200017957805160ff1916838001178555620001aa565b82800160010185558215620001aa579182015b82811115620001a95782518255916020019190600101906200018c565b5b509050620001b99190620001bd565b5090565b5b80821115620001d8576000816000905550600101620001be565b5090565b6000604051905090565b600080fd5b600080fd5b600073ffffffffffffffffffffffffffffffffffffffff82169050919050565b60006200021d82620001f0565b9050919050565b6200022f8162000210565b81146200023b57600080fd5b50565b6000815190506200024f8162000224565b92915050565b6000819050919050565b6200026a8162000255565b81146200027657600080fd5b50565b6000815190506200028a816200025f565b92915050565b600080fd5b600080fd5b6000601f19601f8301169050919050565b7f4e487b7100000000000000000000000000000000000000000000000000000000600052604160045260246000fd5b620002e5826200029a565b810181811067ffffffffffffffff82111715620003075762000306620002ab565b5b80604052505050565b60006200031c620001dc565b90506200032a8282620002da565b919050565b600067ffffffffffffffff8211156200034d576200034c620002ab565b5b62000358826200029a565b9050602081019050919050565b60005b838110156200038557808201518184015260208101905062000368565b8381111562000395576000848401525b50505050565b6000620003b2620003ac846200032f565b62000310565b905082815260208101848484011115620003d157620003d062000295565b5b620003de84828562000365565b509392505050565b600082601f830112620003fe57620003fd62000290565b5b8151620004108482602086016200039b565b91505092915050565b600080600080600060a08688031215620004385762000437620001e6565b5b600062000448888289016200023e565b95505060206200045b8882890162000279565b94505060406200046e888289016200023e565b935050606062000481888289016200023e565b925050608086015167ffffffffffffffff811115620004a557620004a4620001eb565b5b620004b388828901620003e6565b9150509295509295909350565b7f4e487b7100000000000000000000000000000000000000000000000000000000600052602260045260246000fd5b600060028204905060018216806200050857607f821691505b602082108114156200051f576200051e620004c0565b5b50919050565b610ec980620005356000396000f3fe608060405234801561001057600080fd5b50600436106100885760003560e01c8063a31fca301161005b578063a31fca3014610103578063b294f9491461011f578063eb0cde1d1461013d578063ff21d1e51461015b57610088565b806322f3e2d41461008d57806366d003ac146100ab5780636af39aa3146100c95780637dc5186f146100e5575b600080fd5b610095610179565b6040516100a29190610779565b60405180910390f35b6100b361018c565b6040516100c091906107d5565b60405180910390f35b6100e360048036038101906100de9190610830565b6101b0565b005b6100ed61034e565b6040516100fa91906107d5565b60405180910390f35b61011d600480360381019061011891906108ee565b610374565b005b6101276106a4565b60405161013491906109fb565b60405180910390f35b610145610732565b60405161015291906107d5565b60405180910390f35b610163610758565b6040516101709190610a2c565b60405180910390f35b600460009054906101000a900460ff1681565b60008054906101000a900473ffffffffffffffffffffffffffffffffffffffff1681565b600260009054906101000a900473ffffffffffffffffffffffffffffffffffffffff1673ffffffffffffffffffffffffffffffffffffffff163373ffffffffffffffffffffffffffffffffffffffff1614610240576040517f08c379a000000000000000000000000000000000000000000000000000000000815260040161023790610a93565b60405180910390fd5b600460009054906101000a900460ff1615610290576040517f08c379a000000000000000000000000000000000000000000000000000000000815260040161028790610aff565b60405180910390fd5b6003548110156102d5576040517f08c379a00000000000000000000000000000000000000000000000000000000081526004016102cc90610b6b565b60405180910390fd5b6001600460006101000a81548160ff0219169083151502179055507f8c0f791a552520d7b652c7f008af155a562ee6e9ce409bf539fbe0c18eef91603060008054906101000a900473ffffffffffffffffffffffffffffffffffffffff164260405161034393929190610b8b565b60405180910390a150565b600160009054906101000a900473ffffffffffffffffffffffffffffffffffffffff1681565b600260009054906101000a900473ffffffffffffffffffffffffffffffffffffffff1673ffffffffffffffffffffffffffffffffffffffff163373ffffffffffffffffffffffffffffffffffffffff1614610404576040517f08c379a00000000000000000000000000000000000000000000000000000000081526004016103fb90610a93565b60405180910390fd5b60008054906101000a900473ffffffffffffffffffffffffffffffffffffffff1673ffffffffffffffffffffffffffffffffffffffff168273ffffffffffffffffffffffffffffffffffffffff1614610492576040517f08c379a000000000000000000000000000000000000000000000000000000000815260040161048990610c0e565b60405180910390fd5b600460009054906101000a900460ff166104e1576040517f08c379a00000000000000000000000000000000000000000000000000000000081526004016104d890610c7a565b60405180910390fd5b60005b8484905081101561069d57600085858381811061050457610503610c9a565b5b90506020020160208101906105199190610cc9565b905060008173ffffffffffffffffffffffffffffffffffffffff1663dd62ed3e600160009054906101000a900473ffffffffffffffffffffffffffffffffffffffff16306040518363ffffffff1660e01b815260040161057a929190610cf6565b60206040518083038186803b15801561059257600080fd5b505afa1580156105a6573d6000803e3d6000fd5b505050506040513d601f19601f820116820180604052508101906105ca9190610d34565b90506000811115610688578173ffffffffffffffffffffffffffffffffffffffff166323b872dd600160009054906101000a900473ffffffffffffffffffffffffffffffffffffffff1686846040518463ffffffff1660e01b815260040161063493929190610b8b565b602060405180830381600087803b15801561064e57600080fd5b505af1158015610662573d6000803e3d6000fd5b505050506040513d601f19601f820116820180604052508101906106869190610d8d565b505b5050808061069590610de9565b9150506104e4565b5050505050565b600580546106b190610e61565b80601f01602080910402602001604051908101604052809291908181526020018280546106dd90610e61565b801561072a5780601f106106ff5761010080835404028352916020019161072a565b820191906000526020600020905b81548152906001019060200180831161070d57829003601f168201915b505050505081565b600260009054906101000a900473ffffffffffffffffffffffffffffffffffffffff1681565b60035481565b60008115159050919050565b6107738161075e565b82525050565b600060208201905061078e600083018461076a565b92915050565b600073ffffffffffffffffffffffffffffffffffffffff82169050919050565b60006107bf82610794565b9050919050565b6107cf816107b4565b82525050565b60006020820190506107ea60008301846107c6565b92915050565b600080fd5b600080fd5b6000819050919050565b61080d816107fa565b811461081857600080fd5b50565b60008135905061082a81610804565b92915050565b600060208284031215610846576108456107f0565b5b60006108548482850161081b565b91505092915050565b600080fd5b600080fd5b600080fd5b60008083601f8401126108825761088161085d565b5b8235905067ffffffffffffffff81111561089f5761089e610862565b5b6020830191508360208202830111156108bb576108ba610867565b5b9250929050565b6108cb816107b4565b81146108d657600080fd5b50565b6000813590506108e8816108c2565b92915050565b60008060008060608587031215610908576109076107f0565b5b600085013567ffffffffffffffff811115610926576109256107f5565b5b6109328782880161086c565b94509450506020610945878288016108d9565b9250506040610956878288016108d9565b91505092959194509250565b600081519050919050565b600082825260208201905092915050565b60005b8381101561099c578082015181840152602081019050610981565b838111156109ab576000848401525b50505050565b6000601f19601f8301169050919050565b60006109cd82610962565b6109d7818561096d565b93506109e781856020860161097e565b6109f0816109b1565b840191505092915050565b60006020820190508181036000830152610a1581846109c2565b905092915050565b610a26816107fa565b82525050565b6000602082019050610a416000830184610a1d565b92915050565b7f4e6f742067617465776179000000000000000000000000000000000000000000600082015250565b6000610a7d600b8361096d565b9150610a8882610a47565b602082019050919050565b60006020820190508181036000830152610aac81610a70565b9050919050565b7f416c726561647920616374697665000000000000000000000000000000000000600082015250565b6000610ae9600e8361096d565b9150610af482610ab3565b602082019050919050565b60006020820190508181036000830152610b1881610adc565b9050919050565b7f496e616374697669747920746f6f2073686f7274000000000000000000000000600082015250565b6000610b5560148361096d565b9150610b6082610b1f565b602082019050919050565b60006020820190508181036000830152610b8481610b48565b9050919050565b6000606082019050610ba060008301866107c6565b610bad60208301856107c6565b610bba6040830184610a1d565b949350505050565b7f4f6e6c7920726563697069656e74000000000000000000000000000000000000600082015250565b6000610bf8600e8361096d565b9150610c0382610bc2565b602082019050919050565b60006020820190508181036000830152610c2781610beb565b9050919050565b7f4e6f742061637469766500000000000000000000000000000000000000000000600082015250565b6000610c64600a8361096d565b9150610c6f82610c2e565b602082019050919050565b60006020820190508181036000830152610c9381610c57565b9050919050565b7f4e487b7100000000000000000000000000000000000000000000000000000000600052603260045260246000fd5b600060208284031215610cdf57610cde6107f0565b5b6000610ced848285016108d9565b91505092915050565b6000604082019050610d0b60008301856107c6565b610d1860208301846107c6565b9392505050565b600081519050610d2e81610804565b92915050565b600060208284031215610d4a57610d496107f0565b5b6000610d5884828501610d1f565b91505092915050565b610d6a8161075e565b8114610d7557600080fd5b50565b600081519050610d8781610d61565b92915050565b600060208284031215610da357610da26107f0565b5b6000610db184828501610d78565b91505092915050565b7f4e487b7100000000000000000000000000000000000000000000000000000000600052601160045260246000fd5b6000610df4826107fa565b91507fffffffffffffffffffffffffffffffffffffffffffffffffffffffffffffffff821415610e2757610e26610dba565b5b600182019050919050565b7f4e487b7100000000000000000000000000000000000000000000000000000000600052602260045260246000fd5b60006002820490506001821680610e7957607f821691505b60208210811415610e8d57610e8c610e32565b5b5091905056fea26469706673582212207284c247d73df52a53972010dd49251a62996ad3df34e6b12ac8f1ee343f6d4864736f6c63430008090033a2646970667358221220aec0ac8497629346bd77ae7539487eb470097ccf08f06c9995510d4a4bb682e564736f6c63430008090033",
  "linkReferences": {},
  "deployedLinkReferences": {}
}