{
  "_format": "hh-sol-artifact-1",
  "contractName": "GatewayContract",
  "sourceName": "contracts/ethereum/GatewayContract.sol",
  "abi": [
    {
      "inputs": [
        {
          "internalType": "contract IStarknetCore",
          "name": "_starknetCore",
          "type": "address"
        },
        {
          "internalType": "address",
          "name": "_trustedAgents",
          "type": "address"
        },
        {
          "internalType": "address",
          "name": "_recoveryContractFactory",
          "type": "address"
        }
      ],
      "stateMutability": "nonpayable",
      "type": "constructor"
    },
    {
      "anonymous": false,
      "inputs": [
        {
          "indexed": false,
          "internalType": "address",
          "name": "EOA",
          "type": "address"
        },
        {
          "indexed": false,
          "internalType": "address",
          "name": "recoveryContract",
          "type": "address"
        },
        {
          "indexed": false,
          "internalType": "uint256",
          "name": "creationDate",
          "type": "uint256"
        },
        {
          "indexed": false,
          "internalType": "uint256",
          "name": "minBlocks",
          "type": "uint256"
        }
      ],
      "name": "NewRecoveryContract",
      "type": "event"
    },
    {
      "anonymous": false,
      "inputs": [
        {
          "indexed": false,
          "internalType": "address",
          "name": "EOA",
          "type": "address"
        },
        {
          "indexed": false,
          "internalType": "address",
          "name": "recoveryContract",
          "type": "address"
        },
        {
          "indexed": false,
          "internalType": "uint256",
          "name": "terminationDatee",
          "type": "uint256"
        }
      ],
      "name": "TerminateRecoveryContract",
      "type": "event"
    },
    {
      "inputs": [
        {
          "internalType": "address[]",
          "name": "erc20contracts",
          "type": "address[]"
        },
        {
          "internalType": "address",
          "name": "to",
          "type": "address"
        }
      ],
      "name": "claimAssets",
      "outputs": [],
      "stateMutability": "nonpayable",
      "type": "function"
    },
    {
      "inputs": [
        {
          "internalType": "address",
          "name": "recipient",
          "type": "address"
        },
        {
          "internalType": "uint256",
          "name": "minBlocks",
          "type": "uint256"
        }
      ],
      "name": "deployRecoveryContract",
      "outputs": [],
      "stateMutability": "nonpayable",
      "type": "function"
    },
    {
      "inputs": [
        {
          "internalType": "uint256",
          "name": "minBlocks",
          "type": "uint256"
        },
        {
          "internalType": "string",
          "name": "_legalDocumentsHash",
          "type": "string"
        }
      ],
      "name": "deployRecoveryContractTrustedAgents",
      "outputs": [],
      "stateMutability": "nonpayable",
      "type": "function"
    },
    {
      "inputs": [
        {
          "internalType": "uint256",
          "name": "minBlocks",
          "type": "uint256"
        },
        {
          "internalType": "uint256",
          "name": "_hashedPassword",
          "type": "uint256"
        }
      ],
      "name": "deployRecoveryContractZk",
      "outputs": [],
      "stateMutability": "nonpayable",
      "type": "function"
    },
    {
      "inputs": [
        {
          "internalType": "address",
          "name": "",
          "type": "address"
        }
      ],
      "name": "eoaToRecoveryContract",
      "outputs": [
        {
          "internalType": "address",
          "name": "",
          "type": "address"
        }
      ],
      "stateMutability": "view",
      "type": "function"
    },
    {
      "inputs": [],
      "name": "l2StorageProverAddress",
      "outputs": [
        {
          "internalType": "uint256",
          "name": "",
          "type": "uint256"
        }
      ],
      "stateMutability": "view",
      "type": "function"
    },
    {
      "inputs": [],
      "name": "owner",
      "outputs": [
        {
          "internalType": "address",
          "name": "",
          "type": "address"
        }
      ],
      "stateMutability": "view",
      "type": "function"
    },
    {
      "inputs": [],
      "name": "proverAddressIsSet",
      "outputs": [
        {
          "internalType": "bool",
          "name": "",
          "type": "bool"
        }
      ],
      "stateMutability": "view",
      "type": "function"
    },
    {
      "inputs": [
        {
          "internalType": "uint256",
          "name": "userAddress",
          "type": "uint256"
        },
        {
          "internalType": "uint256",
          "name": "blocks",
          "type": "uint256"
        }
      ],
      "name": "receiveFromStorageProver",
      "outputs": [],
      "stateMutability": "nonpayable",
      "type": "function"
    },
    {
      "inputs": [
        {
          "internalType": "uint256",
          "name": "userAddress",
          "type": "uint256"
        },
        {
          "internalType": "uint256",
          "name": "blocks",
          "type": "uint256"
        },
        {
          "internalType": "bytes",
          "name": "proof",
          "type": "bytes"
        }
      ],
      "name": "receiveFromStorageProverZkProof",
      "outputs": [],
      "stateMutability": "nonpayable",
      "type": "function"
    },
    {
      "inputs": [],
      "name": "recoveryContractFactory",
      "outputs": [
        {
          "internalType": "address",
          "name": "",
          "type": "address"
        }
      ],
      "stateMutability": "view",
      "type": "function"
    },
    {
      "inputs": [
        {
          "internalType": "uint256",
          "name": "_l2StorageProverAddress",
          "type": "uint256"
        }
      ],
      "name": "setProverAddress",
      "outputs": [],
      "stateMutability": "nonpayable",
      "type": "function"
    },
    {
      "inputs": [],
      "name": "terminateRecoveryContract",
      "outputs": [],
      "stateMutability": "nonpayable",
      "type": "function"
    },
    {
      "inputs": [],
      "name": "trustedAgents",
      "outputs": [
        {
          "internalType": "address",
          "name": "",
          "type": "address"
        }
      ],
      "stateMutability": "view",
      "type": "function"
    },
    {
      "inputs": [
        {
          "internalType": "address",
          "name": "_trustedAgents",
          "type": "address"
        }
      ],
      "name": "updateTrustedAgents",
      "outputs": [],
      "stateMutability": "nonpayable",
      "type": "function"
    }
  ],
  "bytecode": "0x60806040526000600560006101000a81548160ff0219169083151502179055503480156200002c57600080fd5b506040516200461a3803806200461a83398181016040528101906200005291906200020d565b826000806101000a81548173ffffffffffffffffffffffffffffffffffffffff021916908373ffffffffffffffffffffffffffffffffffffffff16021790555033600160006101000a81548173ffffffffffffffffffffffffffffffffffffffff021916908373ffffffffffffffffffffffffffffffffffffffff16021790555081600260006101000a81548173ffffffffffffffffffffffffffffffffffffffff021916908373ffffffffffffffffffffffffffffffffffffffff16021790555080600360006101000a81548173ffffffffffffffffffffffffffffffffffffffff021916908373ffffffffffffffffffffffffffffffffffffffff16021790555050505062000269565b600080fd5b600073ffffffffffffffffffffffffffffffffffffffff82169050919050565b6000620001908262000163565b9050919050565b6000620001a48262000183565b9050919050565b620001b68162000197565b8114620001c257600080fd5b50565b600081519050620001d681620001ab565b92915050565b620001e78162000183565b8114620001f357600080fd5b50565b6000815190506200020781620001dc565b92915050565b6000806000606084860312156200022957620002286200015e565b5b60006200023986828701620001c5565b93505060206200024c86828701620001f6565b92505060406200025f86828701620001f6565b9150509250925092565b6143a180620002796000396000f3fe60806040523480156200001157600080fd5b50600436106200010c5760003560e01c8063bd22629211620000a5578063e524979c116200006f578063e524979c146200028f578063eb8aef59146200029b578063f36457db14620002bd578063f7fa310b14620002dd576200010c565b8063bd22629214620001f9578063bfe728c01462000219578063c4c251f31462000239578063dfa08923146200026f576200010c565b806348ec4c2911620000e757806348ec4c29146200017757806369a5a51c14620001975780638c98c51614620001b75780638da5cb5b14620001d7576200010c565b806303b5fdf7146200011157806329c877f3146200013357806341e6347e1462000155575b600080fd5b6200011b620002fd565b6040516200012a919062001346565b60405180910390f35b6200013d62000323565b6040516200014c91906200137e565b60405180910390f35b6200015f62000329565b6040516200016e919062001346565b60405180910390f35b6200019560048036038101906200018f919062001411565b6200034f565b005b620001b56004803603810190620001af919062001458565b62000525565b005b620001d56004803603810190620001cf91906200148a565b620005fc565b005b620001e1620006b4565b604051620001f0919062001346565b60405180910390f35b620002176004803603810190620002119190620014bc565b620006da565b005b62000237600480360381019062000231919062001571565b62000926565b005b62000257600480360381019062000251919062001458565b62000b84565b60405162000266919062001346565b60405180910390f35b6200028d6004803603810190620002879190620014bc565b62000bb7565b005b6200029962000e0d565b005b620002a562000f86565b604051620002b491906200160e565b60405180910390f35b620002db6004803603810190620002d591906200168a565b62000f99565b005b620002fb6004803603810190620002f5919062001851565b620010eb565b005b600360009054906101000a900473ffffffffffffffffffffffffffffffffffffffff1681565b60045481565b600260009054906101000a900473ffffffffffffffffffffffffffffffffffffffff1681565b600073ffffffffffffffffffffffffffffffffffffffff16600660003373ffffffffffffffffffffffffffffffffffffffff1673ffffffffffffffffffffffffffffffffffffffff16815260200190815260200160002060009054906101000a900473ffffffffffffffffffffffffffffffffffffffff1673ffffffffffffffffffffffffffffffffffffffff161462000420576040517f08c379a0000000000000000000000000000000000000000000000000000000008152600401620004179062001918565b60405180910390fd5b6000828230336040516200043490620012e5565b6200044394939291906200193a565b604051809103906000f08015801562000460573d6000803e3d6000fd5b50905080600660003373ffffffffffffffffffffffffffffffffffffffff1673ffffffffffffffffffffffffffffffffffffffff16815260200190815260200160002060006101000a81548173ffffffffffffffffffffffffffffffffffffffff021916908373ffffffffffffffffffffffffffffffffffffffff1602179055507f63525507ae06268d2c3cb72b565afcee4097d00187f87cd6ee5ceadaf54063a73382428560405162000518949392919062001987565b60405180910390a1505050565b600160009054906101000a900473ffffffffffffffffffffffffffffffffffffffff1673ffffffffffffffffffffffffffffffffffffffff163373ffffffffffffffffffffffffffffffffffffffff1614620005b8576040517f08c379a0000000000000000000000000000000000000000000000000000000008152600401620005af9062001a24565b60405180910390fd5b80600260006101000a81548173ffffffffffffffffffffffffffffffffffffffff021916908373ffffffffffffffffffffffffffffffffffffffff16021790555050565b600160009054906101000a900473ffffffffffffffffffffffffffffffffffffffff1673ffffffffffffffffffffffffffffffffffffffff163373ffffffffffffffffffffffffffffffffffffffff16146200068f576040517f08c379a0000000000000000000000000000000000000000000000000000000008152600401620006869062001a24565b60405180910390fd5b806004819055506001600560006101000a81548160ff02191690831515021790555050565b600160009054906101000a900473ffffffffffffffffffffffffffffffffffffffff1681565b600073ffffffffffffffffffffffffffffffffffffffff16600660003373ffffffffffffffffffffffffffffffffffffffff1673ffffffffffffffffffffffffffffffffffffffff16815260200190815260200160002060009054906101000a900473ffffffffffffffffffffffffffffffffffffffff1673ffffffffffffffffffffffffffffffffffffffff1614620007ab576040517f08c379a0000000000000000000000000000000000000000000000000000000008152600401620007a29062001918565b60405180910390fd5b6000600360009054906101000a900473ffffffffffffffffffffffffffffffffffffffff1673ffffffffffffffffffffffffffffffffffffffff1663bd22629284846040518363ffffffff1660e01b81526004016200080c92919062001a46565b602060405180830381600087803b1580156200082757600080fd5b505af11580156200083c573d6000803e3d6000fd5b505050506040513d601f19601f8201168201806040525081019062000862919062001a8a565b905080600660003373ffffffffffffffffffffffffffffffffffffffff1673ffffffffffffffffffffffffffffffffffffffff16815260200190815260200160002060006101000a81548173ffffffffffffffffffffffffffffffffffffffff021916908373ffffffffffffffffffffffffffffffffffffffff1602179055507f63525507ae06268d2c3cb72b565afcee4097d00187f87cd6ee5ceadaf54063a73382428660405162000919949392919062001987565b60405180910390a1505050565b6000600267ffffffffffffffff8111156200094657620009456200170a565b5b604051908082528060200260200182016040528015620009755781602001602082028036833780820191505090505b509050848160008151811062000990576200098f62001abc565b5b6020026020010181815250508381600181518110620009b457620009b362001abc565b5b60200260200101818152505060011515600560009054906101000a900460ff16151514620009e757620009e662001aeb565b5b60008054906101000a900473ffffffffffffffffffffffffffffffffffffffff1673ffffffffffffffffffffffffffffffffffffffff16632c9dd5c0600454836040518363ffffffff1660e01b815260040162000a4692919062001be8565b602060405180830381600087803b15801562000a6157600080fd5b505af115801562000a76573d6000803e3d6000fd5b505050506040513d601f19601f8201168201806040525081019062000a9c919062001c57565b5060008590506000600660008373ffffffffffffffffffffffffffffffffffffffff1673ffffffffffffffffffffffffffffffffffffffff16815260200190815260200160002060009054906101000a900473ffffffffffffffffffffffffffffffffffffffff1690508073ffffffffffffffffffffffffffffffffffffffff1663477ff009878787336040518563ffffffff1660e01b815260040162000b47949392919062001ccd565b600060405180830381600087803b15801562000b6257600080fd5b505af115801562000b77573d6000803e3d6000fd5b5050505050505050505050565b60066020528060005260406000206000915054906101000a900473ffffffffffffffffffffffffffffffffffffffff1681565b6000600267ffffffffffffffff81111562000bd75762000bd66200170a565b5b60405190808252806020026020018201604052801562000c065781602001602082028036833780820191505090505b509050828160008151811062000c215762000c2062001abc565b5b602002602001018181525050818160018151811062000c455762000c4462001abc565b5b60200260200101818152505060011515600560009054906101000a900460ff1615151462000c785762000c7762001aeb565b5b60008054906101000a900473ffffffffffffffffffffffffffffffffffffffff1673ffffffffffffffffffffffffffffffffffffffff16632c9dd5c0600454836040518363ffffffff1660e01b815260040162000cd792919062001be8565b602060405180830381600087803b15801562000cf257600080fd5b505af115801562000d07573d6000803e3d6000fd5b505050506040513d601f19601f8201168201806040525081019062000d2d919062001c57565b5060008390506000600660008373ffffffffffffffffffffffffffffffffffffffff1673ffffffffffffffffffffffffffffffffffffffff16815260200190815260200160002060009054906101000a900473ffffffffffffffffffffffffffffffffffffffff1690508073ffffffffffffffffffffffffffffffffffffffff16636af39aa3856040518263ffffffff1660e01b815260040162000dd291906200137e565b600060405180830381600087803b15801562000ded57600080fd5b505af115801562000e02573d6000803e3d6000fd5b505050505050505050565b6000600660003373ffffffffffffffffffffffffffffffffffffffff1673ffffffffffffffffffffffffffffffffffffffff16815260200190815260200160002060009054906101000a900473ffffffffffffffffffffffffffffffffffffffff169050600073ffffffffffffffffffffffffffffffffffffffff168173ffffffffffffffffffffffffffffffffffffffff16141562000ee4576040517f08c379a000000000000000000000000000000000000000000000000000000000815260040162000edb9062001d63565b60405180910390fd5b600660003373ffffffffffffffffffffffffffffffffffffffff1673ffffffffffffffffffffffffffffffffffffffff16815260200190815260200160002060006101000a81549073ffffffffffffffffffffffffffffffffffffffff02191690557f2d712e362287dcff413ca2eff844e039531b6bcbcca75c84b549478114d1b8f033824260405162000f7b9392919062001d85565b60405180910390a150565b600560009054906101000a900460ff1681565b6000600660003373ffffffffffffffffffffffffffffffffffffffff1673ffffffffffffffffffffffffffffffffffffffff16815260200190815260200160002060009054906101000a900473ffffffffffffffffffffffffffffffffffffffff169050600073ffffffffffffffffffffffffffffffffffffffff168173ffffffffffffffffffffffffffffffffffffffff16141562001070576040517f08c379a0000000000000000000000000000000000000000000000000000000008152600401620010679062001e12565b60405180910390fd5b8073ffffffffffffffffffffffffffffffffffffffff1663a31fca30858533866040518563ffffffff1660e01b8152600401620010b1949392919062001f09565b600060405180830381600087803b158015620010cc57600080fd5b505af1158015620010e1573d6000803e3d6000fd5b5050505050505050565b600073ffffffffffffffffffffffffffffffffffffffff16600660003373ffffffffffffffffffffffffffffffffffffffff1673ffffffffffffffffffffffffffffffffffffffff16815260200190815260200160002060009054906101000a900473ffffffffffffffffffffffffffffffffffffffff1673ffffffffffffffffffffffffffffffffffffffff1614620011bc576040517f08c379a0000000000000000000000000000000000000000000000000000000008152600401620011b39062001918565b60405180910390fd5b6000600260009054906101000a900473ffffffffffffffffffffffffffffffffffffffff1683333085604051620011f390620012f3565b6200120395949392919062001fd1565b604051809103906000f08015801562001220573d6000803e3d6000fd5b50905080600660003373ffffffffffffffffffffffffffffffffffffffff1673ffffffffffffffffffffffffffffffffffffffff16815260200190815260200160002060006101000a81548173ffffffffffffffffffffffffffffffffffffffff021916908373ffffffffffffffffffffffffffffffffffffffff1602179055507f63525507ae06268d2c3cb72b565afcee4097d00187f87cd6ee5ceadaf54063a733824286604051620012d8949392919062001987565b60405180910390a1505050565b610f38806200203683390190565b6113fe8062002f6e83390190565b600073ffffffffffffffffffffffffffffffffffffffff82169050919050565b60006200132e8262001301565b9050919050565b620013408162001321565b82525050565b60006020820190506200135d600083018462001335565b92915050565b6000819050919050565b620013788162001363565b82525050565b60006020820190506200139560008301846200136d565b92915050565b6000604051905090565b600080fd5b600080fd5b620013ba8162001321565b8114620013c657600080fd5b50565b600081359050620013da81620013af565b92915050565b620013eb8162001363565b8114620013f757600080fd5b50565b6000813590506200140b81620013e0565b92915050565b600080604083850312156200142b576200142a620013a5565b5b60006200143b85828601620013c9565b92505060206200144e85828601620013fa565b9150509250929050565b600060208284031215620014715762001470620013a5565b5b60006200148184828501620013c9565b91505092915050565b600060208284031215620014a357620014a2620013a5565b5b6000620014b384828501620013fa565b91505092915050565b60008060408385031215620014d657620014d5620013a5565b5b6000620014e685828601620013fa565b9250506020620014f985828601620013fa565b9150509250929050565b600080fd5b600080fd5b600080fd5b60008083601f8401126200152b576200152a62001503565b5b8235905067ffffffffffffffff8111156200154b576200154a62001508565b5b6020830191508360018202830111156200156a57620015696200150d565b5b9250929050565b600080600080606085870312156200158e576200158d620013a5565b5b60006200159e87828801620013fa565b9450506020620015b187828801620013fa565b935050604085013567ffffffffffffffff811115620015d557620015d4620013aa565b5b620015e38782880162001512565b925092505092959194509250565b60008115159050919050565b6200160881620015f1565b82525050565b6000602082019050620016256000830184620015fd565b92915050565b60008083601f84011262001644576200164362001503565b5b8235905067ffffffffffffffff81111562001664576200166362001508565b5b6020830191508360208202830111156200168357620016826200150d565b5b9250929050565b600080600060408486031215620016a657620016a5620013a5565b5b600084013567ffffffffffffffff811115620016c757620016c6620013aa565b5b620016d5868287016200162b565b93509350506020620016ea86828701620013c9565b9150509250925092565b600080fd5b6000601f19601f8301169050919050565b7f4e487b7100000000000000000000000000000000000000000000000000000000600052604160045260246000fd5b6200174482620016f9565b810181811067ffffffffffffffff821117156200176657620017656200170a565b5b80604052505050565b60006200177b6200139b565b905062001789828262001739565b919050565b600067ffffffffffffffff821115620017ac57620017ab6200170a565b5b620017b782620016f9565b9050602081019050919050565b82818337600083830152505050565b6000620017ea620017e4846200178e565b6200176f565b905082815260208101848484011115620018095762001808620016f4565b5b62001816848285620017c4565b509392505050565b600082601f83011262001836576200183562001503565b5b813562001848848260208601620017d3565b91505092915050565b600080604083850312156200186b576200186a620013a5565b5b60006200187b85828601620013fa565b925050602083013567ffffffffffffffff8111156200189f576200189e620013aa565b5b620018ad858286016200181e565b9150509250929050565b600082825260208201905092915050565b7f5265636f7665727920616c726561647920657869737473000000000000000000600082015250565b600062001900601783620018b7565b91506200190d82620018c8565b602082019050919050565b600060208201905081810360008301526200193381620018f1565b9050919050565b600060808201905062001951600083018762001335565b6200196060208301866200136d565b6200196f604083018562001335565b6200197e606083018462001335565b95945050505050565b60006080820190506200199e600083018762001335565b620019ad602083018662001335565b620019bc60408301856200136d565b620019cb60608301846200136d565b95945050505050565b7f4f6e6c79206f776e657200000000000000000000000000000000000000000000600082015250565b600062001a0c600a83620018b7565b915062001a1982620019d4565b602082019050919050565b6000602082019050818103600083015262001a3f81620019fd565b9050919050565b600060408201905062001a5d60008301856200136d565b62001a6c60208301846200136d565b9392505050565b60008151905062001a8481620013af565b92915050565b60006020828403121562001aa35762001aa2620013a5565b5b600062001ab38482850162001a73565b91505092915050565b7f4e487b7100000000000000000000000000000000000000000000000000000000600052603260045260246000fd5b7f4e487b7100000000000000000000000000000000000000000000000000000000600052600160045260246000fd5b600081519050919050565b600082825260208201905092915050565b6000819050602082019050919050565b62001b518162001363565b82525050565b600062001b65838362001b46565b60208301905092915050565b6000602082019050919050565b600062001b8b8262001b1a565b62001b97818562001b25565b935062001ba48362001b36565b8060005b8381101562001bdb57815162001bbf888262001b57565b975062001bcc8362001b71565b92505060018101905062001ba8565b5085935050505092915050565b600060408201905062001bff60008301856200136d565b818103602083015262001c13818462001b7e565b90509392505050565b6000819050919050565b62001c318162001c1c565b811462001c3d57600080fd5b50565b60008151905062001c518162001c26565b92915050565b60006020828403121562001c705762001c6f620013a5565b5b600062001c808482850162001c40565b91505092915050565b600082825260208201905092915050565b600062001ca8838562001c89565b935062001cb7838584620017c4565b62001cc283620016f9565b840190509392505050565b600060608201905062001ce460008301876200136d565b818103602083015262001cf981858762001c9a565b905062001d0a604083018462001335565b95945050505050565b7f4e6f206578697374696e67207265636f76657279000000000000000000000000600082015250565b600062001d4b601483620018b7565b915062001d588262001d13565b602082019050919050565b6000602082019050818103600083015262001d7e8162001d3c565b9050919050565b600060608201905062001d9c600083018662001335565b62001dab602083018562001335565b62001dba60408301846200136d565b949350505050565b7f5265636f7665727920646f65736e277420657869737400000000000000000000600082015250565b600062001dfa601683620018b7565b915062001e078262001dc2565b602082019050919050565b6000602082019050818103600083015262001e2d8162001deb565b9050919050565b600082825260208201905092915050565b6000819050919050565b62001e5a8162001321565b82525050565b600062001e6e838362001e4f565b60208301905092915050565b600062001e8b6020840184620013c9565b905092915050565b6000602082019050919050565b600062001eae838562001e34565b935062001ebb8262001e45565b8060005b8581101562001efc5762001ed4828462001e7a565b62001ee0888262001e60565b975062001eed8362001e93565b92505060018101905062001ebf565b5085925050509392505050565b6000606082019050818103600083015262001f2681868862001ea0565b905062001f37602083018562001335565b62001f46604083018462001335565b95945050505050565b600081519050919050565b60005b8381101562001f7a57808201518184015260208101905062001f5d565b8381111562001f8a576000848401525b50505050565b600062001f9d8262001f4f565b62001fa98185620018b7565b935062001fbb81856020860162001f5a565b62001fc681620016f9565b840191505092915050565b600060a08201905062001fe8600083018862001335565b62001ff760208301876200136d565b62002006604083018662001335565b62002015606083018562001335565b818103608083015262002029818462001f90565b9050969550505050505056fe60806040523480156200001157600080fd5b5060405162000f3838038062000f388339818101604052810190620000379190620001af565b836000806101000a81548173ffffffffffffffffffffffffffffffffffffffff021916908373ffffffffffffffffffffffffffffffffffffffff16021790555080600160006101000a81548173ffffffffffffffffffffffffffffffffffffffff021916908373ffffffffffffffffffffffffffffffffffffffff1602179055508260038190555081600260006101000a81548173ffffffffffffffffffffffffffffffffffffffff021916908373ffffffffffffffffffffffffffffffffffffffff1602179055505050505062000221565b600080fd5b600073ffffffffffffffffffffffffffffffffffffffff82169050919050565b60006200013c826200010f565b9050919050565b6200014e816200012f565b81146200015a57600080fd5b50565b6000815190506200016e8162000143565b92915050565b6000819050919050565b620001898162000174565b81146200019557600080fd5b50565b600081519050620001a9816200017e565b92915050565b60008060008060808587031215620001cc57620001cb6200010a565b5b6000620001dc878288016200015d565b9450506020620001ef8782880162000198565b935050604062000202878288016200015d565b925050606062000215878288016200015d565b91505092959194509250565b610d0780620002316000396000f3fe608060405234801561001057600080fd5b506004361061007d5760003560e01c80637dc5186f1161005b5780637dc5186f146100da578063a31fca30146100f8578063eb0cde1d14610114578063ff21d1e5146101325761007d565b806322f3e2d41461008257806366d003ac146100a05780636af39aa3146100be575b600080fd5b61008a610150565b60405161009791906106c2565b60405180910390f35b6100a8610163565b6040516100b5919061071e565b60405180910390f35b6100d860048036038101906100d39190610779565b610187565b005b6100e2610325565b6040516100ef919061071e565b60405180910390f35b610112600480360381019061010d9190610837565b61034b565b005b61011c61067b565b604051610129919061071e565b60405180910390f35b61013a6106a1565b60405161014791906108ba565b60405180910390f35b600460009054906101000a900460ff1681565b60008054906101000a900473ffffffffffffffffffffffffffffffffffffffff1681565b600260009054906101000a900473ffffffffffffffffffffffffffffffffffffffff1673ffffffffffffffffffffffffffffffffffffffff163373ffffffffffffffffffffffffffffffffffffffff1614610217576040517f08c379a000000000000000000000000000000000000000000000000000000000815260040161020e90610932565b60405180910390fd5b600460009054906101000a900460ff1615610267576040517f08c379a000000000000000000000000000000000000000000000000000000000815260040161025e9061099e565b60405180910390fd5b6003548110156102ac576040517f08c379a00000000000000000000000000000000000000000000000000000000081526004016102a390610a0a565b60405180910390fd5b6001600460006101000a81548160ff0219169083151502179055507f8c0f791a552520d7b652c7f008af155a562ee6e9ce409bf539fbe0c18eef91603060008054906101000a900473ffffffffffffffffffffffffffffffffffffffff164260405161031a93929190610a2a565b60405180910390a150565b600160009054906101000a900473ffffffffffffffffffffffffffffffffffffffff1681565b600260009054906101000a900473ffffffffffffffffffffffffffffffffffffffff1673ffffffffffffffffffffffffffffffffffffffff163373ffffffffffffffffffffffffffffffffffffffff16146103db576040517f08c379a00000000000000000000000000000000000000000000000000000000081526004016103d290610932565b60405180910390fd5b60008054906101000a900473ffffffffffffffffffffffffffffffffffffffff1673ffffffffffffffffffffffffffffffffffffffff168273ffffffffffffffffffffffffffffffffffffffff1614610469576040517f08c379a000000000000000000000000000000000000000000000000000000000815260040161046090610aad565b60405180910390fd5b600460009054906101000a900460ff166104b8576040517f08c379a00000000000000000000000000000000000000000000000000000000081526004016104af90610b19565b60405180910390fd5b60005b848490508110156106745760008585838181106104db576104da610b39565b5b90506020020160208101906104f09190610b68565b905060008173ffffffffffffffffffffffffffffffffffffffff1663dd62ed3e600160009054906101000a900473ffffffffffffffffffffffffffffffffffffffff16306040518363ffffffff1660e01b8152600401610551929190610b95565b60206040518083038186803b15801561056957600080fd5b505afa15801561057d573d6000803e3d6000fd5b505050506040513d601f19601f820116820180604052508101906105a19190610bd3565b9050600081111561065f578173ffffffffffffffffffffffffffffffffffffffff166323b872dd600160009054906101000a900473ffffffffffffffffffffffffffffffffffffffff1686846040518463ffffffff1660e01b815260040161060b93929190610a2a565b602060405180830381600087803b15801561062557600080fd5b505af1158015610639573d6000803e3d6000fd5b505050506040513d601f19601f8201168201806040525081019061065d9190610c2c565b505b5050808061066c90610c88565b9150506104bb565b5050505050565b600260009054906101000a900473ffffffffffffffffffffffffffffffffffffffff1681565b60035481565b60008115159050919050565b6106bc816106a7565b82525050565b60006020820190506106d760008301846106b3565b92915050565b600073ffffffffffffffffffffffffffffffffffffffff82169050919050565b6000610708826106dd565b9050919050565b610718816106fd565b82525050565b6000602082019050610733600083018461070f565b92915050565b600080fd5b600080fd5b6000819050919050565b61075681610743565b811461076157600080fd5b50565b6000813590506107738161074d565b92915050565b60006020828403121561078f5761078e610739565b5b600061079d84828501610764565b91505092915050565b600080fd5b600080fd5b600080fd5b60008083601f8401126107cb576107ca6107a6565b5b8235905067ffffffffffffffff8111156107e8576107e76107ab565b5b602083019150836020820283011115610804576108036107b0565b5b9250929050565b610814816106fd565b811461081f57600080fd5b50565b6000813590506108318161080b565b92915050565b6000806000806060858703121561085157610850610739565b5b600085013567ffffffffffffffff81111561086f5761086e61073e565b5b61087b878288016107b5565b9450945050602061088e87828801610822565b925050604061089f87828801610822565b91505092959194509250565b6108b481610743565b82525050565b60006020820190506108cf60008301846108ab565b92915050565b600082825260208201905092915050565b7f4e6f742067617465776179000000000000000000000000000000000000000000600082015250565b600061091c600b836108d5565b9150610927826108e6565b602082019050919050565b6000602082019050818103600083015261094b8161090f565b9050919050565b7f416c726561647920616374697665000000000000000000000000000000000000600082015250565b6000610988600e836108d5565b915061099382610952565b602082019050919050565b600060208201905081810360008301526109b78161097b565b9050919050565b7f496e616374697669747920746f6f2073686f7274000000000000000000000000600082015250565b60006109f46014836108d5565b91506109ff826109be565b602082019050919050565b60006020820190508181036000830152610a23816109e7565b9050919050565b6000606082019050610a3f600083018661070f565b610a4c602083018561070f565b610a5960408301846108ab565b949350505050565b7f4f6e6c7920726563697069656e74000000000000000000000000000000000000600082015250565b6000610a97600e836108d5565b9150610aa282610a61565b602082019050919050565b60006020820190508181036000830152610ac681610a8a565b9050919050565b7f4e6f742061637469766500000000000000000000000000000000000000000000600082015250565b6000610b03600a836108d5565b9150610b0e82610acd565b602082019050919050565b60006020820190508181036000830152610b3281610af6565b9050919050565b7f4e487b7100000000000000000000000000000000000000000000000000000000600052603260045260246000fd5b600060208284031215610b7e57610b7d610739565b5b6000610b8c84828501610822565b91505092915050565b6000604082019050610baa600083018561070f565b610bb7602083018461070f565b9392505050565b600081519050610bcd8161074d565b92915050565b600060208284031215610be957610be8610739565b5b6000610bf784828501610bbe565b91505092915050565b610c09816106a7565b8114610c1457600080fd5b50565b600081519050610c2681610c00565b92915050565b600060208284031215610c4257610c41610739565b5b6000610c5084828501610c17565b91505092915050565b7f4e487b7100000000000000000000000000000000000000000000000000000000600052601160045260246000fd5b6000610c9382610743565b91507fffffffffffffffffffffffffffffffffffffffffffffffffffffffffffffffff821415610cc657610cc5610c59565b5b60018201905091905056fea26469706673582212201666eae5fd494e5193ac4e3d9ad0cbf5b4078845bf4fd86fa214b5457680add064736f6c6343000809003360806040523480156200001157600080fd5b50604051620013fe380380620013fe833981810160405281019062000037919062000419565b84848484836000806101000a81548173ffffffffffffffffffffffffffffffffffffffff021916908373ffffffffffffffffffffffffffffffffffffffff16021790555080600160006101000a81548173ffffffffffffffffffffffffffffffffffffffff021916908373ffffffffffffffffffffffffffffffffffffffff1602179055508260038190555081600260006101000a81548173ffffffffffffffffffffffffffffffffffffffff021916908373ffffffffffffffffffffffffffffffffffffffff160217905550505050508060059080519060200190620001209291906200012c565b50505050505062000525565b8280546200013a90620004ef565b90600052602060002090601f0160209004810192826200015e5760008555620001aa565b82601f106200017957805160ff1916838001178555620001aa565b82800160010185558215620001aa579182015b82811115620001a95782518255916020019190600101906200018c565b5b509050620001b99190620001bd565b5090565b5b80821115620001d8576000816000905550600101620001be565b5090565b6000604051905090565b600080fd5b600080fd5b600073ffffffffffffffffffffffffffffffffffffffff82169050919050565b60006200021d82620001f0565b9050919050565b6200022f8162000210565b81146200023b57600080fd5b50565b6000815190506200024f8162000224565b92915050565b6000819050919050565b6200026a8162000255565b81146200027657600080fd5b50565b6000815190506200028a816200025f565b92915050565b600080fd5b600080fd5b6000601f19601f8301169050919050565b7f4e487b7100000000000000000000000000000000000000000000000000000000600052604160045260246000fd5b620002e5826200029a565b810181811067ffffffffffffffff82111715620003075762000306620002ab565b5b80604052505050565b60006200031c620001dc565b90506200032a8282620002da565b919050565b600067ffffffffffffffff8211156200034d576200034c620002ab565b5b62000358826200029a565b9050602081019050919050565b60005b838110156200038557808201518184015260208101905062000368565b8381111562000395576000848401525b50505050565b6000620003b2620003ac846200032f565b62000310565b905082815260208101848484011115620003d157620003d062000295565b5b620003de84828562000365565b509392505050565b600082601f830112620003fe57620003fd62000290565b5b8151620004108482602086016200039b565b91505092915050565b600080600080600060a08688031215620004385762000437620001e6565b5b600062000448888289016200023e565b95505060206200045b8882890162000279565b94505060406200046e888289016200023e565b935050606062000481888289016200023e565b925050608086015167ffffffffffffffff811115620004a557620004a4620001eb565b5b620004b388828901620003e6565b9150509295509295909350565b7f4e487b7100000000000000000000000000000000000000000000000000000000600052602260045260246000fd5b600060028204905060018216806200050857607f821691505b602082108114156200051f576200051e620004c0565b5b50919050565b610ec980620005356000396000f3fe608060405234801561001057600080fd5b50600436106100885760003560e01c8063a31fca301161005b578063a31fca3014610103578063b294f9491461011f578063eb0cde1d1461013d578063ff21d1e51461015b57610088565b806322f3e2d41461008d57806366d003ac146100ab5780636af39aa3146100c95780637dc5186f146100e5575b600080fd5b610095610179565b6040516100a29190610779565b60405180910390f35b6100b361018c565b6040516100c091906107d5565b60405180910390f35b6100e360048036038101906100de9190610830565b6101b0565b005b6100ed61034e565b6040516100fa91906107d5565b60405180910390f35b61011d600480360381019061011891906108ee565b610374565b005b6101276106a4565b60405161013491906109fb565b60405180910390f35b610145610732565b60405161015291906107d5565b60405180910390f35b610163610758565b6040516101709190610a2c565b60405180910390f35b600460009054906101000a900460ff1681565b60008054906101000a900473ffffffffffffffffffffffffffffffffffffffff1681565b600260009054906101000a900473ffffffffffffffffffffffffffffffffffffffff1673ffffffffffffffffffffffffffffffffffffffff163373ffffffffffffffffffffffffffffffffffffffff1614610240576040517f08c379a000000000000000000000000000000000000000000000000000000000815260040161023790610a93565b60405180910390fd5b600460009054906101000a900460ff1615610290576040517f08c379a000000000000000000000000000000000000000000000000000000000815260040161028790610aff565b60405180910390fd5b6003548110156102d5576040517f08c379a00000000000000000000000000000000000000000000000000000000081526004016102cc90610b6b565b60405180910390fd5b6001600460006101000a81548160ff0219169083151502179055507f8c0f791a552520d7b652c7f008af155a562ee6e9ce409bf539fbe0c18eef91603060008054906101000a900473ffffffffffffffffffffffffffffffffffffffff164260405161034393929190610b8b565b60405180910390a150565b600160009054906101000a900473ffffffffffffffffffffffffffffffffffffffff1681565b600260009054906101000a900473ffffffffffffffffffffffffffffffffffffffff1673ffffffffffffffffffffffffffffffffffffffff163373ffffffffffffffffffffffffffffffffffffffff1614610404576040517f08c379a00000000000000000000000000000000000000000000000000000000081526004016103fb90610a93565b60405180910390fd5b60008054906101000a900473ffffffffffffffffffffffffffffffffffffffff1673ffffffffffffffffffffffffffffffffffffffff168273ffffffffffffffffffffffffffffffffffffffff1614610492576040517f08c379a000000000000000000000000000000000000000000000000000000000815260040161048990610c0e565b60405180910390fd5b600460009054906101000a900460ff166104e1576040517f08c379a00000000000000000000000000000000000000000000000000000000081526004016104d890610c7a565b60405180910390fd5b60005b8484905081101561069d57600085858381811061050457610503610c9a565b5b90506020020160208101906105199190610cc9565b905060008173ffffffffffffffffffffffffffffffffffffffff1663dd62ed3e600160009054906101000a900473ffffffffffffffffffffffffffffffffffffffff16306040518363ffffffff1660e01b815260040161057a929190610cf6565b60206040518083038186803b15801561059257600080fd5b505afa1580156105a6573d6000803e3d6000fd5b505050506040513d601f19601f820116820180604052508101906105ca9190610d34565b90506000811115610688578173ffffffffffffffffffffffffffffffffffffffff166323b872dd600160009054906101000a900473ffffffffffffffffffffffffffffffffffffffff1686846040518463ffffffff1660e01b815260040161063493929190610b8b565b602060405180830381600087803b15801561064e57600080fd5b505af1158015610662573d6000803e3d6000fd5b505050506040513d601f19601f820116820180604052508101906106869190610d8d565b505b5050808061069590610de9565b9150506104e4565b5050505050565b600580546106b190610e61565b80601f01602080910402602001604051908101604052809291908181526020018280546106dd90610e61565b801561072a5780601f106106ff5761010080835404028352916020019161072a565b820191906000526020600020905b81548152906001019060200180831161070d57829003601f168201915b505050505081565b600260009054906101000a900473ffffffffffffffffffffffffffffffffffffffff1681565b60035481565b60008115159050919050565b6107738161075e565b82525050565b600060208201905061078e600083018461076a565b92915050565b600073ffffffffffffffffffffffffffffffffffffffff82169050919050565b60006107bf82610794565b9050919050565b6107cf816107b4565b82525050565b60006020820190506107ea60008301846107c6565b92915050565b600080fd5b600080fd5b6000819050919050565b61080d816107fa565b811461081857600080fd5b50565b60008135905061082a81610804565b92915050565b600060208284031215610846576108456107f0565b5b60006108548482850161081b565b91505092915050565b600080fd5b600080fd5b600080fd5b60008083601f8401126108825761088161085d565b5b8235905067ffffffffffffffff81111561089f5761089e610862565b5b6020830191508360208202830111156108bb576108ba610867565b5b9250929050565b6108cb816107b4565b81146108d657600080fd5b50565b6000813590506108e8816108c2565b92915050565b60008060008060608587031215610908576109076107f0565b5b600085013567ffffffffffffffff811115610926576109256107f5565b5b6109328782880161086c565b94509450506020610945878288016108d9565b9250506040610956878288016108d9565b91505092959194509250565b600081519050919050565b600082825260208201905092915050565b60005b8381101561099c578082015181840152602081019050610981565b838111156109ab576000848401525b50505050565b6000601f19601f8301169050919050565b60006109cd82610962565b6109d7818561096d565b93506109e781856020860161097e565b6109f0816109b1565b840191505092915050565b60006020820190508181036000830152610a1581846109c2565b905092915050565b610a26816107fa565b82525050565b6000602082019050610a416000830184610a1d565b92915050565b7f4e6f742067617465776179000000000000000000000000000000000000000000600082015250565b6000610a7d600b8361096d565b9150610a8882610a47565b602082019050919050565b60006020820190508181036000830152610aac81610a70565b9050919050565b7f416c726561647920616374697665000000000000000000000000000000000000600082015250565b6000610ae9600e8361096d565b9150610af482610ab3565b602082019050919050565b60006020820190508181036000830152610b1881610adc565b9050919050565b7f496e616374697669747920746f6f2073686f7274000000000000000000000000600082015250565b6000610b5560148361096d565b9150610b6082610b1f565b602082019050919050565b60006020820190508181036000830152610b8481610b48565b9050919050565b6000606082019050610ba060008301866107c6565b610bad60208301856107c6565b610bba6040830184610a1d565b949350505050565b7f4f6e6c7920726563697069656e74000000000000000000000000000000000000600082015250565b6000610bf8600e8361096d565b9150610c0382610bc2565b602082019050919050565b60006020820190508181036000830152610c2781610beb565b9050919050565b7f4e6f742061637469766500000000000000000000000000000000000000000000600082015250565b6000610c64600a8361096d565b9150610c6f82610c2e565b602082019050919050565b60006020820190508181036000830152610c9381610c57565b9050919050565b7f4e487b7100000000000000000000000000000000000000000000000000000000600052603260045260246000fd5b600060208284031215610cdf57610cde6107f0565b5b6000610ced848285016108d9565b91505092915050565b6000604082019050610d0b60008301856107c6565b610d1860208301846107c6565b9392505050565b600081519050610d2e81610804565b92915050565b600060208284031215610d4a57610d496107f0565b5b6000610d5884828501610d1f565b91505092915050565b610d6a8161075e565b8114610d7557600080fd5b50565b600081519050610d8781610d61565b92915050565b600060208284031215610da357610da26107f0565b5b6000610db184828501610d78565b91505092915050565b7f4e487b7100000000000000000000000000000000000000000000000000000000600052601160045260246000fd5b6000610df4826107fa565b91507fffffffffffffffffffffffffffffffffffffffffffffffffffffffffffffffff821415610e2757610e26610dba565b5b600182019050919050565b7f4e487b7100000000000000000000000000000000000000000000000000000000600052602260045260246000fd5b60006002820490506001821680610e7957607f821691505b60208210811415610e8d57610e8c610e32565b5b5091905056fea26469706673582212207284c247d73df52a53972010dd49251a62996ad3df34e6b12ac8f1ee343f6d4864736f6c63430008090033a26469706673582212203d2c8e5910eb1d8b7222f5c86dd8e0132542e503cd2c91c412ad9c48eda3389b64736f6c63430008090033",
  "linkReferences": {},
  "deployedLinkReferences": {}
}