{
  "_format": "hh-sol-artifact-1",
  "contractName": "GatewayContract",
  "sourceName": "contracts/ethereum/GatewayContract.sol",
  "abi": [
    {
      "inputs": [
        {
          "internalType": "contract IStarknetCore",
          "name": "_starknetCore",
          "type": "address"
        },
        {
          "internalType": "address",
          "name": "_trustedAgents",
          "type": "address"
        }
      ],
      "stateMutability": "nonpayable",
      "type": "constructor"
    },
    {
      "anonymous": false,
      "inputs": [
        {
          "indexed": false,
          "internalType": "address",
          "name": "EOA",
          "type": "address"
        },
        {
          "indexed": false,
          "internalType": "address",
          "name": "recoveryContract",
          "type": "address"
        },
        {
          "indexed": false,
          "internalType": "uint256",
          "name": "creationDate",
          "type": "uint256"
        },
        {
          "indexed": false,
          "internalType": "uint256",
          "name": "minBlocks",
          "type": "uint256"
        }
      ],
      "name": "NewRecoveryContract",
      "type": "event"
    },
    {
      "anonymous": false,
      "inputs": [
        {
          "indexed": false,
          "internalType": "address",
          "name": "EOA",
          "type": "address"
        },
        {
          "indexed": false,
          "internalType": "address",
          "name": "recoveryContract",
          "type": "address"
        },
        {
          "indexed": false,
          "internalType": "uint256",
          "name": "terminationDatee",
          "type": "uint256"
        }
      ],
      "name": "TerminateRecoveryContract",
      "type": "event"
    },
    {
      "inputs": [
        {
          "internalType": "address",
          "name": "recipient",
          "type": "address"
        },
        {
          "internalType": "uint256",
          "name": "minBlocks",
          "type": "uint256"
        }
      ],
      "name": "deployRecoveryContract",
      "outputs": [],
      "stateMutability": "nonpayable",
      "type": "function"
    },
    {
      "inputs": [
        {
          "internalType": "uint256",
          "name": "minBlocks",
          "type": "uint256"
        },
        {
          "internalType": "uint256",
          "name": "_hashedPassword",
          "type": "uint256"
        }
      ],
      "name": "deployRecoveryContractZk",
      "outputs": [],
      "stateMutability": "nonpayable",
      "type": "function"
    },
    {
      "inputs": [
        {
          "internalType": "address",
          "name": "",
          "type": "address"
        }
      ],
      "name": "eoaToRecoveryContract",
      "outputs": [
        {
          "internalType": "address",
          "name": "",
          "type": "address"
        }
      ],
      "stateMutability": "view",
      "type": "function"
    },
    {
      "inputs": [],
      "name": "l2StorageProverAddress",
      "outputs": [
        {
          "internalType": "uint256",
          "name": "",
          "type": "uint256"
        }
      ],
      "stateMutability": "view",
      "type": "function"
    },
    {
      "inputs": [],
      "name": "owner",
      "outputs": [
        {
          "internalType": "address",
          "name": "",
          "type": "address"
        }
      ],
      "stateMutability": "view",
      "type": "function"
    },
    {
      "inputs": [],
      "name": "proverAddressIsSet",
      "outputs": [
        {
          "internalType": "bool",
          "name": "",
          "type": "bool"
        }
      ],
      "stateMutability": "view",
      "type": "function"
    },
    {
      "inputs": [
        {
          "internalType": "uint256",
          "name": "userAddress",
          "type": "uint256"
        },
        {
          "internalType": "uint256",
          "name": "blocks",
          "type": "uint256"
        }
      ],
      "name": "receiveFromStorageProver",
      "outputs": [],
      "stateMutability": "nonpayable",
      "type": "function"
    },
    {
      "inputs": [
        {
          "internalType": "uint256",
          "name": "userAddress",
          "type": "uint256"
        },
        {
          "internalType": "uint256",
          "name": "blocks",
          "type": "uint256"
        },
        {
          "internalType": "bytes",
          "name": "proof",
          "type": "bytes"
        }
      ],
      "name": "receiveFromStorageProverZkProof",
      "outputs": [],
      "stateMutability": "nonpayable",
      "type": "function"
    },
    {
      "inputs": [
        {
          "internalType": "uint256",
          "name": "_l2StorageProverAddress",
          "type": "uint256"
        }
      ],
      "name": "setProverAddress",
      "outputs": [],
      "stateMutability": "nonpayable",
      "type": "function"
    },
    {
      "inputs": [],
      "name": "terminateRecoveryContract",
      "outputs": [],
      "stateMutability": "nonpayable",
      "type": "function"
    },
    {
      "inputs": [],
      "name": "trustedAgents",
      "outputs": [
        {
          "internalType": "address",
          "name": "",
          "type": "address"
        }
      ],
      "stateMutability": "view",
      "type": "function"
    },
    {
      "inputs": [
        {
          "internalType": "address",
          "name": "_trustedAgents",
          "type": "address"
        }
      ],
      "name": "updateTrustedAgents",
      "outputs": [],
      "stateMutability": "nonpayable",
      "type": "function"
    }
  ],
  "bytecode": "0x60806040526000600460006101000a81548160ff0219169083151502179055503480156200002c57600080fd5b5060405162005fa438038062005fa48339818101604052810190620000529190620001cb565b816000806101000a81548173ffffffffffffffffffffffffffffffffffffffff021916908373ffffffffffffffffffffffffffffffffffffffff16021790555033600160006101000a81548173ffffffffffffffffffffffffffffffffffffffff021916908373ffffffffffffffffffffffffffffffffffffffff16021790555080600260006101000a81548173ffffffffffffffffffffffffffffffffffffffff021916908373ffffffffffffffffffffffffffffffffffffffff160217905550505062000212565b600080fd5b600073ffffffffffffffffffffffffffffffffffffffff82169050919050565b60006200014e8262000121565b9050919050565b6000620001628262000141565b9050919050565b620001748162000155565b81146200018057600080fd5b50565b600081519050620001948162000169565b92915050565b620001a58162000141565b8114620001b157600080fd5b50565b600081519050620001c5816200019a565b92915050565b60008060408385031215620001e557620001e46200011c565b5b6000620001f58582860162000183565b92505060206200020885828601620001b4565b9150509250929050565b615d8280620002226000396000f3fe60806040523480156200001157600080fd5b5060043610620000c45760003560e01c8063bd226292116200007b578063bd226292146200018f578063bfe728c014620001af578063c4c251f314620001cf578063dfa089231462000205578063e524979c1462000225578063eb8aef59146200023157620000c4565b806329c877f314620000c957806341e6347e14620000eb57806348ec4c29146200010d57806369a5a51c146200012d5780638c98c516146200014d5780638da5cb5b146200016d575b600080fd5b620000d362000253565b604051620000e2919062000e19565b60405180910390f35b620000f562000259565b60405162000104919062000e7b565b60405180910390f35b6200012b600480360381019062000125919062000f04565b6200027f565b005b6200014b600480360381019062000145919062000f4b565b62000455565b005b6200016b600480360381019062000165919062000f7d565b6200052c565b005b62000177620005e4565b60405162000186919062000e7b565b60405180910390f35b620001ad6004803603810190620001a7919062000faf565b6200060a565b005b620001cd6004803603810190620001c7919062001064565b620007e2565b005b620001ed6004803603810190620001e7919062000f4b565b62000a40565b604051620001fc919062000e7b565b60405180910390f35b6200022360048036038101906200021d919062000faf565b62000a73565b005b6200022f62000cc9565b005b6200023b62000dcf565b6040516200024a919062001101565b60405180910390f35b60035481565b600260009054906101000a900473ffffffffffffffffffffffffffffffffffffffff1681565b600073ffffffffffffffffffffffffffffffffffffffff16600560003373ffffffffffffffffffffffffffffffffffffffff1673ffffffffffffffffffffffffffffffffffffffff16815260200190815260200160002060009054906101000a900473ffffffffffffffffffffffffffffffffffffffff1673ffffffffffffffffffffffffffffffffffffffff161462000350576040517f08c379a000000000000000000000000000000000000000000000000000000000815260040162000347906200117f565b60405180910390fd5b600082823033604051620003649062000de2565b620003739493929190620011a1565b604051809103906000f08015801562000390573d6000803e3d6000fd5b50905080600560003373ffffffffffffffffffffffffffffffffffffffff1673ffffffffffffffffffffffffffffffffffffffff16815260200190815260200160002060006101000a81548173ffffffffffffffffffffffffffffffffffffffff021916908373ffffffffffffffffffffffffffffffffffffffff1602179055507f63525507ae06268d2c3cb72b565afcee4097d00187f87cd6ee5ceadaf54063a733824285604051620004489493929190620011ee565b60405180910390a1505050565b600160009054906101000a900473ffffffffffffffffffffffffffffffffffffffff1673ffffffffffffffffffffffffffffffffffffffff163373ffffffffffffffffffffffffffffffffffffffff1614620004e8576040517f08c379a0000000000000000000000000000000000000000000000000000000008152600401620004df906200128b565b60405180910390fd5b80600260006101000a81548173ffffffffffffffffffffffffffffffffffffffff021916908373ffffffffffffffffffffffffffffffffffffffff16021790555050565b600160009054906101000a900473ffffffffffffffffffffffffffffffffffffffff1673ffffffffffffffffffffffffffffffffffffffff163373ffffffffffffffffffffffffffffffffffffffff1614620005bf576040517f08c379a0000000000000000000000000000000000000000000000000000000008152600401620005b6906200128b565b60405180910390fd5b806003819055506001600460006101000a81548160ff02191690831515021790555050565b600160009054906101000a900473ffffffffffffffffffffffffffffffffffffffff1681565b600073ffffffffffffffffffffffffffffffffffffffff16600560003373ffffffffffffffffffffffffffffffffffffffff1673ffffffffffffffffffffffffffffffffffffffff16815260200190815260200160002060009054906101000a900473ffffffffffffffffffffffffffffffffffffffff1673ffffffffffffffffffffffffffffffffffffffff1614620006db576040517f08c379a0000000000000000000000000000000000000000000000000000000008152600401620006d2906200117f565b60405180910390fd5b60008083333085604051620006f09062000df0565b62000700959493929190620012ad565b604051809103906000f0801580156200071d573d6000803e3d6000fd5b50905080600560003373ffffffffffffffffffffffffffffffffffffffff1673ffffffffffffffffffffffffffffffffffffffff16815260200190815260200160002060006101000a81548173ffffffffffffffffffffffffffffffffffffffff021916908373ffffffffffffffffffffffffffffffffffffffff1602179055507f63525507ae06268d2c3cb72b565afcee4097d00187f87cd6ee5ceadaf54063a733824286604051620007d59493929190620011ee565b60405180910390a1505050565b6000600267ffffffffffffffff8111156200080257620008016200130a565b5b604051908082528060200260200182016040528015620008315781602001602082028036833780820191505090505b50905084816000815181106200084c576200084b62001339565b5b602002602001018181525050838160018151811062000870576200086f62001339565b5b60200260200101818152505060011515600460009054906101000a900460ff16151514620008a357620008a262001368565b5b60008054906101000a900473ffffffffffffffffffffffffffffffffffffffff1673ffffffffffffffffffffffffffffffffffffffff16632c9dd5c0600354836040518363ffffffff1660e01b81526004016200090292919062001465565b602060405180830381600087803b1580156200091d57600080fd5b505af115801562000932573d6000803e3d6000fd5b505050506040513d601f19601f82011682018060405250810190620009589190620014d4565b5060008590506000600560008373ffffffffffffffffffffffffffffffffffffffff1673ffffffffffffffffffffffffffffffffffffffff16815260200190815260200160002060009054906101000a900473ffffffffffffffffffffffffffffffffffffffff1690508073ffffffffffffffffffffffffffffffffffffffff1663477ff009878787336040518563ffffffff1660e01b815260040162000a0394939291906200156a565b600060405180830381600087803b15801562000a1e57600080fd5b505af115801562000a33573d6000803e3d6000fd5b5050505050505050505050565b60056020528060005260406000206000915054906101000a900473ffffffffffffffffffffffffffffffffffffffff1681565b6000600267ffffffffffffffff81111562000a935762000a926200130a565b5b60405190808252806020026020018201604052801562000ac25781602001602082028036833780820191505090505b509050828160008151811062000add5762000adc62001339565b5b602002602001018181525050818160018151811062000b015762000b0062001339565b5b60200260200101818152505060011515600460009054906101000a900460ff1615151462000b345762000b3362001368565b5b60008054906101000a900473ffffffffffffffffffffffffffffffffffffffff1673ffffffffffffffffffffffffffffffffffffffff16632c9dd5c0600354836040518363ffffffff1660e01b815260040162000b9392919062001465565b602060405180830381600087803b15801562000bae57600080fd5b505af115801562000bc3573d6000803e3d6000fd5b505050506040513d601f19601f8201168201806040525081019062000be99190620014d4565b5060008390506000600560008373ffffffffffffffffffffffffffffffffffffffff1673ffffffffffffffffffffffffffffffffffffffff16815260200190815260200160002060009054906101000a900473ffffffffffffffffffffffffffffffffffffffff1690508073ffffffffffffffffffffffffffffffffffffffff16636af39aa3856040518263ffffffff1660e01b815260040162000c8e919062000e19565b600060405180830381600087803b15801562000ca957600080fd5b505af115801562000cbe573d6000803e3d6000fd5b505050505050505050565b6000600560003373ffffffffffffffffffffffffffffffffffffffff1673ffffffffffffffffffffffffffffffffffffffff16815260200190815260200160002060009054906101000a900473ffffffffffffffffffffffffffffffffffffffff1690508073ffffffffffffffffffffffffffffffffffffffff1663e524979c6040518163ffffffff1660e01b8152600401600060405180830381600087803b15801562000d7657600080fd5b505af115801562000d8b573d6000803e3d6000fd5b505050507f2d712e362287dcff413ca2eff844e039531b6bcbcca75c84b549478114d1b8f033824260405162000dc493929190620015b0565b60405180910390a150565b600460009054906101000a900460ff1681565b6110a480620015ee83390190565b6136bb806200269283390190565b6000819050919050565b62000e138162000dfe565b82525050565b600060208201905062000e30600083018462000e08565b92915050565b600073ffffffffffffffffffffffffffffffffffffffff82169050919050565b600062000e638262000e36565b9050919050565b62000e758162000e56565b82525050565b600060208201905062000e92600083018462000e6a565b92915050565b600080fd5b600080fd5b62000ead8162000e56565b811462000eb957600080fd5b50565b60008135905062000ecd8162000ea2565b92915050565b62000ede8162000dfe565b811462000eea57600080fd5b50565b60008135905062000efe8162000ed3565b92915050565b6000806040838503121562000f1e5762000f1d62000e98565b5b600062000f2e8582860162000ebc565b925050602062000f418582860162000eed565b9150509250929050565b60006020828403121562000f645762000f6362000e98565b5b600062000f748482850162000ebc565b91505092915050565b60006020828403121562000f965762000f9562000e98565b5b600062000fa68482850162000eed565b91505092915050565b6000806040838503121562000fc95762000fc862000e98565b5b600062000fd98582860162000eed565b925050602062000fec8582860162000eed565b9150509250929050565b600080fd5b600080fd5b600080fd5b60008083601f8401126200101e576200101d62000ff6565b5b8235905067ffffffffffffffff8111156200103e576200103d62000ffb565b5b6020830191508360018202830111156200105d576200105c62001000565b5b9250929050565b6000806000806060858703121562001081576200108062000e98565b5b6000620010918782880162000eed565b9450506020620010a48782880162000eed565b935050604085013567ffffffffffffffff811115620010c857620010c762000e9d565b5b620010d68782880162001005565b925092505092959194509250565b60008115159050919050565b620010fb81620010e4565b82525050565b6000602082019050620011186000830184620010f0565b92915050565b600082825260208201905092915050565b7f5265636f7665727920636f6e7472616374206578697374730000000000000000600082015250565b6000620011676018836200111e565b915062001174826200112f565b602082019050919050565b600060208201905081810360008301526200119a8162001158565b9050919050565b6000608082019050620011b8600083018762000e6a565b620011c7602083018662000e08565b620011d6604083018562000e6a565b620011e5606083018462000e6a565b95945050505050565b600060808201905062001205600083018762000e6a565b62001214602083018662000e6a565b62001223604083018562000e08565b62001232606083018462000e08565b95945050505050565b7f4f6e6c79206f776e657200000000000000000000000000000000000000000000600082015250565b600062001273600a836200111e565b915062001280826200123b565b602082019050919050565b60006020820190508181036000830152620012a68162001264565b9050919050565b600060a082019050620012c4600083018862000e6a565b620012d3602083018762000e08565b620012e2604083018662000e6a565b620012f1606083018562000e6a565b62001300608083018462000e08565b9695505050505050565b7f4e487b7100000000000000000000000000000000000000000000000000000000600052604160045260246000fd5b7f4e487b7100000000000000000000000000000000000000000000000000000000600052603260045260246000fd5b7f4e487b7100000000000000000000000000000000000000000000000000000000600052600160045260246000fd5b600081519050919050565b600082825260208201905092915050565b6000819050602082019050919050565b620013ce8162000dfe565b82525050565b6000620013e28383620013c3565b60208301905092915050565b6000602082019050919050565b6000620014088262001397565b620014148185620013a2565b93506200142183620013b3565b8060005b83811015620014585781516200143c8882620013d4565b97506200144983620013ee565b92505060018101905062001425565b5085935050505092915050565b60006040820190506200147c600083018562000e08565b8181036020830152620014908184620013fb565b90509392505050565b6000819050919050565b620014ae8162001499565b8114620014ba57600080fd5b50565b600081519050620014ce81620014a3565b92915050565b600060208284031215620014ed57620014ec62000e98565b5b6000620014fd84828501620014bd565b91505092915050565b600082825260208201905092915050565b82818337600083830152505050565b6000601f19601f8301169050919050565b600062001545838562001506565b93506200155483858462001517565b6200155f8362001526565b840190509392505050565b600060608201905062001581600083018762000e08565b81810360208301526200159681858762001537565b9050620015a7604083018462000e6a565b95945050505050565b6000606082019050620015c7600083018662000e6a565b620015d6602083018562000e6a565b620015e5604083018462000e08565b94935050505056fe60806040523480156200001157600080fd5b50604051620010a4380380620010a48339818101604052810190620000379190620001af565b836000806101000a81548173ffffffffffffffffffffffffffffffffffffffff021916908373ffffffffffffffffffffffffffffffffffffffff16021790555080600160006101000a81548173ffffffffffffffffffffffffffffffffffffffff021916908373ffffffffffffffffffffffffffffffffffffffff1602179055508260038190555081600260006101000a81548173ffffffffffffffffffffffffffffffffffffffff021916908373ffffffffffffffffffffffffffffffffffffffff1602179055505050505062000221565b600080fd5b600073ffffffffffffffffffffffffffffffffffffffff82169050919050565b60006200013c826200010f565b9050919050565b6200014e816200012f565b81146200015a57600080fd5b50565b6000815190506200016e8162000143565b92915050565b6000819050919050565b620001898162000174565b81146200019557600080fd5b50565b600081519050620001a9816200017e565b92915050565b60008060008060808587031215620001cc57620001cb6200010a565b5b6000620001dc878288016200015d565b9450506020620001ef8782880162000198565b935050604062000202878288016200015d565b925050606062000215878288016200015d565b91505092959194509250565b610e7380620002316000396000f3fe608060405234801561001057600080fd5b50600436106100935760003560e01c8063d1cc997611610066578063d1cc99761461010e578063e524979c1461012c578063eb0cde1d14610136578063f36457db14610154578063ff21d1e51461017057610093565b806322f3e2d41461009857806366d003ac146100b65780636af39aa3146100d45780637dc5186f146100f0575b600080fd5b6100a061018e565b6040516100ad91906107d6565b60405180910390f35b6100be6101a1565b6040516100cb9190610832565b60405180910390f35b6100ee60048036038101906100e9919061088d565b6101c5565b005b6100f86103b3565b6040516101059190610832565b60405180910390f35b6101166103d9565b60405161012391906107d6565b60405180910390f35b6101346103ec565b005b61013e610499565b60405161014b9190610832565b60405180910390f35b61016e6004803603810190610169919061094b565b6104bf565b005b6101786107b5565b60405161018591906109ba565b60405180910390f35b600460009054906101000a900460ff1681565b60008054906101000a900473ffffffffffffffffffffffffffffffffffffffff1681565b600260009054906101000a900473ffffffffffffffffffffffffffffffffffffffff1673ffffffffffffffffffffffffffffffffffffffff163373ffffffffffffffffffffffffffffffffffffffff1614610255576040517f08c379a000000000000000000000000000000000000000000000000000000000815260040161024c90610a32565b60405180910390fd5b600460009054906101000a900460ff16156102a5576040517f08c379a000000000000000000000000000000000000000000000000000000000815260040161029c90610a9e565b60405180910390fd5b600460019054906101000a900460ff16156102f5576040517f08c379a00000000000000000000000000000000000000000000000000000000081526004016102ec90610b0a565b60405180910390fd5b60035481101561033a576040517f08c379a000000000000000000000000000000000000000000000000000000000815260040161033190610b76565b60405180910390fd5b6001600460006101000a81548160ff0219169083151502179055507f8c0f791a552520d7b652c7f008af155a562ee6e9ce409bf539fbe0c18eef91603060008054906101000a900473ffffffffffffffffffffffffffffffffffffffff16426040516103a893929190610b96565b60405180910390a150565b600160009054906101000a900473ffffffffffffffffffffffffffffffffffffffff1681565b600460019054906101000a900460ff1681565b600260009054906101000a900473ffffffffffffffffffffffffffffffffffffffff1673ffffffffffffffffffffffffffffffffffffffff163373ffffffffffffffffffffffffffffffffffffffff161461047c576040517f08c379a000000000000000000000000000000000000000000000000000000000815260040161047390610a32565b60405180910390fd5b6001600460016101000a81548160ff021916908315150217905550565b600260009054906101000a900473ffffffffffffffffffffffffffffffffffffffff1681565b60008054906101000a900473ffffffffffffffffffffffffffffffffffffffff1673ffffffffffffffffffffffffffffffffffffffff163373ffffffffffffffffffffffffffffffffffffffff161461054d576040517f08c379a000000000000000000000000000000000000000000000000000000000815260040161054490610c19565b60405180910390fd5b60011515600460009054906101000a900460ff161515146105a3576040517f08c379a000000000000000000000000000000000000000000000000000000000815260040161059a90610c85565b60405180910390fd5b600460019054906101000a900460ff16156105f3576040517f08c379a00000000000000000000000000000000000000000000000000000000081526004016105ea90610b0a565b60405180910390fd5b60005b838390508110156107af57600084848381811061061657610615610ca5565b5b905060200201602081019061062b9190610cd4565b905060008173ffffffffffffffffffffffffffffffffffffffff1663dd62ed3e600160009054906101000a900473ffffffffffffffffffffffffffffffffffffffff16306040518363ffffffff1660e01b815260040161068c929190610d01565b60206040518083038186803b1580156106a457600080fd5b505afa1580156106b8573d6000803e3d6000fd5b505050506040513d601f19601f820116820180604052508101906106dc9190610d3f565b9050600081111561079a578173ffffffffffffffffffffffffffffffffffffffff166323b872dd600160009054906101000a900473ffffffffffffffffffffffffffffffffffffffff1686846040518463ffffffff1660e01b815260040161074693929190610b96565b602060405180830381600087803b15801561076057600080fd5b505af1158015610774573d6000803e3d6000fd5b505050506040513d601f19601f820116820180604052508101906107989190610d98565b505b505080806107a790610df4565b9150506105f6565b50505050565b60035481565b60008115159050919050565b6107d0816107bb565b82525050565b60006020820190506107eb60008301846107c7565b92915050565b600073ffffffffffffffffffffffffffffffffffffffff82169050919050565b600061081c826107f1565b9050919050565b61082c81610811565b82525050565b60006020820190506108476000830184610823565b92915050565b600080fd5b600080fd5b6000819050919050565b61086a81610857565b811461087557600080fd5b50565b60008135905061088781610861565b92915050565b6000602082840312156108a3576108a261084d565b5b60006108b184828501610878565b91505092915050565b600080fd5b600080fd5b600080fd5b60008083601f8401126108df576108de6108ba565b5b8235905067ffffffffffffffff8111156108fc576108fb6108bf565b5b602083019150836020820283011115610918576109176108c4565b5b9250929050565b61092881610811565b811461093357600080fd5b50565b6000813590506109458161091f565b92915050565b6000806000604084860312156109645761096361084d565b5b600084013567ffffffffffffffff81111561098257610981610852565b5b61098e868287016108c9565b935093505060206109a186828701610936565b9150509250925092565b6109b481610857565b82525050565b60006020820190506109cf60008301846109ab565b92915050565b600082825260208201905092915050565b7f4e6f742067617465776179000000000000000000000000000000000000000000600082015250565b6000610a1c600b836109d5565b9150610a27826109e6565b602082019050919050565b60006020820190508181036000830152610a4b81610a0f565b9050919050565b7f416c726561647920616374697665000000000000000000000000000000000000600082015250565b6000610a88600e836109d5565b9150610a9382610a52565b602082019050919050565b60006020820190508181036000830152610ab781610a7b565b9050919050565b7f416c7265616479207465726d696e617465640000000000000000000000000000600082015250565b6000610af46012836109d5565b9150610aff82610abe565b602082019050919050565b60006020820190508181036000830152610b2381610ae7565b9050919050565b7f496e616374697669747920746f6f2073686f7274000000000000000000000000600082015250565b6000610b606014836109d5565b9150610b6b82610b2a565b602082019050919050565b60006020820190508181036000830152610b8f81610b53565b9050919050565b6000606082019050610bab6000830186610823565b610bb86020830185610823565b610bc560408301846109ab565b949350505050565b7f4f6e6c7920726563697069656e74000000000000000000000000000000000000600082015250565b6000610c03600e836109d5565b9150610c0e82610bcd565b602082019050919050565b60006020820190508181036000830152610c3281610bf6565b9050919050565b7f4e6f742061637469766500000000000000000000000000000000000000000000600082015250565b6000610c6f600a836109d5565b9150610c7a82610c39565b602082019050919050565b60006020820190508181036000830152610c9e81610c62565b9050919050565b7f4e487b7100000000000000000000000000000000000000000000000000000000600052603260045260246000fd5b600060208284031215610cea57610ce961084d565b5b6000610cf884828501610936565b91505092915050565b6000604082019050610d166000830185610823565b610d236020830184610823565b9392505050565b600081519050610d3981610861565b92915050565b600060208284031215610d5557610d5461084d565b5b6000610d6384828501610d2a565b91505092915050565b610d75816107bb565b8114610d8057600080fd5b50565b600081519050610d9281610d6c565b92915050565b600060208284031215610dae57610dad61084d565b5b6000610dbc84828501610d83565b91505092915050565b7f4e487b7100000000000000000000000000000000000000000000000000000000600052601160045260246000fd5b6000610dff82610857565b91507fffffffffffffffffffffffffffffffffffffffffffffffffffffffffffffffff821415610e3257610e31610dc5565b5b60018201905091905056fea26469706673582212204cbe5a9570b318e8fcba18682270c16209a29471aeccfe41230ec6f016fcdc8664736f6c6343000809003360806040523480156200001157600080fd5b50604051620036bb380380620036bb8339818101604052810190620000379190620001bf565b84848484836000806101000a81548173ffffffffffffffffffffffffffffffffffffffff021916908373ffffffffffffffffffffffffffffffffffffffff16021790555080600160006101000a81548173ffffffffffffffffffffffffffffffffffffffff021916908373ffffffffffffffffffffffffffffffffffffffff1602179055508260038190555081600260006101000a81548173ffffffffffffffffffffffffffffffffffffffff021916908373ffffffffffffffffffffffffffffffffffffffff1602179055505050505080600581905550505050505062000247565b600080fd5b600073ffffffffffffffffffffffffffffffffffffffff82169050919050565b60006200014c826200011f565b9050919050565b6200015e816200013f565b81146200016a57600080fd5b50565b6000815190506200017e8162000153565b92915050565b6000819050919050565b620001998162000184565b8114620001a557600080fd5b50565b600081519050620001b9816200018e565b92915050565b600080600080600060a08688031215620001de57620001dd6200011a565b5b6000620001ee888289016200016d565b95505060206200020188828901620001a8565b945050604062000214888289016200016d565b935050606062000227888289016200016d565b92505060806200023a88828901620001a8565b9150509295509295909350565b61346480620002576000396000f3fe608060405234801561001057600080fd5b50600436106100cf5760003560e01c80637d7be5a91161008c578063e524979c11610066578063e524979c14610202578063eb0cde1d1461020c578063f36457db1461022a578063ff21d1e514610246576100cf565b80637d7be5a9146101965780637dc5186f146101c6578063d1cc9976146101e4576100cf565b80631e8e1e13146100d457806322f3e2d414610104578063457ceb2814610122578063477ff0091461014057806366d003ac1461015c5780636af39aa31461017a575b600080fd5b6100ee60048036038101906100e99190612a47565b610264565b6040516100fb9190612ada565b60405180910390f35b61010c611d8e565b6040516101199190612ada565b60405180910390f35b61012a611da1565b6040516101379190612b04565b60405180910390f35b61015a60048036038101906101559190612bd8565b611da7565b005b610164612054565b6040516101719190612c5b565b60405180910390f35b610194600480360381019061018f9190612c76565b612078565b005b6101b060048036038101906101ab9190612ca3565b612266565b6040516101bd9190612ada565b60405180910390f35b6101ce6123e7565b6040516101db9190612c5b565b60405180910390f35b6101ec61240d565b6040516101f99190612ada565b60405180910390f35b61020a612420565b005b6102146124cd565b6040516102219190612c5b565b60405180910390f35b610244600480360381019061023f9190612d59565b6124f3565b005b61024e6127e9565b60405161025b9190612b04565b60405180910390f35b6000611d23565b600080600184846000805b82156102a05782840591508482028603905084955080945082820284039050829350809250610276565b60018411156102ae57600080fd5b60008612156102bd5788860195505b85965050505050505092915050565b60405181602084028301815160208301925060005b82841015610324578185527f30644e72e131a029b85045b68181585d2833e84879b9709143e1f593f00000018451830991506020850194506020840193506102e1565b61034e7f30644e72e131a029b85045b68181585d2833e84879b9709143e1f593f00000018361026b565b91506020850394506020840393508592505b828411156103ca577f30644e72e131a029b85045b68181585d2833e84879b9709143e1f593f00000018551830990507f30644e72e131a029b85045b68181585d2833e84879b9709143e1f593f0000001845183099150808452602085039450602084039350610360565b81845250505050505050565b7f30644e72e131a029b85045b68181585d2833e84879b9709143e1f593f00000018110610407576000805260206000f35b50565b61032081511461041e576000805260206000f35b61042c6102608201516103d6565b61043a6102808201516103d6565b6104486102a08201516103d6565b6104566102c08201516103d6565b6104646102e08201516103d6565b6104726103008201516103d6565b6104806103208201516103d6565b50565b60008060208501516102e085015260408501516103008501526020830151610320850152602080018301516103408501526040602001830151610360850152606060200183015161038085015260806020018301516103a085015260a06020018301516103c08501527f30644e72e131a029b85045b68181585d2833e84879b9709143e1f593f00000016101006102e08601200690508060208501527f30644e72e131a029b85045b68181585d2833e84879b9709143e1f593f00000016020808601200660408501527f30644e72e131a029b85045b68181585d2833e84879b9709143e1f593f0000001604060e08501200660008501527f30644e72e131a029b85045b68181585d2833e84879b9709143e1f593f000000160c06101208501200691508160608501527f30644e72e131a029b85045b68181585d2833e84879b9709143e1f593f000000182820960a08501527f30644e72e131a029b85045b68181585d2833e84879b9709143e1f593f000000182830991507f30644e72e131a029b85045b68181585d2833e84879b9709143e1f593f000000182830991507f30644e72e131a029b85045b68181585d2833e84879b9709143e1f593f000000182830991507f30644e72e131a029b85045b68181585d2833e84879b9709143e1f593f000000182830991507f30644e72e131a029b85045b68181585d2833e84879b9709143e1f593f000000182830991507f30644e72e131a029b85045b68181585d2833e84879b9709143e1f593f000000182830991507f30644e72e131a029b85045b68181585d2833e84879b9709143e1f593f000000182830991507f30644e72e131a029b85045b68181585d2833e84879b9709143e1f593f000000182830991507f30644e72e131a029b85045b68181585d2833e84879b9709143e1f593f000000182830991507f30644e72e131a029b85045b68181585d2833e84879b9709143e1f593f000000182830991507f30644e72e131a029b85045b68181585d2833e84879b9709143e1f593f000000182830991507f30644e72e131a029b85045b68181585d2833e84879b9709143e1f593f000000182830991508160808501527f30644e72e131a029b85045b68181585d2833e84879b9709143e1f593f000000180600184030106915081610260850152816102808501527f30644e72e131a029b85045b68181585d2833e84879b9709143e1f593f000000160e0610260850120068060c08601527f30644e72e131a029b85045b68181585d2833e84879b9709143e1f593f000000181820992508260e08601527f30644e72e131a029b85045b68181585d2833e84879b9709143e1f593f00000018184099250826101008601527f30644e72e131a029b85045b68181585d2833e84879b9709143e1f593f00000018184099250826101208601527f30644e72e131a029b85045b68181585d2833e84879b9709143e1f593f00000018184099250826101408601527f30644e72e131a029b85045b68181585d2833e84879b9709143e1f593f00000018184099250826101608601527f30644e72e131a029b85045b68181585d2833e84879b9709143e1f593f000000160806101e086012006610180860152505050505050565b60017f30644e72e131a029b85045b68181585d2833e84879b9709143e1f593f0000001807f30644e72e131a029b85045b68181585d2833e84879b9709143e1f593f0000001836060860151030106611000096102a08301527f30644e72e131a029b85045b68181585d2833e84879b9709143e1f593f00000017f0931d596de2fd10f01ddd073fd5a90a976f169c76f039bb91c4775720042d43a820990507f30644e72e131a029b85045b68181585d2833e84879b9709143e1f593f0000001807f30644e72e131a029b85045b68181585d2833e84879b9709143e1f593f0000001836060860151030106611000096102c0830152610a26600361028084016102cc565b610260820151600191507f30644e72e131a029b85045b68181585d2833e84879b9709143e1f593f0000001816102a0850151096102a08401527f30644e72e131a029b85045b68181585d2833e84879b9709143e1f593f00000017f0931d596de2fd10f01ddd073fd5a90a976f169c76f039bb91c4775720042d43a830991507f30644e72e131a029b85045b68181585d2833e84879b9709143e1f593f000000180826102c08601510983096102c0840152505050565b60007f30644e72e131a029b85045b68181585d2833e84879b9709143e1f593f0000001807f30644e72e131a029b85045b68181585d2833e84879b9709143e1f593f000000160208601516102a0860151098303010690507f30644e72e131a029b85045b68181585d2833e84879b9709143e1f593f0000001807f30644e72e131a029b85045b68181585d2833e84879b9709143e1f593f000000160408601516102c086015109830301069050806101a0830152505050565b60008060007f30644e72e131a029b85045b68181585d2833e84879b9709143e1f593f00000016101a08601516103208601510892507f30644e72e131a029b85045b68181585d2833e84879b9709143e1f593f000000160208601516102c08601510991507f30644e72e131a029b85045b68181585d2833e84879b9709143e1f593f0000001610260850151830891507f30644e72e131a029b85045b68181585d2833e84879b9709143e1f593f00000016040860151830891507f30644e72e131a029b85045b68181585d2833e84879b9709143e1f593f000000160208601516102e08601510990507f30644e72e131a029b85045b68181585d2833e84879b9709143e1f593f0000001610280850151820890507f30644e72e131a029b85045b68181585d2833e84879b9709143e1f593f00000016040860151820890507f30644e72e131a029b85045b68181585d2833e84879b9709143e1f593f000000181830991507f30644e72e131a029b85045b68181585d2833e84879b9709143e1f593f000000160408601516102a08601510890507f30644e72e131a029b85045b68181585d2833e84879b9709143e1f593f000000181830991507f30644e72e131a029b85045b68181585d2833e84879b9709143e1f593f0000001610300850151830991507f30644e72e131a029b85045b68181585d2833e84879b9709143e1f593f00000016000860151830991507f30644e72e131a029b85045b68181585d2833e84879b9709143e1f593f000000160008601516102a08701510990507f30644e72e131a029b85045b68181585d2833e84879b9709143e1f593f00000016000860151820990507f30644e72e131a029b85045b68181585d2833e84879b9709143e1f593f000000181830891507f30644e72e131a029b85045b68181585d2833e84879b9709143e1f593f0000001827f30644e72e131a029b85045b68181585d2833e84879b9709143e1f593f00000018501030692507f30644e72e131a029b85045b68181585d2833e84879b9709143e1f593f000000161028086015184099250826101c08601525050505050565b81518152602082015160208201525050565b6040518151815260208201516020820152825160408201526020830151606082015260408260808360066107d05a03fa80610ef3576000805260206000f35b50505050565b6000604051835181526020840151602082015284604082015260408160608360076107d05a03fa915081610f31576000805260206000f35b825160408201526020830151606082015260408360808360066107d05a03fa915081610f61576000805260206000f35b5050505050565b600060405183815284602082015285604082015260408160608360076107d05a03fa915081610f9b576000805260206000f35b825160408201526020830151606082015260408360808360066107d05a03fa915081610fcb576000805260206000f35b505050505050565b600060405183815284602082015285604082015260408360608360076107d05a03fa915081611006576000805260206000f35b505050505050565b6101e082016110216101e0830182610ea2565b611035610180840151610220840183610ef9565b505050565b60008061022084017f30644e72e131a029b85045b68181585d2833e84879b9709143e1f593f000000160c08601516102608601510992506110bd837f2eb67c0ca20735dd9728a7dd7bab037c0f3ef5ec3cb09a40ffd6dc72b3f2b0cb7f1cf4b31736d4c025d29d0683622a4eb8234f62b7140d7b1b1c45cf1d5251896c84610fd3565b7f30644e72e131a029b85045b68181585d2833e84879b9709143e1f593f000000161028085015184099250611134837f2af3a314ddbf93a88a6a450430d5528e2d33cde0a8f21622692115a8667e8e457f2a2057ca32341b223996128794d51936a29d35a28876903933a07d09004e659784610f68565b7f30644e72e131a029b85045b68181585d2833e84879b9709143e1f593f000000160c08601516102808601510992506111af837f2bb3c6f9aeea2252ff4a3691ea4129d5bebcaae30a8141cbf0b784673d4265177f2edca24b060dbb91b31b0f920740b8c112fdd5c5d95b9df7657afc337811b33a84610f68565b7f30644e72e131a029b85045b68181585d2833e84879b9709143e1f593f000000160c08601516102a086015109925061122a837f28d73857830aed4f942d4cb6ff6349b1c4c246200e813d9d3144ed12ce6574157f23847c7c97656804415fa84053faeaa1222ad9610e187214219177de0ccf44f584610f68565b60c0850151925061127d837f2f666ac08dff772c72e8412abb33c600290d691fd25cbe449743040e8256a3d87f14b527b8f772f3926e0c9690254b0866981d5097dbcbc2b466b953d00ce6a9d284610f68565b7f30644e72e131a029b85045b68181585d2833e84879b9709143e1f593f000000160a08601516102608601510892507f30644e72e131a029b85045b68181585d2833e84879b9709143e1f593f00000016040860151840892507f30644e72e131a029b85045b68181585d2833e84879b9709143e1f593f000000160a086015160020991507f30644e72e131a029b85045b68181585d2833e84879b9709143e1f593f0000001610280850151830891507f30644e72e131a029b85045b68181585d2833e84879b9709143e1f593f00000016040860151830891507f30644e72e131a029b85045b68181585d2833e84879b9709143e1f593f000000182840992507f30644e72e131a029b85045b68181585d2833e84879b9709143e1f593f000000160a086015160030991507f30644e72e131a029b85045b68181585d2833e84879b9709143e1f593f00000016102a0850151830891507f30644e72e131a029b85045b68181585d2833e84879b9709143e1f593f00000016040860151830891507f30644e72e131a029b85045b68181585d2833e84879b9709143e1f593f000000182840992507f30644e72e131a029b85045b68181585d2833e84879b9709143e1f593f00000016000860151840992507f30644e72e131a029b85045b68181585d2833e84879b9709143e1f593f000000160c0860151840992507f30644e72e131a029b85045b68181585d2833e84879b9709143e1f593f000000160008601516102a08701510991507f30644e72e131a029b85045b68181585d2833e84879b9709143e1f593f00000016000860151830991507f30644e72e131a029b85045b68181585d2833e84879b9709143e1f593f000000160c0860151830991507f30644e72e131a029b85045b68181585d2833e84879b9709143e1f593f000000182840892507f30644e72e131a029b85045b68181585d2833e84879b9709143e1f593f0000001610180860151840892506115588360e0860183610ef9565b7f30644e72e131a029b85045b68181585d2833e84879b9709143e1f593f00000016102c085015160208701510992507f30644e72e131a029b85045b68181585d2833e84879b9709143e1f593f0000001610260850151840892507f30644e72e131a029b85045b68181585d2833e84879b9709143e1f593f00000016040860151840892507f30644e72e131a029b85045b68181585d2833e84879b9709143e1f593f00000016102e085015160208701510991507f30644e72e131a029b85045b68181585d2833e84879b9709143e1f593f0000001610280850151830891507f30644e72e131a029b85045b68181585d2833e84879b9709143e1f593f00000016040860151830891507f30644e72e131a029b85045b68181585d2833e84879b9709143e1f593f000000182840992507f30644e72e131a029b85045b68181585d2833e84879b9709143e1f593f00000016000860151840992507f30644e72e131a029b85045b68181585d2833e84879b9709143e1f593f000000160c0860151840992507f30644e72e131a029b85045b68181585d2833e84879b9709143e1f593f00000016020860151840992507f30644e72e131a029b85045b68181585d2833e84879b9709143e1f593f0000001610300850151840992507f30644e72e131a029b85045b68181585d2833e84879b9709143e1f593f0000001837f30644e72e131a029b85045b68181585d2833e84879b9709143e1f593f0000001030692506117c2837f156ef9e504c058d1a6609cf2d8bc7c7147e7d13610ec904aab2247a1e765b99a7f176b7a29cff0ef08e09d2c72a5db37a015d3914a738a302b24fe643f8cacdc3f84610f68565b6117d0610120850182610eb4565b608085015192506117e683610160860183610ef9565b7f30644e72e131a029b85045b68181585d2833e84879b9709143e1f593f0000001838409925061181b836101a0860183610ef9565b61182d60e08601516020860183610ef9565b6118406101008601516060860183610ef9565b61185361012086015160a0860183610ef9565b6118a46101408601517f173bdb25d94f66dd9586499787046f1052127b95b108c7a4d7beee6ac7e4593f7f04b85ee2b6af218577d8a2e56ab4dc054287e444b90fd652bc24f7046366e8a984610f68565b6118f56101608601517f2e86ff0322609f7543013d57e50324e6f3a4f6a5542a15d9f788ff53623758b77f1532f5d43291ffaa96f15c0640dafc17842db2b8c602b94d2dcaac0418524e6e84610f68565b6101c085015192507f30644e72e131a029b85045b68181585d2833e84879b9709143e1f593f00000018060c087015161032087015109840892507f30644e72e131a029b85045b68181585d2833e84879b9709143e1f593f00000018060e087015161026087015109840892507f30644e72e131a029b85045b68181585d2833e84879b9709143e1f593f00000018061010087015161028087015109840892507f30644e72e131a029b85045b68181585d2833e84879b9709143e1f593f0000001806101208701516102a087015109840892507f30644e72e131a029b85045b68181585d2833e84879b9709143e1f593f0000001806101408701516102c087015109840892507f30644e72e131a029b85045b68181585d2833e84879b9709143e1f593f0000001806101608701516102e087015109840892507f30644e72e131a029b85045b68181585d2833e84879b9709143e1f593f00000018061018087015161030087015109840892507f30644e72e131a029b85045b68181585d2833e84879b9709143e1f593f0000001837f30644e72e131a029b85045b68181585d2833e84879b9709143e1f593f000000103069250611ab5836002600184610f68565b60608501519250611acb836101e0860183610ef9565b7f30644e72e131a029b85045b68181585d2833e84879b9709143e1f593f000000160608601516101808701510992507f30644e72e131a029b85045b68181585d2833e84879b9709143e1f593f00000017f0931d596de2fd10f01ddd073fd5a90a976f169c76f039bb91c4775720042d43a84099250611b4f83610220860183610ef9565b5050505050565b60006040516101e0830151815260206101e08401015160208201527f26186a2d65ee4d2f9c9a5b91f86597d35f192cd120caf7e935d8443d1938e23d60408201527f30441fd1b5d3370482c42152a8899027716989a6996c2535bc9f7fee8aaef79e60608201527f1970ea81dd6992adfbc571effb03503adbbb6a857f578403c6c40e22d65b3c0260808201527f054793348f12c0cf5622c340573cb277586319de359ab9389778f689786b1e4860a082015261022083015160c08201526020610220840101517f30644e72e131a029b85045b68181585d97816a916871ca8d3c208c16d87cfd47817f30644e72e131a029b85045b68181585d97816a916871ca8d3c208c16d87cfd47030690508060e08301527f198e9393920d483a7260bfb731fb5d25f1aa493335a9e71297e485b7aef312c26101008301527f1800deef121f1e76426a00665e5c4479674322d4f75edadd46debd5cd992f6ed6101208301527f090689d0585ff075ec9e99ad690c3395bc4b313370b38ef355acdadcd122975b6101408301527f12c85ea5db8c6deb4aab71808dcb408fe3d1e7690c43d37b4ce6cc0166fa7daa6101608301526020826101808460086107d05a03fa825181169350505050919050565b6040516102e08101604052611d378461040a565b611d42838286610483565b611d4b81610923565b611d558382610adc565b611d5f8185610b94565b611d69818561100e565b611d73818561103a565b611d7c81611b56565b6102e082036040528060005260206000f35b600460009054906101000a900460ff1681565b60055481565b600260009054906101000a900473ffffffffffffffffffffffffffffffffffffffff1673ffffffffffffffffffffffffffffffffffffffff163373ffffffffffffffffffffffffffffffffffffffff1614611e37576040517f08c379a0000000000000000000000000000000000000000000000000000000008152600401611e2e90612e16565b60405180910390fd5b600073ffffffffffffffffffffffffffffffffffffffff168173ffffffffffffffffffffffffffffffffffffffff161415611ea7576040517f08c379a0000000000000000000000000000000000000000000000000000000008152600401611e9e90612e82565b60405180910390fd5b600460009054906101000a900460ff1615611ef7576040517f08c379a0000000000000000000000000000000000000000000000000000000008152600401611eee90612eee565b60405180910390fd5b600460019054906101000a900460ff1615611f47576040517f08c379a0000000000000000000000000000000000000000000000000000000008152600401611f3e90612f5a565b60405180910390fd5b600354841015611f8c576040517f08c379a0000000000000000000000000000000000000000000000000000000008152600401611f8390612fc6565b60405180910390fd5b611f97838383612266565b50806000806101000a81548173ffffffffffffffffffffffffffffffffffffffff021916908373ffffffffffffffffffffffffffffffffffffffff1602179055506001600460006101000a81548160ff0219169083151502179055507f8c0f791a552520d7b652c7f008af155a562ee6e9ce409bf539fbe0c18eef91603060008054906101000a900473ffffffffffffffffffffffffffffffffffffffff164260405161204693929190612fe6565b60405180910390a150505050565b60008054906101000a900473ffffffffffffffffffffffffffffffffffffffff1681565b600260009054906101000a900473ffffffffffffffffffffffffffffffffffffffff1673ffffffffffffffffffffffffffffffffffffffff163373ffffffffffffffffffffffffffffffffffffffff1614612108576040517f08c379a00000000000000000000000000000000000000000000000000000000081526004016120ff90612e16565b60405180910390fd5b600460009054906101000a900460ff1615612158576040517f08c379a000000000000000000000000000000000000000000000000000000000815260040161214f90612eee565b60405180910390fd5b600460019054906101000a900460ff16156121a8576040517f08c379a000000000000000000000000000000000000000000000000000000000815260040161219f90612f5a565b60405180910390fd5b6003548110156121ed576040517f08c379a00000000000000000000000000000000000000000000000000000000081526004016121e490612fc6565b60405180910390fd5b6001600460006101000a81548160ff0219169083151502179055507f8c0f791a552520d7b652c7f008af155a562ee6e9ce409bf539fbe0c18eef91603060008054906101000a900473ffffffffffffffffffffffffffffffffffffffff164260405161225b93929190612fe6565b60405180910390a150565b600080600267ffffffffffffffff8111156122845761228361281e565b5b6040519080825280602002602001820160405280156122b25781602001602082028036833780820191505090505b509050600554816000815181106122cc576122cb61301d565b5b6020026020010181815250508273ffffffffffffffffffffffffffffffffffffffff16816001815181106123035761230261301d565b5b6020026020010181815250503073ffffffffffffffffffffffffffffffffffffffff16631e8e1e138686846040518463ffffffff1660e01b815260040161234c93929190613148565b60206040518083038186803b15801561236457600080fd5b505afa158015612378573d6000803e3d6000fd5b505050506040513d601f19601f8201168201806040525081019061239c91906131ad565b6123db576040517f08c379a00000000000000000000000000000000000000000000000000000000081526004016123d290613226565b60405180910390fd5b60019150509392505050565b600160009054906101000a900473ffffffffffffffffffffffffffffffffffffffff1681565b600460019054906101000a900460ff1681565b600260009054906101000a900473ffffffffffffffffffffffffffffffffffffffff1673ffffffffffffffffffffffffffffffffffffffff163373ffffffffffffffffffffffffffffffffffffffff16146124b0576040517f08c379a00000000000000000000000000000000000000000000000000000000081526004016124a790612e16565b60405180910390fd5b6001600460016101000a81548160ff021916908315150217905550565b600260009054906101000a900473ffffffffffffffffffffffffffffffffffffffff1681565b60008054906101000a900473ffffffffffffffffffffffffffffffffffffffff1673ffffffffffffffffffffffffffffffffffffffff163373ffffffffffffffffffffffffffffffffffffffff1614612581576040517f08c379a000000000000000000000000000000000000000000000000000000000815260040161257890613292565b60405180910390fd5b60011515600460009054906101000a900460ff161515146125d7576040517f08c379a00000000000000000000000000000000000000000000000000000000081526004016125ce906132fe565b60405180910390fd5b600460019054906101000a900460ff1615612627576040517f08c379a000000000000000000000000000000000000000000000000000000000815260040161261e90612f5a565b60405180910390fd5b60005b838390508110156127e357600084848381811061264a5761264961301d565b5b905060200201602081019061265f919061331e565b905060008173ffffffffffffffffffffffffffffffffffffffff1663dd62ed3e600160009054906101000a900473ffffffffffffffffffffffffffffffffffffffff16306040518363ffffffff1660e01b81526004016126c092919061334b565b60206040518083038186803b1580156126d857600080fd5b505afa1580156126ec573d6000803e3d6000fd5b505050506040513d601f19601f820116820180604052508101906127109190613389565b905060008111156127ce578173ffffffffffffffffffffffffffffffffffffffff166323b872dd600160009054906101000a900473ffffffffffffffffffffffffffffffffffffffff1686846040518463ffffffff1660e01b815260040161277a93929190612fe6565b602060405180830381600087803b15801561279457600080fd5b505af11580156127a8573d6000803e3d6000fd5b505050506040513d601f19601f820116820180604052508101906127cc91906131ad565b505b505080806127db906133e5565b91505061262a565b50505050565b60035481565b6000604051905090565b600080fd5b600080fd5b600080fd5b600080fd5b6000601f19601f8301169050919050565b7f4e487b7100000000000000000000000000000000000000000000000000000000600052604160045260246000fd5b6128568261280d565b810181811067ffffffffffffffff821117156128755761287461281e565b5b80604052505050565b60006128886127ef565b9050612894828261284d565b919050565b600067ffffffffffffffff8211156128b4576128b361281e565b5b6128bd8261280d565b9050602081019050919050565b82818337600083830152505050565b60006128ec6128e784612899565b61287e565b90508281526020810184848401111561290857612907612808565b5b6129138482856128ca565b509392505050565b600082601f8301126129305761292f612803565b5b81356129408482602086016128d9565b91505092915050565b600067ffffffffffffffff8211156129645761296361281e565b5b602082029050602081019050919050565b600080fd5b6000819050919050565b61298d8161297a565b811461299857600080fd5b50565b6000813590506129aa81612984565b92915050565b60006129c36129be84612949565b61287e565b905080838252602082019050602084028301858111156129e6576129e5612975565b5b835b81811015612a0f57806129fb888261299b565b8452602084019350506020810190506129e8565b5050509392505050565b600082601f830112612a2e57612a2d612803565b5b8135612a3e8482602086016129b0565b91505092915050565b60008060408385031215612a5e57612a5d6127f9565b5b600083013567ffffffffffffffff811115612a7c57612a7b6127fe565b5b612a888582860161291b565b925050602083013567ffffffffffffffff811115612aa957612aa86127fe565b5b612ab585828601612a19565b9150509250929050565b60008115159050919050565b612ad481612abf565b82525050565b6000602082019050612aef6000830184612acb565b92915050565b612afe8161297a565b82525050565b6000602082019050612b196000830184612af5565b92915050565b600080fd5b60008083601f840112612b3a57612b39612803565b5b8235905067ffffffffffffffff811115612b5757612b56612b1f565b5b602083019150836001820283011115612b7357612b72612975565b5b9250929050565b600073ffffffffffffffffffffffffffffffffffffffff82169050919050565b6000612ba582612b7a565b9050919050565b612bb581612b9a565b8114612bc057600080fd5b50565b600081359050612bd281612bac565b92915050565b60008060008060608587031215612bf257612bf16127f9565b5b6000612c008782880161299b565b945050602085013567ffffffffffffffff811115612c2157612c206127fe565b5b612c2d87828801612b24565b93509350506040612c4087828801612bc3565b91505092959194509250565b612c5581612b9a565b82525050565b6000602082019050612c706000830184612c4c565b92915050565b600060208284031215612c8c57612c8b6127f9565b5b6000612c9a8482850161299b565b91505092915050565b600080600060408486031215612cbc57612cbb6127f9565b5b600084013567ffffffffffffffff811115612cda57612cd96127fe565b5b612ce686828701612b24565b93509350506020612cf986828701612bc3565b9150509250925092565b60008083601f840112612d1957612d18612803565b5b8235905067ffffffffffffffff811115612d3657612d35612b1f565b5b602083019150836020820283011115612d5257612d51612975565b5b9250929050565b600080600060408486031215612d7257612d716127f9565b5b600084013567ffffffffffffffff811115612d9057612d8f6127fe565b5b612d9c86828701612d03565b93509350506020612daf86828701612bc3565b9150509250925092565b600082825260208201905092915050565b7f4e6f742067617465776179000000000000000000000000000000000000000000600082015250565b6000612e00600b83612db9565b9150612e0b82612dca565b602082019050919050565b60006020820190508181036000830152612e2f81612df3565b9050919050565b7f4e756c6c20616464726573730000000000000000000000000000000000000000600082015250565b6000612e6c600c83612db9565b9150612e7782612e36565b602082019050919050565b60006020820190508181036000830152612e9b81612e5f565b9050919050565b7f416c726561647920616374697665000000000000000000000000000000000000600082015250565b6000612ed8600e83612db9565b9150612ee382612ea2565b602082019050919050565b60006020820190508181036000830152612f0781612ecb565b9050919050565b7f416c7265616479207465726d696e617465640000000000000000000000000000600082015250565b6000612f44601283612db9565b9150612f4f82612f0e565b602082019050919050565b60006020820190508181036000830152612f7381612f37565b9050919050565b7f496e616374697669747920746f6f2073686f7274000000000000000000000000600082015250565b6000612fb0601483612db9565b9150612fbb82612f7a565b602082019050919050565b60006020820190508181036000830152612fdf81612fa3565b9050919050565b6000606082019050612ffb6000830186612c4c565b6130086020830185612c4c565b6130156040830184612af5565b949350505050565b7f4e487b7100000000000000000000000000000000000000000000000000000000600052603260045260246000fd5b600082825260208201905092915050565b6000613069838561304c565b93506130768385846128ca565b61307f8361280d565b840190509392505050565b600081519050919050565b600082825260208201905092915050565b6000819050602082019050919050565b6130bf8161297a565b82525050565b60006130d183836130b6565b60208301905092915050565b6000602082019050919050565b60006130f58261308a565b6130ff8185613095565b935061310a836130a6565b8060005b8381101561313b57815161312288826130c5565b975061312d836130dd565b92505060018101905061310e565b5085935050505092915050565b6000604082019050818103600083015261316381858761305d565b9050818103602083015261317781846130ea565b9050949350505050565b61318a81612abf565b811461319557600080fd5b50565b6000815190506131a781613181565b92915050565b6000602082840312156131c3576131c26127f9565b5b60006131d184828501613198565b91505092915050565b7f50726f6f6620766572696669636174696f6e206661696c656400000000000000600082015250565b6000613210601983612db9565b915061321b826131da565b602082019050919050565b6000602082019050818103600083015261323f81613203565b9050919050565b7f4f6e6c7920726563697069656e74000000000000000000000000000000000000600082015250565b600061327c600e83612db9565b915061328782613246565b602082019050919050565b600060208201905081810360008301526132ab8161326f565b9050919050565b7f4e6f742061637469766500000000000000000000000000000000000000000000600082015250565b60006132e8600a83612db9565b91506132f3826132b2565b602082019050919050565b60006020820190508181036000830152613317816132db565b9050919050565b600060208284031215613334576133336127f9565b5b600061334284828501612bc3565b91505092915050565b60006040820190506133606000830185612c4c565b61336d6020830184612c4c565b9392505050565b60008151905061338381612984565b92915050565b60006020828403121561339f5761339e6127f9565b5b60006133ad84828501613374565b91505092915050565b7f4e487b7100000000000000000000000000000000000000000000000000000000600052601160045260246000fd5b60006133f08261297a565b91507fffffffffffffffffffffffffffffffffffffffffffffffffffffffffffffffff821415613423576134226133b6565b5b60018201905091905056fea2646970667358221220792b601f551157925c440c58196980be82a4fc9e5bb85092a36de5b9e44fbf0664736f6c63430008090033a264697066735822122061620b426052883321bda8f889ab5242276645913cc99f4c174b01995cdae7ea64736f6c63430008090033",
  "linkReferences": {},
  "deployedLinkReferences": {}
}