{
  "_format": "hh-sol-artifact-1",
  "contractName": "GatewayContract",
  "sourceName": "contracts/ethereum/GatewayContract.sol",
  "abi": [
    {
      "inputs": [
        {
          "internalType": "contract IStarknetCore",
          "name": "_starknetCore",
          "type": "address"
        },
        {
          "internalType": "address",
          "name": "_recoveryContractFactory",
          "type": "address"
        }
      ],
      "stateMutability": "nonpayable",
      "type": "constructor"
    },
    {
      "anonymous": false,
      "inputs": [
        {
          "indexed": false,
          "internalType": "address",
          "name": "EOA",
          "type": "address"
        },
        {
          "indexed": false,
          "internalType": "address",
          "name": "recoveryContract",
          "type": "address"
        },
        {
          "indexed": false,
          "internalType": "address",
          "name": "recipient",
          "type": "address"
        },
        {
          "indexed": false,
          "internalType": "uint256",
          "name": "activationTime",
          "type": "uint256"
        }
      ],
      "name": "ActivateRecoveryContract",
      "type": "event"
    },
    {
      "anonymous": false,
      "inputs": [
        {
          "indexed": false,
          "internalType": "address",
          "name": "EOA",
          "type": "address"
        },
        {
          "indexed": false,
          "internalType": "address",
          "name": "recoveryContract",
          "type": "address"
        },
        {
          "indexed": false,
          "internalType": "uint256",
          "name": "terminationDate",
          "type": "uint256"
        }
      ],
      "name": "TerminateRecoveryContract",
      "type": "event"
    },
    {
      "inputs": [
        {
          "internalType": "uint256",
          "name": "userAddress",
          "type": "uint256"
        },
        {
          "internalType": "uint256",
          "name": "blocks",
          "type": "uint256"
        }
      ],
      "name": "activateRecoveryContract",
      "outputs": [],
      "stateMutability": "nonpayable",
      "type": "function"
    },
    {
      "inputs": [
        {
          "internalType": "uint256",
          "name": "userAddress",
          "type": "uint256"
        },
        {
          "internalType": "uint256",
          "name": "blocks",
          "type": "uint256"
        },
        {
          "internalType": "bytes",
          "name": "proof",
          "type": "bytes"
        },
        {
          "internalType": "address",
          "name": "recipient",
          "type": "address"
        }
      ],
      "name": "activateRecoveryContractPassword",
      "outputs": [],
      "stateMutability": "nonpayable",
      "type": "function"
    },
    {
      "inputs": [
        {
          "internalType": "address",
          "name": "",
          "type": "address"
        }
      ],
      "name": "eoaToRecoveryContract",
      "outputs": [
        {
          "internalType": "address",
          "name": "",
          "type": "address"
        }
      ],
      "stateMutability": "view",
      "type": "function"
    },
    {
      "inputs": [
        {
          "internalType": "address",
          "name": "eoa",
          "type": "address"
        }
      ],
      "name": "getRecoveryContract",
      "outputs": [
        {
          "internalType": "address",
          "name": "",
          "type": "address"
        }
      ],
      "stateMutability": "view",
      "type": "function"
    },
    {
      "inputs": [],
      "name": "getTrustedAgent",
      "outputs": [
        {
          "internalType": "address",
          "name": "",
          "type": "address"
        }
      ],
      "stateMutability": "view",
      "type": "function"
    },
    {
      "inputs": [],
      "name": "l2StorageProverAddress",
      "outputs": [
        {
          "internalType": "uint256",
          "name": "",
          "type": "uint256"
        }
      ],
      "stateMutability": "view",
      "type": "function"
    },
    {
      "inputs": [],
      "name": "owner",
      "outputs": [
        {
          "internalType": "address",
          "name": "",
          "type": "address"
        }
      ],
      "stateMutability": "view",
      "type": "function"
    },
    {
      "inputs": [],
      "name": "proverAddressIsSet",
      "outputs": [
        {
          "internalType": "bool",
          "name": "",
          "type": "bool"
        }
      ],
      "stateMutability": "view",
      "type": "function"
    },
    {
      "inputs": [],
      "name": "recoveryContractFactory",
      "outputs": [
        {
          "internalType": "address",
          "name": "",
          "type": "address"
        }
      ],
      "stateMutability": "view",
      "type": "function"
    },
    {
      "inputs": [
        {
          "internalType": "uint256",
          "name": "_l2StorageProverAddress",
          "type": "uint256"
        }
      ],
      "name": "setProverAddress",
      "outputs": [],
      "stateMutability": "nonpayable",
      "type": "function"
    },
    {
      "inputs": [],
      "name": "terminateRecoveryContract",
      "outputs": [],
      "stateMutability": "nonpayable",
      "type": "function"
    },
    {
      "inputs": [],
      "name": "trustedAgent",
      "outputs": [
        {
          "internalType": "address",
          "name": "",
          "type": "address"
        }
      ],
      "stateMutability": "view",
      "type": "function"
    },
    {
      "inputs": [],
      "name": "trustedAgentIsSet",
      "outputs": [
        {
          "internalType": "bool",
          "name": "",
          "type": "bool"
        }
      ],
      "stateMutability": "view",
      "type": "function"
    },
    {
      "inputs": [
        {
          "internalType": "address",
          "name": "eoa",
          "type": "address"
        },
        {
          "internalType": "address",
          "name": "recoveryContractAddress",
          "type": "address"
        }
      ],
      "name": "updateRecoveryContract",
      "outputs": [],
      "stateMutability": "nonpayable",
      "type": "function"
    },
    {
      "inputs": [
        {
          "internalType": "address",
          "name": "_trustedAgent",
          "type": "address"
        }
      ],
      "name": "updateTrustedAgent",
      "outputs": [],
      "stateMutability": "nonpayable",
      "type": "function"
    }
  ],
  "bytecode": "0x60806040526005805461ffff1916905534801561001b57600080fd5b50604051610b6e380380610b6e83398101604081905261003a9161008d565b600080546001600160a01b039384166001600160a01b03199182161790915560018054821633179055600380549290931691161790556100c7565b6001600160a01b038116811461008a57600080fd5b50565b600080604083850312156100a057600080fd5b82516100ab81610075565b60208401519092506100bc81610075565b809150509250929050565b610a98806100d66000396000f3fe608060405234801561001057600080fd5b50600436106100f55760003560e01c80639916ca8a11610097578063eb8aef5911610066578063eb8aef5914610221578063eea778821461022e578063f502ee6d14610241578063fc2870911461025257600080fd5b80639916ca8a146101a25780639bc0f1fe146101ce578063c4c251f3146101f0578063e524979c1461021957600080fd5b806329c877f3116100d357806329c877f31461015257806361463d36146101695780638c98c5161461017c5780638da5cb5b1461018f57600080fd5b806303b5fdf7146100fa578063084a51d81461012a5780631b68f3281461013d575b600080fd5b60035461010d906001600160a01b031681565b6040516001600160a01b0390911681526020015b60405180910390f35b60025461010d906001600160a01b031681565b61015061014b36600461081d565b610265565b005b61015b60045481565b604051908152602001610121565b610150610177366004610857565b6103b6565b61015061018a36600461087b565b61042f565b60015461010d906001600160a01b031681565b61010d6101b0366004610857565b6001600160a01b039081166000908152600660205260409020541690565b6005546101e090610100900460ff1681565b6040519015158152602001610121565b61010d6101fe366004610857565b6006602052600090815260409020546001600160a01b031681565b610150610488565b6005546101e09060ff1681565b61015061023c366004610894565b61054c565b6002546001600160a01b031661010d565b61015061026036600461092f565b61069f565b60055460ff1615156001146102c15760405162461bcd60e51b815260206004820152601f60248201527f50726f76657220636f6e74726163742061646472657373206e6f74207365740060448201526064015b60405180910390fd5b60006102cd8383610731565b90506000806000836001600160a01b0316636af39aa3866040518263ffffffff1660e01b815260040161030291815260200190565b606060405180830381600087803b15801561031c57600080fd5b505af1158015610330573d6000803e3d6000fd5b505050506040513d601f19601f820116820180604052508101906103549190610968565b604080516001600160a01b0385811682528481166020830152831681830152426060820152905193965091945092507f7cf5739637eb749ddca9f234c6007e1e9f9b060a35d845ba515321b16e887404919081900360800190a1505050505050565b6001546001600160a01b031633146103fd5760405162461bcd60e51b815260206004820152600a60248201526927b7363c9037bbb732b960b11b60448201526064016102b8565b600280546001600160a01b039092166001600160a01b03199092169190911790556005805461ff001916610100179055565b6001546001600160a01b031633146104765760405162461bcd60e51b815260206004820152600a60248201526927b7363c9037bbb732b960b11b60448201526064016102b8565b6004556005805460ff19166001179055565b336000908152600660205260409020546001600160a01b0316806104e55760405162461bcd60e51b81526020600482015260146024820152734e6f206578697374696e67207265636f7665727960601b60448201526064016102b8565b3360008181526006602090815260409182902080546001600160a01b031916905581519283526001600160a01b038416908301524282820152517f2d712e362287dcff413ca2eff844e039531b6bcbcca75c84b549478114d1b8f09181900360600190a150565b60055460ff1615156001146105a35760405162461bcd60e51b815260206004820152601f60248201527f50726f76657220636f6e74726163742061646472657373206e6f74207365740060448201526064016102b8565b60006105af8686610731565b90506000806000836001600160a01b031663477ff009898989896040518563ffffffff1660e01b81526004016105e894939291906109b5565b606060405180830381600087803b15801561060257600080fd5b505af1158015610616573d6000803e3d6000fd5b505050506040513d601f19601f8201168201806040525081019061063a9190610968565b604080516001600160a01b0385811682528481166020830152831681830152426060820152905193965091945092507f7cf5739637eb749ddca9f234c6007e1e9f9b060a35d845ba515321b16e887404919081900360800190a1505050505050505050565b6003546001600160a01b031633146107035760405162461bcd60e51b815260206004820152602160248201527f4f6e6c792063616c6c61626c6520627920636f6e747261637420666163746f726044820152607960f81b60648201526084016102b8565b6001600160a01b03918216600090815260066020526040902080546001600160a01b03191691909216179055565b60408051600280825260608201835260009283929190602083019080368337019050509050838160008151811061076a5761076a6109fe565b602002602001018181525050828160018151811061078a5761078a6109fe565b60209081029190910101526000546004805460405162b2775760e61b81526001600160a01b0390931692632c9dd5c0926107c79291869101610a14565b600060405180830381600087803b1580156107e157600080fd5b505af11580156107f5573d6000803e3d6000fd5b5050506001600160a01b03808616600090815260066020526040902054169250505092915050565b6000806040838503121561083057600080fd5b50508035926020909101359150565b6001600160a01b038116811461085457600080fd5b50565b60006020828403121561086957600080fd5b81356108748161083f565b9392505050565b60006020828403121561088d57600080fd5b5035919050565b6000806000806000608086880312156108ac57600080fd5b8535945060208601359350604086013567ffffffffffffffff808211156108d257600080fd5b818801915088601f8301126108e657600080fd5b8135818111156108f557600080fd5b89602082850101111561090757600080fd5b60208301955080945050505060608601356109218161083f565b809150509295509295909350565b6000806040838503121561094257600080fd5b823561094d8161083f565b9150602083013561095d8161083f565b809150509250929050565b60008060006060848603121561097d57600080fd5b83516109888161083f565b60208501519093506109998161083f565b60408501519092506109aa8161083f565b809150509250925092565b848152606060208201528260608201528284608083013760008184016080908101919091526001600160a01b03929092166040820152601f909201601f19169091010192915050565b634e487b7160e01b600052603260045260246000fd5b6000604082018483526020604081850152818551808452606086019150828701935060005b81811015610a5557845183529383019391830191600101610a39565b509097965050505050505056fea26469706673582212206ed3145f788ba86f6a6db060e801f903885715981cc14969e79d0f32ae3f149a64736f6c63430008090033",
  "linkReferences": {},
  "deployedLinkReferences": {}
}