{
  "_format": "hh-sol-artifact-1",
  "contractName": "GatewayContract",
  "sourceName": "contracts/ethereum/GatewayContract.sol",
  "abi": [
    {
      "inputs": [
        {
          "internalType": "contract IStarknetCore",
          "name": "_starknetCore",
          "type": "address"
        },
        {
          "internalType": "address",
          "name": "_trustedAgents",
          "type": "address"
        },
        {
          "internalType": "address",
          "name": "_recoveryContractFactory",
          "type": "address"
        }
      ],
      "stateMutability": "nonpayable",
      "type": "constructor"
    },
    {
      "anonymous": false,
      "inputs": [
        {
          "indexed": false,
          "internalType": "address",
          "name": "EOA",
          "type": "address"
        },
        {
          "indexed": false,
          "internalType": "address",
          "name": "recoveryContract",
          "type": "address"
        },
        {
          "indexed": false,
          "internalType": "uint256",
          "name": "creationDate",
          "type": "uint256"
        },
        {
          "indexed": false,
          "internalType": "uint256",
          "name": "minBlocks",
          "type": "uint256"
        }
      ],
      "name": "NewRecoveryContract",
      "type": "event"
    },
    {
      "anonymous": false,
      "inputs": [
        {
          "indexed": false,
          "internalType": "address",
          "name": "EOA",
          "type": "address"
        },
        {
          "indexed": false,
          "internalType": "address",
          "name": "recoveryContract",
          "type": "address"
        },
        {
          "indexed": false,
          "internalType": "uint256",
          "name": "terminationDatee",
          "type": "uint256"
        }
      ],
      "name": "TerminateRecoveryContract",
      "type": "event"
    },
    {
      "inputs": [
        {
          "internalType": "address[]",
          "name": "erc20contracts",
          "type": "address[]"
        },
        {
          "internalType": "address",
          "name": "to",
          "type": "address"
        }
      ],
      "name": "claimAssets",
      "outputs": [],
      "stateMutability": "nonpayable",
      "type": "function"
    },
    {
      "inputs": [
        {
          "internalType": "address",
          "name": "recipient",
          "type": "address"
        },
        {
          "internalType": "uint256",
          "name": "minBlocks",
          "type": "uint256"
        }
      ],
      "name": "deployRecoveryContract",
      "outputs": [],
      "stateMutability": "nonpayable",
      "type": "function"
    },
    {
      "inputs": [
        {
          "internalType": "uint256",
          "name": "minBlocks",
          "type": "uint256"
        },
        {
          "internalType": "string",
          "name": "_legalDocumentsHash",
          "type": "string"
        }
      ],
      "name": "deployRecoveryContractTrustedAgents",
      "outputs": [],
      "stateMutability": "nonpayable",
      "type": "function"
    },
    {
      "inputs": [
        {
          "internalType": "uint256",
          "name": "minBlocks",
          "type": "uint256"
        },
        {
          "internalType": "uint256",
          "name": "_hashedPassword",
          "type": "uint256"
        }
      ],
      "name": "deployRecoveryContractZk",
      "outputs": [],
      "stateMutability": "nonpayable",
      "type": "function"
    },
    {
      "inputs": [
        {
          "internalType": "address",
          "name": "",
          "type": "address"
        }
      ],
      "name": "eoaToRecoveryContract",
      "outputs": [
        {
          "internalType": "address",
          "name": "",
          "type": "address"
        }
      ],
      "stateMutability": "view",
      "type": "function"
    },
    {
      "inputs": [],
      "name": "l2StorageProverAddress",
      "outputs": [
        {
          "internalType": "uint256",
          "name": "",
          "type": "uint256"
        }
      ],
      "stateMutability": "view",
      "type": "function"
    },
    {
      "inputs": [],
      "name": "owner",
      "outputs": [
        {
          "internalType": "address",
          "name": "",
          "type": "address"
        }
      ],
      "stateMutability": "view",
      "type": "function"
    },
    {
      "inputs": [],
      "name": "proverAddressIsSet",
      "outputs": [
        {
          "internalType": "bool",
          "name": "",
          "type": "bool"
        }
      ],
      "stateMutability": "view",
      "type": "function"
    },
    {
      "inputs": [
        {
          "internalType": "uint256",
          "name": "userAddress",
          "type": "uint256"
        },
        {
          "internalType": "uint256",
          "name": "blocks",
          "type": "uint256"
        }
      ],
      "name": "receiveFromStorageProver",
      "outputs": [],
      "stateMutability": "nonpayable",
      "type": "function"
    },
    {
      "inputs": [
        {
          "internalType": "uint256",
          "name": "userAddress",
          "type": "uint256"
        },
        {
          "internalType": "uint256",
          "name": "blocks",
          "type": "uint256"
        },
        {
          "internalType": "bytes",
          "name": "proof",
          "type": "bytes"
        }
      ],
      "name": "receiveFromStorageProverZkProof",
      "outputs": [],
      "stateMutability": "nonpayable",
      "type": "function"
    },
    {
      "inputs": [],
      "name": "recoveryContractFactory",
      "outputs": [
        {
          "internalType": "address",
          "name": "",
          "type": "address"
        }
      ],
      "stateMutability": "view",
      "type": "function"
    },
    {
      "inputs": [
        {
          "internalType": "uint256",
          "name": "_l2StorageProverAddress",
          "type": "uint256"
        }
      ],
      "name": "setProverAddress",
      "outputs": [],
      "stateMutability": "nonpayable",
      "type": "function"
    },
    {
      "inputs": [],
      "name": "terminateRecoveryContract",
      "outputs": [],
      "stateMutability": "nonpayable",
      "type": "function"
    },
    {
      "inputs": [],
      "name": "trustedAgents",
      "outputs": [
        {
          "internalType": "address",
          "name": "",
          "type": "address"
        }
      ],
      "stateMutability": "view",
      "type": "function"
    },
    {
      "inputs": [
        {
          "internalType": "address",
          "name": "_trustedAgents",
          "type": "address"
        }
      ],
      "name": "updateTrustedAgents",
      "outputs": [],
      "stateMutability": "nonpayable",
      "type": "function"
    }
  ],
  "bytecode": "0x60806040526000600560006101000a81548160ff0219169083151502179055503480156200002c57600080fd5b50604051620049493803806200494983398181016040528101906200005291906200020d565b826000806101000a81548173ffffffffffffffffffffffffffffffffffffffff021916908373ffffffffffffffffffffffffffffffffffffffff16021790555033600160006101000a81548173ffffffffffffffffffffffffffffffffffffffff021916908373ffffffffffffffffffffffffffffffffffffffff16021790555081600260006101000a81548173ffffffffffffffffffffffffffffffffffffffff021916908373ffffffffffffffffffffffffffffffffffffffff16021790555080600360006101000a81548173ffffffffffffffffffffffffffffffffffffffff021916908373ffffffffffffffffffffffffffffffffffffffff16021790555050505062000269565b600080fd5b600073ffffffffffffffffffffffffffffffffffffffff82169050919050565b6000620001908262000163565b9050919050565b6000620001a48262000183565b9050919050565b620001b68162000197565b8114620001c257600080fd5b50565b600081519050620001d681620001ab565b92915050565b620001e78162000183565b8114620001f357600080fd5b50565b6000815190506200020781620001dc565b92915050565b6000806000606084860312156200022957620002286200015e565b5b60006200023986828701620001c5565b93505060206200024c86828701620001f6565b92505060406200025f86828701620001f6565b9150509250925092565b6146d080620002796000396000f3fe60806040523480156200001157600080fd5b50600436106200010c5760003560e01c8063bd22629211620000a5578063e524979c116200006f578063e524979c146200028f578063eb8aef59146200029b578063f36457db14620002bd578063f7fa310b14620002dd576200010c565b8063bd22629214620001f9578063bfe728c01462000219578063c4c251f31462000239578063dfa08923146200026f576200010c565b806348ec4c2911620000e757806348ec4c29146200017757806369a5a51c14620001975780638c98c51614620001b75780638da5cb5b14620001d7576200010c565b806303b5fdf7146200011157806329c877f3146200013357806341e6347e1462000155575b600080fd5b6200011b620002fd565b6040516200012a9190620012d3565b60405180910390f35b6200013d62000323565b6040516200014c91906200130b565b60405180910390f35b6200015f62000329565b6040516200016e9190620012d3565b60405180910390f35b6200019560048036038101906200018f91906200139e565b6200034f565b005b620001b56004803603810190620001af9190620013e5565b62000525565b005b620001d56004803603810190620001cf919062001417565b620005fc565b005b620001e1620006b4565b604051620001f09190620012d3565b60405180910390f35b62000217600480360381019062000211919062001449565b620006da565b005b620002376004803603810190620002319190620014fe565b62000926565b005b620002576004803603810190620002519190620013e5565b62000b84565b604051620002669190620012d3565b60405180910390f35b6200028d600480360381019062000287919062001449565b62000bb7565b005b6200029962000e0d565b005b620002a562000f13565b604051620002b491906200159b565b60405180910390f35b620002db6004803603810190620002d5919062001617565b62000f26565b005b620002fb6004803603810190620002f59190620017de565b62001078565b005b600360009054906101000a900473ffffffffffffffffffffffffffffffffffffffff1681565b60045481565b600260009054906101000a900473ffffffffffffffffffffffffffffffffffffffff1681565b600073ffffffffffffffffffffffffffffffffffffffff16600660003373ffffffffffffffffffffffffffffffffffffffff1673ffffffffffffffffffffffffffffffffffffffff16815260200190815260200160002060009054906101000a900473ffffffffffffffffffffffffffffffffffffffff1673ffffffffffffffffffffffffffffffffffffffff161462000420576040517f08c379a00000000000000000000000000000000000000000000000000000000081526004016200041790620018a5565b60405180910390fd5b600082823033604051620004349062001272565b620004439493929190620018c7565b604051809103906000f08015801562000460573d6000803e3d6000fd5b50905080600660003373ffffffffffffffffffffffffffffffffffffffff1673ffffffffffffffffffffffffffffffffffffffff16815260200190815260200160002060006101000a81548173ffffffffffffffffffffffffffffffffffffffff021916908373ffffffffffffffffffffffffffffffffffffffff1602179055507f63525507ae06268d2c3cb72b565afcee4097d00187f87cd6ee5ceadaf54063a73382428560405162000518949392919062001914565b60405180910390a1505050565b600160009054906101000a900473ffffffffffffffffffffffffffffffffffffffff1673ffffffffffffffffffffffffffffffffffffffff163373ffffffffffffffffffffffffffffffffffffffff1614620005b8576040517f08c379a0000000000000000000000000000000000000000000000000000000008152600401620005af90620019b1565b60405180910390fd5b80600260006101000a81548173ffffffffffffffffffffffffffffffffffffffff021916908373ffffffffffffffffffffffffffffffffffffffff16021790555050565b600160009054906101000a900473ffffffffffffffffffffffffffffffffffffffff1673ffffffffffffffffffffffffffffffffffffffff163373ffffffffffffffffffffffffffffffffffffffff16146200068f576040517f08c379a00000000000000000000000000000000000000000000000000000000081526004016200068690620019b1565b60405180910390fd5b806004819055506001600560006101000a81548160ff02191690831515021790555050565b600160009054906101000a900473ffffffffffffffffffffffffffffffffffffffff1681565b600073ffffffffffffffffffffffffffffffffffffffff16600660003373ffffffffffffffffffffffffffffffffffffffff1673ffffffffffffffffffffffffffffffffffffffff16815260200190815260200160002060009054906101000a900473ffffffffffffffffffffffffffffffffffffffff1673ffffffffffffffffffffffffffffffffffffffff1614620007ab576040517f08c379a0000000000000000000000000000000000000000000000000000000008152600401620007a290620018a5565b60405180910390fd5b6000600360009054906101000a900473ffffffffffffffffffffffffffffffffffffffff1673ffffffffffffffffffffffffffffffffffffffff1663bd22629284846040518363ffffffff1660e01b81526004016200080c929190620019d3565b602060405180830381600087803b1580156200082757600080fd5b505af11580156200083c573d6000803e3d6000fd5b505050506040513d601f19601f8201168201806040525081019062000862919062001a17565b905080600660003373ffffffffffffffffffffffffffffffffffffffff1673ffffffffffffffffffffffffffffffffffffffff16815260200190815260200160002060006101000a81548173ffffffffffffffffffffffffffffffffffffffff021916908373ffffffffffffffffffffffffffffffffffffffff1602179055507f63525507ae06268d2c3cb72b565afcee4097d00187f87cd6ee5ceadaf54063a73382428660405162000919949392919062001914565b60405180910390a1505050565b6000600267ffffffffffffffff81111562000946576200094562001697565b5b604051908082528060200260200182016040528015620009755781602001602082028036833780820191505090505b509050848160008151811062000990576200098f62001a49565b5b6020026020010181815250508381600181518110620009b457620009b362001a49565b5b60200260200101818152505060011515600560009054906101000a900460ff16151514620009e757620009e662001a78565b5b60008054906101000a900473ffffffffffffffffffffffffffffffffffffffff1673ffffffffffffffffffffffffffffffffffffffff16632c9dd5c0600454836040518363ffffffff1660e01b815260040162000a4692919062001b75565b602060405180830381600087803b15801562000a6157600080fd5b505af115801562000a76573d6000803e3d6000fd5b505050506040513d601f19601f8201168201806040525081019062000a9c919062001be4565b5060008590506000600660008373ffffffffffffffffffffffffffffffffffffffff1673ffffffffffffffffffffffffffffffffffffffff16815260200190815260200160002060009054906101000a900473ffffffffffffffffffffffffffffffffffffffff1690508073ffffffffffffffffffffffffffffffffffffffff1663477ff009878787336040518563ffffffff1660e01b815260040162000b47949392919062001c5a565b600060405180830381600087803b15801562000b6257600080fd5b505af115801562000b77573d6000803e3d6000fd5b5050505050505050505050565b60066020528060005260406000206000915054906101000a900473ffffffffffffffffffffffffffffffffffffffff1681565b6000600267ffffffffffffffff81111562000bd75762000bd662001697565b5b60405190808252806020026020018201604052801562000c065781602001602082028036833780820191505090505b509050828160008151811062000c215762000c2062001a49565b5b602002602001018181525050818160018151811062000c455762000c4462001a49565b5b60200260200101818152505060011515600560009054906101000a900460ff1615151462000c785762000c7762001a78565b5b60008054906101000a900473ffffffffffffffffffffffffffffffffffffffff1673ffffffffffffffffffffffffffffffffffffffff16632c9dd5c0600454836040518363ffffffff1660e01b815260040162000cd792919062001b75565b602060405180830381600087803b15801562000cf257600080fd5b505af115801562000d07573d6000803e3d6000fd5b505050506040513d601f19601f8201168201806040525081019062000d2d919062001be4565b5060008390506000600660008373ffffffffffffffffffffffffffffffffffffffff1673ffffffffffffffffffffffffffffffffffffffff16815260200190815260200160002060009054906101000a900473ffffffffffffffffffffffffffffffffffffffff1690508073ffffffffffffffffffffffffffffffffffffffff16636af39aa3856040518263ffffffff1660e01b815260040162000dd291906200130b565b600060405180830381600087803b15801562000ded57600080fd5b505af115801562000e02573d6000803e3d6000fd5b505050505050505050565b6000600660003373ffffffffffffffffffffffffffffffffffffffff1673ffffffffffffffffffffffffffffffffffffffff16815260200190815260200160002060009054906101000a900473ffffffffffffffffffffffffffffffffffffffff1690508073ffffffffffffffffffffffffffffffffffffffff1663e524979c6040518163ffffffff1660e01b8152600401600060405180830381600087803b15801562000eba57600080fd5b505af115801562000ecf573d6000803e3d6000fd5b505050507f2d712e362287dcff413ca2eff844e039531b6bcbcca75c84b549478114d1b8f033824260405162000f089392919062001ca0565b60405180910390a150565b600560009054906101000a900460ff1681565b6000600660003373ffffffffffffffffffffffffffffffffffffffff1673ffffffffffffffffffffffffffffffffffffffff16815260200190815260200160002060009054906101000a900473ffffffffffffffffffffffffffffffffffffffff169050600073ffffffffffffffffffffffffffffffffffffffff168173ffffffffffffffffffffffffffffffffffffffff16141562000ffd576040517f08c379a000000000000000000000000000000000000000000000000000000000815260040162000ff49062001d2d565b60405180910390fd5b8073ffffffffffffffffffffffffffffffffffffffff1663a31fca30858533866040518563ffffffff1660e01b81526004016200103e949392919062001e24565b600060405180830381600087803b1580156200105957600080fd5b505af11580156200106e573d6000803e3d6000fd5b5050505050505050565b600073ffffffffffffffffffffffffffffffffffffffff16600660003373ffffffffffffffffffffffffffffffffffffffff1673ffffffffffffffffffffffffffffffffffffffff16815260200190815260200160002060009054906101000a900473ffffffffffffffffffffffffffffffffffffffff1673ffffffffffffffffffffffffffffffffffffffff161462001149576040517f08c379a00000000000000000000000000000000000000000000000000000000081526004016200114090620018a5565b60405180910390fd5b6000600260009054906101000a900473ffffffffffffffffffffffffffffffffffffffff1683333085604051620011809062001280565b6200119095949392919062001eec565b604051809103906000f080158015620011ad573d6000803e3d6000fd5b50905080600660003373ffffffffffffffffffffffffffffffffffffffff1673ffffffffffffffffffffffffffffffffffffffff16815260200190815260200160002060006101000a81548173ffffffffffffffffffffffffffffffffffffffff021916908373ffffffffffffffffffffffffffffffffffffffff1602179055507f63525507ae06268d2c3cb72b565afcee4097d00187f87cd6ee5ceadaf54063a73382428660405162001265949392919062001914565b60405180910390a1505050565b6111428062001f5183390190565b611608806200309383390190565b600073ffffffffffffffffffffffffffffffffffffffff82169050919050565b6000620012bb826200128e565b9050919050565b620012cd81620012ae565b82525050565b6000602082019050620012ea6000830184620012c2565b92915050565b6000819050919050565b6200130581620012f0565b82525050565b6000602082019050620013226000830184620012fa565b92915050565b6000604051905090565b600080fd5b600080fd5b6200134781620012ae565b81146200135357600080fd5b50565b60008135905062001367816200133c565b92915050565b6200137881620012f0565b81146200138457600080fd5b50565b60008135905062001398816200136d565b92915050565b60008060408385031215620013b857620013b762001332565b5b6000620013c88582860162001356565b9250506020620013db8582860162001387565b9150509250929050565b600060208284031215620013fe57620013fd62001332565b5b60006200140e8482850162001356565b91505092915050565b60006020828403121562001430576200142f62001332565b5b6000620014408482850162001387565b91505092915050565b6000806040838503121562001463576200146262001332565b5b6000620014738582860162001387565b9250506020620014868582860162001387565b9150509250929050565b600080fd5b600080fd5b600080fd5b60008083601f840112620014b857620014b762001490565b5b8235905067ffffffffffffffff811115620014d857620014d762001495565b5b602083019150836001820283011115620014f757620014f66200149a565b5b9250929050565b600080600080606085870312156200151b576200151a62001332565b5b60006200152b8782880162001387565b94505060206200153e8782880162001387565b935050604085013567ffffffffffffffff81111562001562576200156162001337565b5b62001570878288016200149f565b925092505092959194509250565b60008115159050919050565b62001595816200157e565b82525050565b6000602082019050620015b260008301846200158a565b92915050565b60008083601f840112620015d157620015d062001490565b5b8235905067ffffffffffffffff811115620015f157620015f062001495565b5b60208301915083602082028301111562001610576200160f6200149a565b5b9250929050565b60008060006040848603121562001633576200163262001332565b5b600084013567ffffffffffffffff81111562001654576200165362001337565b5b6200166286828701620015b8565b93509350506020620016778682870162001356565b9150509250925092565b600080fd5b6000601f19601f8301169050919050565b7f4e487b7100000000000000000000000000000000000000000000000000000000600052604160045260246000fd5b620016d18262001686565b810181811067ffffffffffffffff82111715620016f357620016f262001697565b5b80604052505050565b60006200170862001328565b9050620017168282620016c6565b919050565b600067ffffffffffffffff82111562001739576200173862001697565b5b620017448262001686565b9050602081019050919050565b82818337600083830152505050565b60006200177762001771846200171b565b620016fc565b90508281526020810184848401111562001796576200179562001681565b5b620017a384828562001751565b509392505050565b600082601f830112620017c357620017c262001490565b5b8135620017d584826020860162001760565b91505092915050565b60008060408385031215620017f857620017f762001332565b5b6000620018088582860162001387565b925050602083013567ffffffffffffffff8111156200182c576200182b62001337565b5b6200183a85828601620017ab565b9150509250929050565b600082825260208201905092915050565b7f5265636f7665727920616c726561647920657869737473000000000000000000600082015250565b60006200188d60178362001844565b91506200189a8262001855565b602082019050919050565b60006020820190508181036000830152620018c0816200187e565b9050919050565b6000608082019050620018de6000830187620012c2565b620018ed6020830186620012fa565b620018fc6040830185620012c2565b6200190b6060830184620012c2565b95945050505050565b60006080820190506200192b6000830187620012c2565b6200193a6020830186620012c2565b620019496040830185620012fa565b620019586060830184620012fa565b95945050505050565b7f4f6e6c79206f776e657200000000000000000000000000000000000000000000600082015250565b600062001999600a8362001844565b9150620019a68262001961565b602082019050919050565b60006020820190508181036000830152620019cc816200198a565b9050919050565b6000604082019050620019ea6000830185620012fa565b620019f96020830184620012fa565b9392505050565b60008151905062001a11816200133c565b92915050565b60006020828403121562001a305762001a2f62001332565b5b600062001a408482850162001a00565b91505092915050565b7f4e487b7100000000000000000000000000000000000000000000000000000000600052603260045260246000fd5b7f4e487b7100000000000000000000000000000000000000000000000000000000600052600160045260246000fd5b600081519050919050565b600082825260208201905092915050565b6000819050602082019050919050565b62001ade81620012f0565b82525050565b600062001af2838362001ad3565b60208301905092915050565b6000602082019050919050565b600062001b188262001aa7565b62001b24818562001ab2565b935062001b318362001ac3565b8060005b8381101562001b6857815162001b4c888262001ae4565b975062001b598362001afe565b92505060018101905062001b35565b5085935050505092915050565b600060408201905062001b8c6000830185620012fa565b818103602083015262001ba0818462001b0b565b90509392505050565b6000819050919050565b62001bbe8162001ba9565b811462001bca57600080fd5b50565b60008151905062001bde8162001bb3565b92915050565b60006020828403121562001bfd5762001bfc62001332565b5b600062001c0d8482850162001bcd565b91505092915050565b600082825260208201905092915050565b600062001c35838562001c16565b935062001c4483858462001751565b62001c4f8362001686565b840190509392505050565b600060608201905062001c716000830187620012fa565b818103602083015262001c8681858762001c27565b905062001c976040830184620012c2565b95945050505050565b600060608201905062001cb76000830186620012c2565b62001cc66020830185620012c2565b62001cd56040830184620012fa565b949350505050565b7f5265636f7665727920646f65736e277420657869737400000000000000000000600082015250565b600062001d1560168362001844565b915062001d228262001cdd565b602082019050919050565b6000602082019050818103600083015262001d488162001d06565b9050919050565b600082825260208201905092915050565b6000819050919050565b62001d7581620012ae565b82525050565b600062001d89838362001d6a565b60208301905092915050565b600062001da6602084018462001356565b905092915050565b6000602082019050919050565b600062001dc9838562001d4f565b935062001dd68262001d60565b8060005b8581101562001e175762001def828462001d95565b62001dfb888262001d7b565b975062001e088362001dae565b92505060018101905062001dda565b5085925050509392505050565b6000606082019050818103600083015262001e4181868862001dbb565b905062001e526020830185620012c2565b62001e616040830184620012c2565b95945050505050565b600081519050919050565b60005b8381101562001e9557808201518184015260208101905062001e78565b8381111562001ea5576000848401525b50505050565b600062001eb88262001e6a565b62001ec4818562001844565b935062001ed681856020860162001e75565b62001ee18162001686565b840191505092915050565b600060a08201905062001f036000830188620012c2565b62001f126020830187620012fa565b62001f216040830186620012c2565b62001f306060830185620012c2565b818103608083015262001f44818462001eab565b9050969550505050505056fe60806040523480156200001157600080fd5b5060405162001142380380620011428339818101604052810190620000379190620001af565b836000806101000a81548173ffffffffffffffffffffffffffffffffffffffff021916908373ffffffffffffffffffffffffffffffffffffffff16021790555080600160006101000a81548173ffffffffffffffffffffffffffffffffffffffff021916908373ffffffffffffffffffffffffffffffffffffffff1602179055508260038190555081600260006101000a81548173ffffffffffffffffffffffffffffffffffffffff021916908373ffffffffffffffffffffffffffffffffffffffff1602179055505050505062000221565b600080fd5b600073ffffffffffffffffffffffffffffffffffffffff82169050919050565b60006200013c826200010f565b9050919050565b6200014e816200012f565b81146200015a57600080fd5b50565b6000815190506200016e8162000143565b92915050565b6000819050919050565b620001898162000174565b81146200019557600080fd5b50565b600081519050620001a9816200017e565b92915050565b60008060008060808587031215620001cc57620001cb6200010a565b5b6000620001dc878288016200015d565b9450506020620001ef8782880162000198565b935050604062000202878288016200015d565b925050606062000215878288016200015d565b91505092959194509250565b610f1180620002316000396000f3fe608060405234801561001057600080fd5b50600436106100935760003560e01c8063a31fca3011610066578063a31fca301461010e578063d1cc99761461012a578063e524979c14610148578063eb0cde1d14610152578063ff21d1e51461017057610093565b806322f3e2d41461009857806366d003ac146100b65780636af39aa3146100d45780637dc5186f146100f0575b600080fd5b6100a061018e565b6040516100ad9190610860565b60405180910390f35b6100be6101a1565b6040516100cb91906108bc565b60405180910390f35b6100ee60048036038101906100e99190610917565b6101c5565b005b6100f86103b3565b60405161010591906108bc565b60405180910390f35b610128600480360381019061012391906109d5565b6103d9565b005b610132610759565b60405161013f9190610860565b60405180910390f35b61015061076c565b005b61015a610819565b60405161016791906108bc565b60405180910390f35b61017861083f565b6040516101859190610a58565b60405180910390f35b600460009054906101000a900460ff1681565b60008054906101000a900473ffffffffffffffffffffffffffffffffffffffff1681565b600260009054906101000a900473ffffffffffffffffffffffffffffffffffffffff1673ffffffffffffffffffffffffffffffffffffffff163373ffffffffffffffffffffffffffffffffffffffff1614610255576040517f08c379a000000000000000000000000000000000000000000000000000000000815260040161024c90610ad0565b60405180910390fd5b600460009054906101000a900460ff16156102a5576040517f08c379a000000000000000000000000000000000000000000000000000000000815260040161029c90610b3c565b60405180910390fd5b600460019054906101000a900460ff16156102f5576040517f08c379a00000000000000000000000000000000000000000000000000000000081526004016102ec90610ba8565b60405180910390fd5b60035481101561033a576040517f08c379a000000000000000000000000000000000000000000000000000000000815260040161033190610c14565b60405180910390fd5b6001600460006101000a81548160ff0219169083151502179055507f8c0f791a552520d7b652c7f008af155a562ee6e9ce409bf539fbe0c18eef91603060008054906101000a900473ffffffffffffffffffffffffffffffffffffffff16426040516103a893929190610c34565b60405180910390a150565b600160009054906101000a900473ffffffffffffffffffffffffffffffffffffffff1681565b600260009054906101000a900473ffffffffffffffffffffffffffffffffffffffff1673ffffffffffffffffffffffffffffffffffffffff163373ffffffffffffffffffffffffffffffffffffffff1614610469576040517f08c379a000000000000000000000000000000000000000000000000000000000815260040161046090610ad0565b60405180910390fd5b60008054906101000a900473ffffffffffffffffffffffffffffffffffffffff1673ffffffffffffffffffffffffffffffffffffffff168273ffffffffffffffffffffffffffffffffffffffff16146104f7576040517f08c379a00000000000000000000000000000000000000000000000000000000081526004016104ee90610cb7565b60405180910390fd5b600460009054906101000a900460ff16610546576040517f08c379a000000000000000000000000000000000000000000000000000000000815260040161053d90610d23565b60405180910390fd5b600460019054906101000a900460ff1615610596576040517f08c379a000000000000000000000000000000000000000000000000000000000815260040161058d90610ba8565b60405180910390fd5b60005b848490508110156107525760008585838181106105b9576105b8610d43565b5b90506020020160208101906105ce9190610d72565b905060008173ffffffffffffffffffffffffffffffffffffffff1663dd62ed3e600160009054906101000a900473ffffffffffffffffffffffffffffffffffffffff16306040518363ffffffff1660e01b815260040161062f929190610d9f565b60206040518083038186803b15801561064757600080fd5b505afa15801561065b573d6000803e3d6000fd5b505050506040513d601f19601f8201168201806040525081019061067f9190610ddd565b9050600081111561073d578173ffffffffffffffffffffffffffffffffffffffff166323b872dd600160009054906101000a900473ffffffffffffffffffffffffffffffffffffffff1686846040518463ffffffff1660e01b81526004016106e993929190610c34565b602060405180830381600087803b15801561070357600080fd5b505af1158015610717573d6000803e3d6000fd5b505050506040513d601f19601f8201168201806040525081019061073b9190610e36565b505b5050808061074a90610e92565b915050610599565b5050505050565b600460019054906101000a900460ff1681565b600260009054906101000a900473ffffffffffffffffffffffffffffffffffffffff1673ffffffffffffffffffffffffffffffffffffffff163373ffffffffffffffffffffffffffffffffffffffff16146107fc576040517f08c379a00000000000000000000000000000000000000000000000000000000081526004016107f390610ad0565b60405180910390fd5b6001600460016101000a81548160ff021916908315150217905550565b600260009054906101000a900473ffffffffffffffffffffffffffffffffffffffff1681565b60035481565b60008115159050919050565b61085a81610845565b82525050565b60006020820190506108756000830184610851565b92915050565b600073ffffffffffffffffffffffffffffffffffffffff82169050919050565b60006108a68261087b565b9050919050565b6108b68161089b565b82525050565b60006020820190506108d160008301846108ad565b92915050565b600080fd5b600080fd5b6000819050919050565b6108f4816108e1565b81146108ff57600080fd5b50565b600081359050610911816108eb565b92915050565b60006020828403121561092d5761092c6108d7565b5b600061093b84828501610902565b91505092915050565b600080fd5b600080fd5b600080fd5b60008083601f84011261096957610968610944565b5b8235905067ffffffffffffffff81111561098657610985610949565b5b6020830191508360208202830111156109a2576109a161094e565b5b9250929050565b6109b28161089b565b81146109bd57600080fd5b50565b6000813590506109cf816109a9565b92915050565b600080600080606085870312156109ef576109ee6108d7565b5b600085013567ffffffffffffffff811115610a0d57610a0c6108dc565b5b610a1987828801610953565b94509450506020610a2c878288016109c0565b9250506040610a3d878288016109c0565b91505092959194509250565b610a52816108e1565b82525050565b6000602082019050610a6d6000830184610a49565b92915050565b600082825260208201905092915050565b7f4e6f742067617465776179000000000000000000000000000000000000000000600082015250565b6000610aba600b83610a73565b9150610ac582610a84565b602082019050919050565b60006020820190508181036000830152610ae981610aad565b9050919050565b7f416c726561647920616374697665000000000000000000000000000000000000600082015250565b6000610b26600e83610a73565b9150610b3182610af0565b602082019050919050565b60006020820190508181036000830152610b5581610b19565b9050919050565b7f416c7265616479207465726d696e617465640000000000000000000000000000600082015250565b6000610b92601283610a73565b9150610b9d82610b5c565b602082019050919050565b60006020820190508181036000830152610bc181610b85565b9050919050565b7f496e616374697669747920746f6f2073686f7274000000000000000000000000600082015250565b6000610bfe601483610a73565b9150610c0982610bc8565b602082019050919050565b60006020820190508181036000830152610c2d81610bf1565b9050919050565b6000606082019050610c4960008301866108ad565b610c5660208301856108ad565b610c636040830184610a49565b949350505050565b7f4f6e6c7920726563697069656e74000000000000000000000000000000000000600082015250565b6000610ca1600e83610a73565b9150610cac82610c6b565b602082019050919050565b60006020820190508181036000830152610cd081610c94565b9050919050565b7f4e6f742061637469766500000000000000000000000000000000000000000000600082015250565b6000610d0d600a83610a73565b9150610d1882610cd7565b602082019050919050565b60006020820190508181036000830152610d3c81610d00565b9050919050565b7f4e487b7100000000000000000000000000000000000000000000000000000000600052603260045260246000fd5b600060208284031215610d8857610d876108d7565b5b6000610d96848285016109c0565b91505092915050565b6000604082019050610db460008301856108ad565b610dc160208301846108ad565b9392505050565b600081519050610dd7816108eb565b92915050565b600060208284031215610df357610df26108d7565b5b6000610e0184828501610dc8565b91505092915050565b610e1381610845565b8114610e1e57600080fd5b50565b600081519050610e3081610e0a565b92915050565b600060208284031215610e4c57610e4b6108d7565b5b6000610e5a84828501610e21565b91505092915050565b7f4e487b7100000000000000000000000000000000000000000000000000000000600052601160045260246000fd5b6000610e9d826108e1565b91507fffffffffffffffffffffffffffffffffffffffffffffffffffffffffffffffff821415610ed057610ecf610e63565b5b60018201905091905056fea264697066735822122050a535a18dbee0223b7410dd290ce64777c670707577e5c705e5c08f5e98d54c64736f6c6343000809003360806040523480156200001157600080fd5b506040516200160838038062001608833981810160405281019062000037919062000419565b84848484836000806101000a81548173ffffffffffffffffffffffffffffffffffffffff021916908373ffffffffffffffffffffffffffffffffffffffff16021790555080600160006101000a81548173ffffffffffffffffffffffffffffffffffffffff021916908373ffffffffffffffffffffffffffffffffffffffff1602179055508260038190555081600260006101000a81548173ffffffffffffffffffffffffffffffffffffffff021916908373ffffffffffffffffffffffffffffffffffffffff160217905550505050508060059080519060200190620001209291906200012c565b50505050505062000525565b8280546200013a90620004ef565b90600052602060002090601f0160209004810192826200015e5760008555620001aa565b82601f106200017957805160ff1916838001178555620001aa565b82800160010185558215620001aa579182015b82811115620001a95782518255916020019190600101906200018c565b5b509050620001b99190620001bd565b5090565b5b80821115620001d8576000816000905550600101620001be565b5090565b6000604051905090565b600080fd5b600080fd5b600073ffffffffffffffffffffffffffffffffffffffff82169050919050565b60006200021d82620001f0565b9050919050565b6200022f8162000210565b81146200023b57600080fd5b50565b6000815190506200024f8162000224565b92915050565b6000819050919050565b6200026a8162000255565b81146200027657600080fd5b50565b6000815190506200028a816200025f565b92915050565b600080fd5b600080fd5b6000601f19601f8301169050919050565b7f4e487b7100000000000000000000000000000000000000000000000000000000600052604160045260246000fd5b620002e5826200029a565b810181811067ffffffffffffffff82111715620003075762000306620002ab565b5b80604052505050565b60006200031c620001dc565b90506200032a8282620002da565b919050565b600067ffffffffffffffff8211156200034d576200034c620002ab565b5b62000358826200029a565b9050602081019050919050565b60005b838110156200038557808201518184015260208101905062000368565b8381111562000395576000848401525b50505050565b6000620003b2620003ac846200032f565b62000310565b905082815260208101848484011115620003d157620003d062000295565b5b620003de84828562000365565b509392505050565b600082601f830112620003fe57620003fd62000290565b5b8151620004108482602086016200039b565b91505092915050565b600080600080600060a08688031215620004385762000437620001e6565b5b600062000448888289016200023e565b95505060206200045b8882890162000279565b94505060406200046e888289016200023e565b935050606062000481888289016200023e565b925050608086015167ffffffffffffffff811115620004a557620004a4620001eb565b5b620004b388828901620003e6565b9150509295509295909350565b7f4e487b7100000000000000000000000000000000000000000000000000000000600052602260045260246000fd5b600060028204905060018216806200050857607f821691505b602082108114156200051f576200051e620004c0565b5b50919050565b6110d380620005356000396000f3fe608060405234801561001057600080fd5b506004361061009e5760003560e01c8063b294f94911610066578063b294f94914610135578063d1cc997614610153578063e524979c14610171578063eb0cde1d1461017b578063ff21d1e5146101995761009e565b806322f3e2d4146100a357806366d003ac146100c15780636af39aa3146100df5780637dc5186f146100fb578063a31fca3014610119575b600080fd5b6100ab6101b7565b6040516100b89190610917565b60405180910390f35b6100c96101ca565b6040516100d69190610973565b60405180910390f35b6100f960048036038101906100f491906109ce565b6101ee565b005b6101036103dc565b6040516101109190610973565b60405180910390f35b610133600480360381019061012e9190610a8c565b610402565b005b61013d610782565b60405161014a9190610b99565b60405180910390f35b61015b610810565b6040516101689190610917565b60405180910390f35b610179610823565b005b6101836108d0565b6040516101909190610973565b60405180910390f35b6101a16108f6565b6040516101ae9190610bca565b60405180910390f35b600460009054906101000a900460ff1681565b60008054906101000a900473ffffffffffffffffffffffffffffffffffffffff1681565b600260009054906101000a900473ffffffffffffffffffffffffffffffffffffffff1673ffffffffffffffffffffffffffffffffffffffff163373ffffffffffffffffffffffffffffffffffffffff161461027e576040517f08c379a000000000000000000000000000000000000000000000000000000000815260040161027590610c31565b60405180910390fd5b600460009054906101000a900460ff16156102ce576040517f08c379a00000000000000000000000000000000000000000000000000000000081526004016102c590610c9d565b60405180910390fd5b600460019054906101000a900460ff161561031e576040517f08c379a000000000000000000000000000000000000000000000000000000000815260040161031590610d09565b60405180910390fd5b600354811015610363576040517f08c379a000000000000000000000000000000000000000000000000000000000815260040161035a90610d75565b60405180910390fd5b6001600460006101000a81548160ff0219169083151502179055507f8c0f791a552520d7b652c7f008af155a562ee6e9ce409bf539fbe0c18eef91603060008054906101000a900473ffffffffffffffffffffffffffffffffffffffff16426040516103d193929190610d95565b60405180910390a150565b600160009054906101000a900473ffffffffffffffffffffffffffffffffffffffff1681565b600260009054906101000a900473ffffffffffffffffffffffffffffffffffffffff1673ffffffffffffffffffffffffffffffffffffffff163373ffffffffffffffffffffffffffffffffffffffff1614610492576040517f08c379a000000000000000000000000000000000000000000000000000000000815260040161048990610c31565b60405180910390fd5b60008054906101000a900473ffffffffffffffffffffffffffffffffffffffff1673ffffffffffffffffffffffffffffffffffffffff168273ffffffffffffffffffffffffffffffffffffffff1614610520576040517f08c379a000000000000000000000000000000000000000000000000000000000815260040161051790610e18565b60405180910390fd5b600460009054906101000a900460ff1661056f576040517f08c379a000000000000000000000000000000000000000000000000000000000815260040161056690610e84565b60405180910390fd5b600460019054906101000a900460ff16156105bf576040517f08c379a00000000000000000000000000000000000000000000000000000000081526004016105b690610d09565b60405180910390fd5b60005b8484905081101561077b5760008585838181106105e2576105e1610ea4565b5b90506020020160208101906105f79190610ed3565b905060008173ffffffffffffffffffffffffffffffffffffffff1663dd62ed3e600160009054906101000a900473ffffffffffffffffffffffffffffffffffffffff16306040518363ffffffff1660e01b8152600401610658929190610f00565b60206040518083038186803b15801561067057600080fd5b505afa158015610684573d6000803e3d6000fd5b505050506040513d601f19601f820116820180604052508101906106a89190610f3e565b90506000811115610766578173ffffffffffffffffffffffffffffffffffffffff166323b872dd600160009054906101000a900473ffffffffffffffffffffffffffffffffffffffff1686846040518463ffffffff1660e01b815260040161071293929190610d95565b602060405180830381600087803b15801561072c57600080fd5b505af1158015610740573d6000803e3d6000fd5b505050506040513d601f19601f820116820180604052508101906107649190610f97565b505b5050808061077390610ff3565b9150506105c2565b5050505050565b6005805461078f9061106b565b80601f01602080910402602001604051908101604052809291908181526020018280546107bb9061106b565b80156108085780601f106107dd57610100808354040283529160200191610808565b820191906000526020600020905b8154815290600101906020018083116107eb57829003601f168201915b505050505081565b600460019054906101000a900460ff1681565b600260009054906101000a900473ffffffffffffffffffffffffffffffffffffffff1673ffffffffffffffffffffffffffffffffffffffff163373ffffffffffffffffffffffffffffffffffffffff16146108b3576040517f08c379a00000000000000000000000000000000000000000000000000000000081526004016108aa90610c31565b60405180910390fd5b6001600460016101000a81548160ff021916908315150217905550565b600260009054906101000a900473ffffffffffffffffffffffffffffffffffffffff1681565b60035481565b60008115159050919050565b610911816108fc565b82525050565b600060208201905061092c6000830184610908565b92915050565b600073ffffffffffffffffffffffffffffffffffffffff82169050919050565b600061095d82610932565b9050919050565b61096d81610952565b82525050565b60006020820190506109886000830184610964565b92915050565b600080fd5b600080fd5b6000819050919050565b6109ab81610998565b81146109b657600080fd5b50565b6000813590506109c8816109a2565b92915050565b6000602082840312156109e4576109e361098e565b5b60006109f2848285016109b9565b91505092915050565b600080fd5b600080fd5b600080fd5b60008083601f840112610a2057610a1f6109fb565b5b8235905067ffffffffffffffff811115610a3d57610a3c610a00565b5b602083019150836020820283011115610a5957610a58610a05565b5b9250929050565b610a6981610952565b8114610a7457600080fd5b50565b600081359050610a8681610a60565b92915050565b60008060008060608587031215610aa657610aa561098e565b5b600085013567ffffffffffffffff811115610ac457610ac3610993565b5b610ad087828801610a0a565b94509450506020610ae387828801610a77565b9250506040610af487828801610a77565b91505092959194509250565b600081519050919050565b600082825260208201905092915050565b60005b83811015610b3a578082015181840152602081019050610b1f565b83811115610b49576000848401525b50505050565b6000601f19601f8301169050919050565b6000610b6b82610b00565b610b758185610b0b565b9350610b85818560208601610b1c565b610b8e81610b4f565b840191505092915050565b60006020820190508181036000830152610bb38184610b60565b905092915050565b610bc481610998565b82525050565b6000602082019050610bdf6000830184610bbb565b92915050565b7f4e6f742067617465776179000000000000000000000000000000000000000000600082015250565b6000610c1b600b83610b0b565b9150610c2682610be5565b602082019050919050565b60006020820190508181036000830152610c4a81610c0e565b9050919050565b7f416c726561647920616374697665000000000000000000000000000000000000600082015250565b6000610c87600e83610b0b565b9150610c9282610c51565b602082019050919050565b60006020820190508181036000830152610cb681610c7a565b9050919050565b7f416c7265616479207465726d696e617465640000000000000000000000000000600082015250565b6000610cf3601283610b0b565b9150610cfe82610cbd565b602082019050919050565b60006020820190508181036000830152610d2281610ce6565b9050919050565b7f496e616374697669747920746f6f2073686f7274000000000000000000000000600082015250565b6000610d5f601483610b0b565b9150610d6a82610d29565b602082019050919050565b60006020820190508181036000830152610d8e81610d52565b9050919050565b6000606082019050610daa6000830186610964565b610db76020830185610964565b610dc46040830184610bbb565b949350505050565b7f4f6e6c7920726563697069656e74000000000000000000000000000000000000600082015250565b6000610e02600e83610b0b565b9150610e0d82610dcc565b602082019050919050565b60006020820190508181036000830152610e3181610df5565b9050919050565b7f4e6f742061637469766500000000000000000000000000000000000000000000600082015250565b6000610e6e600a83610b0b565b9150610e7982610e38565b602082019050919050565b60006020820190508181036000830152610e9d81610e61565b9050919050565b7f4e487b7100000000000000000000000000000000000000000000000000000000600052603260045260246000fd5b600060208284031215610ee957610ee861098e565b5b6000610ef784828501610a77565b91505092915050565b6000604082019050610f156000830185610964565b610f226020830184610964565b9392505050565b600081519050610f38816109a2565b92915050565b600060208284031215610f5457610f5361098e565b5b6000610f6284828501610f29565b91505092915050565b610f74816108fc565b8114610f7f57600080fd5b50565b600081519050610f9181610f6b565b92915050565b600060208284031215610fad57610fac61098e565b5b6000610fbb84828501610f82565b91505092915050565b7f4e487b7100000000000000000000000000000000000000000000000000000000600052601160045260246000fd5b6000610ffe82610998565b91507fffffffffffffffffffffffffffffffffffffffffffffffffffffffffffffffff82141561103157611030610fc4565b5b600182019050919050565b7f4e487b7100000000000000000000000000000000000000000000000000000000600052602260045260246000fd5b6000600282049050600182168061108357607f821691505b602082108114156110975761109661103c565b5b5091905056fea26469706673582212207cd7158ee0a3d1a13cff74411576b66e89c2274bd0e45d5923b4014f08c7074c64736f6c63430008090033a264697066735822122054bc0195ca72944a06d34aa0e09805cc9e141050b53053d3653412e0c0a0c5e264736f6c63430008090033",
  "linkReferences": {},
  "deployedLinkReferences": {}
}