{
  "_format": "hh-sol-artifact-1",
  "contractName": "RecoveryContractFactory",
  "sourceName": "contracts/ethereum/RecoveryContractFactory.sol",
  "abi": [
    {
      "inputs": [],
      "stateMutability": "nonpayable",
      "type": "constructor"
    },
    {
      "inputs": [
        {
          "internalType": "uint256",
          "name": "minBlocks",
          "type": "uint256"
        },
        {
          "internalType": "uint256",
          "name": "_hashedPassword",
          "type": "uint256"
        }
      ],
      "name": "deployRecoveryContractZk",
      "outputs": [
        {
          "internalType": "address",
          "name": "recoveryContract",
          "type": "address"
        }
      ],
      "stateMutability": "nonpayable",
      "type": "function"
    },
    {
      "inputs": [],
      "name": "gatewayContract",
      "outputs": [
        {
          "internalType": "address",
          "name": "",
          "type": "address"
        }
      ],
      "stateMutability": "view",
      "type": "function"
    },
    {
      "inputs": [],
      "name": "owner",
      "outputs": [
        {
          "internalType": "address",
          "name": "",
          "type": "address"
        }
      ],
      "stateMutability": "view",
      "type": "function"
    },
    {
      "inputs": [
        {
          "internalType": "address",
          "name": "_gatewayContract",
          "type": "address"
        }
      ],
      "name": "updateGatewayContract",
      "outputs": [],
      "stateMutability": "nonpayable",
      "type": "function"
    }
  ],
  "bytecode": "0x608060405234801561001057600080fd5b5033600160006101000a81548173ffffffffffffffffffffffffffffffffffffffff021916908373ffffffffffffffffffffffffffffffffffffffff160217905550613a7f806100616000396000f3fe608060405234801561001057600080fd5b506004361061004c5760003560e01c80638b00cb1f146100515780638da5cb5b1461006d578063bd2262921461008b578063eb0cde1d146100bb575b600080fd5b61006b60048036038101906100669190610342565b6100d9565b005b6100756101ac565b604051610082919061037e565b60405180910390f35b6100a560048036038101906100a091906103cf565b6101d2565b6040516100b2919061037e565b60405180910390f35b6100c36102ad565b6040516100d0919061037e565b60405180910390f35b600160009054906101000a900473ffffffffffffffffffffffffffffffffffffffff1673ffffffffffffffffffffffffffffffffffffffff163373ffffffffffffffffffffffffffffffffffffffff1614610169576040517f08c379a00000000000000000000000000000000000000000000000000000000081526004016101609061046c565b60405180910390fd5b806000806101000a81548173ffffffffffffffffffffffffffffffffffffffff021916908373ffffffffffffffffffffffffffffffffffffffff16021790555050565b600160009054906101000a900473ffffffffffffffffffffffffffffffffffffffff1681565b60008060009054906101000a900473ffffffffffffffffffffffffffffffffffffffff1673ffffffffffffffffffffffffffffffffffffffff163373ffffffffffffffffffffffffffffffffffffffff1614610263576040517f08c379a000000000000000000000000000000000000000000000000000000000815260040161025a906104d8565b60405180910390fd5b60008084333086604051610276906102d1565b610284959493929190610507565b604051809103906000f0801580156102a0573d6000803e3d6000fd5b5090508091505092915050565b60008054906101000a900473ffffffffffffffffffffffffffffffffffffffff1681565b6134ef806200055b83390190565b600080fd5b600073ffffffffffffffffffffffffffffffffffffffff82169050919050565b600061030f826102e4565b9050919050565b61031f81610304565b811461032a57600080fd5b50565b60008135905061033c81610316565b92915050565b600060208284031215610358576103576102df565b5b60006103668482850161032d565b91505092915050565b61037881610304565b82525050565b6000602082019050610393600083018461036f565b92915050565b6000819050919050565b6103ac81610399565b81146103b757600080fd5b50565b6000813590506103c9816103a3565b92915050565b600080604083850312156103e6576103e56102df565b5b60006103f4858286016103ba565b9250506020610405858286016103ba565b9150509250929050565b600082825260208201905092915050565b7f4f6e6c79206f776e657200000000000000000000000000000000000000000000600082015250565b6000610456600a8361040f565b915061046182610420565b602082019050919050565b6000602082019050818103600083015261048581610449565b9050919050565b7f4f6e6c7920676174657761790000000000000000000000000000000000000000600082015250565b60006104c2600c8361040f565b91506104cd8261048c565b602082019050919050565b600060208201905081810360008301526104f1816104b5565b9050919050565b61050181610399565b82525050565b600060a08201905061051c600083018861036f565b61052960208301876104f8565b610536604083018661036f565b610543606083018561036f565b61055060808301846104f8565b969550505050505056fe60806040523480156200001157600080fd5b50604051620034ef380380620034ef8339818101604052810190620000379190620001bf565b84848484836000806101000a81548173ffffffffffffffffffffffffffffffffffffffff021916908373ffffffffffffffffffffffffffffffffffffffff16021790555080600160006101000a81548173ffffffffffffffffffffffffffffffffffffffff021916908373ffffffffffffffffffffffffffffffffffffffff1602179055508260038190555081600260006101000a81548173ffffffffffffffffffffffffffffffffffffffff021916908373ffffffffffffffffffffffffffffffffffffffff1602179055505050505080600581905550505050505062000247565b600080fd5b600073ffffffffffffffffffffffffffffffffffffffff82169050919050565b60006200014c826200011f565b9050919050565b6200015e816200013f565b81146200016a57600080fd5b50565b6000815190506200017e8162000153565b92915050565b6000819050919050565b620001998162000184565b8114620001a557600080fd5b50565b600081519050620001b9816200018e565b92915050565b600080600080600060a08688031215620001de57620001dd6200011a565b5b6000620001ee888289016200016d565b95505060206200020188828901620001a8565b945050604062000214888289016200016d565b935050606062000227888289016200016d565b92505060806200023a88828901620001a8565b9150509295509295909350565b61329880620002576000396000f3fe608060405234801561001057600080fd5b50600436106100a95760003560e01c80636af39aa3116100715780636af39aa3146101545780637d7be5a9146101705780637dc5186f146101a0578063a31fca30146101be578063eb0cde1d146101da578063ff21d1e5146101f8576100a9565b80631e8e1e13146100ae57806322f3e2d4146100de578063457ceb28146100fc578063477ff0091461011a57806366d003ac14610136575b600080fd5b6100c860048036038101906100c391906128d3565b610216565b6040516100d59190612966565b60405180910390f35b6100e6611d40565b6040516100f39190612966565b60405180910390f35b610104611d53565b6040516101119190612990565b60405180910390f35b610134600480360381019061012f9190612a64565b611d59565b005b61013e611fb6565b60405161014b9190612ae7565b60405180910390f35b61016e60048036038101906101699190612b02565b611fda565b005b61018a60048036038101906101859190612b2f565b612178565b6040516101979190612966565b60405180910390f35b6101a86122f9565b6040516101b59190612ae7565b60405180910390f35b6101d860048036038101906101d39190612be5565b61231f565b005b6101e261264f565b6040516101ef9190612ae7565b60405180910390f35b610200612675565b60405161020d9190612990565b60405180910390f35b6000611cd5565b600080600184846000805b82156102525782840591508482028603905084955080945082820284039050829350809250610228565b600184111561026057600080fd5b600086121561026f5788860195505b85965050505050505092915050565b60405181602084028301815160208301925060005b828410156102d6578185527f30644e72e131a029b85045b68181585d2833e84879b9709143e1f593f0000001845183099150602085019450602084019350610293565b6103007f30644e72e131a029b85045b68181585d2833e84879b9709143e1f593f00000018361021d565b91506020850394506020840393508592505b8284111561037c577f30644e72e131a029b85045b68181585d2833e84879b9709143e1f593f00000018551830990507f30644e72e131a029b85045b68181585d2833e84879b9709143e1f593f0000001845183099150808452602085039450602084039350610312565b81845250505050505050565b7f30644e72e131a029b85045b68181585d2833e84879b9709143e1f593f000000181106103b9576000805260206000f35b50565b6103208151146103d0576000805260206000f35b6103de610260820151610388565b6103ec610280820151610388565b6103fa6102a0820151610388565b6104086102c0820151610388565b6104166102e0820151610388565b610424610300820151610388565b610432610320820151610388565b50565b60008060208501516102e085015260408501516103008501526020830151610320850152602080018301516103408501526040602001830151610360850152606060200183015161038085015260806020018301516103a085015260a06020018301516103c08501527f30644e72e131a029b85045b68181585d2833e84879b9709143e1f593f00000016101006102e08601200690508060208501527f30644e72e131a029b85045b68181585d2833e84879b9709143e1f593f00000016020808601200660408501527f30644e72e131a029b85045b68181585d2833e84879b9709143e1f593f0000001604060e08501200660008501527f30644e72e131a029b85045b68181585d2833e84879b9709143e1f593f000000160c06101208501200691508160608501527f30644e72e131a029b85045b68181585d2833e84879b9709143e1f593f000000182820960a08501527f30644e72e131a029b85045b68181585d2833e84879b9709143e1f593f000000182830991507f30644e72e131a029b85045b68181585d2833e84879b9709143e1f593f000000182830991507f30644e72e131a029b85045b68181585d2833e84879b9709143e1f593f000000182830991507f30644e72e131a029b85045b68181585d2833e84879b9709143e1f593f000000182830991507f30644e72e131a029b85045b68181585d2833e84879b9709143e1f593f000000182830991507f30644e72e131a029b85045b68181585d2833e84879b9709143e1f593f000000182830991507f30644e72e131a029b85045b68181585d2833e84879b9709143e1f593f000000182830991507f30644e72e131a029b85045b68181585d2833e84879b9709143e1f593f000000182830991507f30644e72e131a029b85045b68181585d2833e84879b9709143e1f593f000000182830991507f30644e72e131a029b85045b68181585d2833e84879b9709143e1f593f000000182830991507f30644e72e131a029b85045b68181585d2833e84879b9709143e1f593f000000182830991507f30644e72e131a029b85045b68181585d2833e84879b9709143e1f593f000000182830991508160808501527f30644e72e131a029b85045b68181585d2833e84879b9709143e1f593f000000180600184030106915081610260850152816102808501527f30644e72e131a029b85045b68181585d2833e84879b9709143e1f593f000000160e0610260850120068060c08601527f30644e72e131a029b85045b68181585d2833e84879b9709143e1f593f000000181820992508260e08601527f30644e72e131a029b85045b68181585d2833e84879b9709143e1f593f00000018184099250826101008601527f30644e72e131a029b85045b68181585d2833e84879b9709143e1f593f00000018184099250826101208601527f30644e72e131a029b85045b68181585d2833e84879b9709143e1f593f00000018184099250826101408601527f30644e72e131a029b85045b68181585d2833e84879b9709143e1f593f00000018184099250826101608601527f30644e72e131a029b85045b68181585d2833e84879b9709143e1f593f000000160806101e086012006610180860152505050505050565b60017f30644e72e131a029b85045b68181585d2833e84879b9709143e1f593f0000001807f30644e72e131a029b85045b68181585d2833e84879b9709143e1f593f0000001836060860151030106611000096102a08301527f30644e72e131a029b85045b68181585d2833e84879b9709143e1f593f00000017f0931d596de2fd10f01ddd073fd5a90a976f169c76f039bb91c4775720042d43a820990507f30644e72e131a029b85045b68181585d2833e84879b9709143e1f593f0000001807f30644e72e131a029b85045b68181585d2833e84879b9709143e1f593f0000001836060860151030106611000096102c08301526109d86003610280840161027e565b610260820151600191507f30644e72e131a029b85045b68181585d2833e84879b9709143e1f593f0000001816102a0850151096102a08401527f30644e72e131a029b85045b68181585d2833e84879b9709143e1f593f00000017f0931d596de2fd10f01ddd073fd5a90a976f169c76f039bb91c4775720042d43a830991507f30644e72e131a029b85045b68181585d2833e84879b9709143e1f593f000000180826102c08601510983096102c0840152505050565b60007f30644e72e131a029b85045b68181585d2833e84879b9709143e1f593f0000001807f30644e72e131a029b85045b68181585d2833e84879b9709143e1f593f000000160208601516102a0860151098303010690507f30644e72e131a029b85045b68181585d2833e84879b9709143e1f593f0000001807f30644e72e131a029b85045b68181585d2833e84879b9709143e1f593f000000160408601516102c086015109830301069050806101a0830152505050565b60008060007f30644e72e131a029b85045b68181585d2833e84879b9709143e1f593f00000016101a08601516103208601510892507f30644e72e131a029b85045b68181585d2833e84879b9709143e1f593f000000160208601516102c08601510991507f30644e72e131a029b85045b68181585d2833e84879b9709143e1f593f0000001610260850151830891507f30644e72e131a029b85045b68181585d2833e84879b9709143e1f593f00000016040860151830891507f30644e72e131a029b85045b68181585d2833e84879b9709143e1f593f000000160208601516102e08601510990507f30644e72e131a029b85045b68181585d2833e84879b9709143e1f593f0000001610280850151820890507f30644e72e131a029b85045b68181585d2833e84879b9709143e1f593f00000016040860151820890507f30644e72e131a029b85045b68181585d2833e84879b9709143e1f593f000000181830991507f30644e72e131a029b85045b68181585d2833e84879b9709143e1f593f000000160408601516102a08601510890507f30644e72e131a029b85045b68181585d2833e84879b9709143e1f593f000000181830991507f30644e72e131a029b85045b68181585d2833e84879b9709143e1f593f0000001610300850151830991507f30644e72e131a029b85045b68181585d2833e84879b9709143e1f593f00000016000860151830991507f30644e72e131a029b85045b68181585d2833e84879b9709143e1f593f000000160008601516102a08701510990507f30644e72e131a029b85045b68181585d2833e84879b9709143e1f593f00000016000860151820990507f30644e72e131a029b85045b68181585d2833e84879b9709143e1f593f000000181830891507f30644e72e131a029b85045b68181585d2833e84879b9709143e1f593f0000001827f30644e72e131a029b85045b68181585d2833e84879b9709143e1f593f00000018501030692507f30644e72e131a029b85045b68181585d2833e84879b9709143e1f593f000000161028086015184099250826101c08601525050505050565b81518152602082015160208201525050565b6040518151815260208201516020820152825160408201526020830151606082015260408260808360066107d05a03fa80610ea5576000805260206000f35b50505050565b6000604051835181526020840151602082015284604082015260408160608360076107d05a03fa915081610ee3576000805260206000f35b825160408201526020830151606082015260408360808360066107d05a03fa915081610f13576000805260206000f35b5050505050565b600060405183815284602082015285604082015260408160608360076107d05a03fa915081610f4d576000805260206000f35b825160408201526020830151606082015260408360808360066107d05a03fa915081610f7d576000805260206000f35b505050505050565b600060405183815284602082015285604082015260408360608360076107d05a03fa915081610fb8576000805260206000f35b505050505050565b6101e08201610fd36101e0830182610e54565b610fe7610180840151610220840183610eab565b505050565b60008061022084017f30644e72e131a029b85045b68181585d2833e84879b9709143e1f593f000000160c086015161026086015109925061106f837f2eb67c0ca20735dd9728a7dd7bab037c0f3ef5ec3cb09a40ffd6dc72b3f2b0cb7f1cf4b31736d4c025d29d0683622a4eb8234f62b7140d7b1b1c45cf1d5251896c84610f85565b7f30644e72e131a029b85045b68181585d2833e84879b9709143e1f593f0000001610280850151840992506110e6837f2af3a314ddbf93a88a6a450430d5528e2d33cde0a8f21622692115a8667e8e457f2a2057ca32341b223996128794d51936a29d35a28876903933a07d09004e659784610f1a565b7f30644e72e131a029b85045b68181585d2833e84879b9709143e1f593f000000160c0860151610280860151099250611161837f2bb3c6f9aeea2252ff4a3691ea4129d5bebcaae30a8141cbf0b784673d4265177f2edca24b060dbb91b31b0f920740b8c112fdd5c5d95b9df7657afc337811b33a84610f1a565b7f30644e72e131a029b85045b68181585d2833e84879b9709143e1f593f000000160c08601516102a08601510992506111dc837f28d73857830aed4f942d4cb6ff6349b1c4c246200e813d9d3144ed12ce6574157f23847c7c97656804415fa84053faeaa1222ad9610e187214219177de0ccf44f584610f1a565b60c0850151925061122f837f2f666ac08dff772c72e8412abb33c600290d691fd25cbe449743040e8256a3d87f14b527b8f772f3926e0c9690254b0866981d5097dbcbc2b466b953d00ce6a9d284610f1a565b7f30644e72e131a029b85045b68181585d2833e84879b9709143e1f593f000000160a08601516102608601510892507f30644e72e131a029b85045b68181585d2833e84879b9709143e1f593f00000016040860151840892507f30644e72e131a029b85045b68181585d2833e84879b9709143e1f593f000000160a086015160020991507f30644e72e131a029b85045b68181585d2833e84879b9709143e1f593f0000001610280850151830891507f30644e72e131a029b85045b68181585d2833e84879b9709143e1f593f00000016040860151830891507f30644e72e131a029b85045b68181585d2833e84879b9709143e1f593f000000182840992507f30644e72e131a029b85045b68181585d2833e84879b9709143e1f593f000000160a086015160030991507f30644e72e131a029b85045b68181585d2833e84879b9709143e1f593f00000016102a0850151830891507f30644e72e131a029b85045b68181585d2833e84879b9709143e1f593f00000016040860151830891507f30644e72e131a029b85045b68181585d2833e84879b9709143e1f593f000000182840992507f30644e72e131a029b85045b68181585d2833e84879b9709143e1f593f00000016000860151840992507f30644e72e131a029b85045b68181585d2833e84879b9709143e1f593f000000160c0860151840992507f30644e72e131a029b85045b68181585d2833e84879b9709143e1f593f000000160008601516102a08701510991507f30644e72e131a029b85045b68181585d2833e84879b9709143e1f593f00000016000860151830991507f30644e72e131a029b85045b68181585d2833e84879b9709143e1f593f000000160c0860151830991507f30644e72e131a029b85045b68181585d2833e84879b9709143e1f593f000000182840892507f30644e72e131a029b85045b68181585d2833e84879b9709143e1f593f00000016101808601518408925061150a8360e0860183610eab565b7f30644e72e131a029b85045b68181585d2833e84879b9709143e1f593f00000016102c085015160208701510992507f30644e72e131a029b85045b68181585d2833e84879b9709143e1f593f0000001610260850151840892507f30644e72e131a029b85045b68181585d2833e84879b9709143e1f593f00000016040860151840892507f30644e72e131a029b85045b68181585d2833e84879b9709143e1f593f00000016102e085015160208701510991507f30644e72e131a029b85045b68181585d2833e84879b9709143e1f593f0000001610280850151830891507f30644e72e131a029b85045b68181585d2833e84879b9709143e1f593f00000016040860151830891507f30644e72e131a029b85045b68181585d2833e84879b9709143e1f593f000000182840992507f30644e72e131a029b85045b68181585d2833e84879b9709143e1f593f00000016000860151840992507f30644e72e131a029b85045b68181585d2833e84879b9709143e1f593f000000160c0860151840992507f30644e72e131a029b85045b68181585d2833e84879b9709143e1f593f00000016020860151840992507f30644e72e131a029b85045b68181585d2833e84879b9709143e1f593f0000001610300850151840992507f30644e72e131a029b85045b68181585d2833e84879b9709143e1f593f0000001837f30644e72e131a029b85045b68181585d2833e84879b9709143e1f593f000000103069250611774837f156ef9e504c058d1a6609cf2d8bc7c7147e7d13610ec904aab2247a1e765b99a7f176b7a29cff0ef08e09d2c72a5db37a015d3914a738a302b24fe643f8cacdc3f84610f1a565b611782610120850182610e66565b6080850151925061179883610160860183610eab565b7f30644e72e131a029b85045b68181585d2833e84879b9709143e1f593f000000183840992506117cd836101a0860183610eab565b6117df60e08601516020860183610eab565b6117f26101008601516060860183610eab565b61180561012086015160a0860183610eab565b6118566101408601517f173bdb25d94f66dd9586499787046f1052127b95b108c7a4d7beee6ac7e4593f7f04b85ee2b6af218577d8a2e56ab4dc054287e444b90fd652bc24f7046366e8a984610f1a565b6118a76101608601517f2e86ff0322609f7543013d57e50324e6f3a4f6a5542a15d9f788ff53623758b77f1532f5d43291ffaa96f15c0640dafc17842db2b8c602b94d2dcaac0418524e6e84610f1a565b6101c085015192507f30644e72e131a029b85045b68181585d2833e84879b9709143e1f593f00000018060c087015161032087015109840892507f30644e72e131a029b85045b68181585d2833e84879b9709143e1f593f00000018060e087015161026087015109840892507f30644e72e131a029b85045b68181585d2833e84879b9709143e1f593f00000018061010087015161028087015109840892507f30644e72e131a029b85045b68181585d2833e84879b9709143e1f593f0000001806101208701516102a087015109840892507f30644e72e131a029b85045b68181585d2833e84879b9709143e1f593f0000001806101408701516102c087015109840892507f30644e72e131a029b85045b68181585d2833e84879b9709143e1f593f0000001806101608701516102e087015109840892507f30644e72e131a029b85045b68181585d2833e84879b9709143e1f593f00000018061018087015161030087015109840892507f30644e72e131a029b85045b68181585d2833e84879b9709143e1f593f0000001837f30644e72e131a029b85045b68181585d2833e84879b9709143e1f593f000000103069250611a67836002600184610f1a565b60608501519250611a7d836101e0860183610eab565b7f30644e72e131a029b85045b68181585d2833e84879b9709143e1f593f000000160608601516101808701510992507f30644e72e131a029b85045b68181585d2833e84879b9709143e1f593f00000017f0931d596de2fd10f01ddd073fd5a90a976f169c76f039bb91c4775720042d43a84099250611b0183610220860183610eab565b5050505050565b60006040516101e0830151815260206101e08401015160208201527f26186a2d65ee4d2f9c9a5b91f86597d35f192cd120caf7e935d8443d1938e23d60408201527f30441fd1b5d3370482c42152a8899027716989a6996c2535bc9f7fee8aaef79e60608201527f1970ea81dd6992adfbc571effb03503adbbb6a857f578403c6c40e22d65b3c0260808201527f054793348f12c0cf5622c340573cb277586319de359ab9389778f689786b1e4860a082015261022083015160c08201526020610220840101517f30644e72e131a029b85045b68181585d97816a916871ca8d3c208c16d87cfd47817f30644e72e131a029b85045b68181585d97816a916871ca8d3c208c16d87cfd47030690508060e08301527f198e9393920d483a7260bfb731fb5d25f1aa493335a9e71297e485b7aef312c26101008301527f1800deef121f1e76426a00665e5c4479674322d4f75edadd46debd5cd992f6ed6101208301527f090689d0585ff075ec9e99ad690c3395bc4b313370b38ef355acdadcd122975b6101408301527f12c85ea5db8c6deb4aab71808dcb408fe3d1e7690c43d37b4ce6cc0166fa7daa6101608301526020826101808460086107d05a03fa825181169350505050919050565b6040516102e08101604052611ce9846103bc565b611cf4838286610435565b611cfd816108d5565b611d078382610a8e565b611d118185610b46565b611d1b8185610fc0565b611d258185610fec565b611d2e81611b08565b6102e082036040528060005260206000f35b600460009054906101000a900460ff1681565b60055481565b600260009054906101000a900473ffffffffffffffffffffffffffffffffffffffff1673ffffffffffffffffffffffffffffffffffffffff163373ffffffffffffffffffffffffffffffffffffffff1614611de9576040517f08c379a0000000000000000000000000000000000000000000000000000000008152600401611de090612cb6565b60405180910390fd5b600073ffffffffffffffffffffffffffffffffffffffff168173ffffffffffffffffffffffffffffffffffffffff161415611e59576040517f08c379a0000000000000000000000000000000000000000000000000000000008152600401611e5090612d22565b60405180910390fd5b600460009054906101000a900460ff1615611ea9576040517f08c379a0000000000000000000000000000000000000000000000000000000008152600401611ea090612d8e565b60405180910390fd5b600354841015611eee576040517f08c379a0000000000000000000000000000000000000000000000000000000008152600401611ee590612dfa565b60405180910390fd5b611ef9838383612178565b50806000806101000a81548173ffffffffffffffffffffffffffffffffffffffff021916908373ffffffffffffffffffffffffffffffffffffffff1602179055506001600460006101000a81548160ff0219169083151502179055507f8c0f791a552520d7b652c7f008af155a562ee6e9ce409bf539fbe0c18eef91603060008054906101000a900473ffffffffffffffffffffffffffffffffffffffff1642604051611fa893929190612e1a565b60405180910390a150505050565b60008054906101000a900473ffffffffffffffffffffffffffffffffffffffff1681565b600260009054906101000a900473ffffffffffffffffffffffffffffffffffffffff1673ffffffffffffffffffffffffffffffffffffffff163373ffffffffffffffffffffffffffffffffffffffff161461206a576040517f08c379a000000000000000000000000000000000000000000000000000000000815260040161206190612cb6565b60405180910390fd5b600460009054906101000a900460ff16156120ba576040517f08c379a00000000000000000000000000000000000000000000000000000000081526004016120b190612d8e565b60405180910390fd5b6003548110156120ff576040517f08c379a00000000000000000000000000000000000000000000000000000000081526004016120f690612dfa565b60405180910390fd5b6001600460006101000a81548160ff0219169083151502179055507f8c0f791a552520d7b652c7f008af155a562ee6e9ce409bf539fbe0c18eef91603060008054906101000a900473ffffffffffffffffffffffffffffffffffffffff164260405161216d93929190612e1a565b60405180910390a150565b600080600267ffffffffffffffff811115612196576121956126aa565b5b6040519080825280602002602001820160405280156121c45781602001602082028036833780820191505090505b509050600554816000815181106121de576121dd612e51565b5b6020026020010181815250508273ffffffffffffffffffffffffffffffffffffffff168160018151811061221557612214612e51565b5b6020026020010181815250503073ffffffffffffffffffffffffffffffffffffffff16631e8e1e138686846040518463ffffffff1660e01b815260040161225e93929190612f7c565b60206040518083038186803b15801561227657600080fd5b505afa15801561228a573d6000803e3d6000fd5b505050506040513d601f19601f820116820180604052508101906122ae9190612fe1565b6122ed576040517f08c379a00000000000000000000000000000000000000000000000000000000081526004016122e49061305a565b60405180910390fd5b60019150509392505050565b600160009054906101000a900473ffffffffffffffffffffffffffffffffffffffff1681565b600260009054906101000a900473ffffffffffffffffffffffffffffffffffffffff1673ffffffffffffffffffffffffffffffffffffffff163373ffffffffffffffffffffffffffffffffffffffff16146123af576040517f08c379a00000000000000000000000000000000000000000000000000000000081526004016123a690612cb6565b60405180910390fd5b60008054906101000a900473ffffffffffffffffffffffffffffffffffffffff1673ffffffffffffffffffffffffffffffffffffffff168273ffffffffffffffffffffffffffffffffffffffff161461243d576040517f08c379a0000000000000000000000000000000000000000000000000000000008152600401612434906130c6565b60405180910390fd5b600460009054906101000a900460ff1661248c576040517f08c379a000000000000000000000000000000000000000000000000000000000815260040161248390613132565b60405180910390fd5b60005b848490508110156126485760008585838181106124af576124ae612e51565b5b90506020020160208101906124c49190613152565b905060008173ffffffffffffffffffffffffffffffffffffffff1663dd62ed3e600160009054906101000a900473ffffffffffffffffffffffffffffffffffffffff16306040518363ffffffff1660e01b815260040161252592919061317f565b60206040518083038186803b15801561253d57600080fd5b505afa158015612551573d6000803e3d6000fd5b505050506040513d601f19601f8201168201806040525081019061257591906131bd565b90506000811115612633578173ffffffffffffffffffffffffffffffffffffffff166323b872dd600160009054906101000a900473ffffffffffffffffffffffffffffffffffffffff1686846040518463ffffffff1660e01b81526004016125df93929190612e1a565b602060405180830381600087803b1580156125f957600080fd5b505af115801561260d573d6000803e3d6000fd5b505050506040513d601f19601f820116820180604052508101906126319190612fe1565b505b5050808061264090613219565b91505061248f565b5050505050565b600260009054906101000a900473ffffffffffffffffffffffffffffffffffffffff1681565b60035481565b6000604051905090565b600080fd5b600080fd5b600080fd5b600080fd5b6000601f19601f8301169050919050565b7f4e487b7100000000000000000000000000000000000000000000000000000000600052604160045260246000fd5b6126e282612699565b810181811067ffffffffffffffff82111715612701576127006126aa565b5b80604052505050565b600061271461267b565b905061272082826126d9565b919050565b600067ffffffffffffffff8211156127405761273f6126aa565b5b61274982612699565b9050602081019050919050565b82818337600083830152505050565b600061277861277384612725565b61270a565b90508281526020810184848401111561279457612793612694565b5b61279f848285612756565b509392505050565b600082601f8301126127bc576127bb61268f565b5b81356127cc848260208601612765565b91505092915050565b600067ffffffffffffffff8211156127f0576127ef6126aa565b5b602082029050602081019050919050565b600080fd5b6000819050919050565b61281981612806565b811461282457600080fd5b50565b60008135905061283681612810565b92915050565b600061284f61284a846127d5565b61270a565b9050808382526020820190506020840283018581111561287257612871612801565b5b835b8181101561289b57806128878882612827565b845260208401935050602081019050612874565b5050509392505050565b600082601f8301126128ba576128b961268f565b5b81356128ca84826020860161283c565b91505092915050565b600080604083850312156128ea576128e9612685565b5b600083013567ffffffffffffffff8111156129085761290761268a565b5b612914858286016127a7565b925050602083013567ffffffffffffffff8111156129355761293461268a565b5b612941858286016128a5565b9150509250929050565b60008115159050919050565b6129608161294b565b82525050565b600060208201905061297b6000830184612957565b92915050565b61298a81612806565b82525050565b60006020820190506129a56000830184612981565b92915050565b600080fd5b60008083601f8401126129c6576129c561268f565b5b8235905067ffffffffffffffff8111156129e3576129e26129ab565b5b6020830191508360018202830111156129ff576129fe612801565b5b9250929050565b600073ffffffffffffffffffffffffffffffffffffffff82169050919050565b6000612a3182612a06565b9050919050565b612a4181612a26565b8114612a4c57600080fd5b50565b600081359050612a5e81612a38565b92915050565b60008060008060608587031215612a7e57612a7d612685565b5b6000612a8c87828801612827565b945050602085013567ffffffffffffffff811115612aad57612aac61268a565b5b612ab9878288016129b0565b93509350506040612acc87828801612a4f565b91505092959194509250565b612ae181612a26565b82525050565b6000602082019050612afc6000830184612ad8565b92915050565b600060208284031215612b1857612b17612685565b5b6000612b2684828501612827565b91505092915050565b600080600060408486031215612b4857612b47612685565b5b600084013567ffffffffffffffff811115612b6657612b6561268a565b5b612b72868287016129b0565b93509350506020612b8586828701612a4f565b9150509250925092565b60008083601f840112612ba557612ba461268f565b5b8235905067ffffffffffffffff811115612bc257612bc16129ab565b5b602083019150836020820283011115612bde57612bdd612801565b5b9250929050565b60008060008060608587031215612bff57612bfe612685565b5b600085013567ffffffffffffffff811115612c1d57612c1c61268a565b5b612c2987828801612b8f565b94509450506020612c3c87828801612a4f565b9250506040612c4d87828801612a4f565b91505092959194509250565b600082825260208201905092915050565b7f4e6f742067617465776179000000000000000000000000000000000000000000600082015250565b6000612ca0600b83612c59565b9150612cab82612c6a565b602082019050919050565b60006020820190508181036000830152612ccf81612c93565b9050919050565b7f4e756c6c20616464726573730000000000000000000000000000000000000000600082015250565b6000612d0c600c83612c59565b9150612d1782612cd6565b602082019050919050565b60006020820190508181036000830152612d3b81612cff565b9050919050565b7f416c726561647920616374697665000000000000000000000000000000000000600082015250565b6000612d78600e83612c59565b9150612d8382612d42565b602082019050919050565b60006020820190508181036000830152612da781612d6b565b9050919050565b7f496e616374697669747920746f6f2073686f7274000000000000000000000000600082015250565b6000612de4601483612c59565b9150612def82612dae565b602082019050919050565b60006020820190508181036000830152612e1381612dd7565b9050919050565b6000606082019050612e2f6000830186612ad8565b612e3c6020830185612ad8565b612e496040830184612981565b949350505050565b7f4e487b7100000000000000000000000000000000000000000000000000000000600052603260045260246000fd5b600082825260208201905092915050565b6000612e9d8385612e80565b9350612eaa838584612756565b612eb383612699565b840190509392505050565b600081519050919050565b600082825260208201905092915050565b6000819050602082019050919050565b612ef381612806565b82525050565b6000612f058383612eea565b60208301905092915050565b6000602082019050919050565b6000612f2982612ebe565b612f338185612ec9565b9350612f3e83612eda565b8060005b83811015612f6f578151612f568882612ef9565b9750612f6183612f11565b925050600181019050612f42565b5085935050505092915050565b60006040820190508181036000830152612f97818587612e91565b90508181036020830152612fab8184612f1e565b9050949350505050565b612fbe8161294b565b8114612fc957600080fd5b50565b600081519050612fdb81612fb5565b92915050565b600060208284031215612ff757612ff6612685565b5b600061300584828501612fcc565b91505092915050565b7f50726f6f6620766572696669636174696f6e206661696c656400000000000000600082015250565b6000613044601983612c59565b915061304f8261300e565b602082019050919050565b6000602082019050818103600083015261307381613037565b9050919050565b7f4f6e6c7920726563697069656e74000000000000000000000000000000000000600082015250565b60006130b0600e83612c59565b91506130bb8261307a565b602082019050919050565b600060208201905081810360008301526130df816130a3565b9050919050565b7f4e6f742061637469766500000000000000000000000000000000000000000000600082015250565b600061311c600a83612c59565b9150613127826130e6565b602082019050919050565b6000602082019050818103600083015261314b8161310f565b9050919050565b60006020828403121561316857613167612685565b5b600061317684828501612a4f565b91505092915050565b60006040820190506131946000830185612ad8565b6131a16020830184612ad8565b9392505050565b6000815190506131b781612810565b92915050565b6000602082840312156131d3576131d2612685565b5b60006131e1848285016131a8565b91505092915050565b7f4e487b7100000000000000000000000000000000000000000000000000000000600052601160045260246000fd5b600061322482612806565b91507fffffffffffffffffffffffffffffffffffffffffffffffffffffffffffffffff821415613257576132566131ea565b5b60018201905091905056fea26469706673582212205a8b1ee99034fe0cc3b46184d565c73a44d31384e9553ff635d5eccf1c98223964736f6c63430008090033a26469706673582212201b529dc8179d0aea27bee52a49b966e7ffc0c4706df29ad7afacee8755be502f64736f6c63430008090033",
  "linkReferences": {},
  "deployedLinkReferences": {}
}