{
  "_format": "hh-sol-artifact-1",
  "contractName": "RecoveryContractFactory",
  "sourceName": "contracts/ethereum/RecoveryContractFactory.sol",
  "abi": [
    {
      "inputs": [],
      "stateMutability": "nonpayable",
      "type": "constructor"
    },
    {
      "anonymous": false,
      "inputs": [
        {
          "indexed": true,
          "internalType": "address",
          "name": "EOA",
          "type": "address"
        },
        {
          "indexed": false,
          "internalType": "address",
          "name": "recoveryContract",
          "type": "address"
        },
        {
          "indexed": false,
          "internalType": "uint256",
          "name": "creationDate",
          "type": "uint256"
        },
        {
          "indexed": false,
          "internalType": "uint256",
          "name": "minBlocks",
          "type": "uint256"
        },
        {
          "indexed": false,
          "internalType": "enum RecoveryContractFactory.RecoveryContractType",
          "name": "contractType",
          "type": "uint8"
        }
      ],
      "name": "NewRecoveryContract",
      "type": "event"
    },
    {
      "inputs": [
        {
          "internalType": "uint256",
          "name": "_hashedPassword",
          "type": "uint256"
        },
        {
          "internalType": "uint256",
          "name": "minBlocks",
          "type": "uint256"
        }
      ],
      "name": "deployPasswordRecoveryContract",
      "outputs": [],
      "stateMutability": "nonpayable",
      "type": "function"
    },
    {
      "inputs": [
        {
          "internalType": "address",
          "name": "recipient",
          "type": "address"
        },
        {
          "internalType": "uint256",
          "name": "minBlocks",
          "type": "uint256"
        }
      ],
      "name": "deployRecoveryContract",
      "outputs": [],
      "stateMutability": "nonpayable",
      "type": "function"
    },
    {
      "inputs": [
        {
          "internalType": "string",
          "name": "hashedlegalDocuments",
          "type": "string"
        },
        {
          "internalType": "uint256",
          "name": "minBlocks",
          "type": "uint256"
        }
      ],
      "name": "deployTrustedAgentRecoveryContract",
      "outputs": [],
      "stateMutability": "nonpayable",
      "type": "function"
    },
    {
      "inputs": [],
      "name": "gatewayAddressIsSet",
      "outputs": [
        {
          "internalType": "bool",
          "name": "",
          "type": "bool"
        }
      ],
      "stateMutability": "view",
      "type": "function"
    },
    {
      "inputs": [],
      "name": "gatewayContract",
      "outputs": [
        {
          "internalType": "address",
          "name": "",
          "type": "address"
        }
      ],
      "stateMutability": "view",
      "type": "function"
    },
    {
      "inputs": [],
      "name": "owner",
      "outputs": [
        {
          "internalType": "address",
          "name": "",
          "type": "address"
        }
      ],
      "stateMutability": "view",
      "type": "function"
    },
    {
      "inputs": [
        {
          "internalType": "address",
          "name": "_gatewayContract",
          "type": "address"
        }
      ],
      "name": "updateGatewayContract",
      "outputs": [],
      "stateMutability": "nonpayable",
      "type": "function"
    }
  ],
  "bytecode": "0x60806040526001805460ff60a01b1916905534801561001d57600080fd5b50600180546001600160a01b03191633179055613d468061003f6000396000f3fe60806040523480156200001157600080fd5b5060043610620000875760003560e01c80638b00cb1f11620000625780638b00cb1f14620000e65780638da5cb5b14620000fd578063b90d242a146200012a578063eb0cde1d146200014157600080fd5b806334de9f89146200008c57806348ec4c2914620000b65780635b9616ac14620000cf575b600080fd5b600154620000a190600160a01b900460ff1681565b60405190151581526020015b60405180910390f35b620000cd620000c736600462000893565b62000155565b005b620000cd620000e0366004620008d8565b62000362565b620000cd620000f736600462000997565b620005df565b60015462000111906001600160a01b031681565b6040516001600160a01b039091168152602001620000ad565b620000cd6200013b366004620009be565b6200065e565b60005462000111906001600160a01b031681565b60018054600160a01b900460ff161515146200018e5760405162461bcd60e51b81526004016200018590620009e1565b60405180910390fd5b60008054604051634c8b654560e11b81523360048201526001600160a01b0390911690639916ca8a90602401602060405180830381600087803b158015620001d557600080fd5b505af1158015620001ea573d6000803e3d6000fd5b505050506040513d601f19601f8201168201806040525081019062000210919062000a18565b90506001600160a01b038116156200023c5760405162461bcd60e51b8152600401620001859062000a38565b6000838360008054906101000a90046001600160a01b031633604051620002639062000850565b6001600160a01b039485168152602081019390935290831660408301529091166060820152608001604051809103906000f080158015620002a8573d6000803e3d6000fd5b5060005460405163fc28709160e01b81523360048201526001600160a01b03808416602483015292935091169063fc28709190604401600060405180830381600087803b158015620002f957600080fd5b505af11580156200030e573d6000803e3d6000fd5b50505050336001600160a01b03167ffa75792b039231d5b8f12188b6aeb7a3c3f43b5b3b4430565640be07a33274da824286600060405162000354949392919062000a6f565b60405180910390a250505050565b60018054600160a01b900460ff16151514620003925760405162461bcd60e51b81526004016200018590620009e1565b60008054604051634c8b654560e11b81523360048201526001600160a01b0390911690639916ca8a90602401602060405180830381600087803b158015620003d957600080fd5b505af1158015620003ee573d6000803e3d6000fd5b505050506040513d601f19601f8201168201806040525081019062000414919062000a18565b90506001600160a01b03811615620004405760405162461bcd60e51b8152600401620001859062000a38565b60008060009054906101000a90046001600160a01b03166001600160a01b031663f502ee6d6040518163ffffffff1660e01b8152600401602060405180830381600087803b1580156200049257600080fd5b505af1158015620004a7573d6000803e3d6000fd5b505050506040513d601f19601f82011682018060405250810190620004cd919062000a18565b90506000818460008054906101000a90046001600160a01b03163388604051620004f7906200085e565b6200050795949392919062000abb565b604051809103906000f08015801562000524573d6000803e3d6000fd5b5060005460405163fc28709160e01b81523360048201526001600160a01b03808416602483015292935091169063fc28709190604401600060405180830381600087803b1580156200057557600080fd5b505af11580156200058a573d6000803e3d6000fd5b50505050336001600160a01b03167ffa75792b039231d5b8f12188b6aeb7a3c3f43b5b3b4430565640be07a33274da8242876002604051620005d0949392919062000a6f565b60405180910390a25050505050565b6001546001600160a01b03163314620006285760405162461bcd60e51b815260206004820152600a60248201526927b7363c9037bbb732b960b11b604482015260640162000185565b600080546001600160a01b039092166001600160a01b03199092169190911790556001805460ff60a01b1916600160a01b179055565b60018054600160a01b900460ff161515146200068e5760405162461bcd60e51b81526004016200018590620009e1565b60008054604051634c8b654560e11b81523360048201526001600160a01b0390911690639916ca8a90602401602060405180830381600087803b158015620006d557600080fd5b505af1158015620006ea573d6000803e3d6000fd5b505050506040513d601f19601f8201168201806040525081019062000710919062000a18565b90506001600160a01b038116156200073c5760405162461bcd60e51b8152600401620001859062000a38565b6000838360008054906101000a90046001600160a01b03163360405162000763906200086c565b93845260208401929092526001600160a01b039081166040840152166060820152608001604051809103906000f080158015620007a4573d6000803e3d6000fd5b5060005460405163fc28709160e01b81523360048201526001600160a01b03808416602483015292935091169063fc28709190604401600060405180830381600087803b158015620007f557600080fd5b505af11580156200080a573d6000803e3d6000fd5b50505050336001600160a01b03167ffa75792b039231d5b8f12188b6aeb7a3c3f43b5b3b4430565640be07a33274da824286600160405162000354949392919062000a6f565b6107198062000b4283390190565b610a46806200125b83390190565b6120708062001ca183390190565b6001600160a01b03811681146200089057600080fd5b50565b60008060408385031215620008a757600080fd5b8235620008b4816200087a565b946020939093013593505050565b634e487b7160e01b600052604160045260246000fd5b60008060408385031215620008ec57600080fd5b823567ffffffffffffffff808211156200090557600080fd5b818501915085601f8301126200091a57600080fd5b8135818111156200092f576200092f620008c2565b604051601f8201601f19908116603f011681019083821181831017156200095a576200095a620008c2565b816040528281528860208487010111156200097457600080fd5b826020860160208301376000602093820184015298969091013596505050505050565b600060208284031215620009aa57600080fd5b8135620009b7816200087a565b9392505050565b60008060408385031215620009d257600080fd5b50508035926020909101359150565b60208082526018908201527f4761746577617920636f6e7472616374206e6f74207365740000000000000000604082015260600190565b60006020828403121562000a2b57600080fd5b8151620009b7816200087a565b6020808252601a908201527f4578697374696e67207265636f7665727920636f6e7472616374000000000000604082015260600190565b6001600160a01b03851681526020810184905260408101839052608081016003831062000aac57634e487b7160e01b600052602160045260246000fd5b82606083015295945050505050565b6001600160a01b03868116825260208083018790528582166040840152908416606083015260a0608083018190528351908301819052600091825b8281101562000b145785810182015185820160c00152810162000af6565b8281111562000b2757600060c084870101525b5050601f01601f19169190910160c001969550505050505056fe60806040526004805460ff1916905534801561001a57600080fd5b506040516107193803806107198339810160408190526100399161009d565b600080546001600160a01b039586166001600160a01b0319918216179091556001805492861692821692909217909155600392909255600280549190931691161790556100ea565b80516001600160a01b038116811461009857600080fd5b919050565b600080600080608085870312156100b357600080fd5b6100bc85610081565b9350602085015192506100d160408601610081565b91506100df60608601610081565b905092959194509250565b610620806100f96000396000f3fe608060405234801561001057600080fd5b506004361061007d5760003560e01c80637dc5186f1161005b5780637dc5186f1461010c578063ae4304ef1461011f578063eb0cde1d14610134578063ff21d1e51461014757600080fd5b806322f3e2d41461008257806366d003ac146100a45780636af39aa3146100cf575b600080fd5b60045461008f9060ff1681565b60405190151581526020015b60405180910390f35b6000546100b7906001600160a01b031681565b6040516001600160a01b03909116815260200161009b565b6100e26100dd366004610456565b61015e565b604080516001600160a01b039485168152928416602084015292169181019190915260600161009b565b6001546100b7906001600160a01b031681565b61013261012d3660046104d7565b610286565b005b6002546100b7906001600160a01b031681565b61015060035481565b60405190815260200161009b565b600254600090819081906001600160a01b031633146101ce5760405162461bcd60e51b815260206004820152602160248201527f4f6e6c792063616c6c61626c65206279206761746577617920636f6e747261636044820152601d60fa1b60648201526084015b60405180910390fd5b60045460ff16156102125760405162461bcd60e51b815260206004820152600e60248201526d416c72656164792061637469766560901b60448201526064016101c5565b60035484101561025b5760405162461bcd60e51b8152602060048201526014602482015273125b9858dd1a5d9a5d1e481d1bdbc81cda1bdc9d60621b60448201526064016101c5565b50506004805460ff19166001908117909155546000546001600160a01b039182169430945091169150565b6000546001600160a01b038381169116146102d45760405162461bcd60e51b815260206004820152600e60248201526d13db9b1e481c9958da5c1a595b9d60921b60448201526064016101c5565b60045460ff166103135760405162461bcd60e51b815260206004820152600a6024820152694e6f742061637469766560b01b60448201526064016101c5565b8483146103515760405162461bcd60e51b815260206004820152600c60248201526b0aee4dedcce40d8cadccee8d60a31b60448201526064016101c5565b60005b8581101561044d57600087878381811061037057610370610567565b9050602002016020810190610385919061057d565b9050600086868481811061039b5761039b610567565b6001546040516323b872dd60e01b81526001600160a01b03918216600482015288821660248201526020929092029390930135604482018190529350918416916323b872dd9150606401602060405180830381600087803b1580156103ff57600080fd5b505af1158015610413573d6000803e3d6000fd5b505050506040513d601f19601f82011682018060405250810190610437919061059f565b5050508080610445906105c1565b915050610354565b50505050505050565b60006020828403121561046857600080fd5b5035919050565b60008083601f84011261048157600080fd5b50813567ffffffffffffffff81111561049957600080fd5b6020830191508360208260051b85010111156104b457600080fd5b9250929050565b80356001600160a01b03811681146104d257600080fd5b919050565b600080600080600080608087890312156104f057600080fd5b863567ffffffffffffffff8082111561050857600080fd5b6105148a838b0161046f565b9098509650602089013591508082111561052d57600080fd5b5061053a89828a0161046f565b909550935061054d9050604088016104bb565b915061055b606088016104bb565b90509295509295509295565b634e487b7160e01b600052603260045260246000fd5b60006020828403121561058f57600080fd5b610598826104bb565b9392505050565b6000602082840312156105b157600080fd5b8151801515811461059857600080fd5b60006000198214156105e357634e487b7160e01b600052601160045260246000fd5b506001019056fea2646970667358221220b3830f7a36484f963e5a9ed198a77ee3cbe36b8bc18ab87eb30b5f0ba276d07264736f6c6343000809003360806040526004805460ff191690553480156200001b57600080fd5b5060405162000a4638038062000a468339810160408190526200003e916200017a565b600080546001600160a01b038088166001600160a01b0319928316179092556001805483861690831617905560038690556002805492861692909116919091179055805162000095906005906020840190620000a1565b505050505050620002d8565b828054620000af906200029b565b90600052602060002090601f016020900481019282620000d357600085556200011e565b82601f10620000ee57805160ff19168380011785556200011e565b828001600101855582156200011e579182015b828111156200011e57825182559160200191906001019062000101565b506200012c92915062000130565b5090565b5b808211156200012c576000815560010162000131565b80516001600160a01b03811681146200015f57600080fd5b919050565b634e487b7160e01b600052604160045260246000fd5b600080600080600060a086880312156200019357600080fd5b6200019e8662000147565b94506020808701519450620001b66040880162000147565b9350620001c66060880162000147565b60808801519093506001600160401b0380821115620001e457600080fd5b818901915089601f830112620001f957600080fd5b8151818111156200020e576200020e62000164565b604051601f8201601f19908116603f0116810190838211818310171562000239576200023962000164565b816040528281528c868487010111156200025257600080fd5b600093505b8284101562000276578484018601518185018701529285019262000257565b82841115620002885760008684830101525b8096505050505050509295509295909350565b600181811c90821680620002b057607f821691505b60208210811415620002d257634e487b7160e01b600052602260045260246000fd5b50919050565b61075e80620002e86000396000f3fe608060405234801561001057600080fd5b50600436106100885760003560e01c8063ae4304ef1161005b578063ae4304ef1461012a578063b294f9491461013f578063eb0cde1d14610154578063ff21d1e51461016757600080fd5b806322f3e2d41461008d57806366d003ac146100af5780636af39aa3146100da5780637dc5186f14610117575b600080fd5b60045461009a9060ff1681565b60405190151581526020015b60405180910390f35b6000546100c2906001600160a01b031681565b6040516001600160a01b0390911681526020016100a6565b6100ed6100e8366004610504565b61017e565b604080516001600160a01b03948516815292841660208401529216918101919091526060016100a6565b6001546100c2906001600160a01b031681565b61013d610138366004610585565b6102a6565b005b610147610476565b6040516100a69190610615565b6002546100c2906001600160a01b031681565b61017060035481565b6040519081526020016100a6565b600254600090819081906001600160a01b031633146101ee5760405162461bcd60e51b815260206004820152602160248201527f4f6e6c792063616c6c61626c65206279206761746577617920636f6e747261636044820152601d60fa1b60648201526084015b60405180910390fd5b60045460ff16156102325760405162461bcd60e51b815260206004820152600e60248201526d416c72656164792061637469766560901b60448201526064016101e5565b60035484101561027b5760405162461bcd60e51b8152602060048201526014602482015273125b9858dd1a5d9a5d1e481d1bdbc81cda1bdc9d60621b60448201526064016101e5565b50506004805460ff19166001908117909155546000546001600160a01b039182169430945091169150565b6000546001600160a01b038381169116146102f45760405162461bcd60e51b815260206004820152600e60248201526d13db9b1e481c9958da5c1a595b9d60921b60448201526064016101e5565b60045460ff166103335760405162461bcd60e51b815260206004820152600a6024820152694e6f742061637469766560b01b60448201526064016101e5565b8483146103715760405162461bcd60e51b815260206004820152600c60248201526b0aee4dedcce40d8cadccee8d60a31b60448201526064016101e5565b60005b8581101561046d5760008787838181106103905761039061066a565b90506020020160208101906103a59190610680565b905060008686848181106103bb576103bb61066a565b6001546040516323b872dd60e01b81526001600160a01b03918216600482015288821660248201526020929092029390930135604482018190529350918416916323b872dd9150606401602060405180830381600087803b15801561041f57600080fd5b505af1158015610433573d6000803e3d6000fd5b505050506040513d601f19601f8201168201806040525081019061045791906106a2565b5050508080610465906106c4565b915050610374565b50505050505050565b60058054610483906106ed565b80601f01602080910402602001604051908101604052809291908181526020018280546104af906106ed565b80156104fc5780601f106104d1576101008083540402835291602001916104fc565b820191906000526020600020905b8154815290600101906020018083116104df57829003601f168201915b505050505081565b60006020828403121561051657600080fd5b5035919050565b60008083601f84011261052f57600080fd5b50813567ffffffffffffffff81111561054757600080fd5b6020830191508360208260051b850101111561056257600080fd5b9250929050565b80356001600160a01b038116811461058057600080fd5b919050565b6000806000806000806080878903121561059e57600080fd5b863567ffffffffffffffff808211156105b657600080fd5b6105c28a838b0161051d565b909850965060208901359150808211156105db57600080fd5b506105e889828a0161051d565b90955093506105fb905060408801610569565b915061060960608801610569565b90509295509295509295565b600060208083528351808285015260005b8181101561064257858101830151858201604001528201610626565b81811115610654576000604083870101525b50601f01601f1916929092016040019392505050565b634e487b7160e01b600052603260045260246000fd5b60006020828403121561069257600080fd5b61069b82610569565b9392505050565b6000602082840312156106b457600080fd5b8151801515811461069b57600080fd5b60006000198214156106e657634e487b7160e01b600052601160045260246000fd5b5060010190565b600181811c9082168061070157607f821691505b6020821081141561072257634e487b7160e01b600052602260045260246000fd5b5091905056fea2646970667358221220ac9bdcac3d7212833e6887687fb28bd243e657ddb911303a26a8c968677447bc64736f6c6343000809003360806040526004805460ff191690553480156200001b57600080fd5b5060405162002070380380620020708339810160408190526200003e916200009d565b600080546001600160a01b03199081169091556001805482166001600160a01b03938416179055600393909355600280549093169116179055600555620000e8565b80516001600160a01b03811681146200009857600080fd5b919050565b60008060008060808587031215620000b457600080fd5b8451935060208501519250620000cd6040860162000080565b9150620000dd6060860162000080565b905092959194509250565b611f7880620000f86000396000f3fe608060405234801561001057600080fd5b50600436106100a95760003560e01c80636af39aa3116100715780636af39aa3146101625780637d7be5a9146101755780637dc5186f14610188578063ae4304ef1461019b578063eb0cde1d146101b0578063ff21d1e5146101c357600080fd5b80631e8e1e13146100ae57806322f3e2d4146100d6578063457ceb28146100e3578063477ff009146100fa57806366d003ac14610137575b600080fd5b6100c16100bc366004611b2f565b6101cc565b60405190151581526020015b60405180910390f35b6004546100c19060ff1681565b6100ec60055481565b6040519081526020016100cd565b61010d610108366004611c4c565b611531565b604080516001600160a01b03948516815292841660208401529216918101919091526060016100cd565b60005461014a906001600160a01b031681565b6040516001600160a01b0390911681526020016100cd565b61010d610170366004611caa565b611672565b6100c1610183366004611cc3565b61175b565b60015461014a906001600160a01b031681565b6101ae6101a9366004611d5c565b611898565b005b60025461014a906001600160a01b031681565b6100ec60035481565b60006114c4565b600080600184846000805b82156102005750929381830585810290910393509091818302900390816101de565b505050600181111561021157600080fd5b5050600081121561021f5783015b9392505050565b60405181602084028301815160208301925060005b8284101561026c57818552600080516020611f2383398151915284518309915060208501945060208401935061023b565b610284600080516020611f23833981519152836101d3565b91506020850394506020840393508592505b828411156102db57600080516020611f23833981519152855183099050600080516020611f2383398151915284518309818552601f1995860195909401939150610296565b5090915250505050565b600080516020611f238339815191528110610304576000805260206000f35b50565b61032081511461031b576000805260206000f35b6103296102608201516102e5565b6103376102808201516102e5565b6103456102a08201516102e5565b6103536102c08201516102e5565b6103616102e08201516102e5565b61036f6103008201516102e5565b6103046103208201516102e5565b60008060208501516102e085015260408501516103008501526020830151610320850152602080018301516103408501526040602001830151610360850152606060200183015161038085015260806020018301516103a085015260a06020018301516103c0850152600080516020611f238339815191526101006102e0860120069050806020850152600080516020611f23833981519152602080860120066040850152600080516020611f23833981519152604060e0850120066000850152600080516020611f2383398151915260c0610120850120069150816060850152600080516020611f2383398151915282820960a085015250600080516020611f238339815191528182099050600080516020611f238339815191528182099050600080516020611f238339815191528182099050600080516020611f238339815191528182099050600080516020611f238339815191528182099050600080516020611f238339815191528182099050600080516020611f238339815191528182099050600080516020611f238339815191528182099050600080516020611f238339815191528182099050600080516020611f238339815191528182099050600080516020611f238339815191528182099050600080516020611f238339815191528182099050806080840152600080516020611f238339815191528060018303010690508061026084015280610280840152600080516020611f2383398151915260e0610260840120068060c0850152600080516020611f2383398151915281820991508160e0850152600080516020611f23833981519152818309915081610100850152600080516020611f23833981519152818309915081610120850152600080516020611f23833981519152818309915081610140850152600080516020611f23833981519152818309610160850152505060806101e09190910120600080516020611f2383398151915290066101809091015250565b6001600080516020611f2383398151915280600080516020611f23833981519152836060860151030106611000096102a0830152600080516020611f238339815191527f0931d596de2fd10f01ddd073fd5a90a976f169c76f039bb91c4775720042d43a82099050600080516020611f2383398151915280600080516020611f23833981519152836060860151030106611000096102c083015261070360036102808401610226565b61026082015160019150600080516020611f23833981519152816102a0850151096102a0840152600080516020611f238339815191527f0931d596de2fd10f01ddd073fd5a90a976f169c76f039bb91c4775720042d43a83099150600080516020611f2383398151915280826102c08601510983096102c0840152505050565b6000600080516020611f2383398151915280600080516020611f2383398151915260208601516102a086015109830301069050600080516020611f2383398151915280600080516020611f2383398151915260408601516102c086015109830301069050806101a0830152505050565b6000806000600080516020611f238339815191526101a0860151610320860151089250600080516020611f2383398151915260208601516102c0860151099150600080516020611f2383398151915261026085015183089150600080516020611f23833981519152604086015183089150600080516020611f2383398151915260208601516102e0860151099050600080516020611f2383398151915261028085015182089050600080516020611f23833981519152604086015182089050600080516020611f238339815191528183099150600080516020611f2383398151915260408601516102a0860151089050600080516020611f238339815191528183099150600080516020611f2383398151915261030085015183099150600080516020611f23833981519152600086015183099150600080516020611f2383398151915260008601516102a0870151099050600080516020611f23833981519152600086015182099050600080516020611f23833981519152818308915050600080516020611f2383398151915281600080516020611f2383398151915284010306915050600080516020611f2383398151915261028084015182099050806101c0840152505050565b6040518151815260208201516020820152825160408201526020830151606082015260408260808360066107d05a03fa9050806109fe576000805260206000f35b505050565b6000604051835181526020840151602082015284604082015260408160608360076107d05a03fa915081610a3b576000805260206000f35b825160408201526020830151606082015260408360808360066107d05a03fa91505080610a6c576000805260206000f35b50505050565b600060405183815284602082015285604082015260408160608360076107d05a03fa915081610aa5576000805260206000f35b825160408201526020830151606082015260408360808360066107d05a03fa91505080610ad6576000805260206000f35b5050505050565b600060405183815284602082015285604082015260408360608360076107d05a03fa91505080610ad6576000805260206000f35b6101e08201610b2e6101e083018281518152602091820151910152565b6109fe610180840151610220840183610a03565b6000806102208401600080516020611f2383398151915260c0860151610260860151099250610bb3837f2eb67c0ca20735dd9728a7dd7bab037c0f3ef5ec3cb09a40ffd6dc72b3f2b0cb7f1cf4b31736d4c025d29d0683622a4eb8234f62b7140d7b1b1c45cf1d5251896c84610add565b600080516020611f2383398151915261028085015184099250610c18837f2af3a314ddbf93a88a6a450430d5528e2d33cde0a8f21622692115a8667e8e457f2a2057ca32341b223996128794d51936a29d35a28876903933a07d09004e659784610a72565b600080516020611f2383398151915260c0860151610280860151099250610c81837f2bb3c6f9aeea2252ff4a3691ea4129d5bebcaae30a8141cbf0b784673d4265177f2edca24b060dbb91b31b0f920740b8c112fdd5c5d95b9df7657afc337811b33a84610a72565b600080516020611f2383398151915260c08601516102a0860151099250610cea837f28d73857830aed4f942d4cb6ff6349b1c4c246200e813d9d3144ed12ce6574157f23847c7c97656804415fa84053faeaa1222ad9610e187214219177de0ccf44f584610a72565b60c08501519250610d3d837f2f666ac08dff772c72e8412abb33c600290d691fd25cbe449743040e8256a3d87f14b527b8f772f3926e0c9690254b0866981d5097dbcbc2b466b953d00ce6a9d284610a72565b600080516020611f2383398151915260a0860151610260860151089250600080516020611f23833981519152604086015184089250600080516020611f2383398151915260a08601516002099150600080516020611f2383398151915261028085015183089150600080516020611f23833981519152604086015183089150600080516020611f238339815191528284099250600080516020611f2383398151915260a08601516003099150600080516020611f238339815191526102a085015183089150600080516020611f23833981519152604086015183089150600080516020611f238339815191528284099250600080516020611f23833981519152600086015184099250600080516020611f2383398151915260c086015184099250600080516020611f2383398151915260008601516102a0870151099150600080516020611f23833981519152600086015183099150600080516020611f2383398151915260c086015183099150600080516020611f238339815191528284089250600080516020611f2383398151915261018086015184089250610ee68360e0860183610a03565b600080516020611f238339815191526102c08501516020870151099250600080516020611f2383398151915261026085015184089250600080516020611f23833981519152604086015184089250600080516020611f238339815191526102e08501516020870151099150600080516020611f2383398151915261028085015183089150600080516020611f23833981519152604086015183089150600080516020611f238339815191528284099250600080516020611f23833981519152600086015184099250600080516020611f2383398151915260c086015184099250600080516020611f23833981519152602086015184099250600080516020611f238339815191526103008501518409600080516020611f23833981519152908103069250611056837f156ef9e504c058d1a6609cf2d8bc7c7147e7d13610ec904aab2247a1e765b99a7f176b7a29cff0ef08e09d2c72a5db37a015d3914a738a302b24fe643f8cacdc3f84610a72565b6110646101208501826109bd565b6080850151925061107a83610160860183610a03565b600080516020611f23833981519152838409925061109d836101a0860183610a03565b6110af60e08601516020860183610a03565b6110c26101008601516060860183610a03565b6110d561012086015160a0860183610a03565b6111266101408601517f173bdb25d94f66dd9586499787046f1052127b95b108c7a4d7beee6ac7e4593f7f04b85ee2b6af218577d8a2e56ab4dc054287e444b90fd652bc24f7046366e8a984610a72565b6111776101608601517f2e86ff0322609f7543013d57e50324e6f3a4f6a5542a15d9f788ff53623758b77f1532f5d43291ffaa96f15c0640dafc17842db2b8c602b94d2dcaac0418524e6e84610a72565b6101c08501519250600080516020611f238339815191528060c08701516103208701510984089250600080516020611f238339815191528060e08701516102608701510984089250600080516020611f23833981519152806101008701516102808701510984089250600080516020611f23833981519152806101208701516102a08701510984089250600080516020611f23833981519152806101408701516102c08701510984089250600080516020611f23833981519152806101608701516102e08701510984089250600080516020611f2383398151915280610180870151610300870151098408600080516020611f23833981519152908103069250611285836002600184610a72565b6060850151925061129b836101e0860183610a03565b600080516020611f238339815191526060860151610180870151099250600080516020611f238339815191527f0931d596de2fd10f01ddd073fd5a90a976f169c76f039bb91c4775720042d43a84099250610ad683610220860183610a03565b60006040516101e0830151815260206101e08401015160208201527f26186a2d65ee4d2f9c9a5b91f86597d35f192cd120caf7e935d8443d1938e23d60408201527f30441fd1b5d3370482c42152a8899027716989a6996c2535bc9f7fee8aaef79e60608201527f1970ea81dd6992adfbc571effb03503adbbb6a857f578403c6c40e22d65b3c0260808201527f054793348f12c0cf5622c340573cb277586319de359ab9389778f689786b1e4860a082015261022083015160c08201526020610220840101517f30644e72e131a029b85045b68181585d97816a916871ca8d3c208c16d87cfd47817f30644e72e131a029b85045b68181585d97816a916871ca8d3c208c16d87cfd47030690508060e0830152507f198e9393920d483a7260bfb731fb5d25f1aa493335a9e71297e485b7aef312c26101008201527f1800deef121f1e76426a00665e5c4479674322d4f75edadd46debd5cd992f6ed6101208201527f090689d0585ff075ec9e99ad690c3395bc4b313370b38ef355acdadcd122975b6101408201527f12c85ea5db8c6deb4aab71808dcb408fe3d1e7690c43d37b4ce6cc0166fa7daa6101608201526020816101808360086107d05a03fa90511692915050565b6040516102e081016040526114d884610307565b6114e383828661037d565b6114ec8161065a565b6114f68382610783565b61150081856107f3565b61150a8185610b11565b6115148185610b42565b61151d816112fb565b6102e0820360405280600052505060206000f35b600254600090819081906001600160a01b0316331461156b5760405162461bcd60e51b815260040161156290611dec565b60405180910390fd5b6001600160a01b0384166115b05760405162461bcd60e51b815260206004820152600c60248201526b4e756c6c206164647265737360a01b6044820152606401611562565b60045460ff16156115f45760405162461bcd60e51b815260206004820152600e60248201526d416c72656164792061637469766560901b6044820152606401611562565b60035487101561163d5760405162461bcd60e51b8152602060048201526014602482015273125b9858dd1a5d9a5d1e481d1bdbc81cda1bdc9d60621b6044820152606401611562565b61164886868661175b565b50506004805460ff19166001908117909155546001600160a01b0316963096509294509192505050565b600254600090819081906001600160a01b031633146116a35760405162461bcd60e51b815260040161156290611dec565b60045460ff16156116e75760405162461bcd60e51b815260206004820152600e60248201526d416c72656164792061637469766560901b6044820152606401611562565b6003548410156117305760405162461bcd60e51b8152602060048201526014602482015273125b9858dd1a5d9a5d1e481d1bdbc81cda1bdc9d60621b6044820152606401611562565b50506004805460ff19166001908117909155546000546001600160a01b039182169430945091169150565b604080516002808252606082018352600092839291906020830190803683370190505090506005548160008151811061179657611796611e2d565b602002602001018181525050826001600160a01b0316816001815181106117bf576117bf611e2d565b6020908102919091010152604051631e8e1e1360e01b81523090631e8e1e13906117f190889088908690600401611e43565b60206040518083038186803b15801561180957600080fd5b505afa15801561181d573d6000803e3d6000fd5b505050506040513d601f19601f820116820180604052508101906118419190611ebc565b61188d5760405162461bcd60e51b815260206004820152601960248201527f50726f6f6620766572696669636174696f6e206661696c6564000000000000006044820152606401611562565b506001949350505050565b6000546001600160a01b038381169116146118e65760405162461bcd60e51b815260206004820152600e60248201526d13db9b1e481c9958da5c1a595b9d60921b6044820152606401611562565b60045460ff166119255760405162461bcd60e51b815260206004820152600a6024820152694e6f742061637469766560b01b6044820152606401611562565b8483146119635760405162461bcd60e51b815260206004820152600c60248201526b0aee4dedcce40d8cadccee8d60a31b6044820152606401611562565b60005b85811015611a5f57600087878381811061198257611982611e2d565b90506020020160208101906119979190611ede565b905060008686848181106119ad576119ad611e2d565b6001546040516323b872dd60e01b81526001600160a01b03918216600482015288821660248201526020929092029390930135604482018190529350918416916323b872dd9150606401602060405180830381600087803b158015611a1157600080fd5b505af1158015611a25573d6000803e3d6000fd5b505050506040513d601f19601f82011682018060405250810190611a499190611ebc565b5050508080611a5790611ef9565b915050611966565b50505050505050565b634e487b7160e01b600052604160045260246000fd5b604051601f8201601f1916810167ffffffffffffffff81118282101715611aa757611aa7611a68565b604052919050565b600082601f830112611ac057600080fd5b8135602067ffffffffffffffff821115611adc57611adc611a68565b8160051b611aeb828201611a7e565b9283528481018201928281019087851115611b0557600080fd5b83870192505b84831015611b2457823582529183019190830190611b0b565b979650505050505050565b60008060408385031215611b4257600080fd5b823567ffffffffffffffff80821115611b5a57600080fd5b818501915085601f830112611b6e57600080fd5b8135602082821115611b8257611b82611a68565b611b94601f8301601f19168201611a7e565b8281528882848701011115611ba857600080fd5b82828601838301376000928101820192909252909450850135915080821115611bd057600080fd5b50611bdd85828601611aaf565b9150509250929050565b60008083601f840112611bf957600080fd5b50813567ffffffffffffffff811115611c1157600080fd5b602083019150836020828501011115611c2957600080fd5b9250929050565b80356001600160a01b0381168114611c4757600080fd5b919050565b60008060008060608587031215611c6257600080fd5b84359350602085013567ffffffffffffffff811115611c8057600080fd5b611c8c87828801611be7565b9094509250611c9f905060408601611c30565b905092959194509250565b600060208284031215611cbc57600080fd5b5035919050565b600080600060408486031215611cd857600080fd5b833567ffffffffffffffff811115611cef57600080fd5b611cfb86828701611be7565b9094509250611d0e905060208501611c30565b90509250925092565b60008083601f840112611d2957600080fd5b50813567ffffffffffffffff811115611d4157600080fd5b6020830191508360208260051b8501011115611c2957600080fd5b60008060008060008060808789031215611d7557600080fd5b863567ffffffffffffffff80821115611d8d57600080fd5b611d998a838b01611d17565b90985096506020890135915080821115611db257600080fd5b50611dbf89828a01611d17565b9095509350611dd2905060408801611c30565b9150611de060608801611c30565b90509295509295509295565b60208082526021908201527f4f6e6c792063616c6c61626c65206279206761746577617920636f6e747261636040820152601d60fa1b606082015260800190565b634e487b7160e01b600052603260045260246000fd5b60408152826040820152828460608301376000606084830101526000601f19601f8501168201606081016020606085840301818601528186518084526080850191508288019450600093505b80841015611eaf5784518252938201936001939093019290820190611e8f565b5098975050505050505050565b600060208284031215611ece57600080fd5b8151801515811461021f57600080fd5b600060208284031215611ef057600080fd5b61021f82611c30565b6000600019821415611f1b57634e487b7160e01b600052601160045260246000fd5b506001019056fe30644e72e131a029b85045b68181585d2833e84879b9709143e1f593f0000001a2646970667358221220a17f4a0d6b73af568d8726721a7307e3a9e59f752aed63e5c48f65b2eeb7080864736f6c63430008090033a26469706673582212206af4211cbb506bff00465f62ac316e45b2164e665c6b2de734bf3675818b5cff64736f6c63430008090033",
  "linkReferences": {},
  "deployedLinkReferences": {}
}