{
  "_format": "hh-sol-artifact-1",
  "contractName": "RecoveryContractTrustedAgents",
  "sourceName": "contracts/ethereum/RecoveryContractTrustedAgents.sol",
  "abi": [
    {
      "inputs": [
        {
          "internalType": "address",
          "name": "_recipient",
          "type": "address"
        },
        {
          "internalType": "uint256",
          "name": "_minBlocks",
          "type": "uint256"
        },
        {
          "internalType": "address",
          "name": "_gatewayContract",
          "type": "address"
        },
        {
          "internalType": "address",
          "name": "_EOA",
          "type": "address"
        },
        {
          "internalType": "string",
          "name": "_legalDocumentsHash",
          "type": "string"
        }
      ],
      "stateMutability": "nonpayable",
      "type": "constructor"
    },
    {
      "inputs": [],
      "name": "EOA",
      "outputs": [
        {
          "internalType": "address",
          "name": "",
          "type": "address"
        }
      ],
      "stateMutability": "view",
      "type": "function"
    },
    {
      "inputs": [
        {
          "internalType": "uint256",
          "name": "blocks",
          "type": "uint256"
        }
      ],
      "name": "activateRecovery",
      "outputs": [
        {
          "internalType": "address",
          "name": "",
          "type": "address"
        },
        {
          "internalType": "address",
          "name": "",
          "type": "address"
        },
        {
          "internalType": "address",
          "name": "",
          "type": "address"
        }
      ],
      "stateMutability": "nonpayable",
      "type": "function"
    },
    {
      "inputs": [
        {
          "internalType": "address[]",
          "name": "erc20contracts",
          "type": "address[]"
        },
        {
          "internalType": "uint256[]",
          "name": "amounts",
          "type": "uint256[]"
        },
        {
          "internalType": "address",
          "name": "caller",
          "type": "address"
        },
        {
          "internalType": "address",
          "name": "to",
          "type": "address"
        }
      ],
      "name": "claimAssets",
      "outputs": [],
      "stateMutability": "nonpayable",
      "type": "function"
    },
    {
      "inputs": [],
      "name": "gatewayContract",
      "outputs": [
        {
          "internalType": "address",
          "name": "",
          "type": "address"
        }
      ],
      "stateMutability": "view",
      "type": "function"
    },
    {
      "inputs": [],
      "name": "isActive",
      "outputs": [
        {
          "internalType": "bool",
          "name": "",
          "type": "bool"
        }
      ],
      "stateMutability": "view",
      "type": "function"
    },
    {
      "inputs": [],
      "name": "legalDocumentsHash",
      "outputs": [
        {
          "internalType": "string",
          "name": "",
          "type": "string"
        }
      ],
      "stateMutability": "view",
      "type": "function"
    },
    {
      "inputs": [],
      "name": "minBlocks",
      "outputs": [
        {
          "internalType": "uint256",
          "name": "",
          "type": "uint256"
        }
      ],
      "stateMutability": "view",
      "type": "function"
    },
    {
      "inputs": [],
      "name": "recipient",
      "outputs": [
        {
          "internalType": "address",
          "name": "",
          "type": "address"
        }
      ],
      "stateMutability": "view",
      "type": "function"
    }
  ],
  "bytecode": "0x60806040526004805460ff191690553480156200001b57600080fd5b5060405162000a4638038062000a468339810160408190526200003e916200017a565b600080546001600160a01b038088166001600160a01b0319928316179092556001805483861690831617905560038690556002805492861692909116919091179055805162000095906005906020840190620000a1565b505050505050620002d8565b828054620000af906200029b565b90600052602060002090601f016020900481019282620000d357600085556200011e565b82601f10620000ee57805160ff19168380011785556200011e565b828001600101855582156200011e579182015b828111156200011e57825182559160200191906001019062000101565b506200012c92915062000130565b5090565b5b808211156200012c576000815560010162000131565b80516001600160a01b03811681146200015f57600080fd5b919050565b634e487b7160e01b600052604160045260246000fd5b600080600080600060a086880312156200019357600080fd5b6200019e8662000147565b94506020808701519450620001b66040880162000147565b9350620001c66060880162000147565b60808801519093506001600160401b0380821115620001e457600080fd5b818901915089601f830112620001f957600080fd5b8151818111156200020e576200020e62000164565b604051601f8201601f19908116603f0116810190838211818310171562000239576200023962000164565b816040528281528c868487010111156200025257600080fd5b600093505b8284101562000276578484018601518185018701529285019262000257565b82841115620002885760008684830101525b8096505050505050509295509295909350565b600181811c90821680620002b057607f821691505b60208210811415620002d257634e487b7160e01b600052602260045260246000fd5b50919050565b61075e80620002e86000396000f3fe608060405234801561001057600080fd5b50600436106100885760003560e01c8063ae4304ef1161005b578063ae4304ef1461012a578063b294f9491461013f578063eb0cde1d14610154578063ff21d1e51461016757600080fd5b806322f3e2d41461008d57806366d003ac146100af5780636af39aa3146100da5780637dc5186f14610117575b600080fd5b60045461009a9060ff1681565b60405190151581526020015b60405180910390f35b6000546100c2906001600160a01b031681565b6040516001600160a01b0390911681526020016100a6565b6100ed6100e8366004610504565b61017e565b604080516001600160a01b03948516815292841660208401529216918101919091526060016100a6565b6001546100c2906001600160a01b031681565b61013d610138366004610585565b6102a6565b005b610147610476565b6040516100a69190610615565b6002546100c2906001600160a01b031681565b61017060035481565b6040519081526020016100a6565b600254600090819081906001600160a01b031633146101ee5760405162461bcd60e51b815260206004820152602160248201527f4f6e6c792063616c6c61626c65206279206761746577617920636f6e747261636044820152601d60fa1b60648201526084015b60405180910390fd5b60045460ff16156102325760405162461bcd60e51b815260206004820152600e60248201526d416c72656164792061637469766560901b60448201526064016101e5565b60035484101561027b5760405162461bcd60e51b8152602060048201526014602482015273125b9858dd1a5d9a5d1e481d1bdbc81cda1bdc9d60621b60448201526064016101e5565b50506004805460ff19166001908117909155546000546001600160a01b039182169430945091169150565b6000546001600160a01b038381169116146102f45760405162461bcd60e51b815260206004820152600e60248201526d13db9b1e481c9958da5c1a595b9d60921b60448201526064016101e5565b60045460ff166103335760405162461bcd60e51b815260206004820152600a6024820152694e6f742061637469766560b01b60448201526064016101e5565b8483146103715760405162461bcd60e51b815260206004820152600c60248201526b0aee4dedcce40d8cadccee8d60a31b60448201526064016101e5565b60005b8581101561046d5760008787838181106103905761039061066a565b90506020020160208101906103a59190610680565b905060008686848181106103bb576103bb61066a565b6001546040516323b872dd60e01b81526001600160a01b03918216600482015288821660248201526020929092029390930135604482018190529350918416916323b872dd9150606401602060405180830381600087803b15801561041f57600080fd5b505af1158015610433573d6000803e3d6000fd5b505050506040513d601f19601f8201168201806040525081019061045791906106a2565b5050508080610465906106c4565b915050610374565b50505050505050565b60058054610483906106ed565b80601f01602080910402602001604051908101604052809291908181526020018280546104af906106ed565b80156104fc5780601f106104d1576101008083540402835291602001916104fc565b820191906000526020600020905b8154815290600101906020018083116104df57829003601f168201915b505050505081565b60006020828403121561051657600080fd5b5035919050565b60008083601f84011261052f57600080fd5b50813567ffffffffffffffff81111561054757600080fd5b6020830191508360208260051b850101111561056257600080fd5b9250929050565b80356001600160a01b038116811461058057600080fd5b919050565b6000806000806000806080878903121561059e57600080fd5b863567ffffffffffffffff808211156105b657600080fd5b6105c28a838b0161051d565b909850965060208901359150808211156105db57600080fd5b506105e889828a0161051d565b90955093506105fb905060408801610569565b915061060960608801610569565b90509295509295509295565b600060208083528351808285015260005b8181101561064257858101830151858201604001528201610626565b81811115610654576000604083870101525b50601f01601f1916929092016040019392505050565b634e487b7160e01b600052603260045260246000fd5b60006020828403121561069257600080fd5b61069b82610569565b9392505050565b6000602082840312156106b457600080fd5b8151801515811461069b57600080fd5b60006000198214156106e657634e487b7160e01b600052601160045260246000fd5b5060010190565b600181811c9082168061070157607f821691505b6020821081141561072257634e487b7160e01b600052602260045260246000fd5b5091905056fea2646970667358221220ac9bdcac3d7212833e6887687fb28bd243e657ddb911303a26a8c968677447bc64736f6c63430008090033",
  "linkReferences": {},
  "deployedLinkReferences": {}
}