{
  "_format": "hh-sol-artifact-1",
  "contractName": "RecoveryContractTrustedAgents",
  "sourceName": "contracts/ethereum/RecoveryContractTrustedAgents.sol",
  "abi": [
    {
      "inputs": [
        {
          "internalType": "address",
          "name": "_recipient",
          "type": "address"
        },
        {
          "internalType": "uint256",
          "name": "_minBlocks",
          "type": "uint256"
        },
        {
          "internalType": "address",
          "name": "_gatewayContract",
          "type": "address"
        },
        {
          "internalType": "address",
          "name": "_EOA",
          "type": "address"
        },
        {
          "internalType": "string",
          "name": "_legalDocumentsHash",
          "type": "string"
        }
      ],
      "stateMutability": "nonpayable",
      "type": "constructor"
    },
    {
      "inputs": [],
      "name": "EOA",
      "outputs": [
        {
          "internalType": "address",
          "name": "",
          "type": "address"
        }
      ],
      "stateMutability": "view",
      "type": "function"
    },
    {
      "inputs": [
        {
          "internalType": "uint256",
          "name": "blocks",
          "type": "uint256"
        }
      ],
      "name": "activateRecovery",
      "outputs": [
        {
          "internalType": "address",
          "name": "",
          "type": "address"
        },
        {
          "internalType": "address",
          "name": "",
          "type": "address"
        },
        {
          "internalType": "address",
          "name": "",
          "type": "address"
        }
      ],
      "stateMutability": "nonpayable",
      "type": "function"
    },
    {
      "inputs": [
        {
          "internalType": "address[]",
          "name": "erc20contracts",
          "type": "address[]"
        },
        {
          "internalType": "uint256[]",
          "name": "amounts",
          "type": "uint256[]"
        }
      ],
      "name": "claimAssets",
      "outputs": [],
      "stateMutability": "nonpayable",
      "type": "function"
    },
    {
      "inputs": [],
      "name": "gatewayContract",
      "outputs": [
        {
          "internalType": "address",
          "name": "",
          "type": "address"
        }
      ],
      "stateMutability": "view",
      "type": "function"
    },
    {
      "inputs": [],
      "name": "isActive",
      "outputs": [
        {
          "internalType": "bool",
          "name": "",
          "type": "bool"
        }
      ],
      "stateMutability": "view",
      "type": "function"
    },
    {
      "inputs": [],
      "name": "legalDocumentsHash",
      "outputs": [
        {
          "internalType": "string",
          "name": "",
          "type": "string"
        }
      ],
      "stateMutability": "view",
      "type": "function"
    },
    {
      "inputs": [],
      "name": "minBlocks",
      "outputs": [
        {
          "internalType": "uint256",
          "name": "",
          "type": "uint256"
        }
      ],
      "stateMutability": "view",
      "type": "function"
    },
    {
      "inputs": [],
      "name": "recipient",
      "outputs": [
        {
          "internalType": "address",
          "name": "",
          "type": "address"
        }
      ],
      "stateMutability": "view",
      "type": "function"
    }
  ],
  "bytecode": "0x60806040526004805460ff191690553480156200001b57600080fd5b5060405162000a1238038062000a128339810160408190526200003e916200017a565b600080546001600160a01b038088166001600160a01b0319928316179092556001805483861690831617905560038690556002805492861692909116919091179055805162000095906005906020840190620000a1565b505050505050620002d8565b828054620000af906200029b565b90600052602060002090601f016020900481019282620000d357600085556200011e565b82601f10620000ee57805160ff19168380011785556200011e565b828001600101855582156200011e579182015b828111156200011e57825182559160200191906001019062000101565b506200012c92915062000130565b5090565b5b808211156200012c576000815560010162000131565b80516001600160a01b03811681146200015f57600080fd5b919050565b634e487b7160e01b600052604160045260246000fd5b600080600080600060a086880312156200019357600080fd5b6200019e8662000147565b94506020808701519450620001b66040880162000147565b9350620001c66060880162000147565b60808801519093506001600160401b0380821115620001e457600080fd5b818901915089601f830112620001f957600080fd5b8151818111156200020e576200020e62000164565b604051601f8201601f19908116603f0116810190838211818310171562000239576200023962000164565b816040528281528c868487010111156200025257600080fd5b600093505b8284101562000276578484018601518185018701529285019262000257565b82841115620002885760008684830101525b8096505050505050509295509295909350565b600181811c90821680620002b057607f821691505b60208210811415620002d257634e487b7160e01b600052602260045260246000fd5b50919050565b61072a80620002e86000396000f3fe608060405234801561001057600080fd5b50600436106100885760003560e01c80637dc5186f1161005b5780637dc5186f1461012c578063b294f9491461013f578063eb0cde1d14610154578063ff21d1e51461016757600080fd5b806322f3e2d41461008d57806366d003ac146100af5780636af39aa3146100da57806373ff512114610117575b600080fd5b60045461009a9060ff1681565b60405190151581526020015b60405180910390f35b6000546100c2906001600160a01b031681565b6040516001600160a01b0390911681526020016100a6565b6100ed6100e8366004610502565b61017e565b604080516001600160a01b03948516815292841660208401529216918101919091526060016100a6565b61012a610125366004610567565b6102a6565b005b6001546100c2906001600160a01b031681565b610147610474565b6040516100a691906105d3565b6002546100c2906001600160a01b031681565b61017060035481565b6040519081526020016100a6565b600254600090819081906001600160a01b031633146101ee5760405162461bcd60e51b815260206004820152602160248201527f4f6e6c792063616c6c61626c65206279206761746577617920636f6e747261636044820152601d60fa1b60648201526084015b60405180910390fd5b60045460ff16156102325760405162461bcd60e51b815260206004820152600e60248201526d416c72656164792061637469766560901b60448201526064016101e5565b60035484101561027b5760405162461bcd60e51b8152602060048201526014602482015273125b9858dd1a5d9a5d1e481d1bdbc81cda1bdc9d60621b60448201526064016101e5565b50506004805460ff19166001908117909155546000546001600160a01b039182169430945091169150565b6000546001600160a01b031633146102f15760405162461bcd60e51b815260206004820152600e60248201526d13db9b1e481c9958da5c1a595b9d60921b60448201526064016101e5565b60045460ff166103305760405162461bcd60e51b815260206004820152600a6024820152694e6f742061637469766560b01b60448201526064016101e5565b82811461036e5760405162461bcd60e51b815260206004820152600c60248201526b0aee4dedcce40d8cadccee8d60a31b60448201526064016101e5565b60005b8381101561046d57600085858381811061038d5761038d610628565b90506020020160208101906103a2919061063e565b905060008484848181106103b8576103b8610628565b6001546000546040516323b872dd60e01b81526001600160a01b03928316600482015290821660248201526020929092029390930135604482018190529350918416916323b872dd9150606401602060405180830381600087803b15801561041f57600080fd5b505af1158015610433573d6000803e3d6000fd5b505050506040513d601f19601f82011682018060405250810190610457919061066e565b505050808061046590610690565b915050610371565b5050505050565b60058054610481906106b9565b80601f01602080910402602001604051908101604052809291908181526020018280546104ad906106b9565b80156104fa5780601f106104cf576101008083540402835291602001916104fa565b820191906000526020600020905b8154815290600101906020018083116104dd57829003601f168201915b505050505081565b60006020828403121561051457600080fd5b5035919050565b60008083601f84011261052d57600080fd5b50813567ffffffffffffffff81111561054557600080fd5b6020830191508360208260051b850101111561056057600080fd5b9250929050565b6000806000806040858703121561057d57600080fd5b843567ffffffffffffffff8082111561059557600080fd5b6105a18883890161051b565b909650945060208701359150808211156105ba57600080fd5b506105c78782880161051b565b95989497509550505050565b600060208083528351808285015260005b81811015610600578581018301518582016040015282016105e4565b81811115610612576000604083870101525b50601f01601f1916929092016040019392505050565b634e487b7160e01b600052603260045260246000fd5b60006020828403121561065057600080fd5b81356001600160a01b038116811461066757600080fd5b9392505050565b60006020828403121561068057600080fd5b8151801515811461066757600080fd5b60006000198214156106b257634e487b7160e01b600052601160045260246000fd5b5060010190565b600181811c908216806106cd57607f821691505b602082108114156106ee57634e487b7160e01b600052602260045260246000fd5b5091905056fea26469706673582212201b2a6bae62620e8b129a23d87d2f7d0c12ab9f5bbc2ae4d83d0a24d5806b7c3264736f6c63430008090033",
  "linkReferences": {},
  "deployedLinkReferences": {}
}