{
  "_format": "hh-sol-artifact-1",
  "contractName": "RecoveryContractTrustedAgents",
  "sourceName": "contracts/ethereum/RecoveryContractTrustedAgents.sol",
  "abi": [
    {
      "inputs": [
        {
          "internalType": "address",
          "name": "_recipient",
          "type": "address"
        },
        {
          "internalType": "uint256",
          "name": "_minBlocks",
          "type": "uint256"
        },
        {
          "internalType": "address",
          "name": "_gatewayContract",
          "type": "address"
        },
        {
          "internalType": "address",
          "name": "_EOA",
          "type": "address"
        },
        {
          "internalType": "string",
          "name": "_legalDocumentsHash",
          "type": "string"
        }
      ],
      "stateMutability": "nonpayable",
      "type": "constructor"
    },
    {
      "anonymous": false,
      "inputs": [
        {
          "indexed": false,
          "internalType": "address",
          "name": "contractAddress",
          "type": "address"
        },
        {
          "indexed": false,
          "internalType": "address",
          "name": "recipient",
          "type": "address"
        },
        {
          "indexed": false,
          "internalType": "uint256",
          "name": "activationTime",
          "type": "uint256"
        }
      ],
      "name": "ActiveRecovery",
      "type": "event"
    },
    {
      "inputs": [],
      "name": "EOA",
      "outputs": [
        {
          "internalType": "address",
          "name": "",
          "type": "address"
        }
      ],
      "stateMutability": "view",
      "type": "function"
    },
    {
      "inputs": [
        {
          "internalType": "uint256",
          "name": "blocks",
          "type": "uint256"
        }
      ],
      "name": "activateRecovery",
      "outputs": [],
      "stateMutability": "nonpayable",
      "type": "function"
    },
    {
      "inputs": [
        {
          "internalType": "address[]",
          "name": "erc20contracts",
          "type": "address[]"
        },
        {
          "internalType": "uint256[]",
          "name": "amounts",
          "type": "uint256[]"
        },
        {
          "internalType": "address",
          "name": "caller",
          "type": "address"
        },
        {
          "internalType": "address",
          "name": "to",
          "type": "address"
        }
      ],
      "name": "claimAssets",
      "outputs": [],
      "stateMutability": "nonpayable",
      "type": "function"
    },
    {
      "inputs": [],
      "name": "gatewayContract",
      "outputs": [
        {
          "internalType": "address",
          "name": "",
          "type": "address"
        }
      ],
      "stateMutability": "view",
      "type": "function"
    },
    {
      "inputs": [],
      "name": "isActive",
      "outputs": [
        {
          "internalType": "bool",
          "name": "",
          "type": "bool"
        }
      ],
      "stateMutability": "view",
      "type": "function"
    },
    {
      "inputs": [],
      "name": "legalDocumentsHash",
      "outputs": [
        {
          "internalType": "string",
          "name": "",
          "type": "string"
        }
      ],
      "stateMutability": "view",
      "type": "function"
    },
    {
      "inputs": [],
      "name": "minBlocks",
      "outputs": [
        {
          "internalType": "uint256",
          "name": "",
          "type": "uint256"
        }
      ],
      "stateMutability": "view",
      "type": "function"
    },
    {
      "inputs": [],
      "name": "recipient",
      "outputs": [
        {
          "internalType": "address",
          "name": "",
          "type": "address"
        }
      ],
      "stateMutability": "view",
      "type": "function"
    }
  ],
  "bytecode": "0x60806040523480156200001157600080fd5b506040516200143538038062001435833981810160405281019062000037919062000419565b84848484836000806101000a81548173ffffffffffffffffffffffffffffffffffffffff021916908373ffffffffffffffffffffffffffffffffffffffff16021790555080600160006101000a81548173ffffffffffffffffffffffffffffffffffffffff021916908373ffffffffffffffffffffffffffffffffffffffff1602179055508260038190555081600260006101000a81548173ffffffffffffffffffffffffffffffffffffffff021916908373ffffffffffffffffffffffffffffffffffffffff160217905550505050508060059080519060200190620001209291906200012c565b50505050505062000525565b8280546200013a90620004ef565b90600052602060002090601f0160209004810192826200015e5760008555620001aa565b82601f106200017957805160ff1916838001178555620001aa565b82800160010185558215620001aa579182015b82811115620001a95782518255916020019190600101906200018c565b5b509050620001b99190620001bd565b5090565b5b80821115620001d8576000816000905550600101620001be565b5090565b6000604051905090565b600080fd5b600080fd5b600073ffffffffffffffffffffffffffffffffffffffff82169050919050565b60006200021d82620001f0565b9050919050565b6200022f8162000210565b81146200023b57600080fd5b50565b6000815190506200024f8162000224565b92915050565b6000819050919050565b6200026a8162000255565b81146200027657600080fd5b50565b6000815190506200028a816200025f565b92915050565b600080fd5b600080fd5b6000601f19601f8301169050919050565b7f4e487b7100000000000000000000000000000000000000000000000000000000600052604160045260246000fd5b620002e5826200029a565b810181811067ffffffffffffffff82111715620003075762000306620002ab565b5b80604052505050565b60006200031c620001dc565b90506200032a8282620002da565b919050565b600067ffffffffffffffff8211156200034d576200034c620002ab565b5b62000358826200029a565b9050602081019050919050565b60005b838110156200038557808201518184015260208101905062000368565b8381111562000395576000848401525b50505050565b6000620003b2620003ac846200032f565b62000310565b905082815260208101848484011115620003d157620003d062000295565b5b620003de84828562000365565b509392505050565b600082601f830112620003fe57620003fd62000290565b5b8151620004108482602086016200039b565b91505092915050565b600080600080600060a08688031215620004385762000437620001e6565b5b600062000448888289016200023e565b95505060206200045b8882890162000279565b94505060406200046e888289016200023e565b935050606062000481888289016200023e565b925050608086015167ffffffffffffffff811115620004a557620004a4620001eb565b5b620004b388828901620003e6565b9150509295509295909350565b7f4e487b7100000000000000000000000000000000000000000000000000000000600052602260045260246000fd5b600060028204905060018216806200050857607f821691505b602082108114156200051f576200051e620004c0565b5b50919050565b610f0080620005356000396000f3fe608060405234801561001057600080fd5b50600436106100885760003560e01c8063ae4304ef1161005b578063ae4304ef14610103578063b294f9491461011f578063eb0cde1d1461013d578063ff21d1e51461015b57610088565b806322f3e2d41461008d57806366d003ac146100ab5780636af39aa3146100c95780637dc5186f146100e5575b600080fd5b610095610179565b6040516100a29190610726565b60405180910390f35b6100b361018c565b6040516100c09190610782565b60405180910390f35b6100e360048036038101906100de91906107dd565b6101b0565b005b6100ed61034e565b6040516100fa9190610782565b60405180910390f35b61011d600480360381019061011891906108f1565b610374565b005b610127610651565b6040516101349190610a31565b60405180910390f35b6101456106df565b6040516101529190610782565b60405180910390f35b610163610705565b6040516101709190610a62565b60405180910390f35b600460009054906101000a900460ff1681565b60008054906101000a900473ffffffffffffffffffffffffffffffffffffffff1681565b600260009054906101000a900473ffffffffffffffffffffffffffffffffffffffff1673ffffffffffffffffffffffffffffffffffffffff163373ffffffffffffffffffffffffffffffffffffffff1614610240576040517f08c379a000000000000000000000000000000000000000000000000000000000815260040161023790610ac9565b60405180910390fd5b600460009054906101000a900460ff1615610290576040517f08c379a000000000000000000000000000000000000000000000000000000000815260040161028790610b35565b60405180910390fd5b6003548110156102d5576040517f08c379a00000000000000000000000000000000000000000000000000000000081526004016102cc90610ba1565b60405180910390fd5b6001600460006101000a81548160ff0219169083151502179055507f8c0f791a552520d7b652c7f008af155a562ee6e9ce409bf539fbe0c18eef91603060008054906101000a900473ffffffffffffffffffffffffffffffffffffffff164260405161034393929190610bc1565b60405180910390a150565b600160009054906101000a900473ffffffffffffffffffffffffffffffffffffffff1681565b600260009054906101000a900473ffffffffffffffffffffffffffffffffffffffff1673ffffffffffffffffffffffffffffffffffffffff163373ffffffffffffffffffffffffffffffffffffffff1614610404576040517f08c379a00000000000000000000000000000000000000000000000000000000081526004016103fb90610ac9565b60405180910390fd5b60008054906101000a900473ffffffffffffffffffffffffffffffffffffffff1673ffffffffffffffffffffffffffffffffffffffff168273ffffffffffffffffffffffffffffffffffffffff1614610492576040517f08c379a000000000000000000000000000000000000000000000000000000000815260040161048990610c44565b60405180910390fd5b600460009054906101000a900460ff166104e1576040517f08c379a00000000000000000000000000000000000000000000000000000000081526004016104d890610cb0565b60405180910390fd5b838390508686905014610529576040517f08c379a000000000000000000000000000000000000000000000000000000000815260040161052090610d1c565b60405180910390fd5b60005b8686905081101561064857600087878381811061054c5761054b610d3c565b5b90506020020160208101906105619190610d6b565b9050600086868481811061057857610577610d3c565b5b9050602002013590508173ffffffffffffffffffffffffffffffffffffffff166323b872dd600160009054906101000a900473ffffffffffffffffffffffffffffffffffffffff1686846040518463ffffffff1660e01b81526004016105e093929190610bc1565b602060405180830381600087803b1580156105fa57600080fd5b505af115801561060e573d6000803e3d6000fd5b505050506040513d601f19601f820116820180604052508101906106329190610dc4565b505050808061064090610e20565b91505061052c565b50505050505050565b6005805461065e90610e98565b80601f016020809104026020016040519081016040528092919081815260200182805461068a90610e98565b80156106d75780601f106106ac576101008083540402835291602001916106d7565b820191906000526020600020905b8154815290600101906020018083116106ba57829003601f168201915b505050505081565b600260009054906101000a900473ffffffffffffffffffffffffffffffffffffffff1681565b60035481565b60008115159050919050565b6107208161070b565b82525050565b600060208201905061073b6000830184610717565b92915050565b600073ffffffffffffffffffffffffffffffffffffffff82169050919050565b600061076c82610741565b9050919050565b61077c81610761565b82525050565b60006020820190506107976000830184610773565b92915050565b600080fd5b600080fd5b6000819050919050565b6107ba816107a7565b81146107c557600080fd5b50565b6000813590506107d7816107b1565b92915050565b6000602082840312156107f3576107f261079d565b5b6000610801848285016107c8565b91505092915050565b600080fd5b600080fd5b600080fd5b60008083601f84011261082f5761082e61080a565b5b8235905067ffffffffffffffff81111561084c5761084b61080f565b5b60208301915083602082028301111561086857610867610814565b5b9250929050565b60008083601f8401126108855761088461080a565b5b8235905067ffffffffffffffff8111156108a2576108a161080f565b5b6020830191508360208202830111156108be576108bd610814565b5b9250929050565b6108ce81610761565b81146108d957600080fd5b50565b6000813590506108eb816108c5565b92915050565b6000806000806000806080878903121561090e5761090d61079d565b5b600087013567ffffffffffffffff81111561092c5761092b6107a2565b5b61093889828a01610819565b9650965050602087013567ffffffffffffffff81111561095b5761095a6107a2565b5b61096789828a0161086f565b9450945050604061097a89828a016108dc565b925050606061098b89828a016108dc565b9150509295509295509295565b600081519050919050565b600082825260208201905092915050565b60005b838110156109d25780820151818401526020810190506109b7565b838111156109e1576000848401525b50505050565b6000601f19601f8301169050919050565b6000610a0382610998565b610a0d81856109a3565b9350610a1d8185602086016109b4565b610a26816109e7565b840191505092915050565b60006020820190508181036000830152610a4b81846109f8565b905092915050565b610a5c816107a7565b82525050565b6000602082019050610a776000830184610a53565b92915050565b7f4e6f742067617465776179000000000000000000000000000000000000000000600082015250565b6000610ab3600b836109a3565b9150610abe82610a7d565b602082019050919050565b60006020820190508181036000830152610ae281610aa6565b9050919050565b7f416c726561647920616374697665000000000000000000000000000000000000600082015250565b6000610b1f600e836109a3565b9150610b2a82610ae9565b602082019050919050565b60006020820190508181036000830152610b4e81610b12565b9050919050565b7f496e616374697669747920746f6f2073686f7274000000000000000000000000600082015250565b6000610b8b6014836109a3565b9150610b9682610b55565b602082019050919050565b60006020820190508181036000830152610bba81610b7e565b9050919050565b6000606082019050610bd66000830186610773565b610be36020830185610773565b610bf06040830184610a53565b949350505050565b7f4f6e6c7920726563697069656e74000000000000000000000000000000000000600082015250565b6000610c2e600e836109a3565b9150610c3982610bf8565b602082019050919050565b60006020820190508181036000830152610c5d81610c21565b9050919050565b7f4e6f742061637469766500000000000000000000000000000000000000000000600082015250565b6000610c9a600a836109a3565b9150610ca582610c64565b602082019050919050565b60006020820190508181036000830152610cc981610c8d565b9050919050565b7f57726f6e67206c656e6774680000000000000000000000000000000000000000600082015250565b6000610d06600c836109a3565b9150610d1182610cd0565b602082019050919050565b60006020820190508181036000830152610d3581610cf9565b9050919050565b7f4e487b7100000000000000000000000000000000000000000000000000000000600052603260045260246000fd5b600060208284031215610d8157610d8061079d565b5b6000610d8f848285016108dc565b91505092915050565b610da18161070b565b8114610dac57600080fd5b50565b600081519050610dbe81610d98565b92915050565b600060208284031215610dda57610dd961079d565b5b6000610de884828501610daf565b91505092915050565b7f4e487b7100000000000000000000000000000000000000000000000000000000600052601160045260246000fd5b6000610e2b826107a7565b91507fffffffffffffffffffffffffffffffffffffffffffffffffffffffffffffffff821415610e5e57610e5d610df1565b5b600182019050919050565b7f4e487b7100000000000000000000000000000000000000000000000000000000600052602260045260246000fd5b60006002820490506001821680610eb057607f821691505b60208210811415610ec457610ec3610e69565b5b5091905056fea2646970667358221220867aa44648e30d9bb79bddc60eb87876254a30cd4e18db21aa56a0b665cf417664736f6c63430008090033",
  "linkReferences": {},
  "deployedLinkReferences": {}
}