{
  "_format": "hh-sol-artifact-1",
  "contractName": "RecoveryContractTrustedAgents",
  "sourceName": "contracts/ethereum/RecoveryContractTrustedAgents.sol",
  "abi": [
    {
      "inputs": [
        {
          "internalType": "address",
          "name": "_recipient",
          "type": "address"
        },
        {
          "internalType": "uint256",
          "name": "_minBlocks",
          "type": "uint256"
        },
        {
          "internalType": "address",
          "name": "_gatewayContract",
          "type": "address"
        },
        {
          "internalType": "address",
          "name": "_EOA",
          "type": "address"
        },
        {
          "internalType": "string",
          "name": "_legalDocumentsHash",
          "type": "string"
        }
      ],
      "stateMutability": "nonpayable",
      "type": "constructor"
    },
    {
      "anonymous": false,
      "inputs": [
        {
          "indexed": false,
          "internalType": "address",
          "name": "contractAddress",
          "type": "address"
        },
        {
          "indexed": false,
          "internalType": "address",
          "name": "recipient",
          "type": "address"
        },
        {
          "indexed": false,
          "internalType": "uint256",
          "name": "activationTime",
          "type": "uint256"
        }
      ],
      "name": "ActiveRecovery",
      "type": "event"
    },
    {
      "inputs": [],
      "name": "EOA",
      "outputs": [
        {
          "internalType": "address",
          "name": "",
          "type": "address"
        }
      ],
      "stateMutability": "view",
      "type": "function"
    },
    {
      "inputs": [
        {
          "internalType": "uint256",
          "name": "blocks",
          "type": "uint256"
        }
      ],
      "name": "activateRecovery",
      "outputs": [],
      "stateMutability": "nonpayable",
      "type": "function"
    },
    {
      "inputs": [
        {
          "internalType": "address[]",
          "name": "erc20contracts",
          "type": "address[]"
        },
        {
          "internalType": "address",
          "name": "caller",
          "type": "address"
        },
        {
          "internalType": "address",
          "name": "to",
          "type": "address"
        }
      ],
      "name": "claimAssets",
      "outputs": [],
      "stateMutability": "nonpayable",
      "type": "function"
    },
    {
      "inputs": [],
      "name": "gatewayContract",
      "outputs": [
        {
          "internalType": "address",
          "name": "",
          "type": "address"
        }
      ],
      "stateMutability": "view",
      "type": "function"
    },
    {
      "inputs": [],
      "name": "isActive",
      "outputs": [
        {
          "internalType": "bool",
          "name": "",
          "type": "bool"
        }
      ],
      "stateMutability": "view",
      "type": "function"
    },
    {
      "inputs": [],
      "name": "isTerminated",
      "outputs": [
        {
          "internalType": "bool",
          "name": "",
          "type": "bool"
        }
      ],
      "stateMutability": "view",
      "type": "function"
    },
    {
      "inputs": [],
      "name": "legalDocumentsHash",
      "outputs": [
        {
          "internalType": "string",
          "name": "",
          "type": "string"
        }
      ],
      "stateMutability": "view",
      "type": "function"
    },
    {
      "inputs": [],
      "name": "minBlocks",
      "outputs": [
        {
          "internalType": "uint256",
          "name": "",
          "type": "uint256"
        }
      ],
      "stateMutability": "view",
      "type": "function"
    },
    {
      "inputs": [],
      "name": "recipient",
      "outputs": [
        {
          "internalType": "address",
          "name": "",
          "type": "address"
        }
      ],
      "stateMutability": "view",
      "type": "function"
    },
    {
      "inputs": [],
      "name": "terminateRecoveryContract",
      "outputs": [],
      "stateMutability": "nonpayable",
      "type": "function"
    }
  ],
  "bytecode": "0x60806040523480156200001157600080fd5b506040516200160838038062001608833981810160405281019062000037919062000419565b84848484836000806101000a81548173ffffffffffffffffffffffffffffffffffffffff021916908373ffffffffffffffffffffffffffffffffffffffff16021790555080600160006101000a81548173ffffffffffffffffffffffffffffffffffffffff021916908373ffffffffffffffffffffffffffffffffffffffff1602179055508260038190555081600260006101000a81548173ffffffffffffffffffffffffffffffffffffffff021916908373ffffffffffffffffffffffffffffffffffffffff160217905550505050508060059080519060200190620001209291906200012c565b50505050505062000525565b8280546200013a90620004ef565b90600052602060002090601f0160209004810192826200015e5760008555620001aa565b82601f106200017957805160ff1916838001178555620001aa565b82800160010185558215620001aa579182015b82811115620001a95782518255916020019190600101906200018c565b5b509050620001b99190620001bd565b5090565b5b80821115620001d8576000816000905550600101620001be565b5090565b6000604051905090565b600080fd5b600080fd5b600073ffffffffffffffffffffffffffffffffffffffff82169050919050565b60006200021d82620001f0565b9050919050565b6200022f8162000210565b81146200023b57600080fd5b50565b6000815190506200024f8162000224565b92915050565b6000819050919050565b6200026a8162000255565b81146200027657600080fd5b50565b6000815190506200028a816200025f565b92915050565b600080fd5b600080fd5b6000601f19601f8301169050919050565b7f4e487b7100000000000000000000000000000000000000000000000000000000600052604160045260246000fd5b620002e5826200029a565b810181811067ffffffffffffffff82111715620003075762000306620002ab565b5b80604052505050565b60006200031c620001dc565b90506200032a8282620002da565b919050565b600067ffffffffffffffff8211156200034d576200034c620002ab565b5b62000358826200029a565b9050602081019050919050565b60005b838110156200038557808201518184015260208101905062000368565b8381111562000395576000848401525b50505050565b6000620003b2620003ac846200032f565b62000310565b905082815260208101848484011115620003d157620003d062000295565b5b620003de84828562000365565b509392505050565b600082601f830112620003fe57620003fd62000290565b5b8151620004108482602086016200039b565b91505092915050565b600080600080600060a08688031215620004385762000437620001e6565b5b600062000448888289016200023e565b95505060206200045b8882890162000279565b94505060406200046e888289016200023e565b935050606062000481888289016200023e565b925050608086015167ffffffffffffffff811115620004a557620004a4620001eb565b5b620004b388828901620003e6565b9150509295509295909350565b7f4e487b7100000000000000000000000000000000000000000000000000000000600052602260045260246000fd5b600060028204905060018216806200050857607f821691505b602082108114156200051f576200051e620004c0565b5b50919050565b6110d380620005356000396000f3fe608060405234801561001057600080fd5b506004361061009e5760003560e01c8063b294f94911610066578063b294f94914610135578063d1cc997614610153578063e524979c14610171578063eb0cde1d1461017b578063ff21d1e5146101995761009e565b806322f3e2d4146100a357806366d003ac146100c15780636af39aa3146100df5780637dc5186f146100fb578063a31fca3014610119575b600080fd5b6100ab6101b7565b6040516100b89190610917565b60405180910390f35b6100c96101ca565b6040516100d69190610973565b60405180910390f35b6100f960048036038101906100f491906109ce565b6101ee565b005b6101036103dc565b6040516101109190610973565b60405180910390f35b610133600480360381019061012e9190610a8c565b610402565b005b61013d610782565b60405161014a9190610b99565b60405180910390f35b61015b610810565b6040516101689190610917565b60405180910390f35b610179610823565b005b6101836108d0565b6040516101909190610973565b60405180910390f35b6101a16108f6565b6040516101ae9190610bca565b60405180910390f35b600460009054906101000a900460ff1681565b60008054906101000a900473ffffffffffffffffffffffffffffffffffffffff1681565b600260009054906101000a900473ffffffffffffffffffffffffffffffffffffffff1673ffffffffffffffffffffffffffffffffffffffff163373ffffffffffffffffffffffffffffffffffffffff161461027e576040517f08c379a000000000000000000000000000000000000000000000000000000000815260040161027590610c31565b60405180910390fd5b600460009054906101000a900460ff16156102ce576040517f08c379a00000000000000000000000000000000000000000000000000000000081526004016102c590610c9d565b60405180910390fd5b600460019054906101000a900460ff161561031e576040517f08c379a000000000000000000000000000000000000000000000000000000000815260040161031590610d09565b60405180910390fd5b600354811015610363576040517f08c379a000000000000000000000000000000000000000000000000000000000815260040161035a90610d75565b60405180910390fd5b6001600460006101000a81548160ff0219169083151502179055507f8c0f791a552520d7b652c7f008af155a562ee6e9ce409bf539fbe0c18eef91603060008054906101000a900473ffffffffffffffffffffffffffffffffffffffff16426040516103d193929190610d95565b60405180910390a150565b600160009054906101000a900473ffffffffffffffffffffffffffffffffffffffff1681565b600260009054906101000a900473ffffffffffffffffffffffffffffffffffffffff1673ffffffffffffffffffffffffffffffffffffffff163373ffffffffffffffffffffffffffffffffffffffff1614610492576040517f08c379a000000000000000000000000000000000000000000000000000000000815260040161048990610c31565b60405180910390fd5b60008054906101000a900473ffffffffffffffffffffffffffffffffffffffff1673ffffffffffffffffffffffffffffffffffffffff168273ffffffffffffffffffffffffffffffffffffffff1614610520576040517f08c379a000000000000000000000000000000000000000000000000000000000815260040161051790610e18565b60405180910390fd5b600460009054906101000a900460ff1661056f576040517f08c379a000000000000000000000000000000000000000000000000000000000815260040161056690610e84565b60405180910390fd5b600460019054906101000a900460ff16156105bf576040517f08c379a00000000000000000000000000000000000000000000000000000000081526004016105b690610d09565b60405180910390fd5b60005b8484905081101561077b5760008585838181106105e2576105e1610ea4565b5b90506020020160208101906105f79190610ed3565b905060008173ffffffffffffffffffffffffffffffffffffffff1663dd62ed3e600160009054906101000a900473ffffffffffffffffffffffffffffffffffffffff16306040518363ffffffff1660e01b8152600401610658929190610f00565b60206040518083038186803b15801561067057600080fd5b505afa158015610684573d6000803e3d6000fd5b505050506040513d601f19601f820116820180604052508101906106a89190610f3e565b90506000811115610766578173ffffffffffffffffffffffffffffffffffffffff166323b872dd600160009054906101000a900473ffffffffffffffffffffffffffffffffffffffff1686846040518463ffffffff1660e01b815260040161071293929190610d95565b602060405180830381600087803b15801561072c57600080fd5b505af1158015610740573d6000803e3d6000fd5b505050506040513d601f19601f820116820180604052508101906107649190610f97565b505b5050808061077390610ff3565b9150506105c2565b5050505050565b6005805461078f9061106b565b80601f01602080910402602001604051908101604052809291908181526020018280546107bb9061106b565b80156108085780601f106107dd57610100808354040283529160200191610808565b820191906000526020600020905b8154815290600101906020018083116107eb57829003601f168201915b505050505081565b600460019054906101000a900460ff1681565b600260009054906101000a900473ffffffffffffffffffffffffffffffffffffffff1673ffffffffffffffffffffffffffffffffffffffff163373ffffffffffffffffffffffffffffffffffffffff16146108b3576040517f08c379a00000000000000000000000000000000000000000000000000000000081526004016108aa90610c31565b60405180910390fd5b6001600460016101000a81548160ff021916908315150217905550565b600260009054906101000a900473ffffffffffffffffffffffffffffffffffffffff1681565b60035481565b60008115159050919050565b610911816108fc565b82525050565b600060208201905061092c6000830184610908565b92915050565b600073ffffffffffffffffffffffffffffffffffffffff82169050919050565b600061095d82610932565b9050919050565b61096d81610952565b82525050565b60006020820190506109886000830184610964565b92915050565b600080fd5b600080fd5b6000819050919050565b6109ab81610998565b81146109b657600080fd5b50565b6000813590506109c8816109a2565b92915050565b6000602082840312156109e4576109e361098e565b5b60006109f2848285016109b9565b91505092915050565b600080fd5b600080fd5b600080fd5b60008083601f840112610a2057610a1f6109fb565b5b8235905067ffffffffffffffff811115610a3d57610a3c610a00565b5b602083019150836020820283011115610a5957610a58610a05565b5b9250929050565b610a6981610952565b8114610a7457600080fd5b50565b600081359050610a8681610a60565b92915050565b60008060008060608587031215610aa657610aa561098e565b5b600085013567ffffffffffffffff811115610ac457610ac3610993565b5b610ad087828801610a0a565b94509450506020610ae387828801610a77565b9250506040610af487828801610a77565b91505092959194509250565b600081519050919050565b600082825260208201905092915050565b60005b83811015610b3a578082015181840152602081019050610b1f565b83811115610b49576000848401525b50505050565b6000601f19601f8301169050919050565b6000610b6b82610b00565b610b758185610b0b565b9350610b85818560208601610b1c565b610b8e81610b4f565b840191505092915050565b60006020820190508181036000830152610bb38184610b60565b905092915050565b610bc481610998565b82525050565b6000602082019050610bdf6000830184610bbb565b92915050565b7f4e6f742067617465776179000000000000000000000000000000000000000000600082015250565b6000610c1b600b83610b0b565b9150610c2682610be5565b602082019050919050565b60006020820190508181036000830152610c4a81610c0e565b9050919050565b7f416c726561647920616374697665000000000000000000000000000000000000600082015250565b6000610c87600e83610b0b565b9150610c9282610c51565b602082019050919050565b60006020820190508181036000830152610cb681610c7a565b9050919050565b7f416c7265616479207465726d696e617465640000000000000000000000000000600082015250565b6000610cf3601283610b0b565b9150610cfe82610cbd565b602082019050919050565b60006020820190508181036000830152610d2281610ce6565b9050919050565b7f496e616374697669747920746f6f2073686f7274000000000000000000000000600082015250565b6000610d5f601483610b0b565b9150610d6a82610d29565b602082019050919050565b60006020820190508181036000830152610d8e81610d52565b9050919050565b6000606082019050610daa6000830186610964565b610db76020830185610964565b610dc46040830184610bbb565b949350505050565b7f4f6e6c7920726563697069656e74000000000000000000000000000000000000600082015250565b6000610e02600e83610b0b565b9150610e0d82610dcc565b602082019050919050565b60006020820190508181036000830152610e3181610df5565b9050919050565b7f4e6f742061637469766500000000000000000000000000000000000000000000600082015250565b6000610e6e600a83610b0b565b9150610e7982610e38565b602082019050919050565b60006020820190508181036000830152610e9d81610e61565b9050919050565b7f4e487b7100000000000000000000000000000000000000000000000000000000600052603260045260246000fd5b600060208284031215610ee957610ee861098e565b5b6000610ef784828501610a77565b91505092915050565b6000604082019050610f156000830185610964565b610f226020830184610964565b9392505050565b600081519050610f38816109a2565b92915050565b600060208284031215610f5457610f5361098e565b5b6000610f6284828501610f29565b91505092915050565b610f74816108fc565b8114610f7f57600080fd5b50565b600081519050610f9181610f6b565b92915050565b600060208284031215610fad57610fac61098e565b5b6000610fbb84828501610f82565b91505092915050565b7f4e487b7100000000000000000000000000000000000000000000000000000000600052601160045260246000fd5b6000610ffe82610998565b91507fffffffffffffffffffffffffffffffffffffffffffffffffffffffffffffffff82141561103157611030610fc4565b5b600182019050919050565b7f4e487b7100000000000000000000000000000000000000000000000000000000600052602260045260246000fd5b6000600282049050600182168061108357607f821691505b602082108114156110975761109661103c565b5b5091905056fea26469706673582212207cd7158ee0a3d1a13cff74411576b66e89c2274bd0e45d5923b4014f08c7074c64736f6c63430008090033",
  "linkReferences": {},
  "deployedLinkReferences": {}
}