{
  "_format": "hh-sol-artifact-1",
  "contractName": "RecoveryContractTrustedAgents",
  "sourceName": "contracts/ethereum/RecoveryContractTrustedAgents.sol",
  "abi": [
    {
      "inputs": [
        {
          "internalType": "address",
          "name": "_recipient",
          "type": "address"
        },
        {
          "internalType": "uint256",
          "name": "_minBlocks",
          "type": "uint256"
        },
        {
          "internalType": "address",
          "name": "_gatewayContract",
          "type": "address"
        },
        {
          "internalType": "address",
          "name": "_EOA",
          "type": "address"
        },
        {
          "internalType": "string",
          "name": "_legalDocumentsHash",
          "type": "string"
        }
      ],
      "stateMutability": "nonpayable",
      "type": "constructor"
    },
    {
      "anonymous": false,
      "inputs": [
        {
          "indexed": false,
          "internalType": "address",
          "name": "contractAddress",
          "type": "address"
        },
        {
          "indexed": false,
          "internalType": "address",
          "name": "recipient",
          "type": "address"
        },
        {
          "indexed": false,
          "internalType": "uint256",
          "name": "activationTime",
          "type": "uint256"
        }
      ],
      "name": "ActiveRecovery",
      "type": "event"
    },
    {
      "inputs": [],
      "name": "EOA",
      "outputs": [
        {
          "internalType": "address",
          "name": "",
          "type": "address"
        }
      ],
      "stateMutability": "view",
      "type": "function"
    },
    {
      "inputs": [
        {
          "internalType": "uint256",
          "name": "blocks",
          "type": "uint256"
        }
      ],
      "name": "activateRecovery",
      "outputs": [],
      "stateMutability": "nonpayable",
      "type": "function"
    },
    {
      "inputs": [
        {
          "internalType": "address[]",
          "name": "erc20contracts",
          "type": "address[]"
        },
        {
          "internalType": "address",
          "name": "caller",
          "type": "address"
        },
        {
          "internalType": "address",
          "name": "to",
          "type": "address"
        }
      ],
      "name": "claimAssets",
      "outputs": [],
      "stateMutability": "nonpayable",
      "type": "function"
    },
    {
      "inputs": [],
      "name": "gatewayContract",
      "outputs": [
        {
          "internalType": "address",
          "name": "",
          "type": "address"
        }
      ],
      "stateMutability": "view",
      "type": "function"
    },
    {
      "inputs": [],
      "name": "isActive",
      "outputs": [
        {
          "internalType": "bool",
          "name": "",
          "type": "bool"
        }
      ],
      "stateMutability": "view",
      "type": "function"
    },
    {
      "inputs": [],
      "name": "legalDocumentsHash",
      "outputs": [
        {
          "internalType": "string",
          "name": "",
          "type": "string"
        }
      ],
      "stateMutability": "view",
      "type": "function"
    },
    {
      "inputs": [],
      "name": "minBlocks",
      "outputs": [
        {
          "internalType": "uint256",
          "name": "",
          "type": "uint256"
        }
      ],
      "stateMutability": "view",
      "type": "function"
    },
    {
      "inputs": [],
      "name": "recipient",
      "outputs": [
        {
          "internalType": "address",
          "name": "",
          "type": "address"
        }
      ],
      "stateMutability": "view",
      "type": "function"
    }
  ],
  "bytecode": "0x60806040523480156200001157600080fd5b50604051620013fe380380620013fe833981810160405281019062000037919062000419565b84848484836000806101000a81548173ffffffffffffffffffffffffffffffffffffffff021916908373ffffffffffffffffffffffffffffffffffffffff16021790555080600160006101000a81548173ffffffffffffffffffffffffffffffffffffffff021916908373ffffffffffffffffffffffffffffffffffffffff1602179055508260038190555081600260006101000a81548173ffffffffffffffffffffffffffffffffffffffff021916908373ffffffffffffffffffffffffffffffffffffffff160217905550505050508060059080519060200190620001209291906200012c565b50505050505062000525565b8280546200013a90620004ef565b90600052602060002090601f0160209004810192826200015e5760008555620001aa565b82601f106200017957805160ff1916838001178555620001aa565b82800160010185558215620001aa579182015b82811115620001a95782518255916020019190600101906200018c565b5b509050620001b99190620001bd565b5090565b5b80821115620001d8576000816000905550600101620001be565b5090565b6000604051905090565b600080fd5b600080fd5b600073ffffffffffffffffffffffffffffffffffffffff82169050919050565b60006200021d82620001f0565b9050919050565b6200022f8162000210565b81146200023b57600080fd5b50565b6000815190506200024f8162000224565b92915050565b6000819050919050565b6200026a8162000255565b81146200027657600080fd5b50565b6000815190506200028a816200025f565b92915050565b600080fd5b600080fd5b6000601f19601f8301169050919050565b7f4e487b7100000000000000000000000000000000000000000000000000000000600052604160045260246000fd5b620002e5826200029a565b810181811067ffffffffffffffff82111715620003075762000306620002ab565b5b80604052505050565b60006200031c620001dc565b90506200032a8282620002da565b919050565b600067ffffffffffffffff8211156200034d576200034c620002ab565b5b62000358826200029a565b9050602081019050919050565b60005b838110156200038557808201518184015260208101905062000368565b8381111562000395576000848401525b50505050565b6000620003b2620003ac846200032f565b62000310565b905082815260208101848484011115620003d157620003d062000295565b5b620003de84828562000365565b509392505050565b600082601f830112620003fe57620003fd62000290565b5b8151620004108482602086016200039b565b91505092915050565b600080600080600060a08688031215620004385762000437620001e6565b5b600062000448888289016200023e565b95505060206200045b8882890162000279565b94505060406200046e888289016200023e565b935050606062000481888289016200023e565b925050608086015167ffffffffffffffff811115620004a557620004a4620001eb565b5b620004b388828901620003e6565b9150509295509295909350565b7f4e487b7100000000000000000000000000000000000000000000000000000000600052602260045260246000fd5b600060028204905060018216806200050857607f821691505b602082108114156200051f576200051e620004c0565b5b50919050565b610ec980620005356000396000f3fe608060405234801561001057600080fd5b50600436106100885760003560e01c8063a31fca301161005b578063a31fca3014610103578063b294f9491461011f578063eb0cde1d1461013d578063ff21d1e51461015b57610088565b806322f3e2d41461008d57806366d003ac146100ab5780636af39aa3146100c95780637dc5186f146100e5575b600080fd5b610095610179565b6040516100a29190610779565b60405180910390f35b6100b361018c565b6040516100c091906107d5565b60405180910390f35b6100e360048036038101906100de9190610830565b6101b0565b005b6100ed61034e565b6040516100fa91906107d5565b60405180910390f35b61011d600480360381019061011891906108ee565b610374565b005b6101276106a4565b60405161013491906109fb565b60405180910390f35b610145610732565b60405161015291906107d5565b60405180910390f35b610163610758565b6040516101709190610a2c565b60405180910390f35b600460009054906101000a900460ff1681565b60008054906101000a900473ffffffffffffffffffffffffffffffffffffffff1681565b600260009054906101000a900473ffffffffffffffffffffffffffffffffffffffff1673ffffffffffffffffffffffffffffffffffffffff163373ffffffffffffffffffffffffffffffffffffffff1614610240576040517f08c379a000000000000000000000000000000000000000000000000000000000815260040161023790610a93565b60405180910390fd5b600460009054906101000a900460ff1615610290576040517f08c379a000000000000000000000000000000000000000000000000000000000815260040161028790610aff565b60405180910390fd5b6003548110156102d5576040517f08c379a00000000000000000000000000000000000000000000000000000000081526004016102cc90610b6b565b60405180910390fd5b6001600460006101000a81548160ff0219169083151502179055507f8c0f791a552520d7b652c7f008af155a562ee6e9ce409bf539fbe0c18eef91603060008054906101000a900473ffffffffffffffffffffffffffffffffffffffff164260405161034393929190610b8b565b60405180910390a150565b600160009054906101000a900473ffffffffffffffffffffffffffffffffffffffff1681565b600260009054906101000a900473ffffffffffffffffffffffffffffffffffffffff1673ffffffffffffffffffffffffffffffffffffffff163373ffffffffffffffffffffffffffffffffffffffff1614610404576040517f08c379a00000000000000000000000000000000000000000000000000000000081526004016103fb90610a93565b60405180910390fd5b60008054906101000a900473ffffffffffffffffffffffffffffffffffffffff1673ffffffffffffffffffffffffffffffffffffffff168273ffffffffffffffffffffffffffffffffffffffff1614610492576040517f08c379a000000000000000000000000000000000000000000000000000000000815260040161048990610c0e565b60405180910390fd5b600460009054906101000a900460ff166104e1576040517f08c379a00000000000000000000000000000000000000000000000000000000081526004016104d890610c7a565b60405180910390fd5b60005b8484905081101561069d57600085858381811061050457610503610c9a565b5b90506020020160208101906105199190610cc9565b905060008173ffffffffffffffffffffffffffffffffffffffff1663dd62ed3e600160009054906101000a900473ffffffffffffffffffffffffffffffffffffffff16306040518363ffffffff1660e01b815260040161057a929190610cf6565b60206040518083038186803b15801561059257600080fd5b505afa1580156105a6573d6000803e3d6000fd5b505050506040513d601f19601f820116820180604052508101906105ca9190610d34565b90506000811115610688578173ffffffffffffffffffffffffffffffffffffffff166323b872dd600160009054906101000a900473ffffffffffffffffffffffffffffffffffffffff1686846040518463ffffffff1660e01b815260040161063493929190610b8b565b602060405180830381600087803b15801561064e57600080fd5b505af1158015610662573d6000803e3d6000fd5b505050506040513d601f19601f820116820180604052508101906106869190610d8d565b505b5050808061069590610de9565b9150506104e4565b5050505050565b600580546106b190610e61565b80601f01602080910402602001604051908101604052809291908181526020018280546106dd90610e61565b801561072a5780601f106106ff5761010080835404028352916020019161072a565b820191906000526020600020905b81548152906001019060200180831161070d57829003601f168201915b505050505081565b600260009054906101000a900473ffffffffffffffffffffffffffffffffffffffff1681565b60035481565b60008115159050919050565b6107738161075e565b82525050565b600060208201905061078e600083018461076a565b92915050565b600073ffffffffffffffffffffffffffffffffffffffff82169050919050565b60006107bf82610794565b9050919050565b6107cf816107b4565b82525050565b60006020820190506107ea60008301846107c6565b92915050565b600080fd5b600080fd5b6000819050919050565b61080d816107fa565b811461081857600080fd5b50565b60008135905061082a81610804565b92915050565b600060208284031215610846576108456107f0565b5b60006108548482850161081b565b91505092915050565b600080fd5b600080fd5b600080fd5b60008083601f8401126108825761088161085d565b5b8235905067ffffffffffffffff81111561089f5761089e610862565b5b6020830191508360208202830111156108bb576108ba610867565b5b9250929050565b6108cb816107b4565b81146108d657600080fd5b50565b6000813590506108e8816108c2565b92915050565b60008060008060608587031215610908576109076107f0565b5b600085013567ffffffffffffffff811115610926576109256107f5565b5b6109328782880161086c565b94509450506020610945878288016108d9565b9250506040610956878288016108d9565b91505092959194509250565b600081519050919050565b600082825260208201905092915050565b60005b8381101561099c578082015181840152602081019050610981565b838111156109ab576000848401525b50505050565b6000601f19601f8301169050919050565b60006109cd82610962565b6109d7818561096d565b93506109e781856020860161097e565b6109f0816109b1565b840191505092915050565b60006020820190508181036000830152610a1581846109c2565b905092915050565b610a26816107fa565b82525050565b6000602082019050610a416000830184610a1d565b92915050565b7f4e6f742067617465776179000000000000000000000000000000000000000000600082015250565b6000610a7d600b8361096d565b9150610a8882610a47565b602082019050919050565b60006020820190508181036000830152610aac81610a70565b9050919050565b7f416c726561647920616374697665000000000000000000000000000000000000600082015250565b6000610ae9600e8361096d565b9150610af482610ab3565b602082019050919050565b60006020820190508181036000830152610b1881610adc565b9050919050565b7f496e616374697669747920746f6f2073686f7274000000000000000000000000600082015250565b6000610b5560148361096d565b9150610b6082610b1f565b602082019050919050565b60006020820190508181036000830152610b8481610b48565b9050919050565b6000606082019050610ba060008301866107c6565b610bad60208301856107c6565b610bba6040830184610a1d565b949350505050565b7f4f6e6c7920726563697069656e74000000000000000000000000000000000000600082015250565b6000610bf8600e8361096d565b9150610c0382610bc2565b602082019050919050565b60006020820190508181036000830152610c2781610beb565b9050919050565b7f4e6f742061637469766500000000000000000000000000000000000000000000600082015250565b6000610c64600a8361096d565b9150610c6f82610c2e565b602082019050919050565b60006020820190508181036000830152610c9381610c57565b9050919050565b7f4e487b7100000000000000000000000000000000000000000000000000000000600052603260045260246000fd5b600060208284031215610cdf57610cde6107f0565b5b6000610ced848285016108d9565b91505092915050565b6000604082019050610d0b60008301856107c6565b610d1860208301846107c6565b9392505050565b600081519050610d2e81610804565b92915050565b600060208284031215610d4a57610d496107f0565b5b6000610d5884828501610d1f565b91505092915050565b610d6a8161075e565b8114610d7557600080fd5b50565b600081519050610d8781610d61565b92915050565b600060208284031215610da357610da26107f0565b5b6000610db184828501610d78565b91505092915050565b7f4e487b7100000000000000000000000000000000000000000000000000000000600052601160045260246000fd5b6000610df4826107fa565b91507fffffffffffffffffffffffffffffffffffffffffffffffffffffffffffffffff821415610e2757610e26610dba565b5b600182019050919050565b7f4e487b7100000000000000000000000000000000000000000000000000000000600052602260045260246000fd5b60006002820490506001821680610e7957607f821691505b60208210811415610e8d57610e8c610e32565b5b5091905056fea26469706673582212207284c247d73df52a53972010dd49251a62996ad3df34e6b12ac8f1ee343f6d4864736f6c63430008090033",
  "linkReferences": {},
  "deployedLinkReferences": {}
}